:020000040000FA
:100000000C9458010C9489010C9489010C94890179
:100010000C9489010C9489010C9489010C94890138
:100020000C9489010C9489010C9489010C94890128
:100030000C9489010C9489010C9489010C94890118
:100040000C9489010C94EA0F0C9489010C94890199
:100050000C9489010C9489010C9489010C94A00FD3
:100060000C9489010C946A0F0C94400F0C94890134
:100070000C9489010C9489010C9489010C948901D8
:100080000C9489010C9489010C9489010C948901C8
:100090000C940A0F0C94E00E0C9489010C948901C5
:1000A0000C9489010C9489010C9489010C948901A8
:1000B0000C9489010C9489010C9489010C94890198
:1000C0000C9489010C9489010C9489010C94890188
:1000D0000C9489010C9489010C9489010C94890178
:1000E0000C94890105A84CCDB2D44EB93836A9027A
:1000F0000C50B9918688083CA6AAAA2ABE00000026
:10010000803F0C948A030C9482020C9478030C9424
:1001100063030C94A2030C94CF020C9482030C94FE
:100120009E030C9472030C9498030C9494030C9407
:1001300040020C9451030C94E2010C941E020C94A6
:1001400067030C94A5270C946B030C940F020C947A
:100150006F030C944C030C9432020C9490030C9497
:100160007C030C9486030C9469104E414E494E4911
:100170005459494E46CDCCCC3D0AD7233C17B7D174
:100180003877CC2B329595E6241FB14F0A0000201A
:10019000410000C84200401C4620BCBE4CCA1B0E99
:1001A0005AAEC59D7400002100240027002A002DAE
:1001B000003000330001010000040107010A0100C2
:1001C000000A0B02090C0D0E0807030401000000D1
:1001D000000000000000000000000000000000001F
:1001E00000000000000000000000001211100000DC
:1001F00000000000000000000000000000000000FF
:10020000000000000001021020200808102040100B
:1002100020408002010201080402010102040810CA
:1002200020408080402010080402018004020180E8
:100230004020100804020108040201010204081011
:100240002040800102040810204080000022002588
:100250000028002B002E00310034000201000005B0
:100260000108010B01050505050705080808080236
:100270000202020A0A08080404040401010101013F
:100280000101010303030303030303040707070C2E
:100290000C0C0C0C0C0C0C020202020606060606E4
:1002A0000606060B0B0B0B0B0B0B0B006910A5279F
:1002B00011241FBECFEFD1E2DEBFCDBF00E00CBFE7
:1002C00012E0A0E0B2E0E0E3FFE500E00BBF02C017
:1002D00007900D92A03FB107D9F726E0A0EFB2E05A
:1002E00001C01D92AA35B207E1F711E0C7E5D1E0E0
:1002F00000E006C021970109802FFE010E946A2EAE
:10030000C635D10780E00807A9F70E949B110C941D
:10031000862F0C94000080919403882359F0E0917B
:1003200093039FEF980F90939403E81BF0E0EB5634
:10033000FC4F82810895E0912806F09129068E17DE
:100340009F0798F530912E06332361F0639FB0012B
:100350001124672F349FA0011124452F329F900153
:100360001124232F30913406E0912F06F0913006AE
:100370005091310635131AC0DC01AA0FBB1F8A0F3A
:100380009B1F8E0F9F1FE0913106E80FF92FF11D83
:100390006083E0913206E80FF92FF11D4083309120
:1003A0003306830F911DFC0120830895880F991F48
:1003B000880F991F8E0F9F1FFC01E30FF11D108204
:1003C000E2CF0895AF92BF92CF92DF92EF92FF9269
:1003D0000F931F93CF93DF936C017B018B01040F6D
:1003E000151FEB015E01AE18BF08C017D10759F009
:1003F0006991D601ED91FC910190F081E02DC6014B
:100400001995892B79F7C501DF91CF911F910F9134
:10041000FF90EF90DF90CF90BF90AF900895FC01D8
:10042000538D448D252F30E0842F90E0821B930B59
:10043000541710F0CF96089501970895FC01918DFF
:10044000828D981761F0A28DAE0FBF2FB11D5D9602
:100450008C91928D9F5F9F73928F90E008958FEFA4
:100460009FEF0895FC01918D828D981731F0828D58
:10047000E80FF11D858D90E008958FEF9FEF0895AF
:10048000FC01918D228D892F90E0805C9F4F821B13
:1004900091098F739927089586E594E00E944002A0
:1004A00021E0892B09F420E0822F089589EB93E065
:1004B0000E94400221E0892B09F420E0822F089558
:1004C000FC01A48DA80FB92FB11DA35ABF4F2C91C9
:1004D000848D90E001968F739927848FA689B789C0
:1004E0002C93A089B1898C91837080648C93938DB7
:1004F000848D981306C00288F389E02D80818F7D5A
:1005000080830895EF92FF920F931F93CF93DF9311
:10051000EC0181E0888F9B8D8C8D98131AC0E8893F
:10052000F989808185FF15C09FB7F894EE89FF890E
:100530006083E889F98980818370806480839FBFAC
:1005400081E090E0DF91CF911F910F91FF90EF90AC
:100550000895F62E0B8D10E00F5F1F4F0F731127BC
:10056000E02E8C8D8E110CC00FB607FCFACFE889F7
:10057000F989808185FFF5CFCE010E946002F1CF1D
:10058000EB8DEC0FFD2FF11DE35AFF4FF0829FB76B
:10059000F8940B8FEA89FB8980818062CFCFCF935B
:1005A000DF93EC01888D8823B9F0AA89BB89E8899B
:1005B000F9898C9185FD03C0808186FD0DC00FB641
:1005C00007FCF7CF8C9185FFF2CF808185FFEDCFBF
:1005D000CE010E946002E9CFDF91CF91089580E0C3
:1005E00090E0892B29F00E94560281110E940000A0
:1005F00080E090E0892B29F00E944C0281110E943A
:10060000000080E090E0892B49F080E090E0892BA9
:1006100029F00E94000081110E94000080E090E01B
:10062000892B49F080E090E0892B29F00E9400009E
:1006300081110C9400000895282F30E0F901E15455
:10064000FE4F9491F901EB5FFD4F44912B593D4FC3
:10065000F9012491222309F435C0992311F1915015
:100660009231F8F4E92FF0E08827E65CFC4F8F4FD9
:100670000C946A2E6B036F034C03630367035103EF
:10068000720378037C03820386038A039003940336
:10069000510398039E03A203809180008F7780937B
:1006A0008000E22FF0E0EE0FFF1FE55BFD4FA5910C
:1006B000B4918FB7F894EC91611148C040954E23E6
:1006C0004C938FBF0895809180008F7DE8CF8091FB
:1006D0008000877FE4CF84B58F7784BDE2CF84B577
:1006E0008F7DFBCF8091B0008F778093B000D9CF02
:1006F0008091B0008F7DF9CF809190008F778093AB
:100700009000CFCF809190008F7DF9CF80919000A5
:10071000877FF5CF8091A0008F778093A000C1CF15
:100720008091A0008F7DF9CF8091A000877FF5CFC9
:10073000809120018F7780932001B3CF8091200199
:100740008F7DF9CF80912001877FF5CF4E2BB8CFD9
:10075000CF93DF9390E0FC01EB5FFD4F24918B5929
:100760009D4FFC0184918823D1F090E0880F991F60
:10077000FC01EB55FE4FA591B491FC01E55BFD4FEB
:10078000C591D49161110EC09FB7F8948C91E22F5E
:10079000E0958E238C932881E223E8839FBFDF912D
:1007A000CF9108958FB7F894EC91E22BEC938FBF23
:1007B000F6CF3FB7F8948091040390910503A09180
:1007C0000603B091070326B5A89B05C02F3F19F07B
:1007D0000196A11DB11D3FBFBA2FA92F982F8827C1
:1007E000BC01CD01620F711D811D911D42E0660F9C
:1007F000771F881F991F4A95D1F70895CF92DF92EE
:10080000EF92FF920F931F93CF93DF9300D000D00E
:1008100000D0CDB7DEB780912F0690913006892B9E
:1008200009F480C0C0903506D0903606E0903706B7
:10083000F09038060E94D9036C157D058E059F0542
:1008400050F40E94D9036093350670933606809366
:100850003706909338060E94D9030091350610910F
:1008600036062091370630913806601B710B820BDB
:10087000930B6C32714081059105A0F2F894809140
:100880002A0690912B069A838983E0912F06F09196
:100890003006DF0111968081898790912606E091CC
:1008A0003906F0913A0680913B06992309F449C034
:1008B0009081982B98879081809589238F838F8151
:1008C0008C8388E08B8358856F8149853B812C819F
:1008D00089819A81508347FD252F3A952083262FC1
:1008E00039F0441F00C000006083000000C0F2CF58
:1008F00038E04D9160830000019761F7F0933A066C
:10090000E093390649873B832C839A8389837894C3
:100910000E94D9036093350670933606809337069C
:100920009093380629960FB6F894DEBF0FBECDBF60
:10093000DF91CF911F910F91FF90EF90DF90CF90BB
:1009400008959081982B98879081809589238F8333
:100950008F818E8388E08D8358856F8149853D81A5
:100960002E8189819A81508347FD252F00C000C0C8
:10097000208300C000C000C000C000C06083000031
:10098000262F3A9541F0441F000000C000C000C06F
:1009900000C000C0E8CF38E04D9100C0608300C0C7
:1009A000019709F7F0933A06E093390649873D83AA
:1009B0002E83ABCF8F929F92AF92BF92CF92DF9256
:1009C000EF92FF924B015C010E94D9036B017C0105
:1009D0000E94D9036C197D098E099F09683E7340F6
:1009E00081059105A8F321E0821A9108A108B108B8
:1009F00088EEC80E83E0D81EE11CF11C811491041E
:100A0000A104B10429F7FF90EF90DF90CF90BF9041
:100A1000AF909F908F9008952FB7F8946091000346
:100A20007091010380910203909103032FBF0895F9
:100A3000CF92DF92EF92FF92CF93DF930E940C054B
:100A40006B017C0184E98093BC00C091B703D09115
:100A5000B8038091BC0084FF1FC02097D1F30E948F
:100A60000C05AB01BC014C195D096E097F09CE0173
:100A7000B0E0A0E0481759076A077B0730F31092EF
:100A8000BC0084E48093BC0081E0DF91CF91FF90B3
:100A9000EF90DF90CF90089580E0F7CFCF92DF9274
:100AA000EF92FF92CF93DF938093BB000E940C05DF
:100AB0006B017C0184E88093BC00C091B703D091A6
:100AC000B8038091BC0087FD20C02097D1F30E941D
:100AD0000C05AB01BC014C195D096E097F09CE0103
:100AE000B0E0A0E0481759076A077B0730F310927F
:100AF000BC0084E48093BC00C1E08C2FDF91CF91D7
:100B0000FF90EF90DF90CF9008958091B900887F9B
:100B10008831D9F08091B900887F8034B1F0C091DC
:100B2000B900C87F8091B900887F803259F08091E8
:100B3000B900887F883431F01092BC0084E480933F
:100B4000BC00DBCF0E941805D8CFC0E0D6CFCF9233
:100B5000DF92EF92FF92CF93DF930E940C056B011F
:100B60007C0184EA8093BC00C091B703D091B803A4
:100B70008091BC0087FD1FC02097D1F30E940C0517
:100B8000AB01BC014C195D096E097F09CE01B0E0D3
:100B9000A0E0481759076A077B0730F31092BC00A2
:100BA00084E48093BC0081E0DF91CF91FF90EF90CF
:100BB000DF90CF9008958091B900887F8830B9F098
:100BC0008091B900887F803191F08091B900887F51
:100BD000883349F48091B900887F1092BC0094E476
:100BE0009093BC00E1CF8091B900887FDDCF80E099
:100BF000DBCFCF92DF92EF92FF92CF93DF93C82F9C
:100C00000E940C056B017C0184ECC11101C084E8D9
:100C10008093BC00C091B703D091B8038091BC0011
:100C200087FD1FC02097D1F30E940C05AB01BC01CA
:100C30004C195D096E097F09CE01B0E0A0E04817AC
:100C400059076A077B0730F31092BC0084E4809355
:100C5000BC0081E0DF91CF91FF90EF90DF90CF90CB
:100C600008958091B900887F883349F48091B90054
:100C7000887F1092BC0094E49093BC00EBCF8091ED
:100C8000B900887FE7CF0F931F93CF93DF93C82FCF
:100C9000D62F10929403611101C0D1E08FEF8D0F18
:100CA00080939603109295030E94A7058093950365
:100CB00081111CC08C2F880F8F5F0E944E0580937E
:100CC0009503882321F0813089F485E00FC007E97E
:100CD00013E0C0E0809196038C1325C080E00E9451
:100CE000F90580939503813031F486E0DF91CF914F
:100CF0001F910F9108958835C9F78091BB00F801C5
:100D000081938F01CF5FC0939403C0939303DC134F
:100D1000E1CF0E94180580939503882339F3813031
:100D200029F787E0E3CF81E00E94F90580939503DE
:100D30008130D9F2803509F3D9CF20915703309112
:100D40005803032E000C440B550B285E3340410919
:100D50005109A8E1BCEF0E94712C28EE33E040E07D
:100D600050E00E94442C2053384F4F4F5F4F309338
:100D700064032093630308958F929F92AF92BF9272
:100D8000CF92DF92EF92FF92CF93DF937C01EB0142
:100D9000BC01990F880B990B0E94242B4B015C011D
:100DA00060912C0370912D0380912E0390912F035D
:100DB000EF2809F445C19B01AC01C501B4010E94B3
:100DC000A82C6B017C0120E030E84BE355EC0E943D
:100DD0001D2B87FD3CC120E030E84BE355E4C70103
:100DE000B6010E94002E18163CF4C12C70E8D72ED4
:100DF0007BE3E72E75E4F72EC0922C03D0922D03EF
:100E0000E0922E03F0922F032091280330912903C2
:100E100040912A0350912B0380922803909229033A
:100E2000A0922A03B0922B0380912303882309F414
:100E30001DC1C501B4010E94A72C6B017C0120E0FB
:100E400030E040E751EC0E941D2B87FD08C120E0F7
:100E500030E040E751E4C701B6010E94002E1816A9
:100E600034F4C12CD12C50E7E52E51E4F52EC0927C
:100E70002403D0922503E0922603F09227032AE070
:100E800037ED43EA5CE360912C0370912D03809170
:100E90002E0390912F030E94832BA50194010E94A1
:100EA000A82C6B017C0120E030E0A90160912403B3
:100EB0007091250380912603909127030E94832B34
:100EC0009B01AC01C701B6010E94A82C60933A03B4
:100ED00070933B0380933C0390933D03BE010D2E22
:100EE000000C880B990B0E94242B4B015C01609134
:100EF0001F03709120038091210390912203CD2B39
:100F000009F4C0C09B01AC01C501B4010E94A82C2A
:100F10006B017C0120E030E84BE355EC0E941D2B77
:100F200087FDB7C020E030E84BE355E4C701B601C8
:100F30000E94002E18163CF4C12C30E8D32E3BE35F
:100F4000E32E35E4F32EC0921F03D0922003E092EB
:100F50002103F092220320911B0330911C03409146
:100F60001D0350911E0380921B0390921C03A092BC
:100F70001D03B0921E0380911603882309F498C0C4
:100F8000C501B4010E94A72C6B017C0120E030E078
:100F900040E751EC0E941D2B87FD83C020E030E02C
:100FA00040E751E4C701B6010E94002E181634F440
:100FB000C12CD12C90E7E92E91E4F92EC0921703B1
:100FC000D0921803E0921903F0921A032AE037ED49
:100FD00043EA5CE360911F03709120038091210339
:100FE000909122030E94832BA50194010E94A82CBA
:100FF0006B017C0120E030E0A90160911703709142
:1010000018038091190390911A030E94832B9B016E
:10101000AC01C701B6010E94A82C60933E037093F7
:101020003F038093400390934103DF91CF91FF9062
:10103000EF90DF90CF90BF90AF909F908F900895EA
:1010400023E333E343E35FE30E94832BBACEC12C57
:1010500060E8D62E6BE3E62E65ECF62ECDCEC12CE5
:10106000D12C40E7E42E41ECF42E01CF81E08093B7
:10107000230310922403109225031092260310924A
:101080002703FDCE23E333E343E35FE30E94832B97
:101090003FCFC12C20E8D22E2BE3E22E25ECF22EFE
:1010A00052CFC12CD12C80E7E82E81ECF82E86CFD0
:1010B00010921703109218031092190310921A033A
:1010C00081E08093160382CFCF92DF92EF92FF925E
:1010D0000E940C05C0901103D0901203E0901303FE
:1010E000F09014036C197D098E099F09643671050F
:1010F0008105910520F528EC48EC68EC90E080E053
:101100000E949B018CED95E090935A0380935903C4
:1011100090935C0380935B0322EF33E030935E0394
:1011200020935D039093600380935F039093620329
:1011300080936103FF90EF90DF90CF9008950E941D
:101140000C056C197D098E099F09643671058105AE
:10115000910578F00E940C056C197D098E099F0994
:10116000683C71058105910520F420E040E060E0D5
:10117000C5CF0E940C0560931103709312038093F6
:10118000130390931403BECF3F924F925F926F92DE
:101190007F928F929F92AF92BF92CF92DF92EF9207
:1011A000FF920F931F93CF93DF938091F4028111ED
:1011B0000DC00E94D9036093F0027093F1028093F6
:1011C000F2029093F30281E08093F4020E94D9032B
:1011D0000091F0021091F1022091F2023091F3029D
:1011E000601B710B820B930B0091FB041091FC04AC
:1011F0002091FD043091FE040617170728073907D0
:1012000010F41092FF04C1E080912406909125060D
:10121000DC01ED91FC910084F185E02D1995181603
:1012200019060CF06CC00E94D9036093F002709311
:10123000F1028093F2029093F30280912406909140
:101240002506DC01ED91FC910284F385E02D1995D2
:10125000809301059091FF04911116C09091F704BD
:1012600089130FC0909100052091F804921739F06E
:101270002091FA0492232091F904921302C0C093A2
:10128000FF0480930005C0CF993140F4E92FF0E0CE
:10129000ED50FB4F86879F5F9093FF049091FF0472
:1012A000993179F79091F804891739F09091FA04FF
:1012B00089239091F904891320C01092FF04609152
:1012C000020570910305C0900305D12C80900405A0
:1012D000D0910505E090060500910705A09008054E
:1012E000C091090530900A058091180590911A0562
:1012F0009823B9F41092000217C01092FF04DF91F6
:10130000CF911F910F91FF90EF90DF90CF90BF9002
:10131000AF909F908F907F906F905F904F903F9095
:10132000089591E09093000290911B05892309F4A0
:1013300035C181E080930202912CF12C10E0B12C98
:101340007770072E000C880B990B0E94242B23E347
:1013500033E343E35FE30E94832B20E030EC46E479
:1013600054E40E94A82C0E948B2D9B01AC012B51B0
:10137000344041095109A8EEB3E00E94632C28E9EA
:10138000422E23E0522E612C712CA30192010E9467
:10139000442C28513C4F4F4F5F4F30936E032093A6
:1013A0006D0333E0D594C7943A95E1F7B40145E075
:1013B000660F771F4A95E1F76C297D297770072E14
:1013C000000C880B990B0E94242B23E333E343E3A7
:1013D0005FE30E94832B20E030EC46E454E40E945B
:1013E000A82C0E948B2D9B01AC012B51344041094C
:1013F0005109A8EEB3E00E94632CA30192010E9460
:10140000442C28513C4F4F4F5F4F30936C03209337
:101410006B03B4E0DB9FB0011124C701982F88272C
:10142000990F990F682B792BE6E095948794EA95AC
:10143000E1F7682979297770072E000C880B990B42
:101440000E94242B23E333E343E35FE30E94832BD7
:1014500020E030EC46E454E40E94A82C0E948B2D3E
:101460009B01AC012B51344041095109A8EEB3E076
:101470000E94632CA30192010E94442C28513C4FEE
:101480004F4F5F4F30936A0320936903B7017595FF
:1014900067957801F694FE2CEE24F794E7946E2974
:1014A0007F297770072E000C880B990B0E94242B44
:1014B00023E333E343E35FE30E94832B20E030EC3C
:1014C00046E454E40E94A82C0E948B2D9B01AC01A1
:1014D0002B51344041095109A8EEB3E00E94632C1E
:1014E000A30192010E94442C28513C4F4F4F5F4F63
:1014F0003093680320936703B801B4E0759567954E
:10150000BA95E1F78501D4E0000F111FDA95E1F7F4
:10151000602B712B7770072E000C880B990B0E94A3
:10152000242B23E333E343E35FE30E94832B20E098
:1015300030EC46E454E40E94A82C0E948B2D70935A
:101540009203609391036C2F70E0660F771FC32D99
:10155000D0E0DC2FCC27DD0F6C2B7D2BAA0CAB2C25
:10156000AA1CBB086A297B297770072E000C880B00
:10157000990B0E94242B23E333E343E35FE30E94B0
:10158000832B20E030EC46E454E40E94A82C0E9417
:101590008B2D7093580360935703B1CE10920202C3
:1015A000CBCECF93DF93EC0188819981009711F026
:1015B0000E94A028198218821D821C821B821A8216
:1015C000DF91CF910895FC0180819181009711F006
:1015D0000C94A0280895CF93DF93FC0124813581DA
:1015E0006217730788F49B01C081D1816BE370E0BF
:1015F000CE01820F931F0E945C2F009729F08C1B55
:101600009D0BDF91CF9108958FEF9FEFFACFFC01F3
:1016100024813581232B39F421E0FB01808188234B
:1016200049F020E007C0808191810E94672F21E06E
:10163000892BB9F7822F08950F931F93CF93DF93D0
:10164000EC0188819981009759F02A813B81261706
:10165000370730F081E0DF91CF911F910F9108950E
:101660008B016F5F7F4F0E94722E009759F0998314
:1016700088831B830A832C813D81232B59F7FC012E
:101680001082E8CF80E0E7CFEF92FF920F931F9395
:10169000CF93DF938C017B01EB0109900020E9F7E8
:1016A0002197C61BD70BBE010E941C0B811109C0DC
:1016B000C801DF91CF911F910F91FF90EF900C9493
:1016C000D10AF801D583C483B70180819181DF916C
:1016D000CF911F910F91FF90EF900C94702F10926B
:1016E0008E03109278031092770310921003ECE0AF
:1016F000F3E011821082138212826BE172E08EE4B9
:1017000096E00E94440B109276031092750310929B
:101710001503E2E8F3E011821082138212826BE17A
:1017200072E088E496E00E94440B109274031092D9
:10173000730310923503EEE7F3E0118210821382F7
:1017400012826BE172E082E496E00E94440B1092F8
:1017500072031092710310925603EAE7F3E01182CC
:101760001082138212826BE172E08CE396E00E9499
:10177000440B1092700310926F0310927903109231
:101780009003109266031092650310924D0310921D
:101790004C0310924B0310924A038AE590E0909319
:1017A000490380934803EEE4F3E011821082138230
:1017B000128215821482178216828BE192E0909336
:1017C000430380934203109230031092310310922E
:1017D0003203109233031092340320E040E060E0C3
:1017E00082E090E00C949B01EF92FF920F931F9385
:1017F000CF93DF93EC017B01198218821B821A823E
:101800001D821C82FB0101900020E9F731978F01B6
:10181000061B170BB8010E941C0B811109C0CE01D9
:10182000DF91CF911F910F91FF90EF900C94D10A0F
:101830001D830C83B70188819981DF91CF911F911E
:101840000F91FF90EF900C94702FAF92BF92CF92B8
:10185000DF92EF92FF920F931F93CF93DF936C0170
:101860005B017A0189012417350720F48F2D790156
:10187000042F182F6CE172E0C6010E94F40BD50111
:101880001496CD91DC91EC16FD06E0F40C171D07C3
:1018900008F4E801D501ED91FC911197EC0FFD1FC3
:1018A000108110826D917C916E0D7F1DC6016115B6
:1018B0007105A1F00E94440BF50180819181C80F50
:1018C000D91F1883C601DF91CF911F910F91FF900F
:1018D000EF90DF90CF90BF90AF9008950E94D10A13
:1018E000EBCF8F929F92AF92BF92EF92FF920F93A6
:1018F0001F93CF93DF93CDB7DEB7C05AD1090FB690
:10190000F894DEBF0FBECDBF182F092F0E940C0523
:101910008090080390900903A0900A03B0900B03F5
:10192000681979098A099B09643671058105910551
:1019300008F424C2CE0101967C0180E8F7011192DF
:101940008A95E9F76CE172E0CE0187569F4F0E94BD
:10195000F40BCD56DF4F19821882C359D040CB56B5
:10196000DF4F19821882C559D040C956DF4F1982FE
:101970001882C759D0404AE0BE016F577F4F812F70
:10198000902F0E945429BE016F577F4FCE018D5674
:101990009F4F0E94440BC756DF4F88819981C959D8
:1019A000D040009709F47EC0CD56DF4F6881798121
:1019B000C359D0406115710509F472C0C556DF4F97
:1019C00048815981CB59D040C956DF4F2881398190
:1019D000C759D0404217530708F462C00E94702FC5
:1019E000C956DF4F88819981C759D040C356DF4F10
:1019F00099838883CD59D040C956DF4F1982188208
:101A0000C759D040CE018D569F4F0E94E30AC3565E
:101A1000DF4F88819981CD59D040892B09F073C05F
:101A2000C156DF4F1882CF59D040109295030E94C3
:101A3000A70580939503811192C084E20E944E0510
:101A40008093950381118BC01093BB000E940C05FD
:101A50004B015C0184E88093BC000091B7031091B6
:101A6000B8038091BC0087FD61C001151105C9F361
:101A70000E940C05AB01BC01481959096A097B0990
:101A800030E020E0401751076207730730F31092EF
:101A9000BC0084E48093BC0081E0809395035FC028
:101AA0000E94A028CD56DF4F88819981C359D0402C
:101AB000C756DF4F99838883C959D040CB56DF4F33
:101AC00088819981C559D040C556DF4F9983888355
:101AD000CB59D040C956DF4F88819981C759D04032
:101AE000C356DF4F99838883CD59D040CD56DF4F01
:101AF00019821882C359D040CB56DF4F1982188201
:101B0000C559D04079CFC756DF4F68817981C9590F
:101B1000D04041E050E0CE0181569F4F0E94772F88
:101B2000C056DF4F1882C05AD0407FCF8091B90095
:101B3000887F883229F4109295030E941805ADCF52
:101B40001091B900187F8091B900887F803309F027
:101B50003FC00E94180510939503112371F362E0B2
:101B600082E10E94430680919403823009F044C0D0
:101B70000E948B01082F0E948B01182F61E070E0FA
:101B800080E090E00E94DA04602F82E10E94430628
:101B9000012E000C220B330B4091940350E070E0B7
:101BA00060E00417150726073707C1F42FEF4FEF42
:101BB0006FEF82E090E00E949B0187018091940387
:101BC000882309F10E948B01F80181938F01F6CFE0
:101BD0001092BC0084E48093BC00BDCF20E040E0C4
:101BE0006FEF82E090E00E949B0180919403882334
:101BF00051F00E948B01F9CF20E040E060E082E0EC
:101C000090E00E949B01B701CE018D569F4F0E942C
:101C1000F40B70E060E0CE018D569F4F0E94EB0AFE
:101C20007C019C0150E040E0BE016D567F4FCE012B
:101C30008F579F4F0E94250CCF57DF4F8881998186
:101C4000C158D040009709F4ABC00E942D29709371
:101C50004F0360934E03CE018F579F4F0E94E30ABC
:101C6000FFEFEF1AFF0AB701CE018D569F4F0E947A
:101C7000EB0A8C019C01A701BE016D567F4FCE017E
:101C80008F579F4F0E94250CCF57DF4F8881998136
:101C9000C158D040009709F487C00E9429290E94AA
:101CA0008B2D7093510360935003CE018F579F4F3C
:101CB0000E94E30A0F5F1F4FB801CE018D569F4F60
:101CC0000E94EB0A7C019C01A801BE016D567F4F6A
:101CD000CE018F579F4F0E94250CCF57DF4F888131
:101CE0009981C158D040009709F462C00E94292907
:101CF0000E948B2D7093530360935203CE018F5734
:101D00009F4F0E94E30AC956DF4F28813981C75986
:101D1000D040A7014F5F5F4FBE016D567F4FCE0190
:101D20008F579F4F0E94250CCF57DF4F8881998195
:101D3000C158D040009709F43FC00E9429290E9451
:101D40008B2D7093550360935403CE018F579F4F93
:101D50000E94E30A0E940C05609308037093090334
:101D600080930A0390930B03CE018D569F4F0E94E0
:101D7000E30ACE0187569F4F0E94E30AC056DF4F09
:101D80000FB6F894DEBF0FBECDBFDF91CF911F918C
:101D90000F91FF90EF90BF90AF909F908F9008951C
:101DA00060E070E0CB0153CF60E070E0CB0177CF13
:101DB00060E070E0CB019CCF60E070E0CB01BFCF72
:101DC0001F920F920FB60F9211240BB60F922F9302
:101DD0003F934F935F936F937F938F939F93AF93B3
:101DE000BF93EF93FF9386E594E00E946002FF911A
:101DF000EF91BF91AF919F918F917F916F915F9183
:101E00004F913F912F910F900BBE0F900FBE0F90EF
:101E10001F9018951F920F920FB60F9211240BB6B8
:101E20000F922F938F939F93EF93FF93E09166040C
:101E3000F09167048081E0916C04F0916D0482FD63
:101E40001DC0908180916F048F5F8F73209170040B
:101E5000821741F0E0916F04F0E0EA5AFB4F958F52
:101E600080936F04FF91EF919F918F912F910F902D
:101E70000BBE0F900FBE0F901F9018958081F2CF70
:101E80001F920F920FB60F9211240BB60F922F9341
:101E90003F934F935F936F937F938F939F93AF93F2
:101EA000BF93EF93FF9389EB93E00E946002FF9151
:101EB000EF91BF91AF919F918F917F916F915F91C2
:101EC0004F913F912F910F900BBE0F900FBE0F902F
:101ED0001F9018951F920F920FB60F9211240BB6F8
:101EE0000F922F938F939F93EF93FF93E091C903EA
:101EF000F091CA038081E091CF03F091D00382FD7D
:101F00001DC090818091D2038F5F8F732091D30386
:101F1000821741F0E091D203F0E0E754FC4F958F37
:101F20008093D203FF91EF919F918F912F910F900A
:101F30000BBE0F900FBE0F901F9018958081F2CFAF
:101F40001F920F920FB60F9211242F933F938F93EE
:101F50009F93AF93BF938091000390910103A09151
:101F60000203B09103033091FF0223E0230F2D37CA
:101F700058F50196A11DB11D2093FF028093000327
:101F800090930103A0930203B09303038091040391
:101F900090910503A0910603B09107030196A11D3E
:101FA000B11D8093040390930503A0930603B0939F
:101FB0000703BF91AF919F918F913F912F910F9008
:101FC0000FBE0F901F90189526E8230F0296A11DB3
:101FD000B11DD2CF1F920F920FB60F9211240BB6E4
:101FE0000F922F933F934F935F936F937F938F93B2
:101FF0009F93AF93BF93EF93FF931092850010923E
:102000008400809101028823F9F061E08DE10E9453
:102010001C0388E592E090938900809388001092D9
:102020000102FF91EF91BF91AF919F918F917F91AD
:102030006F915F914F913F912F910F900BBE0F9039
:102040000FBE0F901F90189560E08DE10E941C0359
:1020500091E0909301028091FE028630C0F01092D0
:10206000FE028091FC029091FD02845D9E4F91954D
:1020700081959109880F991F805C93469093890000
:10208000809388001092FD021092FC02CACFE82FC4
:10209000F0E0EE0FFF1FE75AFC4F208131812C52F8
:1020A0003140220F331F3093890020938800209104
:1020B000FC023091FD0240815181240F351F309385
:1020C000FD022093FC028F5F8093FE0290938F03AA
:1020D000A8CF109259041092580448EE53E060E0E3
:1020E00070E040935A0450935B0460935C047093D7
:1020F0005D048DE092E090935704809356042DEC9C
:1021000030E030936304209362042CEC30E0309391
:1021100065042093640428EC30E030936704209336
:10212000660429EC30E030936904209368042AECBB
:1021300030E030936B0420936A042EEC30E030934F
:102140006D0420936C0410926F041092700410922E
:102150007104109272041092BC031092BB0340935E
:10216000BD035093BE036093BF037093C00390936D
:10217000BA038093B90385EC90E09093C6038093F3
:10218000C50384EC90E09093C8038093C70380EC70
:1021900090E09093CA038093C90381EC90E0909300
:1021A000CC038093CB0382EC90E09093CE0380939A
:1021B000CD0386EC90E09093D0038093CF031092F0
:1021C000D2031092D3031092D4031092D5036BE183
:1021D00072E08EE496E00E94F40B6BE172E088E41A
:1021E00096E00E94F40B6BE172E082E496E00E94BC
:1021F000F40B6BE172E08CE396E00E94F40B10921A
:10220000270610922E06109235061092360610926E
:1022100037061092380681E08093340680933106A9
:102220001092320692E0909333068093260689E05E
:1022300090E090932B0680932A060E9404289093A6
:10224000300680932F06009709F46CC029E0FC014A
:1022500011922A95E9F783E090E090932906809304
:10226000280686E090E090932D0680932C068091BE
:102270002706882341F061E086E00E94A80360E021
:1022800086E00E941C03EBE6F2E0E491F0E0EE0F42
:10229000FF1FE55BFD4F8591949190933A068093E3
:1022A0003906EBE0F2E0E491E0933B0680EA96E841
:1022B000A1E0B0E08093F3049093F404A093F504BC
:1022C000B093F6049FE09093F7041092F80484E032
:1022D0008093F9049093FA0448E55BE160E070E0D4
:1022E0004093FB045093FC046093FD047093FE0440
:1022F0001092000580931A0588E080931B058FE8F3
:1023000090E090931D0580931C0588E797E09093DB
:102310001F0580931E0586E594E090932506809323
:102320002406089510922B0610922A061092290670
:102330001092280696CFCF93DF93CDB7DEB7629782
:102340000FB6F894DEBF0FBECDBF789484B582601F
:1023500084BD84B5816084BD85B5826085BD85B549
:10236000816085BD80916E00816080936E001092C7
:102370008100809181008260809381008091810042
:1023800081608093810080918000816080938000D3
:102390008091B10084608093B1008091B000816031
:1023A0008093B00080919100826080939100809131
:1023B0009100816080939100809190008160809372
:1023C00090008091A10082608093A1008091A10083
:1023D00081608093A1008091A00081608093A00023
:1023E000809121018260809321018091210181608F
:1023F0008093210180912001816080932001809150
:102400007A00846080937A0080917A008260809361
:102410007A0080917A00816080937A0080917A00BE
:10242000806880937A001092C10080912C06909170
:102430002D0697FD08C061E00E94A80360E080912E
:102440002C060E941C0381E0809327060E94FE0355
:1024500060912E06633329F120912F0630913006CA
:102460006150C9F070E08FEF92E30E94562EF9019F
:1024700040912A0650912B06CF01821B930B8417A3
:10248000950760F44081469FC001479F900D11243D
:1024900090833196EDCF70E060E0E9CF83E38093E5
:1024A0002E06589A599A8091B9008E7F8093B90070
:1024B0008091B9008D7F8093B90088E48093B80043
:1024C00084E48093BC000CED15E01093B8030093F6
:1024D000B7038CE08093B80060E086E30E94A80315
:1024E00060E082E00E94A80360E08DE00E94A80303
:1024F00010935A030093590310935C0300935B03FA
:102500001093600300935F031093620300936103D1
:1025100088EE93E090935E0380935D0384E398E0FC
:1025200090936403809363030E940C0560930803F7
:102530007093090380930A0390930B031092FF0496
:1025400020901E0530901F0500911C0510911D055F
:10255000B80190E080E00E94222B4B015C01B101A8
:1025600090E080E00E94222BA50194010E94A72CFC
:102570002B013C01AC019B0160E070E080E090E445
:102580000E94192D6B017C0120E030E040E05FE308
:10259000C301B2010E94832BA50194010E94A82CC3
:1025A0009058A70196010E94832BE0E2F5E0A0E697
:1025B000B5E020E435E001931193378E268ECD925D
:1025C000DD92ED92FD92DC966D937D938D939C93BD
:1025D000DF972E173F0779F7009124061091250603
:1025E000C090F304D090F404E090F504F090F60469
:1025F00060E079E08DE390E0A70196010E94762CDF
:10260000215031094109510956954795379527952C
:10261000D8015096ED91FC9182E08083C114B1EE17
:10262000DB06E104F10421F02115E0E13E07A8F00A
:10263000D8015096ED91FC91108260E874E88EE12B
:1026400090E0A70196010E94762C215031094109A2
:1026500051095695479537952795D8011C96ED91C8
:10266000FC911D9730831E96ED91FC911F9720835E
:1026700058961C9258975496ED91FC9155978EE27E
:1026800080835296ED91FC91539780818061808385
:102690005296ED91FC915397808188608083529689
:1026A000ED91FC9153978081806880835296ED91E3
:1026B000FC9180818F7D808361E08DE10E94A80381
:1026C00060E08DE10E941C03F8941092800010924B
:1026D000810088E790E09093890080938800809142
:1026E0008100886080938100809181008260809366
:1026F000810080916F00826080936F00789468EC15
:1027000070E080E090E00E94DA0410E000E020E059
:1027100040E0602F90E080E00E949B010E94FE0359
:102720000F5F1F4F0115B1E01B0789F710E000E0B4
:1027300020E0402F60E081E090E00E949B010E9439
:10274000FE030F5F1F4F0115E1E01E0789F710E040
:1027500000E0202F40E060E082E090E00E949B01DA
:102760000E94FE030F5F1F4F0115F1E01F0789F75D
:1027700010E000E0202F402F602F90E080E00E94CA
:102780009B01202F402F602F81E090E00E949B0151
:10279000202F402F602F82E090E00E949B010E943A
:1027A000FE030F5F1F4F011521E0120719F70FEF0E
:1027B00010E0202F402F602F90E080E00E949B01CE
:1027C000202F402F602F81E090E00E949B01202F5E
:1027D000402F602F82E090E00E949B010E94FE0348
:1027E0000150110930F720E040E060E090E080E027
:1027F0000E949B0120E040E060E081E090E00E94C8
:102800009B0120E040E060E082E090E00E949B01BC
:102810000E94FE0320E040E060E090E080E00E9443
:102820009B010E94FE030E940C050CED15E07EE763
:10283000472E74E0572EE0EA6E2EE5E07E2EF8E19A
:102840002F2EF6E03F2EAE014F5F5F4F5C834B8330
:102850000E94C4088091020281110C94A1278091EA
:102860009103909192038E3453E095070CF498C035
:10287000813B63E096070CF05AC020E04FEF60E028
:1028800090E080E00E949B0180916D0390916E0327
:1028900090935A038093590380916B0390916C033A
:1028A00090935C0380935B038091690390916A032A
:1028B00090935E0380935D0380916703909168031A
:1028C0009093600380935F0384E195E090936203AB
:1028D0008093610380915703909158039093640310
:1028E000809363030E946F0B80915406909155066C
:1028F000009711F48AE596E0AB81BC81A81BB90B67
:10290000CD0120E040E06FEF843F91400CF060E0AB
:1029100081E090E00E949B0180918F03882321F049
:102920000E94FE0310928F030E94EF0291CF863B1C
:10293000A5E09A07ACF18931B6E09B0764F52FEF6B
:1029400040E060E090E080E00E949B0180916D0398
:1029500090916E0390935A038093590380916B0377
:1029600090916C0390935C0380935B038091690367
:1029700090916A0390935E0380935D038091670357
:10298000909168039093600380935F035092620379
:10299000409261039FCF8A5198408336910528F079
:1029A00080919003882309F49FCF80918E03811139
:1029B0002DC00E940C0560938A0370938B03809353
:1029C0008C0390938D0310928903109288031092C8
:1029D0008703109286031092830310928203109251
:1029E00085031092840310927F0310927E0310924D
:1029F00081031092800310927B0310927A0310924D
:102A00007D0310927C0381E080938E0380918E037E
:102A10008823E9F180919003811139C00E940C054F
:102A2000C0908A03D0908B03E0908C03F0908D03CC
:102A30006C197D098E099F09683E734081059105D7
:102A400098F080918803909189030196909389036F
:102A5000809388030E940C0560938A0370938B0314
:102A600080938C0390938D038091880390918903C8
:102A7000CC976CF080918603909187030196909398
:102A800087038093860310928903109288030E9423
:102A9000C4088091900381110C946A27F090790307
:102AA0008091770390917803892B09F08BC3F11003
:102AB00089C38091100381111FC08091860390917A
:102AC000870390930D0380930C038091880390916A
:102AD000890390930F0380930E036BE172E08EE401
:102AE00096E00E94440B81E0809310036BE172E05A
:102AF0008EE496E00E94440B80911003882309F431
:102B000027C36BE172E08EE496E00E94070B8823F6
:102B100009F45AC020E044E664E690E080E00E94B8
:102B20009B0181E090E00E94710C10935A03009386
:102B3000590310935C0300935B0388EE93E090933A
:102B40005E0380935D031093600300935F035092D4
:102B500062034092610384E398E09093640380935E
:102B600063036091860370918703409188035091BD
:102B70008903ACE3A69FC001A79F900D1124840F89
:102B8000951FE0910C03F0910D03AE9F9001AF9F54
:102B9000300D1124E0910E03F0910F032E0F3F1F13
:102BA000821B930B06970CF4D3C270930D036093B2
:102BB0000C0350930F0340930E036DE172E08EE41B
:102BC00096E00E94440BC4C26DE172E08EE496E090
:102BD0000E94070B882309F452C024E640E064E613
:102BE00090E080E00E949B0181E090E00E94710CE7
:102BF00010935A030093590310935C0300935B03F3
:102C000088EE93E090935E0380935D0380ED97E000
:102C10009093600380935F0350926203409261033C
:102C200060918603709187034091880350918903D6
:102C3000ACE3A69FC001A79F900D1124840F951FA0
:102C4000E0910C03F0910D03AE9F9001AF9F300D0A
:102C50001124E0910E03F0910F032E0F3F1F821BF2
:102C6000930B06970CF474C270930D0360930C03DE
:102C700050930F0340930E0361E272E0A0CF61E234
:102C800072E08EE496E00E94070B882309F450C09E
:102C900081E090E00E94710C24E640E060E090E06A
:102CA00080E00E949B0110935A03009359031093F4
:102CB0005C0300935B0384E195E090935E03809353
:102CC0005D031093600300935F0350926203409290
:102CD000610360918603709187034091880350914E
:102CE0008903ACE3A69FC001A79F900D1124840F18
:102CF000951FE0910C03F0910D03AE9F9001AF9FE3
:102D0000300D1124E0910E03F0910F032E0F3F1FA1
:102D1000821B930B04970CF41BC270930D036093FA
:102D20000C0350930F0340930E036BE272E047CF06
:102D30006BE272E08EE496E00E94070B882309F4B0
:102D40004EC081E090E00E94710C24E644E664E607
:102D500090E080E00E949B0110935A030093590376
:102D600010935C0300935B0310935E0300935D0379
:102D70001093600300935F035092620340926103DB
:102D80006091860370918703409188035091890375
:102D9000ACE3A69FC001A79F900D1124840F951F3F
:102DA000E0910C03F0910D03AE9F9001AF9F300DA9
:102DB0001124E0910E03F0910F032E0F3F1F821B91
:102DC000930B04970CF4C4C170930D0360930C0330
:102DD00050930F0340930E0365E372E0F0CE65E37A
:102DE00072E08EE496E00E94070B882309F4DCC0B1
:102DF0000E940C05C0901103D0901203E0901303C1
:102E0000F09014036C197D098E099F0964367105D1
:102E10008105910508F072C020E040E06FEF90E07E
:102E200080E00E949B0181E090E00E94710C809103
:102E30004A0390914B038A3191050CF484C022E23D
:102E400036E030935A032093590380914C039091BC
:102E50004D03853191050CF485C082E296E0909394
:102E60005C0380935B0384EA96E090935E03809317
:102E70005D03809148039091490397FF82C08E5A69
:102E80009F4F853A910508F08AC020E436E03093E0
:102E9000600320935F03509262034092610360914C
:102EA0008603709187034091880350918903ACE3B6
:102EB000A69FC001A79F900D1124840F951FE0913C
:102EC0000C03F0910D03AE9F9001AF9F300D1124C4
:102ED000E0910E03F0910F032E0F3F1F821B930B07
:102EE00007970CF435C170930D0360930C03509356
:102EF0000F0340930E036EE372E061CE0E940C0557
:102F00006C197D098E099F0964367105810591054B
:102F100078F00E940C056C197D098E099F09683CA8
:102F200071058105910520F420E040E060E077CF55
:102F30000E940C0560931103709312038093130396
:102F40009093140370CF873E9F4F3CF446E955E0C1
:102F500050935A034093590378CF10935A03009328
:102F6000590373CF8C3E9F4F3CF4E6E9F5E0F093B4
:102F70005C03E0935B0377CF10935C0300935B03E8
:102F800072CF009761F08E5A9F4F853A910538F4C1
:102F900048E755E05093600340935F037CCF109364
:102FA000600300935F0377CF6EE372E08EE496E0F8
:102FB0000E94070B882309F4B3C081E090E00E94CF
:102FC000710CC0905203D0905303D0924D03C09225
:102FD0004C03A0905003B0905103B0924B03A092C9
:102FE0004A03E0905403F0905503F0924903E092B5
:102FF000480324E640E060E090E080E00E949B010E
:103000008EE096E05AE1A516B10444F467EEA616E8
:103010006FEFB6060CF058C08AEA95E090935A0319
:103020008093590395E1C916D1040CF452C08EE087
:1030300096E090935C0380935B0310935E03009390
:103040005D03F7FE57C0FFE4EF0EF11C2FE9E21617
:10305000F10408F060C040E456E0509360034093F0
:103060005F03509262034092610360918603709106
:1030700087034091880350918903ACE3A69FC00168
:10308000A79F900D1124840F951FE0910C03F091E0
:103090000D03AE9F9001AF9F300D1124E0910E0300
:1030A000F0910F032E0F3F1F821B930B04970CF41C
:1030B0004FC070930D0360930C0350930F03409324
:1030C0000E036BE472E07BCD10935A030093590317
:1030D000A9CFACEECA16AFEFDA063CF4EAEAF5E0A7
:1030E000F0935C03E0935B03A8CF10935C03009321
:1030F0005B03A3CFE114F10471F05FE4E50EF11C72
:103100006FE9E616F10438F488E795E090936003E0
:1031100080935F03A6CF1093600300935F03A1CF5A
:103120006BE472E08EE496E00E94070B882381F046
:1031300020E040E060E090E080E00E949B0181E0C0
:1031400080937903A1E0B0E0B0937803A093770374
:1031500080916D0390916E0383589540833B910558
:10316000E8F480916B0390916C0383589540833B06
:103170009105A0F48091690390916A03835895406A
:10318000833B910558F480916703909168038358BD
:103190009540833B910510F40C946427809165035E
:1031A00090916603019690936603809365038091E6
:1031B00065039091660303970CF496CB81E08093AE
:1031C000900392CB8091750390917603892B09F03F
:1031D00066C2B1E0FB1263C280911503811120C069
:1031E0008091860390918703909383038093820359
:1031F0008091880390918903909385038093840341
:103200006BE172E088E496E00E94440BF0921503B3
:103210000E940C056BE172E088E496E00E94440B8A
:1032200080911503882309F493CF6BE172E088E461
:1032300096E00E94070B882309F409C182E090E020
:103240000E94710C209152033091530330934D032F
:1032500020934C03409150035091510350934B03E2
:1032600040934A03809154039091550390934903EE
:1032700080934803453151050CF48CC0E0E4F6E03E
:10328000F0935A03E0935903E0904E03F0904F03FC
:1032900051E0E516F10409F08FC0213131050CF43D
:1032A00088C0A0E4B6E0B0935C03A0935B031093E6
:1032B0005E0300935D0397FF8BC08E5A9F4F853A44
:1032C000910508F091C03092600320925F03509204
:1032D0006203409261030E940C058090110390905C
:1032E0001203A0901303B0901403681979098A0996
:1032F0009B09683C71058105910508F085C020E0B7
:1033000040E0F1E0EF16F10409F47CC022E0E2169F
:10331000F10409F06EC02FEF40E060E090E080E043
:103320000E949B01609186037091870340918803FE
:1033300050918903ACE3A69FC001A79F900D112473
:10334000840F951FE0918203F0918303AE9F90015B
:10335000AF9F300D1124E0918403F09185032E0F6F
:103360003F1F821B930B893091053CF4EA94EF28B0
:1033700009F0EECE02970CF4EBCE709383036093CA
:103380008203509385034093840360E572E088E4F0
:1033900096E017CC4C3E5F4F3CF448E755E0509325
:1033A0005A034093590370CF10935A030093590363
:1033B0006BCF203F3F4F3CF4E8E7F5E0F0935C0330
:1033C000E0935B0374CF10935C0300935B036FCFB8
:1033D000009751F08E5A9F4F853A910528F47092CC
:1033E000600360925F0373CF1093600300935F03E9
:1033F0006ECF20E04FEF33E0E316F10409F48DCFF8
:103400002FEF4FEF6FEF8ACF0E940C0568197909F3
:103410008A099B09683C71058105910568F00E9445
:103420000C05681979098A099B0920E06C32714002
:103430008105910508F470CF0E940C05609311037B
:103440007093120380931303909314036BCF60E582
:1034500072E088E496E00E94070B882309F40CC10F
:1034600083E090E00E94710C20915203309153034D
:1034700030934D0320934C034091500350915103DE
:1034800050934B0340934A0380915403909155030A
:103490009093490380934803453151050CF454C07F
:1034A00030925A0320925903213131050CF459C04E
:1034B00030925C0320925B0310935E0300935D03E4
:1034C00097FF5CC08E5A9F4F853A910508F064C003
:1034D00022E236E03093600320935F035092620350
:1034E000409261030E940C0580901103909012039A
:1034F000A0901303B0901403E0904E03F0904F039C
:10350000681979098A099B09683C7105810591054B
:1035100008F047C020E051E0E516F10471F02FEF0C
:1035200062E0E616F10409F4A4C020E04FEF83E066
:10353000E816F10409F49EC02FEF40E06FEF90E031
:1035400080E00E949B0143C04C3E5F4F2CF4709280
:103550005A0360925903A8CF10935A03009359035A
:10356000A3CF203F3F4F2CF470925C0360925B032B
:10357000A3CF10935C0300935B039ECF009761F091
:103580008E5A9F4F853A910538F446E955E050939D
:10359000600340935F03A2CF1093600300935F0327
:1035A0009DCF0E940C05681979098A099B09683C1E
:1035B00071058105910508F04FC00E940C056093CC
:1035C000110370931203809313039093140360917B
:1035D0008603709187034091880350918903ACE37F
:1035E000A69FC001A79F900D1124840F951FE09105
:1035F0008203F0918303AE9F9001AF9F300D1124A1
:10360000E0918403F09185032E0F3F1F821B930BE3
:103610008531910554F4970122503109223031054A
:1036200008F096CD03970CF493CD709383036093C9
:10363000820350938503409384038BE592E0B2E0CC
:10364000EB16F10411F08DE592E090934303809323
:1036500042036BE472E09BCE0E940C056819790965
:103660008A099B096C3271408105910508F0A5CF4C
:1036700020E040E060E063CF6BE472E088E496E035
:103680000E94070B882309F463CD82E080937903BD
:10369000E1E0F0E0F0937603E093750359CD80917B
:1036A000730390917403892B09F0BDC6F2E0FF12F9
:1036B000BAC68091350381111FC080918603909115
:1036C000870390937F0380937E038091880390917A
:1036D000890390938103809380036BE172E082E41D
:1036E00096E00E94440B81E0809335036BE172E029
:1036F00082E496E00E94440B80913503882309F40C
:1037000027CD6BE172E082E496E00E94070B8823EC
:1037100009F4C6C184E090E00E94710C209152032C
:103720003091530338872F8330934D0320934C03FC
:1037300040915003509151035A87498750934B034E
:1037400040934A0380915403909155039E838D8347
:1037500090934903809348030E940C05C090440352
:10376000D0904503E0904603F09047036C197D0923
:103770008E099F09683C71058105910598F4809137
:10378000420390914303A2E08B359A0739F064EC31
:10379000E62EFF24FA948D559240E1F05CE3E52E8D
:1037A000F12C18C00E940C056C197D098E099F0927
:1037B000683C71058105910508F0A7C00E940C05C1
:1037C00060934403709345038093460390934703AB
:1037D000F12CE12C2D813E81B901330F880B990B1F
:1037E0000E94242B25E33AEF4EE85CE30E94832BF2
:1037F0000E948B2D072E000C880B990B0E94242B06
:103800004B015C010E94052E6B877C878D879E870C
:10381000B701FF0C880B990B0E94242B6B017C01D4
:10382000C501B4010E94142D9B01AC01C701B60172
:103830000E94832B4B015C0149855A85BA01550FC3
:10384000880B990B0E94242B9B01AC01C501B4018C
:103850000E94A82C0E948B2D4B01A70196016B851D
:103860007C858D859E850E94832B6B017C01AF81B9
:10387000B885BD01BB0F880B990B0E94242B9B01BF
:10388000AC01C701B6010E94A82C0E948B2DCB0170
:10389000B4010E94BC0620E030E84BEB54E4609198
:1038A0003E0370913F0380914003909141030E9439
:1038B000A82C0E948B2D70935A036093590320E02B
:1038C00030E84BEB54E460913A0370913B038091F4
:1038D0003C0390913D030E94A82C0E948B2D709375
:1038E0005C0360935B0310935E0300935D03ED81C3
:1038F000FE811E161F06B4F48EE096E03597CCF4D8
:103900001093600300935F0318C00E940C056C19AC
:103910007D098E099F09683077408105910508F07F
:103920004DCF56CF2D813E812C3F3F4F4CF78AEA39
:1039300095E09093600380935F03A8E7B5E0B093B0
:103940006203A0936103E0904E03F0904F0320E0E8
:1039500040E0B7E0EB16F10439F0E5E0EE16F104D3
:1039600009F086C02FEF4FEF6FEF81E090E00E94EB
:103970009B01609186037091870340918803509169
:103980008903ACE3A69FC001A79F900D1124840F6B
:10399000951FE0917E03F0917F03AE9F9001AF9F52
:1039A000300D1124E0918003F09181032E0F3F1F11
:1039B000821B930B8930910544F4A5E0EA16F104CB
:1039C00009F0C6CB05970CF4C3CB70937F036093CB
:1039D0007E0350938103409380036FE572E082E49D
:1039E00096E00E94440B10923A0310923B0310920F
:1039F0003C0310923D0310923E0310923F0310923D
:103A000040031092410310922C0310922D03109248
:103A10002E0310922F031092280310922903109264
:103A20002A0310922B031092240310922503109264
:103A30002603109227031092230310921F03109263
:103A40002003109221031092220310921B03109264
:103A50001C0310921D0310921E0310921703109264
:103A600018031092190310921A031092160370CBC8
:103A70002FEFF2E0EF16F10489F023E0E216F104F3
:103A800021F420E04FEF60E070CF24E640E064E6F0
:103A900031E0E316F10409F468CF20E040E0F3CF11
:103AA0006FE572E082E496E00E94070B882309F438
:103AB000A9C084E090E00E94710C209152033091E3
:103AC000530330934D0320934C0340915003509186
:103AD000510350934B0340934A03809154039091B8
:103AE00055039093490380934803453151050CF4E5
:103AF00062C030925A0320925903213131050CF4EF
:103B000067C030925C0320925B0310935E030093C6
:103B10005D03181619060CF068C00B970CF46DC005
:103B20003092600320925F035092620340926103DF
:103B300080914E0390914F0320E040E060E00097B9
:103B400029F0059739F42FEF4FEF6FEF90E080E009
:103B50000E949B01609186037091870340918803C6
:103B600050918903ACE3A69FC001A79F900D11243B
:103B7000840F951FE0917E03F0917F03AE9F90012B
:103B8000AF9F300D1124E0918003F09181032E0F3F
:103B90003F1F821B930B04970CF4DACA70937F03C8
:103BA00060937E0350938103409380036DE672E03F
:103BB00082E496E006C84C3E5F4F2CF470925A03A4
:103BC000609259039ACF10935A030093590395CFEB
:103BD000203F3F4F2CF470925C0360925B0395CFC3
:103BE00010935C0300935B0390CF863F9F4F2CF4B0
:103BF0007092600360925F0397CF1093600300930D
:103C00005F0392CF6DE672E082E496E00E94070BBC
:103C1000882309F492C085E090E00E94710C8091A5
:103C200052039091530390934D0380934C03209142
:103C300050033091510330934B0320934A038091FA
:103C40005403909155039093490380934803203186
:103C500031050CF454C030925A0320925903A8E75E
:103C6000B5E0B0935C03A0935B0310935E030093F5
:103C70005D0397FF51C08E5A9F4F853A910508F01A
:103C800057C03092600320925F03509262034092CB
:103C900061032FEF40E06FEF90E080E00E949B0116
:103CA0006091860370918703409188035091890346
:103CB000ACE3A69FC001A79F900D1124840F951F10
:103CC000E0917E03F0917F03AE9F9001AF9F300D96
:103CD0001124E0918003F09181032E0F3F1F821B7E
:103CE000930B03970CF434CA70937F0360937E03A5
:103CF00050938103409380036AE772E059CF213FDC
:103D00003F4F2CF470925A0360925903A8CF10933E
:103D10005A0300935903A3CF009751F08E5A9F4F37
:103D2000853A910528F47092600360925F03ADCFED
:103D30001093600300935F03A8CF6AE772E082E408
:103D400096E00E94070B882309F4FAC08091420391
:103D500090914303B2E08B359B0709F0B1C02FEF80
:103D600040E060E090E080E00E949B0188E490E009
:103D70000E94710C809152039091530390934D03D4
:103D800080934C03209150033091510330934B03A7
:103D900020934A03809154039091550390934903D3
:103DA000809348032B3031050CF497C022E236E0B3
:103DB00030935A0320935903E8E7F5E0F0935C034E
:103DC000E0935B0310935E0300935D0397FF94C041
:103DD0008E5A9F4F853A910508F09AC03092600341
:103DE00020925F035092620340926103E0904E0381
:103DF000F0904F03E114F10409F08FC020E040E09F
:103E000060E090E080E00E949B01809186039091A9
:103E100087034CE3489F9001499F300D1124809106
:103E2000880390918903820F931F60917E037091A4
:103E30007F03469F9001479F300D112440918003DE
:103E400050918103240F351F821B930B0B970CF0AD
:103E500070C06091860370918703409188035091F0
:103E60008903ACE3A69FC001A79F900D1124840F86
:103E7000951FE0917E03F0917F03AE9F9001AF9F6D
:103E8000300D1124E0918003F09181032E0F3F1F2C
:103E9000821B930B8531910544F425E0E216F10471
:103EA00009F056C904970CF453C970937F036093CB
:103EB0007E03509381034093800367E872E078CEDD
:103EC0008D55924039F420E04FEF60E090E080E0C3
:103ED0000E949B0189E490E04BCF263F3F4F3CF48A
:103EE000A6E9B5E0B0935A03A093590365CF1093A8
:103EF0005A030093590360CF009751F08E5A9F4F99
:103F0000853A910528F47092600360925F036ACF4E
:103F10001093600300935F0365CFF5E0EF16F104A3
:103F200009F073CF20E04FEF60E090E080E00E9466
:103F30009B0188EE93E0909364038093630389CFA1
:103F400067E872E082E496E00E94070B882309F498
:103F5000B4C086E090E00E94710CE0905203F090B3
:103F60005303F0924D03E0924C03209150033091A3
:103F7000510330934B0320934A0380915403909153
:103F800055039093490380934803203131050CF485
:103F900074C042E256E050935A0340935903E8E755
:103FA000F5E0F0935C03E0935B0310935E030093F2
:103FB0005D0397FF71C08E5A9F4F853A910508F0B7
:103FC00077C03092600320925F0350926203409268
:103FD0006103C0904E03D0904F0320E040E060E0CA
:103FE000C114D10439F0F5E0CF16D10439F42FEF24
:103FF0004FEF6FEF90E080E00E949B01609186039D
:10400000709187034091880350918903ACE3A69F88
:10401000C001A79F900D1124840F951FE0917E038E
:10402000F0917F03AE9F9001AF9F300D1124E0917E
:104030008003F09181032E0F3F1F821B930B803171
:10404000910584F425E0C216D10409F081C83BE053
:10405000E30EF11CA7E1EA16F10408F079C8049711
:104060000CF476C870937F0360937E0350938103B2
:104070004093800363E972E09BCD213F3F4F3CF4C6
:10408000A6E9B5E0B0935A03A093590388CF1093E3
:104090005A030093590383CF009751F08E5A9F4FD4
:1040A000853A910528F47092600360925F038DCF8A
:1040B0001093600300935F0388CF63E972E082E4AA
:1040C00096E00E94070B882309F4A6C086E090E0E2
:1040D0000E94710C209152033091530330934D0391
:1040E00020934C03409150035091510350934B0344
:1040F00040934A0380915403909155039093490350
:1041000080934803403151050CF459C030925A0352
:10411000209259032D3031050CF45EC030925C03BF
:1041200020925B0310935E0300935D0397FF61C0D1
:104130008E5A9F4F853A910508F069C022E236E019
:104140003093600320935F035092620340926103B7
:1041500024E64FEF64E690E080E00E949B016091CE
:104160008603709187034091880350918903ACE3E3
:10417000A69FC001A79F900D1124840F951FE09169
:104180007E03F0917F03AE9F9001AF9F300D11240D
:10419000E0918003F09181032E0F3F1F821B930B50
:1041A000049714F40C94A81870937F0360937E0313
:1041B000509381034093800361EA72E0F9CC413F60
:1041C0005F4F2CF470925A0360925903A3CF10935F
:1041D0005A03009359039ECF243F3F4F2CF4709213
:1041E0005C0360925B039ECF10935C0300935B03C0
:1041F00099CF009761F08E5A9F4F853A910538F418
:1042000046E955E05093600340935F039DCF1093C0
:10421000600300935F0398CF61EA72E082E496E066
:104220000E94070B882309F4E9C088E090E00E940F
:10423000710CC0905203D0905303D0924D03C092A2
:104240004C03809150039091510390934B038093C2
:104250004A03E0905403F0905503F0924903E09232
:104260004803809142039091430352E08B359507B8
:1042700009F08EC02FEF40E060E090E080E00E9407
:104280009B0186E995E090935A038093590330E1AE
:10429000C316D1040CF494C030925C0320925B03EB
:1042A00010935E0300935D031E141F040CF097C06F
:1042B0005BE0E516F1040CF49CC0309260032092A0
:1042C0005F0350926203409261032FEF40E06FEF73
:1042D00090E080E00E949B0180914E0390914F03FB
:1042E000059751F40E940C056093310370933203DB
:1042F0008093330390933403109230030E940C0593
:10430000C0903103D0903203E0903303F090340337
:104310006C197D098E099F096D3B724081059105DD
:1043200018F081E0809330036091860370918703D9
:104330004091880350918903ACE3A69FC001A79FD9
:10434000900D1124840F951FE0917E03F0917F035F
:10435000AE9F9001AF9F300D1124E0918003F0914A
:1043600081032E0F3F1F821B930B089734F480911B
:104370003003882311F40C94A81870937F03609382
:104380007E0350938103409380036BE472E010CC72
:104390008D55924071F420E04FEF60E090E080E0B6
:1043A0000E949B01E2E2F6E0F0935A03E093590386
:1043B0006ECF22E236E030935A032093590367CF41
:1043C00041EFC4164FEFD4062CF470925C03609258
:1043D0005B0366CF10935C0300935B0361CF66EFD2
:1043E000E6166FEFF6062CF47092600360925F039E
:1043F00068CF1093600300935F0363CF6BE472E0B8
:1044000082E496E00E94070B882311F40C94A8180C
:1044100083E080937903E1E0F0E0F0937403E093AC
:1044200073030C94A8188091710390917203892BE7
:1044300009F03AC5F3E0FF1237C5809156038111A8
:104440001FC0809186039091870390937B03809394
:104450007A03809188039091890390937D038093E0
:104460007C036BE172E08CE396E00E94440B81E0F8
:10447000809356036BE172E08CE396E00E94440B5C
:1044800080915603882311F40C94A8186BE172E014
:104490008CE396E00E94070B882309F49FC188E013
:1044A00090E00E94710C20915203309153033887A1
:1044B0002F8330934D0320934C0340915003509130
:1044C00051035A87498750934B0340934A03809185
:1044D0005403909155039E838D8390934903809359
:1044E0004803A0914E03B0914F03BC87AB8715974B
:1044F00009F4F0C00E940C05C0904403D09045031D
:10450000E0904603F09047036C197D098E099F09DE
:10451000653F71408105910508F0B8C08091420364
:1045200090914303E2E08B359E0709F0A1C02FEF85
:1045300040E060E090E080E00E949B0144ECE42ECB
:10454000FF24FA944D815E81BA01550F880B990BB7
:104550000E94242B25E33AEF4EE85CE30E94832B74
:104560004B015C010E94052E6F87788B898B9A8B9B
:10457000B701FF0C880B990B0E94242B6B017C0167
:10458000C501B4010E94142D9B01AC01C701B60105
:104590000E94832B4B015C01A985BA85BD01BB0F2D
:1045A000880B990B0E94242B9B01AC01C501B4011F
:1045B0000E94A82C0E948B2D4B01A70196016F85AC
:1045C000788989899A890E94832B6B017C01EF810C
:1045D000F885BF01FF0F880B990B0E94242B9B01CC
:1045E000AC01C701B6010E94A82C0E948B2DCB0103
:1045F000B4010E94BC0620E030E84BEB54E460912B
:104600003E0370913F0380914003909141030E94CB
:10461000A82C0E948B2D70935A036093590320E0BD
:1046200030E84BEB54E460913A0370913B03809186
:104630003C0390913D030E94A82C0E948B2D709307
:104640005C0360935B0310935E0300935D032D8115
:104650003E81121613060CF045C08EE096E0253020
:1046600031050CF047C01093600300935F0346C010
:104670008D55924039F420E04FEF60E090E080E00B
:104680000E949B013CE3E32EF12C5CCF0E940C05C1
:104690006C197D098E099F09653F7140810591055F
:1046A00068F40E940C056093440370934503809363
:1046B000460390934703F12CE12C44CF0E940C0554
:1046C0006C197D098E099F09603D77408105910530
:1046D00090F3E7CF2FEF4FEF6FEF90E080E00E9475
:1046E0009B01E9CF4D815E814C3F5F4F0CF0BBCF0A
:1046F0008AEA95E09093600380935F03A8E7B5E0B2
:10470000B0936203A0936103EB85FC85359751F06C
:104710000E940C056093360370933703809338032F
:10472000909339030E940C05E0918603F091870372
:1047300040918803509189032CE3D22EDE9E900194
:10474000DF9E300D11247901E40EF51E20917A03CD
:1047500030917B03D29ED001D39EB00D11242091C5
:104760007C0330917D032A0F3B1FD701A21BB30BA3
:104770009D011B97E4F48090360390903703A0903E
:104780003803B09039036B017C01C818D908EA08D6
:10479000FB08BDE2CB16B1E0DB06E104F10410F446
:1047A0000C94A8182330310514F40C94A818F09335
:1047B0007B03E0937A0350937D0340937C0360EB8B
:1047C00072E08CE396E00E94440B20E040E060E061
:1047D00081E090E00E949B010C94A81860EB72E0CD
:1047E0008CE396E00E94070B882309F4A9C086E0B9
:1047F00090E00E94710C209152033091530330934A
:104800004D0320934C03409150035091510350931A
:104810004B0340934A038091540390915503909326
:10482000490380934803433151050CF45CC0309236
:104830005A0320925903203131050CF461C03092A3
:104840005C0320925B0310935E0300935D0397FF6C
:1048500064C08E5A9F4F853A910508F06CC022E2E1
:1048600036E03093600320935F03509262034092DE
:10487000610324E64FEF64E690E080E00E949B0134
:10488000609186037091870340918803509189035A
:10489000ACE3A69FC001A79F900D1124840F951F24
:1048A000E0917A03F0917B03AE9F9001AF9F300DB2
:1048B0001124E0917C03F0917D032E0F3F1F821B9A
:1048C000930B039714F40C94A81870937B036093D4
:1048D0007A0350937D0340937C036EEB72E08CE38C
:1048E00096E00C94E1154E3E5F4F2CF470925A0303
:1048F00060925903A0CF10935A03009359039BCFA2
:10490000213F3F4F2CF470925C0360925B039BCF7E
:1049100010935C0300935B0396CF009761F08E5A6F
:104920009F4F853A910538F446E955E0509360036E
:1049300040935F039ACF1093600300935F0395CF7A
:104940006EEB72E08CE396E00E94070B882309F47B
:10495000A2C085E090E00E94710C8091520390917A
:10496000530390934D0380934C0320915003309157
:10497000510330934B0320934A0380915403909149
:1049800055039093490380934803203131050CF47B
:1049900062C030925A0320925903A0E4B6E0B0936B
:1049A0005C03A0935B0310935E0300935D0397FF8A
:1049B0005FC08E5A9F4F853A910508F067C0E2E2CA
:1049C000F6E0F0936003E0935F035092620340923D
:1049D00061032FEF40E06FEF90E080E00E949B01C9
:1049E00060918603709187034091880350918903F9
:1049F000ACE3A69FC001A79F900D1124840F951FC3
:104A0000E0917A03F0917B03AE9F9001AF9F300D50
:104A10001124E0917C03F0917D032E0F3F1F821B38
:104A2000930B8430910564F420914E0330914F0331
:104A3000232B11F00C94A818029714F40C94A818C6
:104A400070937B0360937A0350937D0340937C03C0
:104A50006CEC72E044CF213F3F4F2CF470925A032C
:104A6000609259039ACF10935A030093590395CF3C
:104A7000009761F08E5A9F4F853A910538F426E9E8
:104A800035E03093600320935F039FCF1093600362
:104A900000935F039ACF6CEC72E08CE396E00E9487
:104AA000070B882309F4A1C089E090E00E94710CF3
:104AB000809152039091530390934D0380934C0344
:104AC000209150033091510330934B0320934A03BC
:104AD0008091540390915503909349038093480328
:104AE000233131050CF45FC042E256E050935A0383
:104AF00040935903E6E3F6E0F0935C03E0935B0335
:104B000010935E0300935D0397FF5CC08E5A9F4F26
:104B1000853A910508F064C022E236E030936003E4
:104B200020935F03509262034092610322E34FEFB0
:104B300062E390E080E00E949B01609186037091A7
:104B400087034091880350918903ACE3A69FC0017D
:104B5000A79F900D1124840F951FE0917A03F09187
:104B60007B03AE9F9001AF9F300D1124E0917C0339
:104B7000F0917D032E0F3F1F821B930B0B9744F484
:104B800080914E0390914F03019711F00C94A81857
:104B900070937B0360937A0350937D0340937C036F
:104BA00065ED72E09CCE2E3E3F4F3CF4A6E9B5E0A9
:104BB000B0935A03A09359039DCF10935A030093C7
:104BC000590398CF009761F08E5A9F4F853A91050F
:104BD00038F446E955E05093600340935F03A2CF59
:104BE0001093600300935F039DCF65ED72E08CE34B
:104BF00096E00E94070B882309F4B7C08AE090E092
:104C00000E94710C209152033091530330934D0355
:104C100020934C03409150035091510350934B0308
:104C200040934A0380915403909155039093490314
:104C300080934803433151050CF466C0A2E2B6E00C
:104C4000B0935A03A0935903203131050CF46BC083
:104C500022E236E030935C0320935B0310935E0303
:104C600000935D0397FF6EC08E5A9F4F853A910562
:104C700008F076C0E2E2F6E0F0936003E0935F03B1
:104C8000509262034092610380914E0390914F03D2
:104C90002FEF4FEF6FEF019719F020E040E060E059
:104CA00090E080E00E949B016091860370918703F1
:104CB0004091880350918903ACE3A69FC001A79F50
:104CC000900D1124840F951FE0917A03F0917B03DE
:104CD000AE9F9001AF9F300D1124E0917C03F091C5
:104CE0007D032E0F3F1F821B930B059714F40C942A
:104CF000A81870937B0360937A0350937D034093CD
:104D00007C0363EE72E0EBCD4E3E5F4F3CF4E6E990
:104D1000F5E0F0935A03E093590396CF10935A03AA
:104D20000093590391CF213F3F4F3CF4A6E9B5E0F2
:104D3000B0935C03A0935B0391CF10935C0300934B
:104D40005B038CCF009761F08E5A9F4F853A910597
:104D500038F426E935E03093600320935F0390CF69
:104D60001093600300935F038BCF63EE72E08CE3DC
:104D700096E00E94070B882309F481C08BE090E045
:104D80000E94710C809142039091430332E08D3573
:104D9000930709F055C020E04FEF60E090E080E01D
:104DA0000E949B0140E456E050935A0340935903FC
:104DB000EEE5F6E0F0935C03E0935B0310935E0393
:104DC00000935D031093600300935F0350926203AE
:104DD000409261036091860370918703409188033C
:104DE00050918903ACE3A69FC001A79F900D1124A9
:104DF000840F951FE0917A03F0917B03AE9F9001A1
:104E0000AF9F300D1124E0917C03F0917D032E0FB4
:104E10003F1F821B930B049744F480914E039091A3
:104E20004F03019711F00C94A81870937B036093C3
:104E30007A0350937D0340937C036BE472E04FCD83
:104E40008B55924071F42FEF40E060E090E080E0FD
:104E50000E949B0188E795E090935A038093590341
:104E6000A7CF20E040E06FEF90E080E00E949B0140
:104E7000A0E4B6E0B0935A03A093590399CF6BE432
:104E800072E08CE396E00E94070B882311F40C94E7
:104E9000A81884E08093790321E030E03093720316
:104EA000209371030C94A81880916F039091700364
:104EB000892B11F00C94A81834E0F3120C94A81864
:104EC0000E9464080C94A81810926603109265035F
:104ED0000C94D71820E040E06FEF90E080E00E9453
:104EE0009B0180916D0390916E0390935A03809380
:104EF000590380916B0390916C0390935C038093B2
:104F00005B038091690390916A0390935E038093A1
:104F10005D03809167039091680390936003809391
:104F20005F0348E755E0509362034093610380912B
:104F300057039091580390936403809363030C94F8
:104F400074140E9464080C947414CF93DF938091BE
:104F5000E0059091E105892BC1F0D0E0C0E0E0913F
:104F6000E005F091E105EC0FFD1F80819181009734
:104F700011F00E94A0282296C032D10581F78091BD
:104F8000E0059091E1050E94A0288091E2059091B2
:104F9000E305892BC1F0D0E0C0E0E091E205F0919B
:104FA000E305EC0FFD1F80819181009711F00E94B5
:104FB000A0282296C032D10581F78091E205909118
:104FC000E3050E94A02880912F06909130060E9450
:104FD000A02880912C0690912D0697FD03C060E0DB
:104FE0000E94A8038CE396E00E94E30A82E496E024
:104FF0000E94E30A88E496E00E94E30A8EE496E0C9
:10500000DF91CF910C94E30A0F931F93CF93DF931B
:105010008230910510F482E090E0E0915606F09124
:10502000570630E020E0B0E0A0E0309799F4211579
:10503000310509F44AC0281B390B24303105D8F555
:105040008A819B816115710589F1FB0193838283BC
:10505000FE0111C040815181028113814817590717
:10506000E0F04817590799F4109761F012960C93E5
:10507000129713961C933296CF01DF91CF911F9117
:105080000F9108950093560610935706F4CF2115FB
:10509000310551F04217530738F0A901DB019A019D
:1050A000BD01DF01F801C1CFEF01F9CF90935706A1
:1050B00080935606CDCFFE01E20FF31F81939193AB
:1050C0002250310939832883D7CF2091540630915B
:1050D0005506232B41F420910502309106023093AE
:1050E00055062093540620910302309104022115A5
:1050F000310541F42DB73EB74091070250910802A7
:10510000241B350BE0915406F0915506E217F30786
:10511000A0F42E1B3F0B2817390778F0AC014E5F27
:105120005F4F2417350748F04E0F5F1F5093550609
:1051300040935406819391939FCFF0E0E0E09CCFA1
:10514000CF93DF930097E9F0FC013297138212822C
:10515000A0915606B0915706ED0130E020E010977F
:10516000A1F420813181820F931F20915406309148
:1051700055062817390709F061C0F0935506E093EA
:105180005406DF91CF910895EA01CE17DF07E8F5C5
:105190004A815B819E0141155105B1F7E901FB830D
:1051A000EA8349915991C40FD51FEC17FD0761F4AB
:1051B000808191810296840F951FE90199838883EC
:1051C000828193819B838A83F0E0E0E012968D9147
:1051D0009C9113970097B9F52D913C911197CD01B2
:1051E0000296820F931F209154063091550628177E
:1051F000390739F6309751F5109257061092560636
:10520000B0935506A0935406BCCFD383C28340818C
:105210005181840F951FC817D90761F44E5F5F4F06
:1052200088819981480F591F518340838A819B81CE
:10523000938382832115310509F0B0CFF09357068F
:10524000E09356069ECFFD01DC01C0CF138212828F
:10525000D7CF662777270C948E291F93FC019927B7
:105260008827BC01E89411911032E9F3193010F04D
:105270001E30C8F31B3251F01D3249F4689406C049
:105280000E945F29610F711D811D911D11911053A5
:105290001A30B0F33EF490958095709561957F4FEC
:1052A0008F4F9F4F1F910895BB274A3031F49923A8
:1052B00022F4BDE2909581959F4F0C947529592F4A
:1052C000482F372F262F660F771F881F991F660FCD
:1052D000771F881F991F620F731F841F951F660F0A
:1052E000771F881F991F0895BB27FB015527AA2701
:1052F000880F991FAA1FA41710F0A41B8395505163
:10530000B9F7A05DAA3308F0A95DA193009779F7DA
:10531000B111B1931192CB010C940D2B8F929F92EE
:10532000AF92BF92CF92DF92EF92FF920F931F93B3
:10533000CF93DF935C017B016115710519F0DB01EF
:105340008D939C9385010F5F1F4FF501D0818D2FA9
:1053500090E00E94EC2A6C01892BB9F5DD32B9F599
:105360000F5F1F4FD5011196DC91C1E05801F1E0AC
:10537000AF1AB10843E050E062E771E0C5010E9456
:10538000F52A892B69F5680182E0C80ED11C45E039
:1053900050E06DE671E0C6010E94F52A892B21F4E8
:1053A000680197E0C90ED11CE114F10419F0D7018E
:1053B000CD92DC9260E070E080E89FEFC111FFC009
:1053C00060E070E080E89FE7FAC05801BBCFDB32B5
:1053D00029F485010E5F1F4FF501D181C0E0C6CFD2
:1053E00043E050E06AE671E0C5010E94F52A892B8E
:1053F000E9F0F80110E000E020E030E0A9015F01F1
:10540000B0ED8B2E8D0E89E08815C8F19C2E689426
:1054100091F88C2F8870C2FF16C0811102C00F5FF7
:105420001F4F3196D501DC91C92DE9CFE114F1046C
:1054300029F00E5F1F4FF7011183008360E070E0D9
:1054400080EC9FE7BCC0882311F001501109A5E052
:10545000B0E00E94632C9B01AC01220F331F441F5C
:10546000551F280D311D411D511D283999E9390756
:10547000490799E15907A8F2C6609C2ED2CFAEEF3A
:105480008A1206C0C3FD3CC09C2E689493F8C9CF15
:10549000DF7DD534A9F580818D3239F4C061DF011B
:1054A0001296818162E070E006C0DF018B32C1F3A9
:1054B000119661E070E080535D01A61AB70A8A3048
:1054C000F8F4E0E8CE16ECE0DE065CF4B601660F18
:1054D000771F660F771FC60ED71ECC0CDD1CC80EBB
:1054E000D11C5D01FFEFAF1ABF0A8C9180538A3047
:1054F000A8F1C4FF03C0D194C194D1080C0D1D1DA7
:10550000C1FF09C0E114F10431F081E0A81AB1082B
:10551000D701AD92BC92CA01B9010E94222BC3707F
:10552000C33009F490584B015C0120E030E0A90140
:105530000E941D2B882309F440C0C1EAD1E017FF67
:1055400005C0119501951109C9E8D1E06E01B8E1D6
:10555000CB1AD10880E2E82EF12C0FC0D501B1CFD3
:10556000FE0125913591459154910E191F09C501F0
:10557000B4010E94832B4B015C01D501C4010E15BF
:105580001F0574F72497F594E794CC16DD06A9F768
:105590008A2F880F8B2F881F8F3F49F020E030E043
:1055A000A901C501B4010E941D2B811106C082E230
:1055B00090E09093590680935806C501B401DF919D
:1055C000CF911F910F91FF90EF90DF90CF90BF9000
:1055D000AF909F908F90089591110C94F02B803292
:1055E00019F089508550C8F70895FB01DC0141503E
:1055F000504088F08D9181341CF08B350CF4805E26
:10560000659161341CF06B350CF4605E861B611192
:1056100071F3990B0895881BFCCFDC01FC01672F07
:1056200071917723E1F7329704C07C916D93708379
:105630006291AE17BF07C8F308950E945F2B08F46C
:1056400081E00895E89409C097FB3EF49095809519
:10565000709561957F4F8F4F9F4F9923A9F0F92F38
:1056600096E9BB279395F695879577956795B795B6
:10567000F111F8CFFAF4BB0F11F460FF1BC06F5F9C
:105680007F4F8F4F9F4F16C0882311F096E911C0AE
:10569000772321F09EE8872F762F05C0662371F0CF
:1056A00096E8862F70E060E02AF09A95660F771FE3
:1056B000881FDAF7880F9695879597F90895990FBF
:1056C0000008550FAA0BE0E8FEEF16161706E807CC
:1056D000F907C0F012161306E407F50798F0621BED
:1056E000730B840B950B39F40A2661F0232B242BC2
:1056F000252B21F408950A2609F4A140A6958FEFE1
:10570000811D811D08950E94962B0C940A2C0E94E5
:10571000FC2B38F00E94032C20F0952311F00C9400
:10572000F32B0C94F92B11240C943E2C0E941B2C6F
:1057300070F3959FC1F3950F50E0551F629FF001E4
:10574000729FBB27F00DB11D639FAA27F00DB11DFD
:10575000AA1F649F6627B00DA11D661F829F222786
:10576000B00DA11D621F739FB00DA11D621F839F0D
:10577000A00D611D221F749F3327A00D611D231FE3
:10578000849F600D211D822F762F6A2F11249F5731
:1057900050409AF0F1F088234AF0EE0FFF1FBB1F34
:1057A000661F771F881F91505040A9F79E3F5105F3
:1057B00080F00C94F32B0C943E2C5F3FE4F3983E66
:1057C000D4F3869577956795B795F795E7959F5F9D
:1057D000C1F7FE2B880F911D9695879597F908952F
:1057E00099278827089597F99F6780E870E060E01F
:1057F00008959FEF80EC089500240A94161617066A
:1058000018060906089500240A94121613061406B1
:1058100005060895092E0394000C11F4882352F014
:10582000BB0F40F4BF2B11F460FF04C06F5F7F4FCC
:105830008F4F9F4F089557FD9058440F551F59F0B3
:105840005F3F71F04795880F97FB991F61F09F3F6D
:1058500079F087950895121613061406551FF2CF96
:105860004695F1DF08C0161617061806991FF1CFE6
:1058700086957105610508940895E894BB2766270D
:105880007727CB0197F90895052E97FB1EF4009416
:105890000E945B2C57FD07D00E94762C07FC03D09A
:1058A0004EF40C945B2C50954095309521953F4FCC
:1058B0004F4F5F4F089590958095709561957F4FFC
:1058C0008F4F9F4F08950E94982CA59F900DB49FD5
:1058D000900DA49F800D911D11240895B7FF0C9485
:1058E000632C0E94632C821B930B0895A1E21A2E55
:1058F000AA1BBB1BFD010DC0AA1FBB1FEE1FFF1F74
:10590000A217B307E407F50720F0A21BB30BE40BC3
:10591000F50B661F771F881F991F1A9469F760950A
:105920007095809590959B01AC01BD01CF010895C4
:10593000A29FB001B39FC001A39F700D811D1124D0
:10594000911DB29F700D811D1124911D0895505815
:10595000BB27AA270E94BF2C0C940A2C0E94FC2B68
:1059600038F00E94032C20F039F49F3F19F426F4FC
:105970000C94F92B0EF4E095E7FB0C94F32BE92F34
:105980000E941B2C58F3BA17620773078407950708
:1059900020F079F4A6F50C943D2C0EF4E0950B2E36
:1059A000BA2FA02D0B01B90190010C01CA01A00171
:1059B0001124FF27591B99F0593F50F4503E68F1CC
:1059C0001A16F040A22F232F342F4427585FF3CF0D
:1059D000469537952795A795F0405395C9F77EF4DE
:1059E0001F16BA0B620B730B840BBAF09150A1F027
:1059F000FF0FBB1F661F771F881FC2F70EC0BA0FAD
:105A0000621F731F841F48F4879577956795B79534
:105A1000F7959E3F08F0B0CF9395880F08F099272F
:105A2000EE0F9795879508950E94C32DE3950C94EA
:105A3000EC2D0E942D2D0C940A2C0E94032C58F062
:105A40000E94FC2B40F029F45F3F29F00C94F32BCB
:105A500051110C943E2C0C94F92B0E941B2C68F3D2
:105A60009923B1F3552391F3951B550BBB27AA2717
:105A700062177307840738F09F5F5F4F220F331F51
:105A8000441FAA1FA9F335D00E2E3AF0E0E832D019
:105A900091505040E695001CCAF72BD0FE2F29D01C
:105AA000660F771F881FBB1F261737074807AB07EE
:105AB000B0E809F0BB0B802DBF01FF2793585F4F63
:105AC0003AF09E3F510578F00C94F32B0C943E2C49
:105AD0005F3FE4F3983ED4F3869577956795B79545
