:100000000C9449010C947A010C947A010C947A01B5
:100010000C947A010C947A010C947A010C947A0174
:100020000C947A010C947A010C947A010C947A0164
:100030000C947A010C947A010C947A010C947A0154
:100040000C947A010C94E00D0C947A010C947A01D2
:100050000C947A010C947A010C947A010C94960D0C
:100060000C947A010C94600D0C94360D0C947A016A
:100070000C947A010C947A010C947A010C947A0114
:100080000C947A010C947A010C947A010C947A0104
:100090000C94000D0C94D60C0C947A010C947A01FB
:1000A0000C947A010C947A010C947A010C947A01E4
:1000B0000C947A010C947A010C947A010C947A01D4
:1000C0000C947A010C947A010C947A010C947A01C4
:1000D0000C947A010C947A010C947A010C947A01B4
:1000E0000C947A010C9442030C948F030C947703C4
:1000F0000C9493030C943A1F0C945C030C94000230
:100100000C9473020C9460030C9485030C94C0024D
:100110000C945F0E0C9463030C940F020C94230256
:100120000C9469030C94D3010C9431020C94540385
:100130000C9473030C9458030C9481030C943D03AA
:100140000C946D030C947B030C9489034E414E492F
:100150004E495459494E46CDCCCC3D0AD7233C1785
:10016000B7D13877CC2B329595E6241FB14F0A00D2
:100170000020410000C84200401C4620BCBE4CCAC2
:100180001B0E5AAEC59D7400002100240027002AD2
:10019000002D003000330001010000040107010AB6
:1001A0000100000A0B02090C0D0E080703040100F0
:1001B000000000000000000000000000000000003F
:1001C00000000000000000000000000000121110FC
:1001D000000000000000000000000000000000001F
:1001E000000000000000000102102020080810207C
:1001F00040102040800201020108040201010204B3
:100200000810204080804020100804020180040271
:1002100001804020100804020108040201010204C8
:1002200008102040800102040810204080000022B5
:1002300000250028002B002E0031003400020100B0
:1002400000050108010B010505050507050808085B
:1002500008020202020A0A08080404040401010157
:10026000010101010103030303030303030407075F
:10027000070C0C0C0C0C0C0C0C02020202060606FD
:1002800006060606060B0B0B0B0B0B0B0B005F0E8B
:100290003A1F11241FBECFEFD1E2DEBFCDBF00E079
:1002A0000CBF12E0A0E0B2E0EAEFFCE400E00BBF1C
:1002B00002C007900D92A232B107D9F725E0A2E261
:1002C000B2E001C01D92AD34B207E1F711E0C8E41D
:1002D000D1E000E006C021970109802FFE010E94B5
:1002E0003324C734D10780E00807A9F70E94790FAB
:1002F0000C946B260C94000080919F02882359F087
:10030000E0919E029FEF980F90939F02E81BF0E010
:10031000E056FD4F82810895E0913305F091340558
:100320008E179F0798F530913905332361F0639F4D
:10033000B0011124672F349FA0011124452F329F53
:1003400090011124232F30913F05E0913A05F0915F
:100350003B0550913C0535131AC0DC01AA0FBB1FA9
:100360008A0F9B1F8E0F9F1FE0913C05E80FF92F0E
:10037000F11D6083E0913D05E80FF92FF11D4083E9
:1003800030913E05830F911DFC0120830895880F55
:10039000991F880F991F8E0F9F1FFC01E30FF11DFE
:1003A0001082E2CF0895AF92BF92CF92DF92EF9288
:1003B000FF920F931F93CF93DF936C017B018B010F
:1003C000040F151FEB015E01AE18BF08C017D1075F
:1003D00059F06991D601ED91FC910190F081E02DE9
:1003E000C6011995892B79F7C501DF91CF911F912E
:1003F0000F91FF90EF90DF90CF90BF90AF90089556
:10040000FC01538D448D252F30E0842F90E0821B1A
:10041000930B541710F0CF96089501970895FC019F
:10042000918D828D981761F0A28DAE0FBF2FB11DF7
:100430005D968C91928D9F5F9F73928F90E008954F
:100440008FEF9FEF0895FC01918D828D981731F009
:10045000828DE80FF11D858D90E008958FEF9FEF5D
:100460000895FC01918D228D892F90E0805C9F4F33
:10047000821B91098F739927089581E693E00E946A
:10048000310221E0892B09F420E0822F089584ECC9
:1004900092E00E94310221E0892B09F420E0822FB2
:1004A0000895FC01A48DA80FB92FB11DA35ABF4F09
:1004B0002C91848D90E001968F739927848FA68963
:1004C000B7892C93A089B1898C91837080648C93B7
:1004D000938D848D981306C00288F389E02D808166
:1004E0008F7D80830895EF92FF920F931F93CF9398
:1004F000DF93EC0181E0888F9B8D8C8D98131AC05F
:10050000E889F989808185FF15C09FB7F894EE8945
:10051000FF896083E889F9898081837080648083A2
:100520009FBF81E090E0DF91CF911F910F91FF90ED
:10053000EF900895F62E0B8D10E00F5F1F4F0F7395
:100540001127E02E8C8D8E110CC00FB607FCFACF50
:10055000E889F989808185FFF5CFCE010E9451029B
:10056000F1CFEB8DEC0FFD2FF11DE35AFF4FF08221
:100570009FB7F8940B8FEA89FB8980818062CFCF87
:10058000CF93DF93EC01888D8823B9F0AA89BB89CA
:10059000E889F9898C9185FD03C0808186FD0DC0B5
:1005A0000FB607FCF7CF8C9185FFF2CF808185FFD6
:1005B000EDCFCE010E945102E9CFDF91CF91089596
:1005C00080E090E0892B29F00E94470281110E946F
:1005D000000080E090E0892B29F00E943D0281110B
:1005E0000E94000080E090E0892B49F080E090E0DC
:1005F000892B29F00E94000081110E94000080E0F8
:1006000090E0892B49F080E090E0892B29F00E944E
:10061000000081110C9400000895282F30E0F901AA
:10062000EF55FE4F9491F901E951FE4F4491295B3A
:100630003D4FF9012491222309F435C0992311F18A
:1006400091509231F8F4E92FF0E08827E55DFC4FF6
:100650008F4F0C9433245C0360033D035403580311
:100660004203630369036D03730377037B03810311
:100670008503420389038F039303809180008F7762
:1006800080938000E22FF0E0EE0FFF1FE35DFD4F4F
:10069000A591B4918FB7F894EC91611148C0409541
:1006A0004E234C938FBF0895809180008F7DE8CFBB
:1006B00080918000877FE4CF84B58F7784BDE2CFBF
:1006C00084B58F7DFBCF8091B0008F778093B00091
:1006D000D9CF8091B0008F7DF9CF809190008F7736
:1006E00080939000CFCF809190008F7DF9CF809143
:1006F0009000877FF5CF8091A0008F778093A00036
:10070000C1CF8091A0008F7DF9CF8091A000877F1D
:10071000F5CF809120018F7780932001B3CF809116
:1007200020018F7DF9CF80912001877FF5CF4E2B5F
:10073000B8CFCF93DF9390E0FC01E951FE4F2491B5
:10074000895B9D4FFC0184918823D1F090E0880F54
:10075000991FFC01E957FE4FA591B491FC01E35D9F
:10076000FD4FC591D49161110EC09FB7F8948C9143
:10077000E22FE0958E238C932881E223E8839FBFAC
:10078000DF91CF9108958FB7F894EC91E22BEC9321
:100790008FBFF6CF3FB7F894809136029091370221
:1007A000A0913802B091390226B5A89B05C02F3F11
:1007B00019F00196A11DB11D3FBFBA2FA92F982F87
:1007C0008827BC01CD01620F711D811D911D42E082
:1007D000660F771F881F991F4A95D1F70895CF920A
:1007E000DF92EF92FF920F931F93CF93DF9300D08E
:1007F00000D000D0CDB7DEB780913A0590913B058F
:10080000892B09F480C0C0904005D0904105E0904C
:100810004205F09043050E94CA036C157D058E05C4
:100820009F0550F40E94CA036093400570934105F0
:1008300080934205909343050E94CA0300914005AE
:10084000109141052091420530914305601B710BC9
:10085000820B930B6C32714081059105A0F2F894E4
:1008600080913505909136059A838983E0913A0508
:10087000F0913B05DF0111968081898790913105C8
:10088000E0914405F091450580914605992309F4CE
:1008900049C09081982B98879081809589238F8378
:1008A0008F818C8388E08B8358856F8149853B815C
:1008B0002C8189819A81508347FD252F3A95208389
:1008C000262F39F0441F00C000006083000000C0E4
:1008D000F2CF38E04D9160830000019761F7F0930B
:1008E0004505E093440549873B832C839A8389839C
:1008F00078940E94CA0360934005709341058093E9
:1009000042059093430529960FB6F894DEBF0FBEBB
:10091000CDBFDF91CF911F910F91FF90EF90DF90AE
:10092000CF9008959081982B988790818095892306
:100930008F838F818E8388E08D8358856F81498571
:100940003D812E8189819A81508347FD252F00C0EA
:1009500000C0208300C000C000C000C000C0608391
:100960000000262F3A9541F0441F000000C000C04F
:1009700000C000C000C0E8CF38E04D9100C06083E7
:1009800000C0019709F7F0934505E09344054987B6
:100990003D832E83ABCF8F929F92AF92BF92CF9227
:1009A000DF92EF92FF924B015C010E94CA036B0140
:1009B0007C010E94CA036C197D098E099F09683E5B
:1009C000734081059105A8F321E0821A9108A108DE
:1009D000B10888EEC80E83E0D81EE11CF11C81141A
:1009E0009104A104B10429F7FF90EF90DF90CF901C
:1009F000BF90AF909F908F9008952FB7F89460911B
:100A000032027091330280913402909135022FBFEF
:100A10000895CF92DF92EF92FF92CF93DF930E94DF
:100A2000FD046B017C0184E98093BC00C091C2028B
:100A3000D091C3028091BC0084FF1FC02097D1F3E6
:100A40000E94FD04AB01BC014C195D096E097F09D0
:100A5000CE01B0E0A0E0481759076A077B0730F3E2
:100A60001092BC0084E48093BC0081E0DF91CF91C0
:100A7000FF90EF90DF90CF90089580E0F7CFCF9276
:100A8000DF92EF92FF92CF93DF938093BB000E949F
:100A9000FD046B017C0184E88093BC00C091C2021C
:100AA000D091C3028091BC0087FD20C02097D1F374
:100AB0000E94FD04AB01BC014C195D096E097F0960
:100AC000CE01B0E0A0E0481759076A077B0730F372
:100AD0001092BC0084E48093BC00C1E08C2FDF91B5
:100AE000CF91FF90EF90DF90CF9008958091B90063
:100AF000887F8831D9F08091B900887F8034B1F047
:100B0000C091B900C87F8091B900887F803259F0C8
:100B10008091B900887F883431F01092BC0084E461
:100B20008093BC00DBCF0E940905D8CFC0E0D6CFB0
:100B3000CF92DF92EF92FF92CF93DF930E94FD045A
:100B40006B017C0184EA8093BC00C091C202D09109
:100B5000C3028091BC0087FD1FC02097D1F30E9483
:100B6000FD04AB01BC014C195D096E097F09CE0182
:100B7000B0E0A0E0481759076A077B0730F31092EE
:100B8000BC0084E48093BC0081E0DF91CF91FF90B2
:100B9000EF90DF90CF9008958091B900887F8830E2
:100BA000B9F08091B900887F803191F08091B900CF
:100BB000887F883349F48091B900887F1092BC0007
:100BC00094E49093BC00E1CF8091B900887FDDCFA1
:100BD00080E0DBCFCF92DF92EF92FF92CF93DF9353
:100BE000C82F0E94FD046B017C0184ECC11101C07F
:100BF00084E88093BC00C091C202D091C30280916E
:100C0000BC0087FD1FC02097D1F30E94FD04AB01FB
:100C1000BC014C195D096E097F09CE01B0E0A0E06E
:100C2000481759076A077B0730F31092BC0084E429
:100C30008093BC0081E0DF91CF91FF90EF90DF9037
:100C4000CF9008958091B900887F883349F48091CE
:100C5000B900887F1092BC0094E49093BC00EBCF65
:100C60008091B900887FE7CF0F931F93CF93DF93D5
:100C7000C82FD62F10929F02611101C0D1E08FEFD3
:100C80008D0F8093A1021092A0020E94980580937C
:100C9000A00281111CC08C2F880F8F5F0E943F051E
:100CA0008093A002882321F0813089F485E00FC071
:100CB00002EA12E0C0E08091A1028C1325C080E01E
:100CC0000E94EA058093A002813031F486E0DF9132
:100CD000CF911F910F9108958835C9F78091BB007E
:100CE000F80181938F01CF5FC0939F02C0939E0252
:100CF000DC13E1CF0E9409058093A002882339F319
:100D0000813029F787E0E3CF81E00E94EA058093F4
:100D1000A0028130D9F2803509F3D9CF2091620247
:100D200030916302032E000C440B550B285E3340B8
:100D300041095109A8E1BCEF0E94D42228EE33E01A
:100D400040E050E00E94A7222053384F4F4F5F4FA2
:100D500030936F0220936E020895CF92DF92EF924C
:100D6000FF920E94FD04C0904402D0904502E090A2
:100D70004602F09047026C197D098E099F0964367E
:100D800071058105910528F528EC48EC68EC90E0A8
:100D900080E00E948C018CED95E090936502809339
:100DA0006402909367028093660222EF33E03093EF
:100DB00069022093680290936B0280936A02909379
:100DC0006D0280936C02FF90EF90DF90CF900C94B7
:100DD000EF030E94FD046C197D098E099F0964369A
:100DE00071058105910578F00E94FD046C197D095B
:100DF0008E099F09683C71058105910520F420E06A
:100E000040E060E0C4CF0E94FD0460934402709310
:100E100045028093460290934702BDCF3F924F9286
:100E20005F926F927F928F929F92AF92BF92CF927A
:100E3000DF92EF92FF920F931F93CF93DF938091F6
:100E4000260281110DC00E94CA0360932202709392
:100E50002302809324029093250281E0809326024E
:100E60000E94CA03009122021091230220912402C1
:100E700030912502601B710B820B930B00910604CD
:100E800010910704209108043091090406171707F0
:100E90002807390710F410920A04C1E080912F0549
:100EA00090913005DC01ED91FC910084F185E02DFD
:100EB0001995181619060CF06CC00E94CA036093AD
:100EC0002202709323028093240290932502809142
:100ED0002F0590913005DC01ED91FC910284F385A2
:100EE000E02D199580930C0490910A04911116C07D
:100EF0009091020489130FC090910B042091030478
:100F0000921739F020910504922320910404921342
:100F100002C0C0930A0480930B04C0CF993140F4FF
:100F2000E92FF0E0E250FC4F86879F5F90930A0420
:100F300090910A04993179F790910304891739F057
:100F400090910504892390910404891320C0109284
:100F50000A0460910D0470910E04C0900E04D12C0F
:100F600080900F04D0911004E090110400911204BD
:100F7000A0901304C09114043090150480912304B0
:100F8000909125049823B9F41092000217C0109292
:100F90000A04DF91CF911F910F91FF90EF90DF90A6
:100FA000CF90BF90AF909F908F907F906F905F9009
:100FB0004F903F90089591E0909300029091260405
:100FC000892309F435C181E080930202912CF12C30
:100FD00010E0B12C7770072E000C880B990B0E9443
:100FE000872123E333E343E35FE30E94E62120E02C
:100FF00030EC46E454E40E940B230E94E9239B0159
:10100000AC012B51344041095109A8EEB3E00E94D4
:10101000C62228E9422E23E0522E612C712CA30116
:1010200092010E94A72228513C4F4F4F5F4F3093AF
:1010300079022093780233E0D594C7943A95E1F78A
:10104000B40145E0660F771F4A95E1F76C297D29C9
:101050007770072E000C880B990B0E94872123E3E1
:1010600033E343E35FE30E94E62120E030EC46E413
:1010700054E40E940B230E94E9239B01AC012B51F5
:10108000344041095109A8EEB3E00E94C622A301F1
:1010900092010E94A72228513C4F4F4F5F4F30933F
:1010A000770220937602B4E0DB9FB0011124C701E0
:1010B000982F8827990F990F682B792BE6E0959444
:1010C0008794EA95E1F7682979297770072E000C53
:1010D000880B990B0E94872123E333E343E35FE30B
:1010E0000E94E62120E030EC46E454E40E940B2309
:1010F0000E94E9239B01AC012B5134404109510965
:10110000A8EEB3E00E94C622A30192010E94A7228A
:1011100028513C4F4F4F5F4F30937502209374021C
:10112000B701759567957801F694FE2CEE24F79437
:10113000E7946E297F297770072E000C880B990B96
:101140000E94872123E333E343E35FE30E94E62128
:1011500020E030EC46E454E40E940B230E94E92393
:101160009B01AC012B51344041095109A8EEB3E079
:101170000E94C622A30192010E94A72228513C4F3F
:101180004F4F5F4F3093730220937202B801B4E067
:1011900075956795BA95E1F78501D4E0000F111FA9
:1011A000DA95E1F7602B712B7770072E000C880B16
:1011B000990B0E94872123E333E343E35FE30E941B
:1011C000E62120E030EC46E454E40E940B230E9428
:1011D000E92370939D0260939C026C2F70E0660F70
:1011E000771FC32DD0E0DC2FCC27DD0F6C2B7D2BA0
:1011F000AA0CAB2CAA1CBB086A297B297770072E86
:10120000000C880B990B0E94872123E333E343E30F
:101210005FE30E94E62120E030EC46E454E40E94C3
:101220000B230E94E9237093630260936202B1CEA4
:1012300010920202CBCE1092990210928302109269
:10124000820210924302EFE3F2E0118210821382D5
:10125000128210923E02109281021092800210922D
:101260004902EDE8F2E0118210821382128210929C
:10127000480210927F0210927E0210924B02E9E81F
:10128000F2E0118210821382128210924A021092AE
:101290007D0210927C0210926102E5E8F2E0118278
:1012A0001082138212821092600210927B021092BE
:1012B0007A021092840210929B0210927102109294
:1012C000700210925702109256021092550210921C
:1012D00054028AE590E09093530280935202E8E52D
:1012E000F2E0118210821382128215821482178218
:1012F00016828BE192E0909351028093500220E09D
:1013000040E060E082E090E00C948C01FC01808180
:101310009181009711F00C94D7240895CF93DF9317
:10132000FC01248135816217730788F49B01C08119
:10133000D1816BE370E0CE01820F931F0E944A2699
:10134000009729F08C1B9D0BDF91CF9108958FEFB3
:101350009FEFFACFEF92FF920F931F93CF93DF93FC
:10136000EC017B018A0188819981009729F02A810B
:101370003B812417350788F4B8016F5F7F4F0E94C7
:101380006025009791F0998388831B830A832C81C1
:101390003D81232B11F4FC0110821D830C83B701C6
:1013A000888199810E9455260CC088819981009777
:1013B00011F00E94D724198218821D821C821B8280
:1013C0001A82CE01DF91CF911F910F91FF90EF9084
:1013D0000895AF92BF92CF92DF92EF92FF920F9358
:1013E0001F93CF93DF93EC016B015A01790124170E
:1013F000350720F48B2D5901E42EF82E198218821E
:101400001B821A821D821C8250E040E06CE172E077
:10141000CE010E94AA09D60114960D911C91A01626
:10142000B10628F5E016F10608F48701D601ED9122
:10143000FC911197E00FF11FF08010826D917C916B
:101440006A0D7B1D61157105F1F0FB010190002013
:10145000E9F73197AF01461B570BCE010E94AA094D
:10146000F60180819181080F191FD801FC92CE01ED
:10147000DF91CF911F910F91FF90EF90DF90CF9070
:10148000BF90AF90089588819981009711F00E94D4
:10149000D724198218821D821C821B821A82E0CFF7
:1014A0008F929F92AF92BF92CF92DF92EF92FF9274
:1014B0000F931F93CF93DF93CDB7DEB7C05AD109F7
:1014C0000FB6F894DEBF0FBECDBFF82EE92E0E94F6
:1014D000FD0400913A0210913B0220913C023091B0
:1014E0003D02601B710B820B930B64367105810505
:1014F000910508F437C2CE0101966C0180E8F6012F
:1015000011928A95E9F7C756DF4F19821882C95997
:10151000D040C556DF4F19821882CB59D040C356F0
:10152000DF4F19821882CD59D04050E040E06CE185
:1015300072E0CE0187569F4F0E94AA09CD56DF4F19
:1015400019821882C359D040CB56DF4F19821882B6
:10155000C559D040C956DF4F19821882C759D040AB
:101560008E010F571F4F4AE0B8018F2D9E2D0E940C
:10157000B71FF80101900020E9F73197AF01401B38
:10158000510BB801CE018D569F4F0E94AA09C75634
:10159000DF4F88819981C959D040009709F47FC0F5
:1015A000CD56DF4F68817981C359D04061157105EF
:1015B00009F473C0C556DF4F48815981CB59D040DB
:1015C000C956DF4F28813981C759D0404217530788
:1015D00008F463C00E945526C956DF4F888199815F
:1015E000C759D040C356DF4F99838883CD59D04027
:1015F000C956DF4F19821882C759D040CE018D5687
:101600009F4F0E948609C356DF4F88819981CD592B
:10161000D040892B09F074C0C156DF4F1882CF59D2
:10162000D0401092A0020E9498058093A0028111E0
:1016300093C084E20E943F058093A00281118CC078
:10164000F092BB000E94FD044B015C0184E8809392
:10165000BC00E090C202F090C3028091BC0087FD04
:1016600062C0E114F104C9F30E94FD04AB01BC01A6
:10167000481959096A097B09C701B0E0A0E0481779
:1016800059076A077B0728F31092BC0084E4809313
:10169000BC0081E08093A0025FC00E94D724CD5699
:1016A000DF4F88819981C359D040C756DF4F998356
:1016B0008883C959D040CB56DF4F88819981C5595D
:1016C000D040C556DF4F99838883CB59D040C95647
:1016D000DF4F88819981C759D040C356DF4F998326
:1016E0008883CD59D040CD56DF4F19821882C35917
:1016F000D040CB56DF4F19821882C559D04078CFE1
:10170000C756DF4F68817981C959D04041E050E028
:10171000CE0181569F4F0E945C26C056DF4F188233
:10172000C05AD0407ECF8091B900887F883229F49A
:101730001092A0020E940905ADCF8091B900887F68
:10174000F82E8091B900887F8033F1F50E94090559
:10175000F092A002FF2071F362E082E10E94340661
:1017600080919F028230E9F50E947C01E82E0E9460
:101770007C01F82E61E070E080E090E00E94CB04F4
:101780006E2D82E10E943406C701FF0CAA0BBB0B31
:1017900040919F0250E070E060E084179507A60733
:1017A000B707C1F42FEF4FEF6FEF82E090E00E9498
:1017B0008C01760180919F028823D1F00E947C01E8
:1017C000F70181937F01F6CF1092BC0084E48093EF
:1017D000BC00BECF80919F02882351F00E947C0103
:1017E000F9CF20E040E06FEF82E090E00E948C01B2
:1017F000CD56DF4F19821882C359D040CB56DF4FE8
:1018000019821882C559D040C956DF4F19821882F3
:10181000C759D040F60101900020E9F73197AF0198
:101820004C195D09B601CE018D569F4F0E94AA0941
:1018300070E060E0CE018D569F4F0E948E096C01D2
:101840009C0150E040E0BE016D567F4FC8010E94F0
:10185000E909F80180819181009709F497C00E94FD
:10186000901F7093590260935802C8010E94860924
:10187000FFEFCF1ADF0AB601CE018D569F4F0E94AF
:101880008E097C019C01A601BE016D567F4FC801E7
:101890000E94E909F80180819181009709F47AC0DA
:1018A0000E948C1F0E94E92370935B0260935A028E
:1018B000C8010E948609FFEFEF1AFF0AB701CE01A7
:1018C0008D569F4F0E948E096C019C01A701BE019D
:1018D0006D567F4FC8010E94E909F801808191810E
:1018E000009709F45BC00E948C1F0E94E92370934B
:1018F0005D0260935C02C8010E948609C956DF4FF1
:1019000028813981C759D040A6014F5F5F4FBE0182
:101910006D567F4FC8010E94E909F80180819181CD
:10192000009709F43FC00E948C1F0E94E923709326
:101930005F0260935E02C8010E9486090E94FD0456
:1019400060933A0270933B0280933C0290933D0275
:10195000CE018D569F4F0E948609CE0187569F4F1C
:101960000E948609C056DF4F0FB6F894DEBF0FBE47
:10197000CDBFDF91CF911F910F91FF90EF90DF903E
:10198000CF90BF90AF909F908F90089560E070E0EF
:10199000CB0167CF60E070E0CB0184CF60E070E006
:1019A000CB01A3CF60E070E0CB01BFCF1F920F92BD
:1019B0000FB60F9211240BB60F922F933F934F93B4
:1019C0005F936F937F938F939F93AF93BF93EF93A7
:1019D000FF9381E693E00E945102FF91EF91BF9146
:1019E000AF919F918F917F916F915F914F913F91B7
:1019F0002F910F900BBE0F900FBE0F901F90189558
:101A00001F920F920FB60F9211240BB60F922F93C5
:101A10008F939F93EF93FF93E0917103F091720383
:101A20008081E0917703F091780382FD1DC0908161
:101A300080917A038F5F8F7320917B03821741F02F
:101A4000E0917A03F0E0EF59FC4F958F80937A0391
:101A5000FF91EF919F918F912F910F900BBE0F905F
:101A60000FBE0F901F9018958081F2CF1F920F929A
:101A70000FB60F9211240BB60F922F933F934F93F3
:101A80005F936F937F938F939F93AF93BF93EF93E6
:101A9000FF9384EC92E00E945102FF91EF91BF917D
:101AA000AF919F918F917F916F915F914F913F91F6
:101AB0002F910F900BBE0F900FBE0F901F90189597
:101AC0001F920F920FB60F9211240BB60F922F9305
:101AD0008F939F93EF93FF93E091D402F091D502FF
:101AE0008081E091DA02F091DB0282FD1DC09081DD
:101AF0008091DD028F5F8F732091DE02821741F0AB
:101B0000E091DD02F0E0EC53FD4F958F8093DD0214
:101B1000FF91EF919F918F912F910F900BBE0F909E
:101B20000FBE0F901F9018958081F2CF1F920F92D9
:101B30000FB60F9211242F933F938F939F93AF93E0
:101B4000BF938091320290913302A0913402B09100
:101B500035023091310223E0230F2D3758F50196DD
:101B6000A11DB11D20933102809332029093330264
:101B7000A0933402B09335028091360290913702DF
:101B8000A0913802B09139020196A11DB11D809338
:101B9000360290933702A0933802B0933902BF9176
:101BA000AF919F918F913F912F910F900FBE0F900A
:101BB0001F90189526E8230F0296A11DB11DD2CFC4
:101BC0001F920F920FB60F9211240BB60F922F9304
:101BD0003F934F935F936F937F938F939F93AF93B5
:101BE000BF93EF93FF931092850010928400809131
:101BF00001028823F9F061E08DE10E940D0388E580
:101C000092E0909389008093880010920102FF91E6
:101C1000EF91BF91AF919F918F917F916F915F9164
:101C20004F913F912F910F900BBE0F900FBE0F90D1
:101C30001F90189560E08DE10E940D0391E0909354
:101C40000102809130028630C0F010923002809103
:101C50002E0290912F02845D9E4F9195819591095E
:101C6000880F991F805C9346909389008093880029
:101C700010922F0210922E02CACFE82FF0E0EE0F42
:101C8000FF1FEC59FD4F208131812C523140220F32
:101C9000331F309389002093880020912E023091C9
:101CA0002F0240815181240F351F30932F02209342
:101CB0002E028F5F8093300290939A02A8CF1092E9
:101CC00064031092630348EE53E060E070E04093D9
:101CD00065035093660360936703709368038DE018
:101CE00092E090936203809361032DEC30E0309397
:101CF0006E0320936D032CEC30E03093700320933F
:101D00006F0328EC30E0309372032093710329ECC9
:101D100030E030937403209373032AEC30E0309367
:101D20007603209375032EEC30E0309378032093F4
:101D3000770310927A0310927B0310927C03109227
:101D40007D031092C7021092C6024093C8025093BE
:101D5000C9026093CA027093CB029093C50280932C
:101D6000C40285EC90E09093D1028093D00284EC81
:101D700090E09093D3028093D20280EC90E0909315
:101D8000D5028093D40281EC90E09093D7028093A7
:101D9000D60282EC90E09093D9028093D80286EC30
:101DA00090E09093DB028093DA021092DD021092B1
:101DB000DE021092DF021092E002109232051092C1
:101DC000390510924005109241051092420510927B
:101DD000430581E080933F0580933C0510923D05CB
:101DE00092E090933E058093310589E090E09093D6
:101DF0003605809335050E943B2490933B058093E4
:101E00003A05009709F46CC029E0FC0111922A956B
:101E1000E9F783E090E0909334058093330586E002
:101E200090E09093380580933705809132058823A0
:101E300041F061E086E00E94990360E086E00E9444
:101E40000D03EDE4F2E0E491F0E0EE0FFF1FE35D3F
:101E5000FD4F859194919093450580934405EDEE57
:101E6000F1E0E491E093460580EA96E8A1E0B0E075
:101E70008093FE039093FF03A0930004B0930104AA
:101E80009FE0909302041092030484E08093040482
:101E90009093050448E55BE160E070E04093060440
:101EA00050930704609308047093090410920B0484
:101EB0008093250488E0809326048FE890E0909337
:101EC00028048093270488E797E090932A0480935E
:101ED000290481E693E09093300580932F050895BF
:101EE0001092360510923505109234051092330584
:101EF00096CF789484B5826084BD84B5816084BDBA
:101F000085B5826085BD85B5816085BD80916E0097
:101F1000816080936E0010928100809181008260C8
:101F20008093810080918100816080938100809105
:101F300080008160809380008091B10084608093F4
:101F4000B1008091B00081608093B00080919100D9
:101F500082608093910080919100816080939100D4
:101F6000809190008160809390008091A1008260B8
:101F70008093A1008091A10081608093A100809155
:101F8000A00081608093A0008091210182608093F5
:101F900021018091210181608093210180912001A4
:101FA00081608093200180917A00846080937A0020
:101FB00080917A00826080937A0080917A008160BB
:101FC00080937A0080917A00806880937A001092E2
:101FD000C100809137059091380597FD08C061E0F8
:101FE0000E94990360E0809137050E940D0381E013
:101FF000809332050E94EF0360913905633329F124
:1020000020913A0530913B056150C9F070E08FEFA7
:1020100092E30E941F24F901409135055091360545
:10202000CF01821B930B8417950760F44081469F74
:10203000C001479F900D112490833196EDCF70E041
:1020400060E0E9CF83E380933905589A599A8091EB
:10205000B9008E7F8093B9008091B9008D7F809305
:10206000B90088E48093B80084E48093BC00CCED90
:10207000D5E0D093C302C093C2028CE08093B80035
:1020800060E086E30E94990360E082E00E94990389
:1020900060E08DE00E949903D0936502C0936402D2
:1020A000D0936702C0936602D0936B02C0936A021A
:1020B000D0936D02C0936C0288EE93E09093690216
:1020C0008093680284E398E090936F0280936E029D
:1020D0000E94FD0460933A0270933B0280933C029D
:1020E00090933D0210920A040091290410912A0451
:1020F000C0912704D0912804BE0190E080E00E94A6
:1021000085214B015C01B80190E080E00E948521AF
:10211000A50194010E940A232B013C01AC019B0103
:1021200060E070E080E090E40E9477236B017C0126
:1021300020E030E040E05FE3C301B2010E94E6210D
:10214000A50194010E940B239058A70196010E94BB
:10215000E621EBE2F4E0ABE6B4E02BE434E0C1933B
:10216000D193178F068FCD92DD92ED92FD92DC9682
:102170006D937D938D939C93DF972E173F0779F78F
:10218000C0912F05D0913005C090FE03D090FF0381
:10219000E0900004F090010460E079E08DE390E0CD
:1021A000A70196010E94D922215031094109510904
:1021B0005695479537952795E889F98982E0808378
:1021C000C11441EED406E104F10421F0211550E1DF
:1021D000350798F0E889F989108260E874E88EE1A3
:1021E00090E0A70196010E94D922215031094109AE
:1021F00051095695479537952795EC85FD85308390
:10220000EE85FF852083188EEC89FD898EE2808320
:10221000EA89FB89808180618083EA89FB898081EA
:1022200088608083EA89FB89808180688083EA896D
:10223000FB8980818F7D808361E08DE10E9499031D
:1022400060E08DE10E940D03F894109280001092DE
:10225000810088E790E090938900809388008091C6
:1022600081008860809381008091810082608093EA
:10227000810080916F00826080936F00789468EB9A
:102280007BE080E090E00E94CB04D0E0C0E020E062
:1022900040E06C2F90E080E00E948C010E94EF03F0
:1022A0002196C11561E0D60791F7D0E0C0E020E0AB
:1022B0004C2F60E081E090E00E948C010E94EF03CF
:1022C0002196C11571E0D70791F7D0E0C0E02C2F1F
:1022D00040E060E082E090E00E948C010E94EF0309
:1022E0002196C11581E0D80791F768EE73E080E090
:1022F00090E00E94CB04D0E0C0E02C2F4C2F6C2F3C
:1023000090E080E00E948C012C2F4C2F6C2F81E0FC
:1023100090E00E948C012C2F4C2F6C2F82E090E0DB
:102320000E948C010E94EF032196C11591E0D9070C
:1023300021F7CFEFD0E02C2F4C2F6C2F90E080E0D6
:102340000E948C012C2F4C2F6C2F81E090E00E947A
:102350008C012C2F4C2F6C2F82E090E00E948C017E
:102360000E94EF03219738F720E040E060E090E022
:1023700080E00E948C0120E040E060E081E090E09D
:102380000E948C0120E040E060E082E090E00E944A
:102390008C010E94EF0320E040E060E090E080E0EC
:1023A0000E948C010E94EF030E94FD04CCEDD5E059
:1023B0000EE714E032E2232E36E0332E40EA442EBC
:1023C00045E0542E58E1652E56E0752E0E940E070A
:1023D0008091020281110C94361F80919C02909191
:1023E0009D028E34B3E09B070CF480C0813B23E058
:1023F00092070CF042C020E04FEF60E090E080E0F8
:102400000E948C01809178029091790290936502EC
:102410008093640280917602909177029093670294
:102420008093660280917402909175029093690284
:1024300080936802809172029091730290936B0274
:1024400080936A0284E195E090936D0280936C0220
:10245000809162029091630290936F0280936E026A
:102460000E941B0980919A02882321F00E94EF03A9
:1024700010929A020E94E002A9CF863B35E09307B2
:10248000ACF1893146E0940764F52FEF40E060E05D
:1024900090E080E00E948C01809178029091790216
:1024A0009093650280936402809176029091770206
:1024B00090936702809366028091740290917502F6
:1024C00090936902809368028091720290917302E6
:1024D00090936B0280936A0210936D0200936C02DA
:1024E000B7CF8A5198408336910528F080919B029E
:1024F000882309F4B7CF8091990281112DC00E94E1
:10250000FD046093950270939602809397029093D6
:1025100098021092940210929302109292021092DA
:10252000910210928E0210928D02109290021092DF
:102530008F0210928A021092890210928C021092DD
:102540008B021092860210928502109288021092DD
:10255000870281E080939902809199028823E9F1B2
:1025600080919B02811139C00E94FD04C0909502A8
:10257000D0909602E0909702F09098026C197D0935
:102580008E099F09683E73408105910598F08091FE
:1025900093029091940201969093940280939302F7
:1025A0000E94FD04609395027093960280939702B7
:1025B000909398028091930290919402CC976CF042
:1025C0008091910290919202019690939202809351
:1025D000910210929402109293020E940E07809131
:1025E0009B0281110C94FF1E809184022091820233
:1025F00030918302232B09F048C3811146C3809197
:102600004302811115C080919102909192029093A2
:10261000400280933F0280919302909194029093A4
:1026200042028093410210923E0281E08093430275
:1026300080914302882309F459C080913E028111A0
:102640008FC020E044E664E690E080E00E948C01C8
:1026500081E090E00E94500AD0936502C09364022A
:10266000D0936702C093660288EE93E0909369026C
:1026700080936802D0936B02C0936A0210936D023C
:1026800000936C0284E398E090936F0280936E0253
:102690006091910270919202409193025091940244
:1026A000ACE3A69FC001A79F900D1124840F951F36
:1026B000E0913F02F0914002AE9F9001AF9F300D3C
:1026C0001124E0914102F09142022E0F3F1F821B24
:1026D000930B06975CF07093400260933F02509317
:1026E00042024093410281E080933E028091780251
:1026F0009091790283589540833B9105E8F480914D
:1027000076029091770283589540833B9105A0F41F
:10271000809174029091750283589540833B910596
:1027200058F4809172029091730283589540833BD4
:10273000910510F40C94F91E809170029091710231
:102740000196909371028093700280917002909133
:10275000710203970CF486CE81E080939B0282CEB7
:10276000813009F051C024E640E064E690E080E06A
:102770000E948C0181E090E00E94500AD093650293
:10278000C0936402D0936702C093660288EE93E020
:10279000909369028093680280ED97E090936B02BA
:1027A00080936A0210936D0200936C026091910213
:1027B000709192024091930250919402ACE3A69FD3
:1027C000C001A79F900D1124840F951FE0913F0237
:1027D000F0914002AE9F9001AF9F300D1124E09127
:1027E0004102F09142022E0F3F1F821B930B06976E
:1027F0000CF47CCF7093400260933F0250934202EE
:102800004093410283E070CF833009F04FC081E0F4
:1028100090E00E94500A24E640E060E090E080E012
:102820000E948C01D0936502C0936402D09367022A
:10283000C093660284E195E09093690280936802F8
:10284000D0936B02C0936A0210936D0200936C02E6
:102850006091910270919202409193025091940282
:10286000ACE3A69FC001A79F900D1124840F951F74
:10287000E0913F02F0914002AE9F9001AF9F300D7A
:102880001124E0914102F09142022E0F3F1F821B62
:10289000930B04970CF42ACF7093400260933F028D
:1028A000509342024093410287E01ECF873009F0E7
:1028B0004DC081E090E00E94500A24E644E664E6C0
:1028C00090E080E00E948C01D0936502C093640286
:1028D000D0936702C0936602D0936902C0936802E6
:1028E000D0936B02C0936A0210936D0200936C0246
:1028F00060919102709192024091930250919402E2
:10290000ACE3A69FC001A79F900D1124840F951FD3
:10291000E0913F02F0914002AE9F9001AF9F300DD9
:102920001124E0914102F09142022E0F3F1F821BC1
:10293000930B04970CF4DACE7093400260933F023D
:1029400050934202409341028FE0CECE8F3009F087
:10295000D7C00E94FD04C0904402D0904502E09090
:102960004602F09047026C197D098E099F09643672
:1029700071058105910508F06DC020E040E06FEF22
:1029800090E080E00E948C0181E090E00E94500A7B
:1029900080915402909155028A3191050CF47FC0C8
:1029A0003092650220926402809156029091570203
:1029B000853191050CF482C0309267022092660244
:1029C00084EA96E0909369028093680280915202B3
:1029D0009091530297FF81C08E5A9F4F853A91057F
:1029E00008F089C040E456E050936B0240936A02BD
:1029F00010936D0200936C026091910270919202AB
:102A00004091930250919402ACE3A69FC001A79F0E
:102A1000900D1124840F951FE0913F02F091400228
:102A2000AE9F9001AF9F300D1124E0914102F091D3
:102A300042022E0F3F1F821B930B07970CF456CEBA
:102A40007093400260933F025093420240934102D0
:102A50008FE34ACE0E94FD046C197D098E099F09FF
:102A6000643671058105910578F00E94FD046C19AA
:102A70007D098E099F09683C71058105910520F447
:102A800020E040E060E07CCF0E94FD0460934402BF
:102A900070934502809346029093470275CF873E1C
:102AA0009F4F3CF486E995E0909365028093640221
:102AB0007BCFD0936502C093640276CF8C3E9F4F4C
:102AC0003CF426E935E0309367022093660278CF24
:102AD000D0936702C093660273CF009761F08E5A5D
:102AE0009F4F853A910538F468E775E070936B0263
:102AF00060936A027DCFD0936B02C0936A0278CF55
:102B00008F3309F0AEC081E090E00E94500AC0907F
:102B10005C02D0905D02D0925702C0925602A09003
:102B20005A02B0905B02B0925502A0925402E0901B
:102B30005E02F0905F02F0925302E092520224E6AD
:102B400040E060E090E080E00E948C018EE096E042
:102B50007AE1A716B10444F487EEA8168FEFB80601
:102B60000CF057C08AEA95E0909365028093640266
:102B700095E1C916D1040CF451C08EE096E0909313
:102B8000670280936602D0936902C0936802F7FEE1
:102B900052C0BFE4EB0EF11C2FE9E216F10408F07D
:102BA0005BC040E456E050936B0240936A0210937E
:102BB0006D0200936C0260919102709192024091BB
:102BC000930250919402ACE3A69FC001A79F900D81
:102BD0001124840F951FE0913F02F0914002AE9FB7
:102BE0009001AF9F300D1124E0914102F09142021B
:102BF0002E0F3F1F821B930B04970CF477CD70931D
:102C0000400260933F0250934202409341028FE79B
:102C10006BCDD0936502C0936402AACFACEECA1606
:102C2000AFEFDA061CF48AEA95E0A9CFD0936702E9
:102C3000C0936602A8CFE114F10471F05FE4E50EE1
:102C4000F11C6FE9E616F10438F488E795E09093FB
:102C50006B0280936A02ABCFD0936B02C0936A027F
:102C6000A6CF8F3709F042CD20E040E060E090E051
:102C700080E00E948C0181E080938402A1E0B0E0BA
:102C8000B0938302A093820231CD209180023091D3
:102C90008102232B09F04EC2813009F04BC2909182
:102CA0004902911116C02091910230919202309305
:102CB0008E0220938D0220919302309194023093E2
:102CC000900220938F0210924802809349020E9442
:102CD000FD0480914902882309F408CD80914802BF
:102CE00081110DC182E090E00E94500A20915C02A7
:102CF00030915D02309357022093560240915A0260
:102D000050915B02509355024093540280915E02B1
:102D100090915F0290935302809352024531510586
:102D20000CF48BC040E456E050936502409364027B
:102D3000E0905802F0905902B1E0EB16F10409F06E
:102D400098C0213131050CF487C0709267026092FF
:102D50006602D0936902C093680297FF91C08E5AB1
:102D60009F4F853A910508F097C070926B02609270
:102D70006A0210936D0200936C020E94FD04809021
:102D8000440290904502A0904602B0904702681914
:102D900079098A099B09683C71058105910508F04C
:102DA0008BC020E040E071E0E716F10409F482C036
:102DB00082E0E816F10409F074C02FEF40E060E013
:102DC00090E080E00E948C010E94EF0360919102EC
:102DD000709192024091930250919402ACE3A69FAD
:102DE000C001A79F900D1124840F951FE0918D02C3
:102DF000F0918E02AE9F9001AF9F300D1124E091B3
:102E00008F02F09190022E0F3F1F821B930B89308F
:102E100091053CF4EA94EF2809F068CC02970CF491
:102E200065CC70938E0260938D0250939002409314
:102E30008F0281E08093480259CC4C3E5F4F3CF4B6
:102E4000A8E7B5E0B0936502A093640271CFD09378
:102E50006502C09364026CCF203F3F4F2CF4509228
:102E600067024092660275CFD0936702C0936602F4
:102E700070CF68E775E0709367026093660269CF70
:102E8000009751F08E5A9F4F853A910528F4509241
:102E90006B0240926A026DCFD0936B02C0936A02BC
:102EA00068CF20E04FEF93E0E916F10409F487CFF3
:102EB0002FEF4FEF6FEF84CF0E94FD04681979095F
:102EC0008A099B09683C71058105910568F00E949B
:102ED000FD04681979098A099B0920E06C32714068
:102EE0008105910508F46ACF0E94FD0460934402B5
:102EF00070934502809346029093470265CF8130DC
:102F000009F00BC183E090E00E94500A20915C021E
:102F100030915D02309357022093560240915A023D
:102F200050915B02509355024093540280915E028F
:102F300090915F0290935302809352024531510564
:102F40000CF452C070926502609264022131310526
:102F50000CF457C07092670260926602D0936902C7
:102F6000C093680297FF5AC08E5A9F4F853A9105C9
:102F700008F062C030926B0220926A0210936D02D8
:102F800000936C020E94FD048090440290904502E0
:102F9000A0904602B0904702E0905802F09059028B
:102FA000681979098A099B09683C710581059105B1
:102FB00008F047C020E091E0E916F10471F02FEF2E
:102FC000A2E0EA16F10409F4A5C020E04FEFB3E057
:102FD000EB16F10409F49FC02FEF40E06FEF90E093
:102FE00080E00E948C0143C04C3E5F4F2CF4509215
:102FF000650240926402AACFD0936502C093640236
:10300000A5CF203F3F4F2CF45092670240926602BA
:10301000A5CFD0936702C0936602A0CF009761F05E
:103020008E5A9F4F853A910538F486E995E0909342
:103030006B0280936A02A2CFD0936B02C0936A02A4
:103040009DCF0E94FD04681979098A099B09683C93
:1030500071058105910508F050C00E94FD04609340
:1030600044027093450280934602909347020E9467
:10307000EF036091910270919202409193025091FE
:103080009402ACE3A69FC001A79F900D1124840F6A
:10309000951FE0918D02F0918E02AE9F9001AF9F3F
:1030A000300D1124E0918F02F09190022E0F3F1FFE
:1030B000821B930B8531910554F4970122503109FD
:1030C0002230310508F012CB03970CF40FCB70932C
:1030D0008E0260938D025093900240938F028DE197
:1030E00092E032E0E316F10411F08FE192E0909368
:1030F00051028093500283E09DCE0E94FD04681926
:1031000079098A099B096C3271408105910508F0A3
:10311000A4CF20E040E060E062CF833009F0E6CA4F
:1031200082E08093840241E050E05093810240931A
:103130008002DCCA20917E0230917F02232B09F0AD
:10314000D8C1823009F0D5C180914B02811115C0E0
:10315000809191029091920290938A0280938902C9
:10316000809193029091940290938C0280938B02B1
:1031700010924A0281E080934B0280914B02882397
:1031800009F4B4CA80914A028111D2C084E090E06F
:103190000E94500A40915C0250915D025093570288
:1031A0004093560280915A0290915B02909355028F
:1031B0008093540220915E0230915F02309353025B
:1031C00020935202809150029091510262E08F311F
:1031D000960709F076C0ACE8B5E0B0936502A0931D
:1031E0006402403151050CF478C0A0E4B6E0B0931D
:1031F0006702A0936602D0936902C0936802121618
:1032000013060CF079C0293031050CF47DC07092A2
:103210006B0260926A0210936D0200936C02E09060
:103220005802F0905902E114F10409F072C020E054
:103230004FEF62E08F31960729F08D51924039F4BB
:103240002FEF40E060E090E080E00E948C010E945F
:10325000EF0360919102709192024091930250911C
:103260009402ACE3A69FC001A79F900D1124840F88
:10327000951FE0918902F0918A02AE9F9001AF9F65
:10328000300D1124E0918B02F0918C022E0F3F1F24
:10329000821B930B8730910544F4A7E0EA16F104F2
:1032A00009F024CA04970CF421CA70938A0260932F
:1032B000890250938C0240938B0281E880934A02EA
:1032C00015CAB2E08D319B0709F085CF6CE276E03C
:1032D000709365026093640284CF413F5F4F3CF47A
:1032E00048E755E0509367024093660284CFD0933D
:1032F0006702C09366027FCF283F3F4F2CF4509265
:103300006B0240926A0287CFD0936B02C0936A022D
:1033100082CF2FEF4FEF85E0E816F10439F097E008
:10332000E916F10409F093CF20E040E06FEF8BCF76
:1033300081E880934A0284E090E00E94500A209144
:103340005C0230915D023093570220935602E09068
:103350005A02F0905B02F0925502E0925402809182
:103360005E0290915F029093530280935202C0904C
:103370005802D0905902B7E0CB16D10409F088C0AA
:10338000409150025091510262E04F31560709F0CE
:1033900074C0ACE8B5E0B0936502A093640220313C
:1033A00031050CF47AC060E476E0709367026093B4
:1033B0006602D0936902C0936802181619060CF0D1
:1033C0007BC009970CF480C070926B0260926A0215
:1033D00010936D0200936C02C114D10409F080C0F7
:1033E000809150029091510222E08F31920709F0B2
:1033F00070C020E04FEF60E090E080E00E948C0120
:103400000E94EF0355E0C516D10409F06FC9609121
:103410009102709192024091930250919402ACE318
:10342000A69FC001A79F900D1124840F951FE091C6
:103430008902F0918A02AE9F9001AF9F300D112456
:10344000E0918B02F0918C022E0F3F1F821B930B99
:1034500006970CF44BC984E0E80EF11C99E0E916DC
:10346000F10408F043C970938A0260938902509373
:103470008C0240938B0281E021CF4D51524009F0E4
:1034800088CF4CE256E0509365024093640287CFA8
:10349000D0936502C093640282CF213F3F4F3CF43A
:1034A000A8E7B5E0B0936702A093660282CFD093FD
:1034B0006702C09366027DCF883F9F4F2CF45092E5
:1034C0006B0240926A0284CFD0936B02C0936A026F
:1034D0007FCF8D51924009F093CF2FEF40E08BCFFB
:1034E00045E0C416D10409F08BCF2FEF4FEF6FEFFB
:1034F00083CF20917C0230917D02232B09F069C497
:10350000833009F066C480916102811115C08091F9
:10351000910290919202909386028093850280910D
:103520009302909194029093880280938702109264
:10353000600281E08093610280916102882309F436
:10354000D5C880916002811119C188E090E00E9485
:10355000500AE0905C02F0905D02F0925702E09217
:103560005602A0905A02B0905B02B0925502A0920F
:103570005402C0905E02D0905F02D0925302C0927B
:1035800052028090580290905902A5E08A16910448
:1035900009F4B7C08091500290915102B2E08D3190
:1035A0009B0709F096C02FEF40E060E090E080E0DC
:1035B0000E948C0128E735E0309365022093640275
:1035C00090E1E916F1040CF4BBC0709267026092BE
:1035D0006602D0936902C09368021C141D040CF0AB
:1035E000BEC0BBE0CB16D1040CF4C3C070926B021A
:1035F00060926A0210936D0200936C0235E08316AC
:10360000910471F44EE0E40EF11C5DE1E516F10465
:1036100038F480915402909155020B96479750F0E0
:103620000E94FD0460934C0270934D0280934E0201
:1036300090934F020E94FD04E0919102F09192025A
:1036400040919302509194022CE3D22EDE9E900181
:10365000DF9E300D11247901E40EF51E20918502C4
:1036600030918602D29ED001D39EB00D11242091BC
:103670008702309188022A0F3B1FD701A21BB30B90
:103680009D011B97D4F480904C0290904D02A09025
:103690004E02B0904F026B017C01C818D908EA08AD
:1036A000FB08BDE2CB16B1E0DB06E104F10408F44F
:1036B0001DC8233031050CF419C8F0938602E0933D
:1036C0008502509388024093870287E080936002CE
:1036D0000DC88F51924071F420E04FEF60E090E010
:1036E00080E00E948C0140E456E0509365024093D4
:1036F000640266CF60E476E07093650260936402D2
:103700005FCF20E04FEF60E090E080E00E948C010E
:1037100073E1A716B1042CF0709265026092640206
:103720004FCF8EEEA8168FEFB8062CF4509265029C
:103730004092640245CFD0936502C093640240CFAB
:10374000A1EFEA16AFEFFA062CF45092670240920E
:1037500066023FCFD0936702C09366023ACF26EF4E
:10376000C2162FEFD2062CF450926B0240926A02DE
:1037700041CFD0936B02C0936A023CCF813009F0F5
:10378000A0C086E090E00E94500A20915C02309137
:103790005D02309357022093560240915A02509195
:1037A0005B02509355024093540280915E029091C7
:1037B0005F029093530280935202433151050CF4FF
:1037C00053C07092650260926402203131050CF49E
:1037D00058C07092670260926602D0936902C093EB
:1037E000680297FF5BC08E5A9F4F853A910508F09B
:1037F00063C030926B0220926A0210936D020093B4
:103800006C0224E64FEF64E690E080E00E948C01B9
:103810000E94EF0360919102709192024091930295
:1038200050919402ACE3A69FC001A79F900D112474
:10383000840F951FE0918502F0918602AE9F900162
:10384000AF9F300D1124E0918702F09188022E0F76
:103850003F1F821B930B039714F40C947613709301
:103860008602609385022DCF4E3E5F4F2CF450921E
:10387000650240926402A9CFD0936502C0936402AE
:10388000A4CF213F3F4F2CF4509267024092660232
:10389000A4CFD0936702C09366029FCF009761F0D8
:1038A0008E5A9F4F853A910538F486E995E09093BA
:1038B0006B0280936A02A1CFD0936B02C0936A021D
:1038C0009CCF873009F09FC085E090E00E94500AAD
:1038D00080915C0290915D02909357028093560212
:1038E00020915A0230915B0230935502209354028A
:1038F00080915E0290915F029093530280935202F6
:10390000203131050CF45FC0709265026092640250
:1039100020E436E03093670220936602D093690278
:10392000C093680297FF5CC08E5A9F4F853A9105FD
:1039300008F064C030926B0220926A0210936D020C
:1039400000936C022FEF40E06FEF90E080E00E9468
:103950008C0160919102709192024091930250917A
:103960009402ACE3A69FC001A79F900D1124840F81
:10397000951FE0918502F0918602AE9F9001AF9F66
:10398000300D1124E0918702F09188022E0F3F1F25
:10399000821B930B8430910564F42091580230917E
:1039A0005902232B11F00C947613029714F40C9403
:1039B0007613709386026093850250938802409339
:1039C00087028FE083CE213F3F4F2CF45092650257
:1039D000409264029DCFD0936502C093640298CF59
:1039E000009761F08E5A9F4F853A910538F446E969
:1039F00055E050936B0240936A02A0CFD0936B02C4
:103A0000C0936A029BCF8F3009F09CC089E090E0A0
:103A10000E94500A80915C0290915D02909357023F
:103A20008093560220915A0230915B0230935502E6
:103A30002093540280915E0290915F029093530212
:103A400080935202233131050CF45AC03092650242
:103A500020926402A6E3B6E0B0936702A0936602E8
:103A6000D0936902C093680297FF59C08E5A9F4F46
:103A7000853A910508F061C030926B0220926A028B
:103A800010936D0200936C0222E34FEF62E390E02B
:103A900080E00E948C0160919102709192024091AD
:103AA000930250919402ACE3A69FC001A79F900D92
:103AB0001124840F951FE0918502F0918602AE9F3C
:103AC0009001AF9F300D1124E0918702F0918802A0
:103AD0002E0F3F1F821B930B0B9744F480915802CB
:103AE00090915902019711F00C947613709386020D
:103AF0006093850250938802409387028FE1E6CD60
:103B00002E3E3F4F3CF466E975E07093650260938A
:103B10006402A0CFD0936502C09364029BCF00974C
:103B200061F08E5A9F4F853A910538F426E935E0C9
:103B300030936B0220936A02A3CFD0936B02C093A1
:103B40006A029ECF8F3109F0B0C08AE090E00E94F7
:103B5000500A20915C0230915D023093570220930D
:103B6000560240915A0250915B0250935502409385
:103B7000540280915E0290915F0290935302809371
:103B80005202433151050CF45FC03092650220921D
:103B90006402203131050CF466C030926702209235
:103BA0006602D0936902C093680297FF6BC08E5A79
:103BB0009F4F853A910508F073C030926B022092B6
:103BC0006A0210936D0200936C02809158029091EA
:103BD00059022FEF4FEF6FEF019719F020E040E00F
:103BE00060E090E080E00E948C0160919102709111
:103BF00092024091930250919402ACE3A69FC001BF
:103C0000A79F900D1124840F951FE0918502F091DC
:103C10008602AE9F9001AF9F300D1124E091870284
:103C2000F09188022E0F3F1F821B930B059714F40F
:103C30000C947613709386026093850250938802E9
:103C4000409387028FE342CD4E3E5F4F3CF4A6E99E
:103C5000B5E0B0936502A09364029BCFD093650258
:103C6000C093640296CF213F3F4F3CF426E935E0F4
:103C7000309367022093660294CFD0936702C0937B
:103C800066028FCF009761F08E5A9F4F853A91055B
:103C900038F446E955E050936B0240936A0291CFA5
:103CA000D0936B02C0936A028CCF8F3309F082C02D
:103CB0008BE090E00E94500A809150029091510256
:103CC00052E08F31950709F056C020E04FEF60E0D9
:103CD00090E080E00E948C0160E476E070936502E1
:103CE000609364022EE536E030936702209366020B
:103CF000D0936902C0936802D0936B02C0936A02AA
:103D000010936D0200936C020E94EF036091910288
:103D1000709192024091930250919402ACE3A69F5D
:103D2000C001A79F900D1124840F951FE09185027B
:103D3000F0918602AE9F9001AF9F300D1124E0916B
:103D40008702F09188022E0F3F1F821B930B04976E
:103D500044F48091580290915902019711F00C940B
:103D60007613709386026093850250938802409385
:103D700087028EEFABCC8D51924071F42FEF40E073
:103D800060E090E080E00E948C0188E795E09093ED
:103D9000650280936402A6CF20E040E06FEF90E0E0
:103DA00080E00E948C01A0E4B6E0B0936502A0938D
:103DB000640298CF8E3F11F00C94761384E08093C8
:103DC000840241E050E050937D0240937C020C94C9
:103DD000761320917A0230917B02232B11F00C9400
:103DE0007613843011F00C9476130E94AD060C9477
:103DF000761310927102109270020C94A51320E0B9
:103E000040E06FEF90E080E00E948C0180917802AA
:103E1000909179029093650280936402809176027A
:103E2000909177029093670280936602809174026A
:103E3000909175029093690280936802809172025A
:103E40009091730290936B0280936A0268E775E029
:103E500070936D0260936C02809162029091630294
:103E600090936F0280936E020C9432120E94AD0602
:103E70000C943212CF93DF938091EB049091EC0479
:103E8000892BC1F0D0E0C0E0E091EB04F091EC04AC
:103E9000EC0FFD1F80819181009711F00E94D724C3
:103EA0002296C032D10581F78091EB049091EC0409
:103EB0000E94D7248091ED049091EE04892BC1F0EB
:103EC000D0E0C0E0E091ED04F091EE04EC0FFD1FB6
:103ED00080819181009711F00E94D7242296C032F0
:103EE000D10581F78091ED049091EE040E94D724D2
:103EF00080913A0590913B050E94D7248091370527
:103F00009091380597FD05C060E0DF91CF910C944A
:103F10009903DF91CF910895662777270C94F11FBD
:103F20001F93FC0199278827BC01E8941191103256
:103F3000E9F3193010F01E30C8F31B3251F01D3276
:103F400049F4689406C00E94C21F610F711D811D53
:103F5000911D119110531A30B0F33EF49095809555
:103F6000709561957F4F8F4F9F4F1F910895BB278D
:103F70004A3031F4992322F4BDE2909581959F4F08
:103F80000C94D81F592F482F372F262F660F771FD5
:103F9000881F991F660F771F881F991F620F731F55
:103FA000841F951F660F771F881F991F0895BB27D1
:103FB000FB015527AA27880F991FAA1FA41710F0E5
:103FC000A41B83955051B9F7A05DAA3308F0A95DF1
:103FD000A193009779F7B111B1931192CB010C9491
:103FE00070218F929F92AF92BF92CF92DF92EF9209
:103FF000FF920F931F93CF93DF935C017B016115B9
:10400000710519F0DB018D939C9385010F5F1F4FA4
:10401000F501D0818D2F90E00E944F216C01892BFA
:10402000B9F5DD32B9F50F5F1F4FD5011196DC915F
:10403000C1E05801F1E0AF1AB10843E050E064E597
:1040400071E0C5010E945821892B69F5680182E061
:10405000C80ED11C45E050E06FE471E0C6010E943B
:104060005821892B21F4680197E0C90ED11CE11475
:10407000F10419F0D701CD92DC9260E070E080E8A5
:104080009FEFC111FFC060E070E080E89FE7FAC0D9
:104090005801BBCFDB3229F485010E5F1F4FF501BC
:1040A000D181C0E0C6CF43E050E06CE471E0C501CF
:1040B0000E945821892BE9F0F80110E000E020E08F
:1040C00030E0A9015F01B0ED8B2E8D0E89E08815DF
:1040D000C8F19C2E689491F88C2F8870C2FF16C08E
:1040E000811102C00F5F1F4F3196D501DC91C92DA0
:1040F000E9CFE114F10429F00E5F1F4FF70111839E
:10410000008360E070E080EC9FE7BCC0882311F082
:1041100001501109A5E0B0E00E94C6229B01AC014C
:10412000220F331F441F551F280D311D411D511DE6
:10413000283999E93907490799E15907A8F2C66072
:104140009C2ED2CFAEEF8A1206C0C3FD3CC09C2E7F
:10415000689493F8C9CFDF7DD534A9F580818D327D
:1041600039F4C061DF011296818162E070E006C01F
:10417000DF018B32C1F3119661E070E080535D0185
:10418000A61AB70A8A30F8F4E0E8CE16ECE0DE06AC
:104190005CF4B601660F771F660F771FC60ED71E39
:1041A000CC0CDD1CC80ED11C5D01FFEFAF1ABF0A9D
:1041B0008C9180538A30A8F1C4FF03C0D194C1947C
:1041C000D1080C0D1D1DC1FF09C0E114F10431F02F
:1041D00081E0A81AB108D701AD92BC92CA01B90119
:1041E0000E948521C370C33009F490584B015C01D3
:1041F00020E030E0A9010E948021882309F440C01A
:10420000C3E8D1E017FF05C0119501951109CBE670
:10421000D1E06E01B8E1CB1AD10880E2E82EF12C92
:104220000FC0D501B1CFFE01259135914591549133
:104230000E191F09C501B4010E94E6214B015C0162
:10424000D501C4010E151F0574F72497F594E79462
:10425000CC16DD06A9F78A2F880F8B2F881F8F3F7A
:1042600049F020E030E0A901C501B4010E9480219D
:10427000811106C082E290E0909348058093470543
:10428000C501B401DF91CF911F910F91FF90EF9085
:10429000DF90CF90BF90AF909F908F900895911135
:1042A0000C945322803219F089508550C8F7089534
:1042B000FB01DC014150504088F08D9181341CF0AD
:1042C0008B350CF4805E659161341CF06B350CF419
:1042D000605E861B611171F3990B0895881BFCCFFA
:1042E000DC01FC01672F71917723E1F7329704C05D
:1042F0007C916D9370836291AE17BF07C8F30895E8
:104300000E94C22108F481E00895E89409C097FB57
:104310003EF490958095709561957F4F8F4F9F4F9C
:104320009923A9F0F92F96E9BB279395F6958795E0
:1043300077956795B795F111F8CFFAF4BB0F11F4A3
:1043400060FF1BC06F5F7F4F8F4F9F4F16C088234A
:1043500011F096E911C0772321F09EE8872F762F80
:1043600005C0662371F096E8862F70E060E02AF0C1
:104370009A95660F771F881FDAF7880F96958795AD
:1043800097F90895990F0008550FAA0BE0E8FEEF82
:1043900016161706E807F907C0F012161306E40709
:1043A000F50798F0621B730B840B950B39F40A2602
:1043B00061F0232B242B252B21F408950A2609F4E0
:1043C000A140A6958FEF811D811D08950E94F921BE
:1043D0000C946D220E945F2238F00E94662220F029
:1043E000952311F00C9456220C945C2211240C9409
:1043F000A1220E947E2270F3959FC1F3950F50E099
:10440000551F629FF001729FBB27F00DB11D639F86
:10441000AA27F00DB11DAA1F649F6627B00DA11D2C
:10442000661F829F2227B00DA11D621F739FB00DD2
:10443000A11D621F839FA00D611D221F749F332742
:10444000A00D611D231F849F600D211D822F762FDB
:104450006A2F11249F5750409AF0F1F088234AF0B8
:10446000EE0FFF1FBB1F661F771F881F9150504024
:10447000A9F79E3F510580F00C9456220C94A1227E
:104480005F3FE4F3983ED4F3869577956795B795AB
:10449000F795E7959F5FC1F7FE2B880F911D9695C5
:1044A000879597F9089599278827089597F99F6721
:1044B00080E870E060E008959FEF80EC08950024AC
:1044C0000A941616170618060906089500240A9479
:1044D00012161306140605060895092E0394000CFF
:1044E00011F4882352F0BB0F40F4BF2B11F460FF8E
:1044F00004C06F5F7F4F8F4F9F4F089557FD9058B7
:10450000440F551F59F05F3F71F04795880F97FB97
:10451000991F61F09F3F79F0879508951216130651
:104520001406551FF2CF4695F1DF08C01616170680
:104530001806991FF1CF86957105610508940895B5
:10454000E894BB2766277727CB0197F90895052EB6
:1045500097FB1EF400940E94BE2257FD07D00E94D4
:10456000D92207FC03D04EF40C94BE2250954095FE
:10457000309521953F4F4F4F5F4F0895909580950F
:10458000709561957F4F8F4F9F4F08950E94FB223A
:10459000A59F900DB49F900DA49F800D911D112497
:1045A0000895B7FF0C94C6220E94C622821B930B6B
:1045B0000895A1E21A2EAA1BBB1BFD010DC0AA1F64
:1045C000BB1FEE1FFF1FA217B307E407F50720F07C
:1045D000A21BB30BE40BF50B661F771F881F991FF7
:1045E0001A9469F760957095809590959B01AC0140
:1045F000BD01CF010895A29FB001B39FC001A39F49
:10460000700D811D1124911DB29F700D811D11240B
:10461000911D08955058BB27AA270E9422230C946D
:104620006D220E945F2238F00E94662220F039F449
:104630009F3F19F426F40C945C220EF4E095E7FBFE
:104640000C945622E92F0E947E2258F3BA17620773
:1046500073078407950720F079F4A6F50C94A0223F
:104660000EF4E0950B2EBA2FA02D0B01B90190018D
:104670000C01CA01A0011124FF27591B99F0593FD1
:1046800050F4503E68F11A16F040A22F232F342F19
:104690004427585FF3CF469537952795A795F04067
:1046A0005395C9F77EF41F16BA0B620B730B840B7C
:1046B000BAF09150A1F0FF0FBB1F661F771F881F34
:1046C000C2F70EC0BA0F621F731F841F48F487958C
:1046D00077956795B795F7959E3F08F0B0CF93957E
:1046E000880F08F09927EE0F9795879508950E94F7
:1046F0008B230C946D220E94662258F00E945F2248
:1047000040F029F45F3F29F00C94562251110C948B
:10471000A1220C945C220E947E2268F39923B1F3BB
:10472000552391F3951B550BBB27AA2762177307D7
:10473000840738F09F5F5F4F220F331F441FAA1F6B
:10474000A9F335D00E2E3AF0E0E832D09150504027
:10475000E695001CCAF72BD0FE2F29D0660F771FD5
:10476000881FBB1F261737074807AB07B0E809F0BB
:10477000BB0B802DBF01FF2793585F4F3AF09E3F40
:10478000510578F00C9456220C94A1225F3FE4F37B
:10479000983ED4F3869577956795B795F7959F5F83
:1047A000C9F7880F911D9695879597F90895E1E0CF
:1047B000660F771F881FBB1F621773078407BA072E
:1047C00020F0621B730B840BBA0BEE1F88F7E09589
:1047D00008950E94F0236894B1110C94A1220895C9
:1047E0000E94862288F09F5798F0B92F9927B751D9
:1047F000B0F0E1F0660F771F881F991F1AF0BA9585
:10480000C9F714C0B13091F00E94A022B1E0089520
:104810000C94A022672F782F8827B85F39F0B93F12
:10482000CCF3869577956795B395D9F73EF4909537
:104830008095709561957F4F8F4F9F4F0895AA1B6C
:10484000BB1B51E107C0AA1FBB1FA617B70710F07B
:10485000A61BB70B881F991F5A95A9F780959095AD
:10486000BC01CD010895EE0FFF1F881F8BBF07907D
:10487000F691E02D19940F931F93CF93DF9382301D
:10488000910510F482E090E0E0914B05F0914C0529
:1048900030E020E0B0E0A0E0309799F42115310538
:1048A00009F44AC0281B390B24303105D8F58A8118
:1048B0009B816115710589F1FB0193838283FE0160
:1048C00011C0408151810281138148175907E0F0DE
:1048D0004817590799F4109761F012960C931297A4
:1048E00013961C933296CF01DF91CF911F910F91B8
:1048F000089500934B0510934C05F4CF2115310515
:1049000051F04217530738F0A901DB019A01BD01AC
:10491000DF01F801C1CFEF01F9CF90934C058093EF
:104920004B05CDCFFE01E20FF31F819391932250EF
:10493000310939832883D7CF2091490530914A0521
:10494000232B41F4209105023091060230934A0551
:10495000209349052091030230910402211531056D
:1049600041F42DB73EB74091070250910802241B35
:10497000350BE0914905F0914A05E217F307A0F4E1
:104980002E1B3F0B2817390778F0AC014E5F5F4FA5
:104990002417350748F04E0F5F1F50934A05409388
:1049A0004905819391939FCFF0E0E0E09CCFCF93B6
:1049B000DF930097E9F0FC01329713821282A091F5
:1049C0004B05B0914C05ED0130E020E01097A1F4CB
:1049D00020813181820F931F2091490530914A0532
:1049E0002817390709F061C0F0934A05E09349059B
:1049F000DF91CF910895EA01CE17DF07E8F54A81EC
:104A00005B819E0141155105B1F7E901FB83EA8302
:104A100049915991C40FD51FEC17FD0761F48081AE
:104A200091810296840F951FE90199838883828181
:104A300093819B838A83F0E0E0E012968D919C91B4
:104A400013970097B9F52D913C911197CD010296DE
:104A5000820F931F2091490530914A052817390785
:104A600039F6309751F510924C0510924B05B093E2
:104A70004A05A0934905BCCFD383C28340815181AD
:104A8000840F951FC817D90761F44E5F5F4F888167
:104A90009981480F591F518340838A819B81938359
:104AA00082832115310509F0B0CFF0934C05E093D6
:104AB0004B059ECFFD01DC01C0CF13821282D7CF00
:104AC0004F925F926F927F928F929F92AF92BF921E
:104AD000CF92DF92EF92FF920F931F93CF93DF93CA
:104AE0008C01009799F4CB01DF91CF911F910F9129
:104AF000FF90EF90DF90CF90BF90AF909F908F90FE
:104B00007F906F905F904F900C943B24FC01E60FD8
:104B1000F71F9C0122503109E217F30708F4AEC0D9
:104B2000D901CD91DC911197C617D70720F1C53077
:104B3000D10578F0CE0104978617970750F0C61B71
:104B4000D70B2297C193D1936D937C93CF010E9491
:104B5000D724C801DF91CF911F910F91FF90EF9063
:104B6000DF90CF90BF90AF909F908F907F906F908D
:104B70005F904F9008955B01AC1ABD0A4C018C0EFA
:104B80009D1EA0914B05B0914C05512C412CF12C50
:104B9000E12C109731F58091490590914A058815CF
:104BA000990509F05CC04616570608F058C0809178
:104BB000030290910402009741F48DB79EB7409193
:104BC000070250910802841B950BE817F90708F0BB
:104BD00055C0F0934A05E0934905F901718360835C
:104BE000B8CF8D919C91119712966C901297139655
:104BF0007C901397A815B90559F56C0142E0C40ED5
:104C0000D11CCA14DB0420F1AC014A195B09DA019A
:104C10001296159780F06282738251834083D90186
:104C20006D937C93E114F10471F0D7011396FC931A
:104C3000EE9312978ECF22968C0F9D1FF9019183D0
:104C40008083F301EFCFF0934C05E0934B0581CFC8
:104C50004816590608F42C017D01D3019ACFCB01E7
:104C60000E943B247C01009749F0AE01B8010E94EC
:104C70004126C8010E94D72487016BCF10E000E0D5
:104C800068CFFB01DC0102C001900D924150504001
:104C9000D8F70895FC018191861721F08823D9F770
:104CA000992708953197CF010895FB01DC01019008
:104CB0000D920020E1F70895FB01DC0141505040C6
:104CC00048F001900D920020C9F701C01D9241509B
:104CD0005040E0F7089511E0C8E4D1E000E006C0DC
:104CE000802FFE010E9433242196011DC934D10773
:0A4CF00080E00807A9F7F894FFCF51
:104CFA0001010100004D058000000000007302D38D
:104D0A00010002C00231020F022302300062006772
:024D1A00000097
:00000001FF
