:020000040000FA
:100000000C9449010C947A010C947A010C947A01B5
:100010000C947A010C947A010C947A010C947A0174
:100020000C947A010C947A010C947A010C947A0164
:100030000C947A010C947A010C947A010C947A0154
:100040000C947A010C94FC0D0C947A010C947A01B6
:100050000C947A010C947A010C947A010C94B20DF0
:100060000C947A010C947C0D0C94520D0C947A0132
:100070000C947A010C947A010C947A010C947A0114
:100080000C947A010C947A010C947A010C947A0104
:100090000C941C0D0C94F20C0C947A010C947A01C3
:1000A0000C947A010C947A010C947A010C947A01E4
:1000B0000C947A010C947A010C947A010C947A01D4
:1000C0000C947A010C947A010C947A010C947A01C4
:1000D0000C947A010C947A010C947A010C947A01B4
:1000E0000C947A010C946D030C9481030C94890395
:1000F0000C943D030C94790E0C9423020C949303FE
:100100000C9400020C94D3010C9431020C945C0307
:100110000C9460030C9473030C9477030C947B038E
:100120000C94C0020C948F030C9473020C940F0275
:100130000C9458030C9454030C9485030C9463039F
:100140000C9469030C94D1190C9442034E414E490E
:100150004E495459494E46CDCCCC3D0AD7233C1785
:10016000B7D13877CC2B329595E6241FB14F0A00D2
:100170000020410000C84200401C4620BCBE4CCAC2
:100180001B0E5AAEC59D7400002100240027002AD2
:10019000002D003000330001010000040107010AB6
:1001A0000100000A0B02090C0D0E080703040100F0
:1001B000000000000000000000000000000000003F
:1001C00000000000000000000000000000121110FC
:1001D000000000000000000000000000000000001F
:1001E000000000000000000102102020080810207C
:1001F00040102040800201020108040201010204B3
:100200000810204080804020100804020180040271
:1002100001804020100804020108040201010204C8
:1002200008102040800102040810204080000022B5
:1002300000250028002B002E0031003400020100B0
:1002400000050108010B010505050507050808085B
:1002500008020202020A0A08080404040401010157
:10026000010101010103030303030303030407075F
:10027000070C0C0C0C0C0C0C0C02020202060606FD
:1002800006060606060B0B0B0B0B0B0B0B00790E71
:10029000D11911241FBECFEFD1E2DEBFCDBF00E0E8
:1002A0000CBF12E0A0E0B2E0E8E2F2E400E00BBF35
:1002B00002C007900D92A232B107D9F725E0A2E261
:1002C000B2E001C01D92A134B207E1F711E0C8E429
:1002D000D1E000E006C021970109802FFE010E94B5
:1002E000CA1EC734D10780E00807A9F70E94930F00
:1002F0000C9402210C94000080919302882359F001
:10030000E09192029FEF980F90939302E81BF0E028
:10031000EC56FD4F82810895E0912705F091280564
:100320008E179F0798F530912D05332361F0639F59
:10033000B0011124672F349FA0011124452F329F53
:1003400090011124232F30913305E0912E05F09177
:100350002F055091300535131AC0DC01AA0FBB1FC1
:100360008A0F9B1F8E0F9F1FE0913005E80FF92F1A
:10037000F11D6083E0913105E80FF92FF11D4083F5
:1003800030913205830F911DFC0120830895880F61
:10039000991F880F991F8E0F9F1FFC01E30FF11DFE
:1003A0001082E2CF0895AF92BF92CF92DF92EF9288
:1003B000FF920F931F93CF93DF936C017B018B010F
:1003C000040F151FEB015E01AE18BF08C017D1075F
:1003D00059F06991D601ED91FC910190F081E02DE9
:1003E000C6011995892B79F7C501DF91CF911F912E
:1003F0000F91FF90EF90DF90CF90BF90AF90089556
:10040000FC01538D448D252F30E0842F90E0821B1A
:10041000930B541710F0CF96089501970895FC019F
:10042000918D828D981761F0A28DAE0FBF2FB11DF7
:100430005D968C91928D9F5F9F73928F90E008954F
:100440008FEF9FEF0895FC01918D828D981731F009
:10045000828DE80FF11D858D90E008958FEF9FEF5D
:100460000895FC01918D228D892F90E0805C9F4F33
:10047000821B91098F739927089585E593E00E9467
:10048000310221E0892B09F420E0822F089588EBC6
:1004900092E00E94310221E0892B09F420E0822FB2
:1004A0000895FC01A48DA80FB92FB11DA35ABF4F09
:1004B0002C91848D90E001968F739927848FA68963
:1004C000B7892C93A089B1898C91837080648C93B7
:1004D000938D848D981306C00288F389E02D808166
:1004E0008F7D80830895EF92FF920F931F93CF9398
:1004F000DF93EC0181E0888F9B8D8C8D98131AC05F
:10050000E889F989808185FF15C09FB7F894EE8945
:10051000FF896083E889F9898081837080648083A2
:100520009FBF81E090E0DF91CF911F910F91FF90ED
:10053000EF900895F62E0B8D10E00F5F1F4F0F7395
:100540001127E02E8C8D8E110CC00FB607FCFACF50
:10055000E889F989808185FFF5CFCE010E9451029B
:10056000F1CFEB8DEC0FFD2FF11DE35AFF4FF08221
:100570009FB7F8940B8FEA89FB8980818062CFCF87
:10058000CF93DF93EC01888D8823B9F0AA89BB89CA
:10059000E889F9898C9185FD03C0808186FD0DC0B5
:1005A0000FB607FCF7CF8C9185FFF2CF808185FFD6
:1005B000EDCFCE010E945102E9CFDF91CF91089596
:1005C00080E090E0892B29F00E94470281110E946F
:1005D000000080E090E0892B29F00E943D0281110B
:1005E0000E94000080E090E0892B49F080E090E0DC
:1005F000892B29F00E94000081110E94000080E0F8
:1006000090E0892B49F080E090E0892B29F00E944E
:10061000000081110C9400000895282F30E0F901AA
:10062000EF55FE4F9491F901E951FE4F4491295B3A
:100630003D4FF9012491222309F435C0992311F18A
:1006400091509231F8F4E92FF0E08827E55DFC4FF6
:100650008F4F0C94CA1E5C0360033D035403580380
:100660004203630369036D03730377037B03810311
:100670008503420389038F039303809180008F7762
:1006800080938000E22FF0E0EE0FFF1FE35DFD4F4F
:10069000A591B4918FB7F894EC91611148C0409541
:1006A0004E234C938FBF0895809180008F7DE8CFBB
:1006B00080918000877FE4CF84B58F7784BDE2CFBF
:1006C00084B58F7DFBCF8091B0008F778093B00091
:1006D000D9CF8091B0008F7DF9CF809190008F7736
:1006E00080939000CFCF809190008F7DF9CF809143
:1006F0009000877FF5CF8091A0008F778093A00036
:10070000C1CF8091A0008F7DF9CF8091A000877F1D
:10071000F5CF809120018F7780932001B3CF809116
:1007200020018F7DF9CF80912001877FF5CF4E2B5F
:10073000B8CFCF93DF9390E0FC01E951FE4F2491B5
:10074000895B9D4FFC0184918823D1F090E0880F54
:10075000991FFC01E957FE4FA591B491FC01E35D9F
:10076000FD4FC591D49161110EC09FB7F8948C9143
:10077000E22FE0958E238C932881E223E8839FBFAC
:10078000DF91CF9108958FB7F894EC91E22BEC9321
:100790008FBFF6CF3FB7F894809136029091370221
:1007A000A0913802B091390226B5A89B05C02F3F11
:1007B00019F00196A11DB11D3FBFBA2FA92F982F87
:1007C0008827BC01CD01620F711D811D911D42E082
:1007D000660F771F881F991F4A95D1F70895CF920A
:1007E000DF92EF92FF920F931F93CF93DF9300D08E
:1007F00000D000D0CDB7DEB780912E0590912F05A7
:10080000892B09F480C0C0903405D0903505E09064
:100810003605F09037050E94CA036C157D058E05DC
:100820009F0550F40E94CA03609334057093350508
:1008300080933605909337050E94CA0300913405D2
:10084000109135052091360530913705601B710BED
:10085000820B930B6C32714081059105A0F2F894E4
:100860008091290590912A059A838983E0912E052C
:10087000F0912F05DF0111968081898790912505E0
:10088000E0913805F091390580913A05992309F4F2
:1008900049C09081982B98879081809589238F8378
:1008A0008F818C8388E08B8358856F8149853B815C
:1008B0002C8189819A81508347FD252F3A95208389
:1008C000262F39F0441F00C000006083000000C0E4
:1008D000F2CF38E04D9160830000019761F7F0930B
:1008E0003905E093380549873B832C839A838983B4
:1008F00078940E94CA036093340570933505809301
:1009000036059093370529960FB6F894DEBF0FBED3
:10091000CDBFDF91CF911F910F91FF90EF90DF90AE
:10092000CF9008959081982B988790818095892306
:100930008F838F818E8388E08D8358856F81498571
:100940003D812E8189819A81508347FD252F00C0EA
:1009500000C0208300C000C000C000C000C0608391
:100960000000262F3A9541F0441F000000C000C04F
:1009700000C000C000C0E8CF38E04D9100C06083E7
:1009800000C0019709F7F0933905E09338054987CE
:100990003D832E83ABCF8F929F92AF92BF92CF9227
:1009A000DF92EF92FF924B015C010E94CA036B0140
:1009B0007C010E94CA036C197D098E099F09683E5B
:1009C000734081059105A8F321E0821A9108A108DE
:1009D000B10888EEC80E83E0D81EE11CF11C81141A
:1009E0009104A104B10429F7FF90EF90DF90CF901C
:1009F000BF90AF909F908F9008952FB7F89460911B
:100A000032027091330280913402909135022FBFEF
:100A10000895CF92DF92EF92FF92CF93DF930E94DF
:100A2000FD046B017C0184E98093BC00C091B60297
:100A3000D091B7028091BC0084FF1FC02097D1F3F2
:100A40000E94FD04AB01BC014C195D096E097F09D0
:100A5000CE01B0E0A0E0481759076A077B0730F3E2
:100A60001092BC0084E48093BC0081E0DF91CF91C0
:100A7000FF90EF90DF90CF90089580E0F7CFCF9276
:100A8000DF92EF92FF92CF93DF938093BB000E949F
:100A9000FD046B017C0184E88093BC00C091B60228
:100AA000D091B7028091BC0087FD20C02097D1F380
:100AB0000E94FD04AB01BC014C195D096E097F0960
:100AC000CE01B0E0A0E0481759076A077B0730F372
:100AD0001092BC0084E48093BC00C1E08C2FDF91B5
:100AE000CF91FF90EF90DF90CF9008958091B90063
:100AF000887F8831D9F08091B900887F8034B1F047
:100B0000C091B900C87F8091B900887F803259F0C8
:100B10008091B900887F883431F01092BC0084E461
:100B20008093BC00DBCF0E940905D8CFC0E0D6CFB0
:100B3000CF92DF92EF92FF92CF93DF930E94FD045A
:100B40006B017C0184EA8093BC00C091B602D09115
:100B5000B7028091BC0087FD1FC02097D1F30E948F
:100B6000FD04AB01BC014C195D096E097F09CE0182
:100B7000B0E0A0E0481759076A077B0730F31092EE
:100B8000BC0084E48093BC0081E0DF91CF91FF90B2
:100B9000EF90DF90CF9008958091B900887F8830E2
:100BA000B9F08091B900887F803191F08091B900CF
:100BB000887F883349F48091B900887F1092BC0007
:100BC00094E49093BC00E1CF8091B900887FDDCFA1
:100BD00080E0DBCFCF92DF92EF92FF92CF93DF9353
:100BE000C82F0E94FD046B017C0184ECC11101C07F
:100BF00084E88093BC00C091B602D091B702809186
:100C0000BC0087FD1FC02097D1F30E94FD04AB01FB
:100C1000BC014C195D096E097F09CE01B0E0A0E06E
:100C2000481759076A077B0730F31092BC0084E429
:100C30008093BC0081E0DF91CF91FF90EF90DF9037
:100C4000CF9008958091B900887F883349F48091CE
:100C5000B900887F1092BC0094E49093BC00EBCF65
:100C60008091B900887FE7CF0F931F93CF93DF93D5
:100C7000C82FD62F10929302611101C0D1E08FEFDF
:100C80008D0F80939502109294020E949805809394
:100C9000940281111CC08C2F880F8F5F0E943F052A
:100CA00080939402882321F0813089F485E00FC07D
:100CB00006E912E0C0E0809195028C1325C080E027
:100CC0000E94EA0580939402813031F486E0DF913E
:100CD000CF911F910F9108958835C9F78091BB007E
:100CE000F80181938F01CF5FC0939302C09392026A
:100CF000DC13E1CF0E94090580939402882339F325
:100D0000813029F787E0E3CF81E00E94EA058093F4
:100D100094028130D9F2803509F3D9CF20913E0277
:100D200030913F02032E000C440B550B285E3340DC
:100D300041095109A8E1BCEF0E946B1D28EE33E088
:100D400040E050E00E943E1D2053384F4F4F5F4F10
:100D500030935A02209359020895CF92DF92EF9276
:100D6000FF920E94FD04C0904002D0904102E090AA
:100D70004202F09043026C197D098E099F09643686
:100D800071058105910528F528EC48EC68EC90E0A8
:100D900080E00E948C018CED95E09093500280934E
:100DA0004F02909352028093510222EF33E030932E
:100DB00054022093530290935602809355029093CD
:100DC000580280935702FF90EF90DF90CF900C94E1
:100DD000EF030E94FD046C197D098E099F0964369A
:100DE00071058105910578F00E94FD046C197D095B
:100DF0008E099F09683C71058105910520F420E06A
:100E000040E060E0C4CF0E94FD0460934002709314
:100E100041028093420290934302BDCFEFE4F2E09F
:100E20008091750290917602918380838091730204
:100E300090917402938382838091710290917202E7
:100E40009583848380916F0290917002978386834B
:100E50008EE794E0918780870C948E063F924F92A4
:100E60005F926F927F928F929F92AF92BF92CF923A
:100E7000DF92EF92FF920F931F93CF93DF9363E084
:100E800070E080E090E00E94CB0480912602811106
:100E90000DC00E94CA0360932202709323028093C4
:100EA00024029093250281E0809326020E94CA03C7
:100EB00000912202109123022091240230912502F8
:100EC000601B710B820B930B0091FA031091FB03D3
:100ED0002091FC033091FD030617170728073907F7
:100EE00010F41092FE03C1E0809123059091240537
:100EF000DC01ED91FC910084F185E02D1995181627
:100F000019060CF06CC00E94CA0360932202709311
:100F100023028093240290932502809123059091CF
:100F20002405DC01ED91FC910284F385E02D1995F7
:100F3000809300049091FE03911116C09091F603E6
:100F400089130FC09091FF032091F703921739F096
:100F50002091F90392232091F803921302C0C093C9
:100F6000FE038093FF03C0CF993140F4E92FF0E0F6
:100F7000EE50FC4F86879F5F9093FE039091FE0397
:100F8000993179F79091F703891739F09091F90326
:100F900089239091F803891320C01092FE03609179
:100FA000010470910204C0900204D12C80900304CB
:100FB000D0910404E090050400910604A090070479
:100FC000C09108043090090480911704909119048D
:100FD0009823B9F41092000217C01092FE03DF911B
:100FE000CF911F910F91FF90EF90DF90CF90BF9026
:100FF000AF909F908F907F906F905F904F903F90B9
:10100000089591E09093000290911A04892309F4C5
:1010100035C181E080930202912CF12C10E0B12CBB
:101020007770072E000C880B990B0E941E1C23E37F
:1010300033E343E35FE30E947D1C20E030EC46E4B1
:1010400054E40E94A21D0E94801E9B01AC012B5102
:10105000344041095109A8EEB3E00E945D1D28E922
:10106000422E23E0522E612C712CA30192010E948A
:101070003E1D28513C4F4F4F5F4F309376022093D7
:10108000750233E0D594C7943A95E1F7B40145E091
:10109000660F771F4A95E1F76C297D297770072E37
:1010A000000C880B990B0E941E1C23E333E343E3DF
:1010B0005FE30E947D1C20E030EC46E454E40E9493
:1010C000A21D0E94801E9B01AC012B51344041099E
:1010D0005109A8EEB3E00E945D1DA30192010E9498
:1010E0003E1D28513C4F4F4F5F4F30937402209369
:1010F0007302B4E0DB9FB0011124C701982F882749
:10110000990F990F682B792BE6E095948794EA95CF
:10111000E1F7682979297770072E000C880B990B65
:101120000E941E1C23E333E343E35FE30E947D1C24
:1011300020E030EC46E454E40E94A21D0E94801E90
:101140009B01AC012B51344041095109A8EEB3E099
:101150000E945D1DA30192010E943E1D28513C4F3B
:101160004F4F5F4F3093720220937102B701759514
:1011700067957801F694FE2CEE24F794E7946E2997
:101180007F297770072E000C880B990B0E941E1C7C
:1011900023E333E343E35FE30E947D1C20E030EC74
:1011A00046E454E40E94A21D0E94801E9B01AC01F3
:1011B0002B51344041095109A8EEB3E00E945D1D56
:1011C000A30192010E943E1D28513C4F4F4F5F4F9B
:1011D0003093700220936F02B801B4E07595679563
:1011E000BA95E1F78501D4E0000F111FDA95E1F718
:1011F000602B712B7770072E000C880B990B0E94C7
:101200001E1C23E333E343E35FE30E947D1C20E0E5
:1012100030EC46E454E40E94A21D0E94801E7093AC
:101220009102609390026C2F70E0660F771FC32DC0
:10123000D0E0DC2FCC27DD0F6C2B7D2BAA0CAB2C48
:10124000AA1CBB086A297B297770072E000C880B23
:10125000990B0E941E1C23E333E343E35FE30E94E8
:101260007D1C20E030EC46E454E40E94A21D0E9464
:10127000801E70933F0260933E02B1CE1092020234
:10128000CBCE10928E021092800210927F021092AA
:101290004902E5E4F2E01182108213821282109278
:1012A000440210927E0210927D0210927C021092F3
:1012B0007B0210926C02E2E8F2E01182108213824B
:1012C000128210926B0210927A021092790210929E
:1012D0007802109277021092810210928F0210927F
:1012E0006E0210926D021092600210925F021092D4
:1012F0005E0210925D028AE590E090935C0280931A
:101300005B02E1E6F2E01182108213821282158202
:101310001482178216828BE192E090936A02809386
:10132000690210924A0210924B0210924C021092E3
:101330004D0210924E0220E040E060E082E090E03A
:101340000C948C01FC0180819181009711F00C9428
:101350006E1F0895CF93DF93FC01248135816217BE
:10136000730788F49B01C081D1816BE370E0CE01EB
:10137000820F931F0E94E120009729F08C1B9D0B88
:10138000DF91CF9108958FEF9FEFFACFEF92FF9209
:101390000F931F93CF93DF93EC017B018A01888128
:1013A0009981009729F02A813B812417350788F419
:1013B000B8016F5F7F4F0E94F71F009791F09983EC
:1013C00088831B830A832C813D81232B11F4FC012C
:1013D00010821D830C83B701888199810E94EC20C3
:1013E0000CC088819981009711F00E946E1F1982AC
:1013F00018821D821C821B821A82CE01DF91CF913E
:101400001F910F91FF90EF900895AF92BF92CF92EE
:10141000DF92EF92FF920F931F93CF93DF93EC0134
:101420006B015A0179012417350720F48B2D5901DE
:10143000E42EF82E198218821B821A821D821C82C9
:1014400050E040E06CE172E0CE010E94C609D60196
:1014500014960D911C91A016B10628F5E016F10620
:1014600008F48701D601ED91FC911197E00FF11F6F
:10147000F08010826D917C916A0D7B1D6115710564
:10148000F1F0FB0101900020E9F73197AF01461B15
:10149000570BCE010E94C609F60180819181080F89
:1014A000191FD801FC92CE01DF91CF911F910F91AE
:1014B000FF90EF90DF90CF90BF90AF90089588811C
:1014C0009981009711F00E946E1F198218821D8267
:1014D0001C821B821A82E0CF8F929F92AF92BF92A2
:1014E000CF92DF92EF92FF920F931F93CF93DF93F0
:1014F000CDB7DEB7C05AD1090FB6F894DEBF0FBE24
:10150000CDBFF82EE92E20E040E060E082E090E0E0
:101510000E948C010E94FD0400913A0210913B024E
:1015200020913C0230913D02601B710B820B930BAA
:10153000643671058105910508F430C2CE0101962B
:101540006C0180E8F60111928A95E9F7C756DF4FE2
:1015500019821882C959D040C556DF4F19821882A6
:10156000CB59D040C356DF4F19821882CD59D04095
:1015700050E040E06CE172E0CE0187569F4F0E9440
:10158000C609CD56DF4F19821882C359D040CB56B9
:10159000DF4F19821882C559D040C956DF4F1982D2
:1015A0001882C759D0408E010F571F4F4AE0B8012B
:1015B0008F2D9E2D0E944E1AF80101900020E9F710
:1015C0003197AF01401B510BB801CE018D569F4F93
:1015D0000E94C609C756DF4F88819981C959D040FA
:1015E000009709F47FC0CD56DF4F68817981C359D8
:1015F000D0406115710509F473C0C556DF4F4881AD
:101600005981CB59D040C956DF4F28813981C759FC
:10161000D0404217530708F463C00E94EC20C9561B
:10162000DF4F88819981C759D040C356DF4F9983D6
:101630008883CD59D040C956DF4F19821882C759C7
:10164000D040CE018D569F4F0E94A209C356DF4F56
:1016500088819981CD59D040892B09F074C0C15639
:10166000DF4F1882CF59D040109294020E94980503
:1016700080939402811193C084E20E943F0580937D
:10168000940281118CC0F092BB000E94FD044B01BA
:101690005C0184E88093BC00E090B602F090B70251
:1016A0008091BC0087FD62C0E114F104C9F30E947F
:1016B000FD04AB01BC01481959096A097B09C7013E
:1016C000B0E0A0E0481759076A077B0728F310929B
:1016D000BC0084E48093BC0081E0809394025FC0EE
:1016E0000E946E1FCD56DF4F88819981C359D0402B
:1016F000C756DF4F99838883C959D040CB56DF4FF7
:1017000088819981C559D040C556DF4F9983888318
:10171000CB59D040C956DF4F88819981C759D040F5
:10172000C356DF4F99838883CD59D040CD56DF4FC4
:1017300019821882C359D040CB56DF4F19821882C4
:10174000C559D04078CFC756DF4F68817981C959D4
:10175000D04041E050E0CE0181569F4F0E94F320DF
:10176000C056DF4F1882C05AD0407ECF8091B9005A
:10177000887F883229F4109294020E940905ADCF27
:101780008091B900887FF82E8091B900887F8033DE
:10179000F1F50E940905F0929402FF2071F362E0D6
:1017A00082E10E943406809193028230E9F50E9422
:1017B0007C01E82E0E947C01F82E61E070E080E060
:1017C00090E00E94CB046E2D82E10E943406C70196
:1017D000FF0CAA0BBB0B4091930250E070E060E05D
:1017E00084179507A607B707C1F42FEF4FEF6FEFE8
:1017F00082E090E00E948C01760180919302882320
:1018000099F00E947C01F70181937F01F6CF10923D
:10181000BC0084E48093BC00BECF809193028823F7
:1018200019F00E947C01F9CFCD56DF4F1982188242
:10183000C359D040CB56DF4F19821882C559D040CA
:10184000C956DF4F19821882C759D040F60101905E
:101850000020E9F73197AF014C195D09B601CE01BF
:101860008D569F4F0E94C60970E060E0CE018D56F4
:101870009F4F0E94AA096C019C0150E040E0BE010C
:101880006D567F4FC8010E94050AF8018081918141
:10189000009709F497C00E94271A70936202609320
:1018A0006102C8010E94A209FFEFCF1ADF0AB60148
:1018B000CE018D569F4F0E94AA097C019C01A60172
:1018C000BE016D567F4FC8010E94050AF801808154
:1018D0009181009709F47AC00E94231A0E94801E09
:1018E0007093640260936302C8010E94A209FFEF33
:1018F000EF1AFF0AB701CE018D569F4F0E94AA0929
:101900006C019C01A701BE016D567F4FC8010E946A
:10191000050AF80180819181009709F45BC00E945B
:10192000231A0E94801E7093660260936502C801AC
:101930000E94A209C956DF4F28813981C759D0407A
:10194000A6014F5F5F4FBE016D567F4FC8010E94D9
:10195000050AF80180819181009709F43FC00E9437
:10196000231A0E94801E7093680260936702C80168
:101970000E94A2090E94FD0460933A0270933B0208
:1019800080933C0290933D02CE018D569F4F0E9462
:10199000A209CE0187569F4F0E94A209C056DF4F71
:1019A0000FB6F894DEBF0FBECDBFDF91CF911F9170
:1019B0000F91FF90EF90DF90CF90BF90AF909F90EE
:1019C0008F90089560E070E0CB0167CF60E070E039
:1019D000CB0184CF60E070E0CB01A3CF60E070E08A
:1019E000CB01BFCF1F920F920FB60F9211240BB6EF
:1019F0000F922F933F934F935F936F937F938F93A8
:101A00009F93AF93BF93EF93FF9385E593E00E947D
:101A10005102FF91EF91BF91AF919F918F917F9173
:101A20006F915F914F913F912F910F900BBE0F904F
:101A30000FBE0F901F9018951F920F920FB60F9226
:101A400011240BB60F922F938F939F93EF93FF93D5
:101A5000E0916503F09166038081E0916B03F09162
:101A60006C0382FD1DC0908180916E038F5F8F7328
:101A700020916F03821741F0E0916E03F0E0EB5A82
:101A8000FC4F958F80936E03FF91EF919F918F9103
:101A90002F910F900BBE0F900FBE0F901F901895B7
:101AA0008081F2CF1F920F920FB60F9211240BB6C6
:101AB0000F922F933F934F935F936F937F938F93E7
:101AC0009F93AF93BF93EF93FF9388EB92E00E94B5
:101AD0005102FF91EF91BF91AF919F918F917F91B3
:101AE0006F915F914F913F912F910F900BBE0F908F
:101AF0000FBE0F901F9018951F920F920FB60F9266
:101B000011240BB60F922F938F939F93EF93FF9314
:101B1000E091C802F091C9028081E091CE02F0917B
:101B2000CF0282FD1DC090818091D1028F5F8F73A3
:101B30002091D202821741F0E091D102F0E0E85406
:101B4000FD4F958F8093D102FF91EF919F918F91DF
:101B50002F910F900BBE0F900FBE0F901F901895F6
:101B60008081F2CF1F920F920FB60F9211242F9304
:101B70003F938F939F93AF93BF9380913202909145
:101B80003302A0913402B09135023091310223E04A
:101B9000230F2D3758F50196A11DB11D2093310259
:101BA0008093320290933302A0933402B0933502B3
:101BB0008091360290913702A0913802B09139029B
:101BC0000196A11DB11D8093360290933702A09318
:101BD0003802B0933902BF91AF919F918F913F919D
:101BE0002F910F900FBE0F901F90189526E8230F8E
:101BF0000296A11DB11DD2CF1F920F920FB60F9268
:101C000011240BB60F922F933F934F935F936F93D3
:101C10007F938F939F93AF93BF93EF93FF93109214
:101C2000850010928400809101028823F9F061E020
:101C30008DE10E940D0388E592E0909389008093E6
:101C4000880010920102FF91EF91BF91AF919F9197
:101C50008F917F916F915F914F913F912F910F9055
:101C60000BBE0F900FBE0F901F90189560E08DE196
:101C70000E940D0381E08093010280913002863042
:101C8000C0F01092300280912E0290912F02845D5C
:101C90009E4F919581959109880F991F805C93467D
:101CA000909389008093880010922F0210922E0248
:101CB000CACFE82FF0E0EE0FFF1FE15BFD4F208160
:101CC00031812C523140220F331F309389002093F1
:101CD000880020912E0230912F0240815181240FE3
:101CE000351F30932F0220932E028F5F8093300296
:101CF000AACF109258031092570348EE53E060E0C9
:101D000070E04093590350935A0360935B037093C0
:101D10005C038DE092E090935603809355032DEC85
:101D200030E030936203209361032CEC30E0309379
:101D300064032093630328EC30E030936603209320
:101D4000650329EC30E030936803209367032AECA5
:101D500030E030936A03209369032EEC30E0309337
:101D60006C0320936B0310926E0310926F0310921A
:101D70007003109271031092BB021092BA0240934A
:101D8000BC025093BD026093BE027093BF02909359
:101D9000B9028093B80285EC90E09093C5028093DD
:101DA000C40284EC90E09093C7028093C60280EC5A
:101DB00090E09093C9028093C80281EC90E09093E8
:101DC000CB028093CA0282EC90E09093CD02809384
:101DD000CC0286EC90E09093CF028093CE021092DA
:101DE000D1021092D2021092D3021092D402109219
:101DF000260510922D05109234051092350510928B
:101E000036051092370581E08093330580933005C5
:101E10001092310592E0909332058093250589E078
:101E200090E090932A05809329050E94D21E9093FA
:101E30002F0580932E05009709F46CC029E0FC0162
:101E400011922A95E9F783E090E09093280580931A
:101E5000270586E090E090932C0580932B058091D8
:101E60002605882341F061E086E00E94990360E046
:101E700086E00E940D03EDE4F2E0E491F0E0EE0F65
:101E8000FF1FE35DFD4F85919491909339058093F9
:101E90003805EDEEF1E0E491E0933A0580EA96E84A
:101EA000A1E0B0E08093F2039093F303A093F403D6
:101EB000B093F5039FE09093F6031092F70384E04C
:101EC0008093F8039093F90348E55BE160E070E0EC
:101ED0004093FA035093FB036093FC037093FD035C
:101EE0001092FF038093190488E080931A048FE80E
:101EF00090E090931C0480931B0488E797E09093F4
:101F00001E0480931D0485E593E09093240580933F
:101F10002305089510922A0510922905109228058C
:101F20001092270596CF789484B5826084BD84B5DD
:101F3000816084BD85B5826085BD85B5816085BDC4
:101F400080916E00816080936E001092810080917C
:101F50008100826080938100809181008160809304
:101F60008100809180008160809380008091B10029
:101F700084608093B1008091B00081608093B00054
:101F800080919100826080939100809191008160A6
:101F90008093910080919000816080939000809167
:101FA000A10082608093A1008091A1008160809354
:101FB000A1008091A00081608093A0008091210108
:101FC00082608093210180912101816080932101B1
:101FD0008091200181608093200180917A0084604B
:101FE00080937A0080917A00826080937A00809159
:101FF0007A00816080937A0080917A008068809373
:102000007A001092C10080912B0590912C0597FDCC
:1020100008C061E00E94990360E080912B050E9456
:102020000D0381E0809326050E94EF0360912D054A
:10203000633329F120912E0530912F056150C9F0AD
:1020400070E08FEF92E30E94B61EF90140912905DE
:1020500050912A05CF01821B930B8417950760F4DA
:102060004081469FC001479F900D11249083319677
:10207000EDCF70E060E0E9CF83E380932D05589ABF
:10208000599A8091B9008E7F8093B9008091B900F0
:102090008D7F8093B90088E48093B80084E48093B6
:1020A000BC00CCEDD5E0D093B702C093B6028CE073
:1020B0008093B80060E086E30E94990360E082E0CC
:1020C0000E94990360E08DE00E949903D093500232
:1020D000C0934F02D0935202C0935102D093560244
:1020E000C0935502D0935802C093570288EE93E0F4
:1020F000909354028093530290935A028093590212
:102100000E94FD0460933A0270933B0280933C026C
:1021100090933D021092FE0300911D0410911E0445
:10212000C0911B04D0911C04BE0190E080E00E948D
:102130001C1C4B015C01B80190E080E00E941C1C5B
:10214000A50194010E94A11D2B013C01AC019B0142
:1021500060E070E080E090E40E940E1E6B017C0164
:1021600020E030E040E05FE3C301B2010E947D1C4B
:10217000A50194010E94A21D9058A70196010E94FA
:102180007D1CEFE1F4E0AFE5B4E02FE334E0C19370
:10219000D193178F068FCD92DD92ED92FD92DC9652
:1021A0006D937D938D939C93DF972E173F0779F75F
:1021B000C0912305D0912405C090F203D090F30381
:1021C000E090F403F090F50360E079E08DE390E0B7
:1021D000A70196010E94701D215031094109510942
:1021E0005695479537952795E889F98982E0808348
:1021F000C11441EED406E104F10421F0211560E19F
:10220000360798F0E889F989108260E874E88EE171
:1022100090E0A70196010E94701D215031094109EB
:1022200051095695479537952795EC85FD8530835F
:10223000EE85FF852083188EEC89FD898EE28083F0
:10224000EA89FB89808180618083EA89FB898081BA
:1022500088608083EA89FB89808180688083EA893D
:10226000FB8980818F7D808361E08DE10E949903ED
:1022700060E08DE10E940D03F894109280001092AE
:10228000810088E790E09093890080938800809196
:1022900081008860809381008091810082608093BA
:1022A000810080916F00826080936F00789468EB6A
:1022B0007BE080E090E00E94CB04D0E0C0E020E032
:1022C00040E06C2F90E080E00E948C010E94EF03C0
:1022D0002196C11581E0D80791F7D0E0C0E020E059
:1022E0004C2F60E081E090E00E948C010E94EF039F
:1022F0002196C11591E0D90791F7D0E0C0E02C2FCD
:1023000040E060E082E090E00E948C010E94EF03D8
:102310002196C11521E0D20791F768EE73E080E0C5
:1023200090E00E94CB04D0E0C0E02C2F4C2F6C2F0B
:1023300090E080E00E948C012C2F4C2F6C2F81E0CC
:1023400090E00E948C012C2F4C2F6C2F82E090E0AB
:102350000E948C010E94EF032196C11531E0D30742
:1023600021F7CFEFD0E02C2F4C2F6C2F90E080E0A6
:102370000E948C012C2F4C2F6C2F81E090E00E944A
:102380008C012C2F4C2F6C2F82E090E00E948C014E
:102390000E94EF03219738F720E040E060E090E0F2
:1023A00080E00E948C0120E040E060E081E090E06D
:1023B0000E948C0120E040E060E082E090E00E941A
:1023C0008C010E94EF0320E040E060E090E080E0BC
:1023D0000E948C010E94EF030E94FD04CCEDD5E029
:1023E0000EE714E080EA282E85E0382E98E1492E89
:1023F00096E0592E22E2C22E26E0D22E36E9632E36
:1024000035E0732E0E942E07809102028111C6C70B
:1024100080919002909191028E3463E096070CF4C3
:102420005FC0813B23E09207ECF520E04FEF60E0D6
:1024300090E080E00E948C0120E04FEF60E081E0BE
:1024400090E00E948C0180917502909176029093A9
:10245000500280934F028091730290917402909386
:102460005202809351028091710290917202909376
:1024700054028093530280916F0290917002909366
:1024800056028093550284E195E090935802809320
:1024900057020E948E060E9441090E94EF030E948B
:1024A000E002B0CF863B35E09307D4F0893146E0B7
:1024B00094078CF42FEF40E060E090E080E00E9411
:1024C0008C0120E04FEF60E081E090E00E948C0101
:1024D0000E940E07E0CF8A5198408336910520F084
:1024E00080918F028823C9F280918E0281111DC0D4
:1024F0000E94FD0460938A0270938B0280938C0289
:1025000090938D0210928902109288021092870295
:10251000109286021092830210928202109285021B
:102520001092840281E080938E0280918E02882333
:10253000E9F180918F02811139C00E94FD048090E1
:102540008A0290908B02A0908C02B0908D02681944
:1025500079098A099B09683E73408105910598F0C5
:1025600080918802909189020196909389028093CC
:1025700088020E94FD0460938A0270938B0280930C
:102580008C0290938D028091880290918902CC9761
:102590006CF0809186029091870201969093870259
:1025A0008093860210928902109288020E942E0760
:1025B00080918F028111E8C6F090810280917F02A4
:1025C00090918002892B09F048C3F11046C32FEF88
:1025D0004FEF6FEF81E090E00E948C018091490203
:1025E000811115C0809186029091870290934602D6
:1025F00080934502809188029091890290934802CD
:10260000809347021092440281E0809349028091B6
:102610004902882309F457C08091440281118CC07B
:1026200020E044E664E690E080E00E948C0181E0D6
:1026300090E00E946C0AD0935002C0934F02D09356
:102640005202C093510288EE93E09093540280931B
:102650005302D0935602C093550210935802009330
:10266000570290935A0280935902609186027091AA
:1026700087024091880250918902ACE3A69FC00175
:10268000A79F900D1124840F951FE0914502F091B2
:102690004602AE9F9001AF9F300D1124E09147029A
:1026A000F09148022E0F3F1F821B930B06975CF0A0
:1026B000709346026093450250934802409347024C
:1026C00081E0809344028091750290917602835854
:1026D0009540833B9105E0F48091730290917402E0
:1026E00083589540833B910598F4809171029091B5
:1026F000720283589540833B910550F480916F029C
:102700009091700283589540833B910508F437C639
:1027100080916D0290916E02019690936E0280936B
:102720006D0280916D0290916E0203970CF4B5CE0C
:1027300081E080938F02B1CE813009F051C024E650
:1027400040E064E690E080E00E948C0181E090E04F
:102750000E946C0AD0935002C0934F02D093520251
:10276000C093510288EE93E09093540280935302F9
:1027700080ED97E090935602809355021093580293
:1027800000935702609186027091870240918802FF
:1027900050918902ACE3A69FC001A79F900D112420
:1027A000840F951FE0914502F0914602AE9F900183
:1027B000AF9F300D1124E0914702F09148022E0F97
:1027C0003F1F821B930B06970CF47DCF709346023C
:1027D00060934502509348024093470283E071CFD3
:1027E000833009F04FC081E090E00E946C0A24E63B
:1027F00040E060E090E080E00E948C01D0935002C5
:10280000C0934F02D0935202C093510284E195E0ED
:102810009093540280935302D0935602C093550272
:1028200010935802009357026091860270918702BC
:102830004091880250918902ACE3A69FC001A79FF6
:10284000900D1124840F951FE0914502F0914602EE
:10285000AE9F9001AF9F300D1124E0914702F0919F
:1028600048022E0F3F1F821B930B04970CF42BCFB3
:10287000709346026093450250934802409347028A
:1028800087E01FCF873009F04DC081E090E00E94C3
:102890006C0A24E644E664E690E080E00E948C0145
:1028A000D0935002C0934F02D0935202C093510272
:1028B000D0935402C0935302D0935602C093550252
:1028C000109358020093570260918602709187021C
:1028D0004091880250918902ACE3A69FC001A79F56
:1028E000900D1124840F951FE0914502F09146024E
:1028F000AE9F9001AF9F300D1124E0914702F091FF
:1029000048022E0F3F1F821B930B04970CF4DBCE63
:1029100070934602609345025093480240934702E9
:102920008FE0CFCE8F3009F0D3C00E94FD0480909D
:10293000400290904102A0904202B0904302681978
:1029400079098A099B09643671058105910508F0AA
:102950006DC020E040E06FEF90E080E00E948C01CD
:1029600081E090E00E946C0A80915D0290915E028D
:102970008A3191050CF47FC0D0925002C0924F0270
:1029800080915F0290916002853191050CF480C0C6
:10299000D0925202C092510284EA96E0909354027F
:1029A0008093530280915B0290915C0297FF7DC0FF
:1029B0008E5A9F4F853A910508F085C020E436E095
:1029C00030935602209355021093580200935702F9
:1029D000609186027091870240918802509189022D
:1029E000ACE3A69FC001A79F900D1124840F951FF3
:1029F000E0914502F0914602AE9F9001AF9F300DED
:102A00001124E0914702F09148022E0F3F1F821BD4
:102A1000930B07970CF457CE7093460260934502D0
:102A200050934802409347028FE34BCE0E94FD042F
:102A3000681979098A099B09643671058105910530
:102A400078F00E94FD04681979098A099B09683C9D
:102A500071058105910520F420E040E060E07CCF25
:102A60000E94FD04609340027093410280934202F1
:102A70009093430275CF873E9F4F2CF47092500283
:102A800060924F027DCFD0935002C0934F0278CF17
:102A90008C3E9F4F2CF470925202609251027CCF78
:102AA000D0935202C093510277CF009761F08E5AB3
:102AB0009F4F853A910538F488E795E09093560248
:102AC0008093550281CFD0935602C09355027CCF9C
:102AD0008F3309F0AEC084E090E00E946C0AA090B1
:102AE0006502B0906602B0926002A0925F02809090
:102AF00063029090640290925E0280925D02E09088
:102B00006702F0906802F0925C02E0925B0224E6B9
:102B100040E060E090E080E00E948C019AE189163C
:102B2000910424F12EE036E03093500220934F02BE
:102B300095E1A916B1045CF12EE036E03093520223
:102B400020935102D0935402C0935302F7FE30C039
:102B50009FE4E90EF11C80E496E02FE9E216F1040F
:102B600098F1D0935602C093550232C037EE8316C7
:102B70003FEF93063CF48AEA95E0909350028093ED
:102B80004F02D6CFD0935002C0934F02D1CF3CEE2C
:102B9000A3163FEFB3063CF48AEA95E09093520205
:102BA00080935102CFCFD0935202C0935102CACF2B
:102BB000E114F104B1F29FE4E90EF11C2FE9E216F1
:102BC000F10478F688E795E09093560280935502D9
:102BD0001093580200935702609186027091870209
:102BE0004091880250918902ACE3A69FC001A79F43
:102BF000900D1124840F951FE0914502F09146023B
:102C0000AE9F9001AF9F300D1124E0914702F091EB
:102C100048022E0F3F1F821B930B97FD54CD7093DC
:102C200046026093450250934802409347028FE763
:102C300048CD8F3709F047CD20E040E060E090E0DC
:102C400080E00E948C0181E08093810281E090E02D
:102C50009093800280937F0236CD80917D02909187
:102C60007E02892B09F06BC391E0F91268C32FEF44
:102C70004FEF6FEF81E090E00E948C0180916C0239
:102C800081111AC0809186029091870290938302ED
:102C900080938202809188029091890290938502AC
:102CA0008093840210926B02F0926C022DE132E06C
:102CB00030936A022093690280916C02882309F4A0
:102CC00002CD80916B028111F7C0809169029091D1
:102CD0006A0232E08F31930709F0B0C02FEF40E075
:102CE00060E090E080E00E948C0188E490E00E9427
:102CF0006C0A8091650290916602909360028093C5
:102D00005F02209163023091640230935E0220934F
:102D10005D02809167029091680290935C028093BB
:102D20005B022B3031050CF496C0D0925002C09259
:102D30004F0228E735E03093520220935102D0939E
:102D40005402C093530297FF93C08E5A9F4F853A07
:102D5000910508F099C05092560240925502109386
:102D6000580200935702E0906102F0906202E11471
:102D7000F10409F08EC020E040E060E090E080E0E7
:102D80000E948C0180918602909187026CE3689F7B
:102D90009001699F300D11248091880290918902E1
:102DA000820F931F4091820250918302649F900191
:102DB000659F300D11244091840250918502240FAB
:102DC000351F821B930B0B970CF06FC0609186022E
:102DD000709187024091880250918902ACE3A69FCE
:102DE000C001A79F900D1124840F951FE0918202CE
:102DF000F0918302AE9F9001AF9F300D1124E091BE
:102E00008402F09185022E0F3F1F821B930B8531A8
:102E1000910544F425E0E216F10409F054CC04973E
:102E20000CF451CC7093830260938202509385021C
:102E3000409384028FE080936B0245CC8D51924089
:102E400039F420E04FEF60E090E080E00E948C01D8
:102E500089E490E04CCF263F3F4F2CF47092500213
:102E600060924F0266CFD0935002C0934F0261CF61
:102E7000009751F08E5A9F4F853A910528F4309271
:102E80005602209255026BCFD0935602C093550242
:102E900066CF35E0E316F10409F074CF20E04FEF80
:102EA00060E090E080E00E948C0184E398E09093E1
:102EB0005A02809359028ACF8F3009F0AFC086E062
:102EC00090E00E946C0AE0906502F0906602F09239
:102ED0006002E0925F0220916302309164023093BD
:102EE0005E0220935D028091670290916802909348
:102EF0005C0280935B02203131050CF471C0D092EA
:102F00005002C0924F0228E735E0309352022093DE
:102F10005102D0935402C093530297FF6EC08E5A51
:102F20009F4F853A910508F074C050925602409226
:102F300055021093580200935702A0906102B0907E
:102F4000620220E040E060E0A114B10439F035E015
:102F5000A316B10439F42FEF4FEF6FEF90E080E04C
:102F60000E948C01609186027091870240918802D4
:102F700050918902ACE3A69FC001A79F900D112438
:102F8000840F951FE0918202F0918302AE9F900121
:102F9000AF9F300D1124E0918402F09185022E0F35
:102FA0003F1F821B930B8031910584F425E0A2160C
:102FB000B10409F088CB3BE0E30EF11C27E1E216F7
:102FC000F10408F080CB04970CF47DCB709383025E
:102FD0006093820250938502409384028FE12BCF4D
:102FE000213F3F4F2CF47092500260924F028BCFE2
:102FF000D0935002C0934F0286CF009751F08E5A63
:103000009F4F853A910528F430925602209255023E
:1030100090CFD0935602C09355028BCF8F3109F0D9
:10302000A2C086E090E00E946C0A20916502309177
:1030300066023093600220935F02409163025091D8
:10304000640250935E0240935D028091670290910A
:10305000680290935C0280935B02403151050CF44E
:1030600057C05092500240924F022D3031050CF45F
:103070005CC05092520240925102D0935402C093CD
:10308000530297FF5FC08E5A9F4F853A910508F013
:1030900065C0D0925602C092550210935802009318
:1030A000570224E64FEF64E690E080E00E948C0136
:1030B0000E94EF036091860270918702409188021E
:1030C00050918902ACE3A69FC001A79F900D1124E7
:1030D000840F951FE0918202F0918302AE9F9001D0
:1030E000AF9F300D1124E0918402F09185022E0FE4
:1030F0003F1F821B930B04970CF4E5CA7093830265
:103100006093820250938502409384028FE393CEB2
:10311000413F5F4F2CF43092500220924F02A5CFD6
:10312000D0935002C0934F02A0CF243F3F4F2CF4C6
:103130003092520220925102A0CFD0935202C093FB
:1031400051029BCF009751F08E5A9F4F853A9105BF
:1031500028F470925602609255029FCFD093560287
:10316000C09355029ACF8F3309F0DCC088E090E01D
:103170000E946C0AA0906502B0906602B092600254
:10318000A0925F02809163029091640290935E022C
:1031900080935D02E0906702F0906802F0925C021A
:1031A000E0925B028091690290916A0262E08F3145
:1031B000960709F08AC02FEF40E060E090E080E0E1
:1031C0000E948C017092500260924F0230E1A3166F
:1031D000B1040CF489C05092520240925102D09333
:1031E0005402C09353021E141F040CF08CC06BE0F9
:1031F000E616F1040CF491C050925602409255022A
:1032000010935802009357022FEF40E06FEF90E0C9
:1032100080E00E948C01809161029091620205978A
:1032200051F40E94FD0460934B0270934C02809312
:103230004D0290934E0210924A020E94FD0480902B
:103240004B0290904C02A0904D02B0904E02681933
:1032500079098A099B096D3B72408105910518F037
:1032600081E080934A0260918602709187024091CA
:10327000880250918902ACE3A69FC001A79F900DE0
:103280001124840F951FE0918202F0918302AE9F7A
:103290009001AF9F300D1124E0918402F0918502DE
:1032A0002E0F3F1F821B930B97FF05C080914A0290
:1032B000882309F408CA70938302609382025093B2
:1032C0008502409384028FE7B6CD8D51924039F448
:1032D00020E04FEF60E090E080E00E948C01D0920F
:1032E0005002C0924F0272CF41EFA4164FEFB406C6
:1032F0002CF4309252022092510271CFD09352029C
:10330000C09351026CCF86EFE8168FEFF8062CF4CD
:10331000309256022092550273CFD0935602C0933A
:1033200055026ECF8F3709F0CEC982E080938102BB
:1033300081E090E090937E0280937D02C4C98091E9
:103340007B0290917C02892B31F432E0F31203C0AE
:103350000E94AD06B8C98091790290917A02892BBA
:1033600019F443E0F416A1F380917702909178026A
:10337000892B09F0A8C964E0F612A5C9E9CF10921B
:103380006E0210926D02CDC920E040E06FEF90E038
:1033900080E00E948C010E940E077FC80E94AD064B
:1033A0007CC8CF93DF938091DF049091E004892B58
:1033B000C1F0D0E0C0E0E091DF04F091E004EC0F58
:1033C000FD1F80819181009711F00E946E1F22964F
:1033D000C032D10581F78091DF049091E0040E9412
:1033E0006E1F8091E1049091E204892BC1F0D0E03E
:1033F000C0E0E091E104F091E204EC0FFD1F808158
:103400009181009711F00E946E1F2296C032D10563
:1034100081F78091E1049091E2040E946E1F8091F7
:103420002E0590912F050E946E1F80912B05909183
:103430002C0597FD05C060E0DF91CF910C949903B6
:10344000DF91CF910895662777270C94881A1F93F0
:10345000FC0199278827BC01E89411911032E9F307
:10346000193010F01E30C8F31B3251F01D3249F4F0
:10347000689406C00E94591A610F711D811D911D2B
:10348000119110531A30B0F33EF4909580957095D9
:1034900061957F4F8F4F9F4F1F910895BB274A30F3
:1034A00031F4992322F4BDE2909581959F4F0C94BD
:1034B0006F1A592F482F372F262F660F771F881F17
:1034C000991F660F771F881F991F620F731F841F34
:1034D000951F660F771F881F991F0895BB27FB0153
:1034E0005527AA27880F991FAA1FA41710F0A41BFD
:1034F00083955051B9F7A05DAA3308F0A95DA19357
:10350000009779F7B111B1931192CB010C94071C7C
:103510008F929F92AF92BF92CF92DF92EF92FF92E3
:103520000F931F93CF93DF935C017B0161157105AE
:1035300019F0DB018D939C9385010F5F1F4FF501FF
:10354000D0818D2F90E00E94E61B6C01892BB9F58C
:10355000DD32B9F50F5F1F4FD5011196DC91C1E047
:103560005801F1E0AF1AB10843E050E064E571E0C2
:10357000C5010E94EF1B892B69F5680182E0C80E26
:10358000D11C45E050E06FE471E0C6010E94EF1BE2
:10359000892B21F4680197E0C90ED11CE114F104D4
:1035A00019F0D701CD92DC9260E070E080E89FEFE7
:1035B000C111FFC060E070E080E89FE7FAC05801E9
:1035C000BBCFDB3229F485010E5F1F4FF501D1819E
:1035D000C0E0C6CF43E050E06CE471E0C5010E945A
:1035E000EF1B892BE9F0F80110E000E020E030E06B
:1035F000A9015F01B0ED8B2E8D0E89E08815C8F111
:103600009C2E689491F88C2F8870C2FF16C081118F
:1036100002C00F5F1F4F3196D501DC91C92DE9CF54
:10362000E114F10429F00E5F1F4FF70111830083AD
:1036300060E070E080EC9FE7BCC0882311F001508F
:103640001109A5E0B0E00E945D1D9B01AC01220FB5
:10365000331F441F551F280D311D411D511D283991
:1036600099E93907490799E15907A8F2C6609C2EE4
:10367000D2CFAEEF8A1206C0C3FD3CC09C2E689428
:1036800093F8C9CFDF7DD534A9F580818D3239F427
:10369000C061DF011296818162E070E006C0DF0147
:1036A0008B32C1F3119661E070E080535D01A61A80
:1036B000B70A8A30F8F4E0E8CE16ECE0DE065CF4F7
:1036C000B601660F771F660F771FC60ED71ECC0C8C
:1036D000DD1CC80ED11C5D01FFEFAF1ABF0A8C9133
:1036E00080538A30A8F1C4FF03C0D194C194D1089B
:1036F0000C0D1D1DC1FF09C0E114F10431F081E082
:10370000A81AB108D701AD92BC92CA01B9010E94B2
:103710001C1CC370C33009F490584B015C0120E0BD
:1037200030E0A9010E94171C882309F440C0C3E8B7
:10373000D1E017FF05C0119501951109CBE6D1E045
:103740006E01B8E1CB1AD10880E2E82EF12C0FC04F
:10375000D501B1CFFE0125913591459154910E19B6
:103760001F09C501B4010E947D1C4B015C01D501FC
:10377000C4010E151F0574F72497F594E794CC1631
:10378000DD06A9F78A2F880F8B2F881F8F3F49F0FE
:1037900020E030E0A901C501B4010E94171C81118D
:1037A00006C082E290E090933C0580933B05C50102
:1037B000B401DF91CF911F910F91FF90EF90DF90B7
:1037C000CF90BF90AF909F908F90089591110C94DF
:1037D000EA1C803219F089508550C8F70895FB0122
:1037E000DC014150504088F08D9181341CF08B35C4
:1037F0000CF4805E659161341CF06B350CF4605EF6
:10380000861B611171F3990B0895881BFCCFDC01B5
:10381000FC01672F71917723E1F7329704C07C9107
:103820006D9370836291AE17BF07C8F308950E942D
:10383000591C08F481E00895E89409C097FB3EF410
:1038400090958095709561957F4F8F4F9F4F9923ED
:10385000A9F0F92F96E9BB279395F695879577956B
:103860006795B795F111F8CFFAF4BB0F11F460FF2B
:103870001BC06F5F7F4F8F4F9F4F16C0882311F083
:1038800096E911C0772321F09EE8872F762F05C097
:10389000662371F096E8862F70E060E02AF09A9532
:1038A000660F771F881FDAF7880F9695879597F927
:1038B0000895990F0008550FAA0BE0E8FEEF1616C1
:1038C0001706E807F907C0F012161306E407F50714
:1038D00098F0621B730B840B950B39F40A2661F088
:1038E000232B242B252B21F408950A2609F4A1402B
:1038F000A6958FEF811D811D08950E94901C0C9448
:10390000041D0E94F61C38F00E94FD1C20F0952337
:1039100011F00C94ED1C0C94F31C11240C94381D24
:103920000E94151D70F3959FC1F3950F50E0551F30
:10393000629FF001729FBB27F00DB11D639FAA2704
:10394000F00DB11DAA1F649F6627B00DA11D661F53
:10395000829F2227B00DA11D621F739FB00DA11D74
:10396000621F839FA00D611D221F749F3327A00D2E
:10397000611D231F849F600D211D822F762F6A2FCA
:1039800011249F5750409AF0F1F088234AF0EE0F2F
:10399000FF1FBB1F661F771F881F91505040A9F75C
:1039A0009E3F510580F00C94ED1C0C94381D5F3F38
:1039B000E4F3983ED4F3869577956795B795F79598
:1039C000E7959F5FC1F7FE2B880F911D9695879510
:1039D00097F9089599278827089597F99F6780E8B0
:1039E00070E060E008959FEF80EC089500240A9451
:1039F0001616170618060906089500240A941216CA
:103A00001306140605060895092E0394000C11F4FC
:103A1000882352F0BB0F40F4BF2B11F460FF04C0A9
:103A20006F5F7F4F8F4F9F4F089557FD9058440F02
:103A3000551F59F05F3F71F04795880F97FB991F0D
:103A400061F09F3F79F087950895121613061406CA
:103A5000551FF2CF4695F1DF08C016161706180657
:103A6000991FF1CF86957105610508940895E89432
:103A7000BB2766277727CB0197F90895052E97FB7B
:103A80001EF400940E94551D57FD07D00E94701D22
:103A900007FC03D04EF40C94551D5095409530957D
:103AA00021953F4F4F4F5F4F0895909580957095AA
:103AB00061957F4F8F4F9F4F08950E94921DA59F44
:103AC000900DB49F900DA49F800D911D1124089519
:103AD000B7FF0C945D1D0E945D1D821B930B089522
:103AE000A1E21A2EAA1BBB1BFD010DC0AA1FBB1F02
:103AF000EE1FFF1FA217B307E407F50720F0A21B74
:103B0000B30BE40BF50B661F771F881F991F1A94E0
:103B100069F760957095809590959B01AC01BD010A
:103B2000CF010895A29FB001B39FC001A39F700D64
:103B3000811D1124911DB29F700D811D1124911DB5
:103B400008955058BB27AA270E94B91D0C94041D44
:103B50000E94F61C38F00E94FD1C20F039F49F3FB3
:103B600019F426F40C94F31C0EF4E095E7FB0C9486
:103B7000ED1CE92F0E94151D58F3BA176207730751
:103B80008407950720F079F4A6F50C94371D0EF400
:103B9000E0950B2EBA2FA02D0B01B90190010C015D
:103BA000CA01A0011124FF27591B99F0593F50F475
:103BB000503E68F11A16F040A22F232F342F4427CD
:103BC000585FF3CF469537952795A795F0405395C5
:103BD000C9F77EF41F16BA0B620B730B840BBAF095
:103BE0009150A1F0FF0FBB1F661F771F881FC2F700
:103BF0000EC0BA0F621F731F841F48F48795779514
:103C00006795B795F7959E3F08F0B0CF9395880FCD
:103C100008F09927EE0F9795879508950E94221E28
:103C20000C94041D0E94FD1C58F00E94F61C40F0EC
:103C300029F45F3F29F00C94ED1C51110C94381DB0
:103C40000C94F31C0E94151D68F39923B1F35523BE
:103C500091F3951B550BBB27AA276217730784079F
:103C600038F09F5F5F4F220F331F441FAA1FA9F335
:103C700035D00E2E3AF0E0E832D091505040E69523
:103C8000001CCAF72BD0FE2F29D0660F771F881F84
:103C9000BB1F261737074807AB07B0E809F0BB0B77
:103CA000802DBF01FF2793585F4F3AF09E3F51058B
:103CB00078F00C94ED1C0C94381D5F3FE4F3983EB3
:103CC000D4F3869577956795B795F7959F5FC9F774
:103CD000880F911D9695879597F90895E1E0660FF5
:103CE000771F881FBB1F621773078407BA0720F06E
:103CF000621B730B840BBA0BEE1F88F7E0950895D7
:103D00000E94871E6894B1110C94381D08950E947A
:103D10001D1D88F09F5798F0B92F9927B751B0F023
:103D2000E1F0660F771F881F991F1AF0BA95C9F73F
:103D300014C0B13091F00E94371DB1E008950C9489
:103D4000371D672F782F8827B85F39F0B93FCCF33C
:103D5000869577956795B395D9F73EF490958095BC
:103D6000709561957F4F8F4F9F4F0895AA1BBB1B86
:103D700051E107C0AA1FBB1FA617B70710F0A61B6B
:103D8000B70B881F991F5A95A9F780959095BC018C
:103D9000CD010895EE0FFF1F881F8BBF0790F6918E
:103DA000E02D19940F931F93CF93DF9382309105E9
:103DB00010F482E090E0E0913F05F091400530E0A2
:103DC00020E0B0E0A0E0309799F42115310509F426
:103DD0004AC0281B390B24303105D8F58A819B81D4
:103DE0006115710589F1FB0193838283FE0111C086
:103DF000408151810281138148175907E0F048172B
:103E0000590799F4109761F012960C931297139634
:103E10001C933296CF01DF91CF911F910F9108959E
:103E200000933F0510934005F4CF2115310551F063
:103E30004217530738F0A901DB019A01BD01DF01E8
:103E4000F801C1CFEF01F9CF9093400580933F0572
:103E5000CDCFFE01E20FF31F8193919322503109E0
:103E600039832883D7CF20913D0530913E05232B00
:103E700041F4209105023091060230933E052093D3
:103E80003D0520910302309104022115310541F4D2
:103E90002DB73EB74091070250910802241B350B05
:103EA000E0913D05F0913E05E217F307A0F42E1BCB
:103EB0003F0B2817390778F0AC014E5F5F4F24178E
:103EC000350748F04E0F5F1F50933E0540933D0568
:103ED000819391939FCFF0E0E0E09CCFCF93DF936D
:103EE0000097E9F0FC01329713821282A0913F05FE
:103EF000B0914005ED0130E020E01097A1F4208161
:103F00003181820F931F20913D0530913E05281786
:103F1000390709F061C0F0933E05E0933D05DF915C
:103F2000CF910895EA01CE17DF07E8F54A815B815A
:103F30009E0141155105B1F7E901FB83EA834991DF
:103F40005991C40FD51FEC17FD0761F48081918151
:103F50000296840F951FE90199838883828193815A
:103F60009B838A83F0E0E0E012968D919C911397F9
:103F70000097B9F52D913C911197CD010296820FD2
:103F8000931F20913D0530913E052817390739F6DA
:103F9000309751F51092400510923F05B0933E05C1
:103FA000A0933D05BCCFD383C28340815181840F50
:103FB000951FC817D90761F44E5F5F4F88819981BB
:103FC000480F591F518340838A819B819383828349
:103FD0002115310509F0B0CFF0934005E0933F057E
:103FE0009ECFFD01DC01C0CF13821282D7CF4F924A
:103FF0005F926F927F928F929F92AF92BF92CF9279
:10400000DF92EF92FF920F931F93CF93DF938C0178
:10401000009799F4CB01DF91CF911F910F91FF9001
:10402000EF90DF90CF90BF90AF909F908F907F9058
:104030006F905F904F900C94D21EFC01E60FF71F1B
:104040009C0122503109E217F30708F4AEC0D901F0
:10405000CD91DC911197C617D70720F1C530D10556
:1040600078F0CE0104978617970750F0C61BD70B40
:104070002297C193D1936D937C93CF010E946E1FC1
:10408000C801DF91CF911F910F91FF90EF90DF90CA
:10409000CF90BF90AF909F908F907F906F905F90E8
:1040A0004F9008955B01AC1ABD0A4C018C0E9D1E09
:1040B000A0913F05B0914005512C412CF12CE12CF1
:1040C000109731F580913D0590913E058815990531
:1040D00009F05CC04616570608F058C080910302EC
:1040E00090910402009741F48DB79EB7409107026A
:1040F00050910802841B950BE817F90708F055C08A
:10410000F0933E05E0933D05F90171836083B8CFDC
:104110008D919C91119712966C90129713967C90AA
:104120001397A815B90559F56C0142E0C40ED11CCE
:10413000CA14DB0420F1AC014A195B09DA011296BA
:10414000159780F06282738251834083D9016D9309
:104150007C93E114F10471F0D7011396FC93EE9374
:1041600012978ECF22968C0F9D1FF9019183808329
:10417000F301EFCFF0934005E0933F0581CF481660
:10418000590608F42C017D01D3019ACFCB010E947E
:10419000D21E7C01009749F0AE01B8010E94D820E0
:1041A000C8010E946E1F87016BCF10E000E068CF4E
:1041B000FB01DC0102C001900D9241505040D8F744
:1041C0000895FC018191861721F08823D9F799275A
:1041D00008953197CF010895FB01DC0101900D9204
:1041E0000020E1F70895FB01DC014150504048F008
:1041F00001900D920020C9F701C01D92415050401E
:10420000E0F7089511E0C8E4D1E000E006C0802F97
:10421000FE010E94CA1E2196011DC934D10780E00B
:104220000807A9F7F894FFCF0101010000410580BC
:1042300000000000007302D3010002C00231020F2F
:0A4240000223023000670062000054
:10E000000D9489F10D94B2F10D94B2F10D94B2F129
:10E010000D94B2F10D94B2F10D94B2F10D94B2F1F0
:10E020000D94B2F10D94B2F10D94B2F10D94B2F1E0
:10E030000D94B2F10D94B2F10D94B2F10D94B2F1D0
:10E040000D94B2F10D94B2F10D94B2F10D94B2F1C0
:10E050000D94B2F10D94B2F10D94B2F10D94B2F1B0
:10E060000D94B2F10D94B2F10D94B2F10D94B2F1A0
:10E070000D94B2F10D94B2F10D94B2F10D94B2F190
:10E080000D94B2F10D94B2F10D94B2F10D94B2F180
:10E090000D94B2F10D94B2F10D94B2F10D94B2F170
:10E0A0000D94B2F10D94B2F10D94B2F10D94B2F160
:10E0B0000D94B2F10D94B2F10D94B2F10D94B2F150
:10E0C0000D94B2F10D94B2F10D94B2F10D94B2F140
:10E0D0000D94B2F10D94B2F10D94B2F10D94B2F130
:10E0E0000D94B2F141546D656761323536300041AF
:10E0F000726475696E6F206578706C6F72657220DE
:10E1000073746B3530305632206279204D4C530099
:10E11000426F6F746C6F616465723E004875683F52
:10E1200000436F6D70696C6564206F6E203D200048
:10E130004350552054797065202020203D20005FF9
:10E140005F4156525F415243485F5F3D2000415658
:10E1500052204C696243205665723D20004743437C
:10E160002056657273696F6E203D20004350552024
:10E1700049442020202020203D20004C6F7720663D
:10E18000757365202020203D20004869676820665F
:10E190007573652020203D200045787420667573D6
:10E1A00065202020203D20004C6F636B2066757336
:10E1B000652020203D20004D617220203720323024
:10E1C000313300312E362E3800342E332E350056A2
:10E1D00023202020414444522020206F7020636F70
:10E1E00064652020202020696E73747275637469E1
:10E1F0006F6E2061646472202020496E74657272B3
:10E20000757074006E6F20766563746F7200726A49
:10E210006D702020006A6D70200057686174207056
:10E220006F72743A00506F7274206E6F7420737541
:10E2300070706F72746564004D7573742062652030
:10E2400061206C6574746572002000577269747483
:10E25000696E672045450052656164696E672045B7
:10E26000450045452065727220636E743D00504F35
:10E27000525400303D5A65726F2061646472003FF1
:10E280003D43505520737461747300403D454550C3
:10E29000524F4D207465737400423D426C696E6B41
:10E2A000204C454400453D44756D70204545505215
:10E2B0004F4D00463D44756D7020464C415348001B
:10E2C000483D48656C70004C3D4C69737420492F83
:10E2D0004F20506F72747300513D51756974005234
:10E2E0003D44756D702052414D00563D73686F7707
:10E2F00020696E7465727275707420566563746FF0
:10E30000727300593D506F727420626C696E6B00BD
:10E310002A0011241FBECFEFD1E2DEBFCDBF01E046
:10E320000CBF12E0A0E0B2E0EEE1FDEF03E00BBFB6
:10E3300002C007900D92A030B107D9F712E0A0E01B
:10E34000B2E001C01D92AE30B107E1F70F9460F367
:10E350000D948DFE01E20EBF0FEF0DBF11241FBE05
:10E360000D9460F30D9400F020E030E040ED57E0B4
:10E3700005C0FA013197F1F72F5F3F4F2817390792
:10E38000C0F308959C01260F311DC901A0E0B0E043
:10E390002F5F3F4FABBFFC018791882361F08093D3
:10E3A000C6008091C00086FFFCCF8091C0008064D1
:10E3B0008093C000EACF08958DE08093C6008091DD
:10E3C000C00086FFFCCF8091C00080648093C000B5
:10E3D0008AE08093C6008091C00086FFFCCF8091C8
:10E3E000C00080648093C00008950F94C2F10F9420
:10E3F000DCF10895FC019081992359F09093C600B7
:10E400008091C00086FFFCCF8091C0008064809323
:10E41000C0003196992379F70895282F982F929567
:10E420009F70892F805D8A3308F0895F8093C600D2
:10E430008091C00086FFFCCF8091C00080648093F3
:10E44000C000822F8F70982F905D9A3308F0995FEB
:10E450009093C6008091C00086FFFCCF8091C000E1
:10E4600080648093C00008959C01FB01853691056E
:10E470001CF46330710594F0C90164E670E00F94F8
:10E480002EFE605D7F4F6093C6008091C00086FFC6
:10E49000FCCF8091C00080648093C0002B30310598
:10E4A00014F43297B4F0C90164E670E00F942EFEC4
:10E4B0006AE070E00F942EFE605D7F4F6093C600AF
:10E4C0008091C00086FFFCCF8091C0008064809363
:10E4D000C000C9016AE070E00F942EFEC0968093E0
:10E4E000C6008091C00086FFFCCF8091C000806490
:10E4F0008093C00008951F93182F8EE692EE60E07F
:10E500000F94C2F11093C6008091C00086FFFCCF2B
:10E510008091C00080648093C0000F94DCF11F9153
:10E5200008952F923F924F925F926F927F928F92B7
:10E530009F92AF92BF92CF92DF92EF92FF920F9392
:10E540001F93DF93CF93CDB7DEB762970FB6F894E2
:10E55000DEBF0FBECDBF382E622ECA01DB015C01CB
:10E560006D01772420E2222E2E010894411C511CBB
:10E570008BC081E0A81680E0B80681E0C80680E084
:10E58000D80628F0C601AA27BB270F940DF2BB2797
:10E59000AD2D9C2D8B2D0F940DF28A2D0F940DF225
:10E5A0002092C6008091C00086FFFCCF8091C00001
:10E5B00080648093C0009DE29093C6008091C0006B
:10E5C00086FFFCCF8091C00080648093C0002092C1
:10E5D000C6008091C00086FFFCCF8091C00080649F
:10E5E0008093C00019828601750188249924A1E0D6
:10E5F0003A1651F03A1620F0B2E03B1661F409C029
:10E600000BBFF701779007C0C7010F9477FE782EF4
:10E6100002C0F7017080872D0F940DF22092C60082
:10E620008091C00086FFFCCF8091C0008064809301
:10E63000C000872D8052F401EF70F0708F3520F408
:10E64000E40DF51D708204C0E40DF51D8EE280839B
:10E650000894E11CF11C011D111D0894811C911CE2
:10E6600090E18916910409F0C2CF80E190E0A0E02A
:10E67000B0E0A80EB91ECA1EDB1E198AC2010F9493
:10E68000FAF10F94DCF16A94662009F072CF629679
:10E690000FB6F894DEBF0FBECDBFCF91DF911F91B3
:10E6A0000F91FF90EF90DF90CF90BF90AF909F9031
:10E6B0008F907F906F905F904F903F902F90089534
:10E6C0002F923F924F925F926F927F928F929F9282
:10E6D000AF92BF92CF92DF92EF92FF920F931F9370
:10E6E000DF93CF93CDB7DEB7CD53D1400FB6F894BB
:10E6F000DEBF0FBECDBF01E20EBF0FEF0DBF94B75F
:10E70000F894A89514BE80916000886180936000A1
:10E7100010926000789493FF05C0E0910002F091A0
:10E7200001021995279A2F9A8091C00082608093E8
:10E73000C00080E18093C40088E18093C1000000A4
:10E74000EE24FF24870144E0A42EB12CCC24DD2448
:10E7500024C0C5010197F1F70894E11CF11C011DCB
:10E76000111D21E2E2162EE4F20620E0020720E06D
:10E77000120718F031E0C32ED12CC801B70127ECE5
:10E780003BE140E050E00F9441FE611571058105C9
:10E79000910519F485B1805885B98091C00087FD35
:10E7A00003C0C114D104A9F2A6014F5F5F4FC25E3E
:10E7B000DE4F59834883CE51D140C25EDE4F8881FF
:10E7C0009981CE51D140019711F00D9410FEC05D9A
:10E7D000DE4F19821882C053D14060E0C15DDE4F28
:10E7E0001882CF52D14088249924C35DDE4F19820C
:10E7F0001882CD52D140C05EDE4F188219821A8233
:10E800001B82C052D140CE5CDE4F188219821A8220
:10E810001B82C253D140EE24FF2487010BBFF701B6
:10E8200007911691C45CDE4F19830883CC53D14005
:10E830000D940BFEC25EDE4F28813981CE51D1404E
:10E840002130310509F52091C600C25EDE4F1982E4
:10E850001882CE51D14022C02F5F3F4F4F4F5F4FA4
:10E86000213082E138078AE7480780E0580780F0C6
:10E87000C45CDE4FE881F981CC53D140EF5FFF4F9C
:10E8800019F0EE27FF27099420E030E040E050E047
:10E890008091C00087FFE0CF2091C600C35DDE4FAE
:10E8A00048815981CD52D1404F5F5F4FC35DDE4FEC
:10E8B00059834883CD52D140213209F063C64A3092
:10E8C000510508F05FC60894811C911C53E0851621
:10E8D000910409F059C600E010E018C081E280936D
:10E8E000C6008091C00086FFFCCF8091C00080648C
:10E8F0008093C0002F5F3F4F2931310579F70F9486
:10E90000DCF10F5F1F4F0530110519F020E030E0FA
:10E91000E5CF10920A0210920B0210920C02109294
:10E920000D02109206021092070210920802109235
:10E930000902109202021092030210920402109235
:10E9400005028FEE90EE60E00F94F5F180E191EE1C
:10E9500060E00F94C2F18091C00087FFFCCF9091DE
:10E96000C600903608F09F759032B8F09093C600BC
:10E970008091C00086FFFCCF8091C00080648093AE
:10E98000C000A0E2A093C6008091C00086FFFCCF2B
:10E990008091C00080648093C000983409F4D7C18E
:10E9A0009934B8F4923409F459C1933458F490333B
:10E9B00019F1903308F4E3C59F33A1F1903409F0C5
:10E9C000DEC5BDC0953409F470C1963409F0D7C5D1
:10E9D00098C1923509F42BC2933538F49C3409F46C
:10E9E000F5C1913509F0CBC518C2963509F445C279
:10E9F000993509F0C4C567C483E792EE62E00F94CD
:10EA0000F5F110920602109207021092080210927D
:10EA1000090210920A0210920B0210920C0210923C
:10EA20000D0213C18FE792EE62E00F94F5F18FEEC5
:10EA300090EE60E00F94F5F181E291EE60E00F94CA
:10EA4000C2F187EB91EE60E00F94F5F180E391EE77
:10EA500060E00F94C2F184EE90EE60E00F94F5F167
:10EA60008FE391EE60E00F94C2F186E090E061E008
:10EA700070E00F9434F20F94DCF18DE591EE60E0DC
:10EA80000F94C2F189EC91EE60E00F94F5F18EE401
:10EA900091EE60E00F94C2F183EC91EE60E00F9490
:10EAA000F5F18CE691EE60E00F94C2F18EE10F94E7
:10EAB0000DF288E90F940DF281E00F940DF20F949E
:10EAC000DCF18BE791EE60E00F94C2F119E0E0E039
:10EAD000F0E010935700E4918E2F0F940DF20F94F5
:10EAE000DCF18AE891EE60E00F94C2F1E3E0F0E03F
:10EAF00010935700E4918E2F0F940DF20F94DCF1D8
:10EB000089E991EE60E00F94C2F1E2E0F0E0109349
:10EB10005700E4918E2F0F940DF20F94DCF188EAE8
:10EB200091EE60E00F94C2F1E1E0F0E01093570045
:10EB30001491812F0F940DF20F94DCF107CF8BE825
:10EB400092EE62E00F94F5F18BE492EE60E00F94A8
:10EB5000F5F10F94DCF100E010E019C0C8016F2D51
:10EB60000F947FFEFF2031F489E492EE60E00F9471
:10EB7000C2F10BC0F092C6008091C00086FFFCCFAE
:10EB80008091C00080648093C0000F5F1F4FC80158
:10EB900081519F41A0E0B0E0ABBFFC01F790BAE229
:10EBA000FB1621F0E2E000301E07C1F60F94DCF105
:10EBB0000F94DCF187E592EE60E00F94F5F10F948D
:10EBC000DCF1CC24DD2400E010E01EC0C8010F946D
:10EBD00077FEF82E882331F489E492EE60E00F94FA
:10EBE000C2F10BC08093C6008091C00086FFFCCFAD
:10EBF0008091C00080648093C000FE1419F00894D6
:10EC0000C11CD11C0F5F1F4FC80181519F41A0E063
:10EC1000B0E0ABBFFC01E790FAE2EF1621F022E092
:10EC20000030120799F60F94DCF10F94DCF182E6C4
:10EC300092EE60E00F94C2F1C60161E070E00F94C3
:10EC400034F20F94DCF10F94DCF110920202109276
:10EC50000302109204021092050278CE89E992EE26
:10EC600062E00F94F5F1279A2F9A16C02F9880E052
:10EC700090E0E0EDF7E03197F1F7019684369105E9
:10EC8000C1F72F9A80E090E0E0EDF7E03197F1F7DF
:10EC9000019684369105C1F78091C00087FFE6CFC9
:10ECA0008091C00087FFFCCF64C485EA92EE62E0E9
:10ECB0000F94F5F140910202509103026091040219
:10ECC0007091050281E020E10F9491F2809102029F
:10ECD00090910302A0910402B091050280509F4FD1
:10ECE000AF4FBF4F8093020290930302A0930402A0
:10ECF000B093050280509041A040B04008F426CE69
:10ED0000A4CF83EB92EE62E00F94F5F140910602FE
:10ED100050910702609108027091090280E020E1A1
:10ED20000F9491F28091060290910702A09108023F
:10ED3000B091090280509F4FAF4FBF4F80930602A2
:10ED400090930702A0930802B0930902FFCD80ECD4
:10ED500092EE62E00F94F5F183E792EE60E00F949B
:10ED6000F5F18FE792EE60E00F94F5F18BE892EE0B
:10ED700060E00F94F5F189E992EE60E00F94F5F10F
:10ED800085EA92EE60E00F94F5F183EB92EE60E09D
:10ED90000F94F5F180EC92EE60E00F94F5F187ECC2
:10EDA00092EE60E00F94F5F188ED92EE60E00F9442
:10EDB000F5F18FED92EE60E00F94F5F18AEE92EEB0
:10EDC00060E00F94F5F183E093EEBDCD87EC92EE19
:10EDD00062E00F94F5F181E40F947BF282E40F94EA
:10EDE0007BF283E40F947BF284E40F947BF285E45E
:10EDF0000F947BF286E40F947BF287E40F947BF20E
:10EE000088E40F947BF28AE40F947BF28BE40F94F6
:10EE10007BF28CE40F947BF299CD88ED92EE62E068
:10EE20000F94F5F1772473948824992409C48FED05
:10EE300092EE62E00F94F5F140910A0250910B02BC
:10EE400060910C0270910D0282E020E10F9491F22A
:10EE500080910A0290910B02A0910C02B0910D02D8
:10EE600080509F4FAF4FBF4F80930A0290930B0289
:10EE7000A0930C02B0930D0269CD8AEE92EE62E08F
:10EE80000F94F5F184EE90EE60E00F94F5F18FECC5
:10EE900091EE60E00F94F5F1662477244301CC5D98
:10EEA000DE4F19821882C452D140D401C301B695F5
:10EEB000A79597958795CA5DDE4F88839983AA8326
:10EEC000BB83C652D140CC5DDE4FA881B981C4520C
:10EED000D1401196CC5DDE4FB983A883C452D14096
:10EEE000CD0162E070E00F9434F2B0E2B093C6005E
:10EEF0008091C00086FFFCCF8091C0008064809329
:10EF0000C000EDE2E093C6008091C00086FFFCCF18
:10EF10008091C00080648093C000F0E2F093C6004E
:10EF20008091C00086FFFCCF8091C00080648093F8
:10EF3000C000CA5DDE4FE880F9800A811B81C6529D
:10EF4000D140BB27A12F902F8F2D0F940DF2CA5DBA
:10EF5000DE4F8881C652D1400F940DF2B0E2FB2EF5
:10EF6000F092C6008091C00086FFFCCF8091C00067
:10EF700080648093C0000DE30093C6008091C000C0
:10EF800086FFFCCF8091C00080648093C00010E2B7
:10EF90001093C6008091C00086FFFCCF8091C00016
:10EFA00080648093C0008BBEF3012791C65DDE4F65
:10EFB0002883CA52D140A22EBB24CC24DD2408943D
:10EFC000611C711C811C911C8BBEF3018791282E42
:10EFD0003324442455240894611C711C811C911C09
:10EFE0008BBEF3013791C55DDE4F3883CB52D140E4
:10EFF0000894611C711C811C911C8BBEF30147910C
:10F00000C45DDE4F4883CC52D140ADEFEA2EAFEF66
:10F01000FA2EAFEF0A2FAFEF1A2F6E0C7F1C801E57
:10F02000911E142D032DF22CEE24EA0CFB1C0C1D5A
:10F030001D1D0F940DF220E22093C6008091C000A8
:10F0400086FFFCCF8091C00080648093C000C65DC5
:10F05000DE4F8881CA52D1400F940DF230E23093D6
:10F06000C6008091C00086FFFCCF8091C000806404
:10F070008093C000C45DDE4F8881CC52D1400F9494
:10F080000DF240E24093C6008091C00086FFFCCFA5
:10F090008091C00080648093C000C55DDE4F888190
:10F0A000CB52D1400F940DF250E25093C6008091A4
:10F0B000C00086FFFCCF8091C00080648093C000B8
:10F0C0008FEFE8168FEFF80680E0080780E018075A
:10F0D00031F484E092EE60E00F94C2F1DFC0D80119
:10F0E000C7018070907CA070B0708050904CA040A0
:10F0F000B040D1F52FEF3FE340E050E0E222F322B1
:10F1000004231523CA5DDE4FA880B980CA80DB8046
:10F11000C652D140AE0CBF1CC01ED11EAA0CBB1CD7
:10F12000CC1CDD1C8EE092EE60E00F94C2F1BB2798
:10F13000A12F902F8F2D0F940DF28E2D0F940DF285
:10F1400030E23093C6008091C00086FFFCCF8091F2
:10F15000C00080648093C0004EE34093C60080915D
:10F16000C00086FFFCCF87C08EE09EEFA0E0B0E03D
:10F17000E822F9220A231B239CE0E91694E9F90608
:10F1800090E0090790E0190709F088C0C45DDE4FE0
:10F19000A881CC52D140EA2EFF2400E010E0102FCD
:10F1A0000F2DFE2CEE24C55DDE4FB881CB52D14031
:10F1B000EB0EF11C011D111DD601C501817090706F
:10F1C000A070B070DC0199278827E80EF91E0A1F8D
:10F1D0001B1F20EF30E040E050E0A222B322C42207
:10F1E000D52241E1AA0CBB1CCC1CDD1C4A95D1F7F1
:10F1F000EA0CFB1C0C1D1D1D81E090E0A0E0B0E0BE
:10F20000282239224A225B2235E1220C331C441C7D
:10F21000551C3A95D1F7E20CF31C041D151D57013E
:10F220006801AA0CBB1CCC1CDD1C85E192EE60E0E1
:10F230000F94C2F1C801AA27BB270F940DF2BB2778
:10F24000A12F902F8F2D0F940DF28E2D0F940DF274
:10F2500090E29093C6008091C00086FFFCCF809121
:10F26000C00080648093C000AEE3A093C60080918C
:10F27000C00086FFFCCF8091C00080648093C000F6
:10F28000C601AA27BB270F940DF2BB27AD2D9C2DDD
:10F290008B2D0F940DF28A2D0F940DF20F94DCF14B
:10F2A000CC5DDE4FE881F981C452D140F99709F471
:10F2B0004DCBF4E0EF2EF12C012D112D6E0C7F1CA7
:10F2C000801E911EF2CD83E093EE62E00F94F5F183
:10F2D0008AE192EE60E00F94C2F18091C00087FF56
:10F2E000FCCF1091C6001F751093C6008091C0001E
:10F2F00086FFFCCF8091C00080648093C0000F9493
:10F30000DCF1812F81548A3108F036C1163409F4BA
:10F3100095C0173490F4133409F44EC0143430F40B
:10F320001134F1F0123409F01DC130C0143409F465
:10F3300059C0153409F016C16BC01A3409F4C4C0A1
:10F340001B3438F4173409F48FC0183409F00AC19B
:10F35000A1C01B3409F4D2C01C3409F003C1E8C0B9
:10F360008FEF81B90DC082B1809582B980E090E0C5
:10F37000E0EDF7E03197F1F70196883C9105C1F790
:10F380008091C00087FFEFCF12B8EFC08FEF84B934
:10F390000DC085B1809585B980E090E0E0EDF7E0A3
:10F3A0003197F1F70196883C9105C1F78091C00033
:10F3B00087FFEFCF15B8D9C08FEF87B90DC088B1DF
:10F3C000809588B980E090E0E0EDF7E03197F1F7C3
:10F3D0000196883C9105C1F78091C00087FFEFCF6F
:10F3E00018B8C3C08FEF8AB90DC08BB180958BB9A7
:10F3F00080E090E0E0EDF7E03197F1F70196883C8E
:10F400009105C1F78091C00087FFEFCF1BB8ADC059
:10F410008FEF8DB90DC08EB180958EB980E090E0F0
:10F42000E0EDF7E03197F1F70196883C9105C1F7DF
:10F430008091C00087FFEFCF1EB897C08FEF80BBD1
:10F440000DC081B3809581BB80E090E0E0EDF7E0F6
:10F450003197F1F70196883C9105C1F78091C00082
:10F4600087FFEFCF11BA81C08FEF83BB0DC084B38C
:10F47000809584BB80E090E0E0EDF7E03197F1F714
:10F480000196883C9105C1F78091C00087FFEFCFBE
:10F4900014BA6BC08FEF809301010FC080910201FD
:10F4A00080958093020180E090E0E0EDF7E03197F5
:10F4B000F1F70196883C9105C1F78091C00087FF64
:10F4C000EDCF1092020151C08FEF809304010FC065
:10F4D0008091050180958093050180E090E0E0ED4A
:10F4E000F7E03197F1F70196883C9105C1F78091DB
:10F4F000C00087FFEDCF1092050137C08FEF8093DA
:10F5000007010FC08091080180958093080180E079
:10F5100090E0E0EDF7E03197F1F70196883C910536
:10F52000C1F78091C00087FFEDCF109208011DC088
:10F530008FEF80930A010FC080910B01809580931B
:10F540000B0180E090E0E0EDF7E03197F1F70196F4
:10F55000883C9105C1F78091C00087FFEDCF1092E4
:10F560000B0103C085E292EEEEC98091C00087FFD7
:10F57000FCCF8091C600EAC988E392EEE4C98CE131
:10F5800091EEE1C988249924933011F1943028F444
:10F59000913089F09230B8F408C0953061F195301F
:10F5A000F0F0963009F048C043C02B3109F042C951
:10F5B00091E06BE13FC96227C15DDE4F2883CF52E6
:10F5C000D14092E037C9B22FA0E0622793E032C960
:10F5D000822F90E0A82BB92B622794E02BC92E3004
:10F5E00009F039C3622795E0C05DDE4F19821882A9
:10F5F000C053D1401FC9E1E0F0E0EC0FFD1FC05D3A
:10F60000DE4F08811981C053D140E00FF11F2083E4
:10F610000F5F1F4FC05DDE4F19830883C053D14079
:10F6200062270A171B0709F005C9D80196E002C92D
:10F63000261709F010C303C0973009F0FBC87724E0
:10F640009981933109F412C19431C8F4963009F4C8
:10F65000D8C0973050F4923009F406C1933009F4C1
:10F660006DC0913009F059C253C0913109F477C08F
:10F67000923108F0BBC0903109F04FC2F5C098310B
:10F6800009F487C0993150F4953109F4EFC09531F0
:10F6900008F4C6C1963109F040C2C2C19A3109F4DA
:10F6A0006CC09A3108F491C09B3109F45BC09D3164
:10F6B00009F033C29D81903359F48F81882311F46E
:10F6C0009EE11CC0813011F091E018C098E916C08D
:10F6D000892F807591F0903539F4E0E0F0E089E011
:10F6E0008093570094910AC0983539F4E3E0F0E034
:10F6F00089E080935700949101C090E01A821B82A8
:10F700008D818C831D829E831F8227E030E009C299
:10F710001A8288E08B8381E48C8386E58D8382E581
:10F720008E8389E48F8383E5888780E589878FE5E9
:10F730008A8782E38B872BE030E0F3C18A818139AD
:10F7400041F0823941F0803911F48FE005C080E04A
:10F7500003C082E001C08AE01A828B8344C0772410
:10F76000739482C08D81882311F48EE12CC0813086
:10F7700011F081E028C088E926C01A82E1E0F0E0BB
:10F7800089E08093570084918B831C8224E030E0D1
:10F79000C8C18B81803589F48C81883039F4E2E0EE
:10F7A000F0E089E08093570084910DC0E0E0F0E044
:10F7B00089E080935700849106C0E3E0F0E089E09F
:10F7C0008093570084911A82DFCF8D81836C99E0FA
:10F7D000E1E0F0E0082E90935700E89507B600FCB2
:10F7E000FDCF1A821B8223E030E09BC180EC8A832C
:10F7F000CE5CDE4F188219821A821B82C253D1401E
:10F800008EC18A8190E0A0E0B0E0582F44273327D2
:10F8100022278B8190E0A0E0B0E0DC0199278827C7
:10F82000282B392B4A2B5B2B8D8190E0A0E0B0E098
:10F83000282B392B4A2B5B2B8C8190E0A0E0B0E089
:10F84000BA2FA92F982F8827282B392B4A2B5B2BCF
:10F85000220F331F441F551FC05EDE4F288339839C
:10F860004A835B83C052D1401A8259C13A81C95C34
:10F87000DE4F3883C753D140CA5CDE4F1882C6536F
:10F88000D1408B81C82EDD24CA5CDE4F488159816E
