:100000000C9449010C947A010C947A010C947A01B5
:100010000C947A010C947A010C947A010C947A0174
:100020000C947A010C947A010C947A010C947A0164
:100030000C947A010C947A010C947A010C947A0154
:100040000C947A010C94100E0C947A010C947A01A1
:100050000C947A010C947A010C947A010C94C60DDC
:100060000C947A010C94900D0C94660D0C947A010A
:100070000C947A010C947A010C947A010C947A0114
:100080000C947A010C947A010C947A010C947A0104
:100090000C94300D0C94060D0C947A010C947A019A
:1000A0000C947A010C947A010C947A010C947A01E4
:1000B0000C947A010C947A010C947A010C947A01D4
:1000C0000C947A010C947A010C947A010C947A01C4
:1000D0000C947A010C947A010C947A010C947A01B4
:1000E0000C947A010C943D030C9460030C947703F8
:1000F0000C9485030C94C0020C948D0E0C94730325
:100100000C9469030C9400020C9458030C94B122D3
:100110000C9423020C945C030C940F020C94540373
:100120000C9489030C9473020C9442030C94930373
:100130000C946D030C948F030C9463030C94D30103
:100140000C947B030C9431020C9481034E414E4974
:100150004E495459494E46CDCCCC3D0AD7233C1785
:10016000B7D13877CC2B329595E6241FB14F0A00D2
:100170000020410000C84200401C4620BCBE4CCAC2
:100180001B0E5AAEC59D7400002100240027002AD2
:10019000002D003000330001010000040107010AB6
:1001A0000100000A0B02090C0D0E080703040100F0
:1001B000000000000000000000000000000000003F
:1001C00000000000000000000000000000121110FC
:1001D000000000000000000000000000000000001F
:1001E000000000000000000102102020080810207C
:1001F00040102040800201020108040201010204B3
:100200000810204080804020100804020180040271
:1002100001804020100804020108040201010204C8
:1002200008102040800102040810204080000022B5
:1002300000250028002B002E0031003400020100B0
:1002400000050108010B010505050507050808085B
:1002500008020202020A0A08080404040401010157
:10026000010101010103030303030303030407075F
:10027000070C0C0C0C0C0C0C0C02020202060606FD
:1002800006060606060B0B0B0B0B0B0B0B008D0E5D
:10029000B12211241FBECFEFD1E2DEBFCDBF00E0FF
:1002A0000CBF12E0A0E0B2E0E8EEF3E500E00BBF27
:1002B00002C007900D92A232B107D9F725E0A2E261
:1002C000B2E001C01D92A135B207E1F711E0C8E428
:1002D000D1E000E006C021970109802FFE010E94B5
:1002E000AA27C734D10780E00807A9F70E94A70F03
:1002F0000C94E2290C9400008091A302882359F009
:10030000E091A2029FEF980F9093A302E81BF0E008
:10031000EC55FD4F82810895E0913705F091380545
:100320008E179F0798F530913D05332361F0639F49
:10033000B0011124672F349FA0011124452F329F53
:1003400090011124232F30914305E0913E05F09157
:100350003F055091400535131AC0DC01AA0FBB1FA1
:100360008A0F9B1F8E0F9F1FE0914005E80FF92F0A
:10037000F11D6083E0914105E80FF92FF11D4083E5
:1003800030914205830F911DFC0120830895880F51
:10039000991F880F991F8E0F9F1FFC01E30FF11DFE
:1003A0001082E2CF0895AF92BF92CF92DF92EF9288
:1003B000FF920F931F93CF93DF936C017B018B010F
:1003C000040F151FEB015E01AE18BF08C017D1075F
:1003D00059F06991D601ED91FC910190F081E02DE9
:1003E000C6011995892B79F7C501DF91CF911F912E
:1003F0000F91FF90EF90DF90CF90BF90AF90089556
:10040000FC01538D448D252F30E0842F90E0821B1A
:10041000930B541710F0CF96089501970895FC019F
:10042000918D828D981761F0A28DAE0FBF2FB11DF7
:100430005D968C91928D9F5F9F73928F90E008954F
:100440008FEF9FEF0895FC01918D828D981731F009
:10045000828DE80FF11D858D90E008958FEF9FEF5D
:100460000895FC01918D228D892F90E0805C9F4F33
:10047000821B91098F739927089585E693E00E9466
:10048000310221E0892B09F420E0822F089588ECC5
:1004900092E00E94310221E0892B09F420E0822FB2
:1004A0000895FC01A48DA80FB92FB11DA35ABF4F09
:1004B0002C91848D90E001968F739927848FA68963
:1004C000B7892C93A089B1898C91837080648C93B7
:1004D000938D848D981306C00288F389E02D808166
:1004E0008F7D80830895EF92FF920F931F93CF9398
:1004F000DF93EC0181E0888F9B8D8C8D98131AC05F
:10050000E889F989808185FF15C09FB7F894EE8945
:10051000FF896083E889F9898081837080648083A2
:100520009FBF81E090E0DF91CF911F910F91FF90ED
:10053000EF900895F62E0B8D10E00F5F1F4F0F7395
:100540001127E02E8C8D8E110CC00FB607FCFACF50
:10055000E889F989808185FFF5CFCE010E9451029B
:10056000F1CFEB8DEC0FFD2FF11DE35AFF4FF08221
:100570009FB7F8940B8FEA89FB8980818062CFCF87
:10058000CF93DF93EC01888D8823B9F0AA89BB89CA
:10059000E889F9898C9185FD03C0808186FD0DC0B5
:1005A0000FB607FCF7CF8C9185FFF2CF808185FFD6
:1005B000EDCFCE010E945102E9CFDF91CF91089596
:1005C00080E090E0892B29F00E94470281110E946F
:1005D000000080E090E0892B29F00E943D0281110B
:1005E0000E94000080E090E0892B49F080E090E0DC
:1005F000892B29F00E94000081110E94000080E0F8
:1006000090E0892B49F080E090E0892B29F00E944E
:10061000000081110C9400000895282F30E0F901AA
:10062000EF55FE4F9491F901E951FE4F4491295B3A
:100630003D4FF9012491222309F435C0992311F18A
:1006400091509231F8F4E92FF0E08827E55DFC4FF6
:100650008F4F0C94AA275C0360033D035403580397
:100660004203630369036D03730377037B03810311
:100670008503420389038F039303809180008F7762
:1006800080938000E22FF0E0EE0FFF1FE35DFD4F4F
:10069000A591B4918FB7F894EC91611148C0409541
:1006A0004E234C938FBF0895809180008F7DE8CFBB
:1006B00080918000877FE4CF84B58F7784BDE2CFBF
:1006C00084B58F7DFBCF8091B0008F778093B00091
:1006D000D9CF8091B0008F7DF9CF809190008F7736
:1006E00080939000CFCF809190008F7DF9CF809143
:1006F0009000877FF5CF8091A0008F778093A00036
:10070000C1CF8091A0008F7DF9CF8091A000877F1D
:10071000F5CF809120018F7780932001B3CF809116
:1007200020018F7DF9CF80912001877FF5CF4E2B5F
:10073000B8CFCF93DF9390E0FC01E951FE4F2491B5
:10074000895B9D4FFC0184918823D1F090E0880F54
:10075000991FFC01E957FE4FA591B491FC01E35D9F
:10076000FD4FC591D49161110EC09FB7F8948C9143
:10077000E22FE0958E238C932881E223E8839FBFAC
:10078000DF91CF9108958FB7F894EC91E22BEC9321
:100790008FBFF6CF3FB7F894809136029091370221
:1007A000A0913802B091390226B5A89B05C02F3F11
:1007B00019F00196A11DB11D3FBFBA2FA92F982F87
:1007C0008827BC01CD01620F711D811D911D42E082
:1007D000660F771F881F991F4A95D1F70895CF920A
:1007E000DF92EF92FF920F931F93CF93DF9300D08E
:1007F00000D000D0CDB7DEB780913E0590913F0587
:10080000892B09F480C0C0904405D0904505E09044
:100810004605F09047050E94CA036C157D058E05BC
:100820009F0550F40E94CA036093440570934505E8
:1008300080934605909347050E94CA0300914405A2
:10084000109145052091460530914705601B710BBD
:10085000820B930B6C32714081059105A0F2F894E4
:100860008091390590913A059A838983E0913E05FC
:10087000F0913F05DF0111968081898790913505C0
:10088000E0914805F091490580914A05992309F4C2
:1008900049C09081982B98879081809589238F8378
:1008A0008F818C8388E08B8358856F8149853B815C
:1008B0002C8189819A81508347FD252F3A95208389
:1008C000262F39F0441F00C000006083000000C0E4
:1008D000F2CF38E04D9160830000019761F7F0930B
:1008E0004905E093480549873B832C839A83898394
:1008F00078940E94CA0360934405709345058093E1
:1009000046059093470529960FB6F894DEBF0FBEB3
:10091000CDBFDF91CF911F910F91FF90EF90DF90AE
:10092000CF9008959081982B988790818095892306
:100930008F838F818E8388E08D8358856F81498571
:100940003D812E8189819A81508347FD252F00C0EA
:1009500000C0208300C000C000C000C000C0608391
:100960000000262F3A9541F0441F000000C000C04F
:1009700000C000C000C0E8CF38E04D9100C06083E7
:1009800000C0019709F7F0934905E09348054987AE
:100990003D832E83ABCF8F929F92AF92BF92CF9227
:1009A000DF92EF92FF924B015C010E94CA036B0140
:1009B0007C010E94CA036C197D098E099F09683E5B
:1009C000734081059105A8F321E0821A9108A108DE
:1009D000B10888EEC80E83E0D81EE11CF11C81141A
:1009E0009104A104B10429F7FF90EF90DF90CF901C
:1009F000BF90AF909F908F9008952FB7F89460911B
:100A000032027091330280913402909135022FBFEF
:100A10000895CF92DF92EF92FF92CF93DF930E94DF
:100A2000FD046B017C0184E98093BC00C091C60287
:100A3000D091C7028091BC0084FF1FC02097D1F3E2
:100A40000E94FD04AB01BC014C195D096E097F09D0
:100A5000CE01B0E0A0E0481759076A077B0730F3E2
:100A60001092BC0084E48093BC0081E0DF91CF91C0
:100A7000FF90EF90DF90CF90089580E0F7CFCF9276
:100A8000DF92EF92FF92CF93DF938093BB000E949F
:100A9000FD046B017C0184E88093BC00C091C60218
:100AA000D091C7028091BC0087FD20C02097D1F370
:100AB0000E94FD04AB01BC014C195D096E097F0960
:100AC000CE01B0E0A0E0481759076A077B0730F372
:100AD0001092BC0084E48093BC00C1E08C2FDF91B5
:100AE000CF91FF90EF90DF90CF9008958091B90063
:100AF000887F8831D9F08091B900887F8034B1F047
:100B0000C091B900C87F8091B900887F803259F0C8
:100B10008091B900887F883431F01092BC0084E461
:100B20008093BC00DBCF0E940905D8CFC0E0D6CFB0
:100B3000CF92DF92EF92FF92CF93DF930E94FD045A
:100B40006B017C0184EA8093BC00C091C602D09105
:100B5000C7028091BC0087FD1FC02097D1F30E947F
:100B6000FD04AB01BC014C195D096E097F09CE0182
:100B7000B0E0A0E0481759076A077B0730F31092EE
:100B8000BC0084E48093BC0081E0DF91CF91FF90B2
:100B9000EF90DF90CF9008958091B900887F8830E2
:100BA000B9F08091B900887F803191F08091B900CF
:100BB000887F883349F48091B900887F1092BC0007
:100BC00094E49093BC00E1CF8091B900887FDDCFA1
:100BD00080E0DBCFCF92DF92EF92FF92CF93DF9353
:100BE000C82F0E94FD046B017C0184ECC11101C07F
:100BF00084E88093BC00C091C602D091C702809166
:100C0000BC0087FD1FC02097D1F30E94FD04AB01FB
:100C1000BC014C195D096E097F09CE01B0E0A0E06E
:100C2000481759076A077B0730F31092BC0084E429
:100C30008093BC0081E0DF91CF91FF90EF90DF9037
:100C4000CF9008958091B900887F883349F48091CE
:100C5000B900887F1092BC0094E49093BC00EBCF65
:100C60008091B900887FE7CF0F931F93CF93DF93D5
:100C7000C82FD62F1092A302611101C0D1E08FEFCF
:100C80008D0F8093A5021092A4020E949805809374
:100C9000A40281111CC08C2F880F8F5F0E943F051A
:100CA0008093A402882321F0813089F485E00FC06D
:100CB00006EA12E0C0E08091A5028C1325C080E016
:100CC0000E94EA058093A402813031F486E0DF912E
:100CD000CF911F910F9108958835C9F78091BB007E
:100CE000F80181938F01CF5FC093A302C093A2024A
:100CF000DC13E1CF0E9409058093A402882339F315
:100D0000813029F787E0E3CF81E00E94EA058093F4
:100D1000A4028130D9F2803509F3D9CF20913E0267
:100D200030913F02032E000C440B550B285E3340DC
:100D300041095109A8E1BCEF0E944B2628EE33E09F
:100D400040E050E00E941E262053384F4F4F5F4F27
:100D500030936202209361020895CF92DF92EF9266
:100D6000FF920E94FD04C0904602D0904702E0909E
:100D70004802F09049026C197D098E099F0964367A
:100D800071058105910528F528EC48EC68EC90E0A8
:100D900080E00E948C018CED95E090935802809346
:100DA000570290935A028093590222EF33E0309316
:100DB0005C0220935B0290935E0280935D029093AD
:100DC000600280935F02FF90EF90DF90CF900C94D1
:100DD000EF030E94FD046C197D098E099F0964369A
:100DE00071058105910578F00E94FD046C197D095B
:100DF0008E099F09683C71058105910520F420E06A
:100E000040E060E0C4CF0E94FD046093460270930E
:100E100047028093480290934902BDCFE7E5F2E094
:100E200080917D0290917E029183808380917B02EC
:100E300090917C02938382838091790290917A02CF
:100E4000958384838091770290917802978386833B
:100E50008EE794E0918780870C948E063F924F92A4
:100E60005F926F927F928F929F92AF92BF92CF923A
:100E7000DF92EF92FF920F931F93CF93DF9363E084
:100E800070E080E090E00E94CB0480912602811106
:100E90000DC00E94CA0360932202709323028093C4
:100EA00024029093250281E0809326020E94CA03C7
:100EB00000912202109123022091240230912502F8
:100EC000601B710B820B930B00910A0410910B04B1
:100ED00020910C0430910D040617170728073907D5
:100EE00010F410920E04C1E0809133059091340506
:100EF000DC01ED91FC910084F185E02D1995181627
:100F000019060CF06CC00E94CA0360932202709311
:100F100023028093240290932502809133059091BF
:100F20003405DC01ED91FC910284F385E02D1995E7
:100F30008093100490910E04911116C090910604B4
:100F400089130FC090910F0420910704921739F074
:100F500020910904922320910804921302C0C093A7
:100F60000E0480930F04C0CF993140F4E92FF0E0D4
:100F7000EE5FFB4F86879F5F90930E0490910E0467
:100F8000993179F790910704891739F09091090404
:100F9000892390910804891320C010920E04609157
:100FA000110470911204C0901204D12C809013048B
:100FB000D0911404E090150400911604A090170439
:100FC000C09118043090190480912704909129044D
:100FD0009823B9F41092000217C010920E04DF910A
:100FE000CF911F910F91FF90EF90DF90CF90BF9026
:100FF000AF909F908F907F906F905F904F903F90B9
:10100000089591E09093000290912A04892309F4B5
:1010100035C181E080930202912CF12C10E0B12CBB
:101020007770072E000C880B990B0E94FE2423E397
:1010300033E343E35FE30E945D2520E030EC46E4C8
:1010400054E40E9482260E9460279B01AC012B5130
:10105000344041095109A8EEB3E00E943D2628E939
:10106000422E23E0522E612C712CA30192010E948A
:101070001E2628513C4F4F4F5F4F30937E022093E6
:101080007D0233E0D594C7943A95E1F7B40145E089
:10109000660F771F4A95E1F76C297D297770072E37
:1010A000000C880B990B0E94FE2423E333E343E3F7
:1010B0005FE30E945D2520E030EC46E454E40E94AA
:1010C00082260E9460279B01AC012B5134404109CC
:1010D0005109A8EEB3E00E943D26A30192010E94AF
:1010E0001E2628513C4F4F4F5F4F30937C02209378
:1010F0007B02B4E0DB9FB0011124C701982F882741
:10110000990F990F682B792BE6E095948794EA95CF
:10111000E1F7682979297770072E000C880B990B65
:101120000E94FE2423E333E343E35FE30E945D2553
:1011300020E030EC46E454E40E9482260E946027BE
:101140009B01AC012B51344041095109A8EEB3E099
:101150000E943D26A30192010E941E2628513C4F69
:101160004F4F5F4F30937A0220937902B701759504
:1011700067957801F694FE2CEE24F794E7946E2997
:101180007F297770072E000C880B990B0E94FE2494
:1011900023E333E343E35FE30E945D2520E030EC8B
:1011A00046E454E40E9482260E9460279B01AC0121
:1011B0002B51344041095109A8EEB3E00E943D266D
:1011C000A30192010E941E2628513C4F4F4F5F4FB2
:1011D0003093780220937702B801B4E07595679553
:1011E000BA95E1F78501D4E0000F111FDA95E1F718
:1011F000602B712B7770072E000C880B990B0E94C7
:10120000FE2423E333E343E35FE30E945D2520E014
:1012100030EC46E454E40E9482260E9460277093DA
:10122000A1026093A0026C2F70E0660F771FC32DA0
:10123000D0E0DC2FCC27DD0F6C2B7D2BAA0CAB2C48
:10124000AA1CBB086A297B297770072E000C880B23
:10125000990B0E94FE2423E333E343E35FE30E9400
:101260005D2520E030EC46E454E40E9482260E9492
:10127000602770933F0260933E02B1CE109202024B
:10128000CBCE10929E02109288021092870210928A
:101290004502E1E4F2E01182108213821282109280
:1012A0004002109286021092850210924B02E2E9EF
:1012B000F2E0118210821382128210924A0210927E
:1012C00084021092830210925202EEE8F2E0118240
:1012D0001082138212821092510210928202109296
:1012E000810210927402EAE8F2E011821082138205
:1012F0001282109273021092800210927F0210925A
:10130000890210929F02109276021092750210923A
:101310006A021092690210926802109267028AE5CE
:1013200090E09093660280936502EBE6F2E0118212
:1013300010821382128215821482178216828BE128
:1013400092E0909364028093630210924C02109298
:101350004D0210924E0210924F021092500220E065
:1013600040E060E082E090E00C948C01FC01808120
:101370009181009711F00C944E280895CF93DF933C
:10138000FC01248135816217730788F49B01C081B9
:10139000D1816BE370E0CE01820F931F0E94C129BF
:1013A000009729F08C1B9D0BDF91CF9108958FEF53
:1013B0009FEFFACFEF92FF920F931F93CF93DF939C
:1013C000EC017B018A0188819981009729F02A81AB
:1013D0003B812417350788F4B8016F5F7F4F0E9467
:1013E000D728009791F0998388831B830A832C81E7
:1013F0003D81232B11F4FC0110821D830C83B70166
:10140000888199810E94CC290CC08881998100979C
:1014100011F00E944E28198218821D821C821B82A4
:101420001A82CE01DF91CF911F910F91FF90EF9023
:101430000895AF92BF92CF92DF92EF92FF920F93F7
:101440001F93CF93DF93EC016B015A0179012417AD
:10145000350720F48B2D5901E42EF82E19821882BD
:101460001B821A821D821C8250E040E06CE172E017
:10147000CE010E94DA09D60114960D911C91A01696
:10148000B10628F5E016F10608F48701D601ED91C2
:10149000FC911197E00FF11FF08010826D917C910B
:1014A0006A0D7B1D61157105F1F0FB0101900020B3
:1014B000E9F73197AF01461B570BCE010E94DA09BD
:1014C000F60180819181080F191FD801FC92CE018D
:1014D000DF91CF911F910F91FF90EF90DF90CF9010
:1014E000BF90AF90089588819981009711F00E9474
:1014F0004E28198218821D821C821B821A82E0CF1C
:101500008F929F92AF92BF92CF92DF92EF92FF9213
:101510000F931F93CF93DF93CDB7DEB7C05AD10996
:101520000FB6F894DEBF0FBECDBFF82EE92E20E037
:1015300040E060E082E090E00E948C010E94FD04A7
:1015400000913A0210913B0220913C0230913D0201
:10155000601B710B820B930B64367105810591053D
:1015600008F430C2CE0101966C0180E8F6011192B8
:101570008A95E9F7C756DF4F19821882C959D040BA
:10158000C556DF4F19821882CB59D040C356DF4F62
:1015900019821882CD59D04050E040E06CE172E0F1
:1015A000CE0187569F4F0E94DA09CD56DF4F198230
:1015B0001882C359D040CB56DF4F19821882C559C3
:1015C000D040C956DF4F19821882C759D0408E01CA
:1015D0000F571F4F4AE0B8018F2D9E2D0E942E23DA
:1015E000F80101900020E9F73197AF01401B510B42
:1015F000B801CE018D569F4F0E94DA09C756DF4FC2
:1016000088819981C959D040009709F47FC0CD568F
:10161000DF4F68817981C359D0406115710509F4A4
:1016200073C0C556DF4F48815981CB59D040C95648
:10163000DF4F28813981C759D0404217530708F43A
:1016400063C00E94CC29C956DF4F88819981C75950
:10165000D040C356DF4F99838883CD59D040C956B7
:10166000DF4F19821882C759D040CE018D569F4F47
:101670000E94B609C356DF4F88819981CD59D04069
:10168000892B09F074C0C156DF4F1882CF59D04062
:101690001092A4020E9498058093A402811193C025
:1016A00084E20E943F058093A40281118CC0F092D5
:1016B000BB000E94FD044B015C0184E88093BC00E8
:1016C000E090C602F090C7028091BC0087FD62C026
:1016D000E114F104C9F30E94FD04AB01BC014819F7
:1016E00059096A097B09C701B0E0A0E0481759070A
:1016F0006A077B0728F31092BC0084E48093BC0047
:1017000081E08093A4025FC00E944E28CD56DF4F37
:1017100088819981C359D040C756DF4F9983888308
:10172000C959D040CB56DF4F88819981C559D040E7
:10173000C556DF4F99838883CB59D040C956DF4FB8
:1017400088819981C759D040C356DF4F99838883D8
:10175000CD59D040CD56DF4F19821882C359D040A1
:10176000CB56DF4F19821882C559D04078CFC75663
:10177000DF4F68817981C959D04041E050E0CE0106
:1017800081569F4F0E94D329C056DF4F1882C05AFE
:10179000D0407ECF8091B900887F883229F41092A2
:1017A000A4020E940905ADCF8091B900887FF82E70
:1017B0008091B900887F8033F1F50E940905F0928D
:1017C000A402FF2071F362E082E10E94340680915E
:1017D000A3028230E9F50E947C01E82E0E947C0180
:1017E000F82E61E070E080E090E00E94CB046E2D66
:1017F00082E10E943406C701FF0CAA0BBB0B40918B
:10180000A30250E070E060E084179507A607B707D1
:10181000C1F42FEF4FEF6FEF82E090E00E948C0158
:1018200076018091A302882399F00E947C01F70140
:1018300081937F01F6CF1092BC0084E48093BC00BA
:10184000BECF8091A302882319F00E947C01F9CFBA
:10185000CD56DF4F19821882C359D040CB56DF4F87
:1018600019821882C559D040C956DF4F1982188293
:10187000C759D040F60101900020E9F73197AF0138
:101880004C195D09B601CE018D569F4F0E94DA09B1
:1018900070E060E0CE018D569F4F0E94BE096C0142
:1018A0009C0150E040E0BE016D567F4FC8010E9490
:1018B000190AF80180819181009709F497C00E946C
:1018C000072370936C0260936B02C8010E94B609F3
:1018D000FFEFCF1ADF0AB601CE018D569F4F0E944F
:1018E000BE097C019C01A601BE016D567F4FC80157
:1018F0000E94190AF80180819181009709F47AC049
:101900000E9403230E94602770936E0260936D0211
:10191000C8010E94B609FFEFEF1AFF0AB701CE0116
:101920008D569F4F0E94BE096C019C01A701BE010C
:101930006D567F4FC8010E94190AF801808191817C
:10194000009709F45BC00E9403230E9460277093F4
:10195000700260936F02C8010E94B609C956DF4F3A
:1019600028813981C759D040A6014F5F5F4FBE0122
:101970006D567F4FC8010E94190AF801808191813C
:10198000009709F43FC00E9403230E9460277093D0
:10199000720260937102C8010E94B6090E94FD04A0
:1019A00060933A0270933B0280933C0290933D0215
:1019B000CE018D569F4F0E94B609CE0187569F4F8C
:1019C0000E94B609C056DF4F0FB6F894DEBF0FBEB7
:1019D000CDBFDF91CF911F910F91FF90EF90DF90DE
:1019E000CF90BF90AF909F908F90089560E070E08F
:1019F000CB0167CF60E070E0CB0184CF60E070E0A6
:101A0000CB01A3CF60E070E0CB01BFCF1F920F925C
:101A10000FB60F9211240BB60F922F933F934F9353
:101A20005F936F937F938F939F93AF93BF93EF9346
:101A3000FF9385E693E00E945102FF91EF91BF91E1
:101A4000AF919F918F917F916F915F914F913F9156
:101A50002F910F900BBE0F900FBE0F901F901895F7
:101A60001F920F920FB60F9211240BB60F922F9365
:101A70008F939F93EF93FF93E0917503F09176031B
:101A80008081E0917B03F0917C0382FD1DC09081F9
:101A900080917E038F5F8F7320917F03821741F0C7
:101AA000E0917E03F0E0EB59FC4F958F80937E032D
:101AB000FF91EF919F918F912F910F900BBE0F90FF
:101AC0000FBE0F901F9018958081F2CF1F920F923A
:101AD0000FB60F9211240BB60F922F933F934F9393
:101AE0005F936F937F938F939F93AF93BF93EF9386
:101AF000FF9388EC92E00E945102FF91EF91BF9119
:101B0000AF919F918F917F916F915F914F913F9195
:101B10002F910F900BBE0F900FBE0F901F90189536
:101B20001F920F920FB60F9211240BB60F922F93A4
:101B30008F939F93EF93FF93E091D802F091D90296
:101B40008081E091DE02F091DF0282FD1DC0908174
:101B50008091E1028F5F8F732091E202821741F042
:101B6000E091E102F0E0E853FD4F958F8093E102B0
:101B7000FF91EF919F918F912F910F900BBE0F903E
:101B80000FBE0F901F9018958081F2CF1F920F9279
:101B90000FB60F9211242F933F938F939F93AF9380
:101BA000BF938091320290913302A0913402B091A0
:101BB00035023091310223E0230F2D3758F501967D
:101BC000A11DB11D20933102809332029093330204
:101BD000A0933402B093350280913602909137027F
:101BE000A0913802B09139020196A11DB11D8093D8
:101BF000360290933702A0933802B0933902BF9116
:101C0000AF919F918F913F912F910F900FBE0F90A9
:101C10001F90189526E8230F0296A11DB11DD2CF63
:101C20001F920F920FB60F9211240BB60F922F93A3
:101C30003F934F935F936F937F938F939F93AF9354
:101C4000BF93EF93FF9310928500109284008091D0
:101C500001028823F9F061E08DE10E940D0388E51F
:101C600092E0909389008093880010920102FF9186
:101C7000EF91BF91AF919F918F917F916F915F9104
:101C80004F913F912F910F900BBE0F900FBE0F9071
:101C90001F90189560E08DE10E940D0381E0809314
:101CA0000102809130028630C0F0109230028091A3
:101CB0002E0290912F02845D9E4F919581959109FE
:101CC000880F991F805C93469093890080938800C9
:101CD00010922F0210922E02CACFE82FF0E0EE0FE2
:101CE000FF1FE95AFD4F208131812C523140220FD4
:101CF000331F309389002093880020912E02309169
:101D00002F0240815181240F351F30932F022093E1
:101D10002E028F5F80933002AACF10926803109238
:101D2000670348EE53E060E070E04093690350932E
:101D30006A0360936B0370936C038DE092E0909361
:101D40006603809365032DEC30E03093720320939B
:101D500071032CEC30E0309374032093730328EC70
:101D600030E0309376032093750329EC30E0309314
:101D70007803209377032AEC30E030937A032093A2
:101D800079032EEC30E030937C0320937B03109298
:101D90007E0310927F0310928003109281031092B1
:101DA000CB021092CA024093CC025093CD026093B2
:101DB000CE027093CF029093C9028093C80285EC43
:101DC00090E09093D5028093D40284EC90E09093BD
:101DD000D7028093D60280EC90E09093D902809352
:101DE000D80281EC90E09093DB028093DA0282ECDF
:101DF00090E09093DD028093DC0286EC90E090937B
:101E0000DF028093DE021092E1021092E202109251
:101E1000E3021092E4021092360510923D051092F2
:101E2000440510924505109246051092470581E041
:101E300080934305809340051092410592E0909372
:101E400042058093350589E090E090933A058093B0
:101E500039050E94B22790933F0580933E05009775
:101E600009F46CC029E0FC0111922A95E9F783E09E
:101E700090E0909338058093370586E090E090934A
:101E80003C0580933B0580913605882341F061E055
:101E900086E00E94990360E086E00E940D03EDE475
:101EA000F2E0E491F0E0EE0FFF1FE35DFD4F85915E
:101EB00094919093490580934805EDEEF1E0E4910B
:101EC000E0934A0580EA96E8A1E0B0E0809302043E
:101ED00090930304A0930404B09305049FE09093AF
:101EE00006041092070484E0809308049093090488
:101EF00048E55BE160E070E040930A0450930B0416
:101F000060930C0470930D0410920F0480932904C5
:101F100088E080932A048FE890E090932C048093CB
:101F20002B0488E797E090932E0480932D0485E698
:101F300093E09093340580933305089510923A0509
:101F400010923905109238051092370596CF789483
:101F500084B5826084BD84B5816084BD85B58260AE
:101F600085BD85B5816085BD80916E00816080935F
:101F70006E001092810080918100826080938100C8
:101F800080918100816080938100809180008160D8
:101F9000809380008091B10084608093B100809133
:101FA000B00081608093B000809191008260809346
:101FB00091008091910081608093910080919000C8
:101FC0008160809390008091A10082608093A10045
:101FD0008091A10081608093A1008091A000816028
:101FE0008093A000809121018260809321018091E3
:101FF0002101816080932101809120018160809383
:10200000200180917A00846080937A0080917A0028
:10201000826080937A0080917A00816080937A0058
:1020200080917A00806880937A001092C10080913C
:102030003B0590913C0597FD08C061E00E94990323
:1020400060E080913B050E940D0381E0809336059E
:102050000E94EF0360913D05633329F120913E0515
:1020600030913F056150C9F070E08FEF92E30E941C
:102070009627F9014091390550913A05CF01821B0D
:10208000930B8417950760F44081469FC001479FDA
:10209000900D112490833196EDCF70E060E0E9CF90
:1020A00083E380933D05589A599A8091B9008E7FB9
:1020B0008093B9008091B9008D7F8093B90088E446
:1020C0008093B80084E48093BC00CCEDD5E0D0933D
:1020D000C702C093C6028CE08093B80060E086E33C
:1020E0000E94990360E082E00E94990360E08DE025
:1020F0000E949903D0935802C0935702D0935A027A
:10210000C0935902D0935E02C0935D02D0936002E7
:10211000C0935F0288EE93E090935C0280935B0231
:1021200090936202809361020E94FD0460933A02E0
:1021300070933B0280933C0290933D0210920E04F8
:1021400000912D0410912E04C0912B04D0912C04E9
:10215000BE0190E080E00E94FC244B015C01B801CC
:1021600090E080E00E94FC24A50194010E94812659
:102170002B013C01AC019B0160E070E080E090E449
:102180000E94EE266B017C0120E030E040E05FE33E
:10219000C301B2010E945D25A50194010E9482261F
:1021A0009058A70196010E945D25EFE2F4E0AFE6AA
:1021B000B4E02FE434E0C193D193178F068FCD9212
:1021C000DD92ED92FD92DC966D937D938D939C93C1
:1021D000DF972E173F0779F7C0913305D09134056B
:1021E000C0900204D0900304E0900404F090050431
:1021F00060E079E08DE390E0A70196010E9450260F
:102200002150310941095109569547953795279530
:10221000E889F98982E08083C11441EED406E104A3
:10222000F10421F0211550E1350798F0E889F9898A
:10223000108260E874E88EE190E0A70196010E94A8
:102240005026215031094109510956954795379536
:102250002795EC85FD853083EE85FF852083188EDC
:10226000EC89FD898EE28083EA89FB898081806127
:102270008083EA89FB89808188608083EA89FB8981
:10228000808180688083EA89FB8980818F7D80835B
:1022900061E08DE10E94990360E08DE10E940D03F1
:1022A000F894109280001092810088E790E090935B
:1022B00089008093880080918100886080938100EC
:1022C0008091810082608093810080916F008260A4
:1022D00080936F00789468EB7BE080E090E00E9450
:1022E000CB04D0E0C0E020E040E06C2F90E080E044
:1022F0000E948C010E94EF032196C11561E0D60770
:1023000091F7D0E0C0E020E04C2F60E081E090E069
:102310000E948C010E94EF032196C11571E0D7073E
:1023200091F7D0E0C0E02C2F40E060E082E090E048
:102330000E948C010E94EF032196C11581E0D8070D
:1023400091F768EE73E080E090E00E94CB04D0E06B
:10235000C0E02C2F4C2F6C2F90E080E00E948C016D
:102360002C2F4C2F6C2F81E090E00E948C012C2FA1
:102370004C2F6C2F82E090E00E948C010E94EF03B2
:102380002196C11591E0D90721F7CFEFD0E02C2F8E
:102390004C2F6C2F90E080E00E948C012C2F4C2F52
:1023A0006C2F81E090E00E948C012C2F4C2F6C2F21
:1023B00082E090E00E948C010E94EF03219738F7A1
:1023C00020E040E060E090E080E00E948C0120E0AE
:1023D00040E060E081E090E00E948C0120E040E07D
:1023E00060E082E090E00E948C010E94EF0320E018
:1023F00040E060E090E080E00E948C010E94EF03EA
:102400000E94FD04CCEDD5E03EE7432E34E0532E90
:1024100042E2242E46E0342E50EA652E55E0752E19
:1024200008E116E00E942E078091020281110C94AF
:10243000AD228091A0029091A1028E34B3E09B075F
:102440000CF451C0813B23E09207B4F520E04FEF3C
:1024500060E090E080E00E948C0180917D0290918C
:102460007E02909358028093570280917B02909154
:102470007C0290935A028093590280917902909144
:102480007A0290935C0280935B0280917702909134
:10249000780290935E0280935D0284E195E09093D0
:1024A000600280935F020E948E060E9441090E9492
:1024B000EF030E94E002B6CF863B35E093079CF025
:1024C000893146E0940754F42FEF40E060E090E05B
:1024D00080E00E948C010E940E07E7CF8A5198404D
:1024E0008336910520F080919F02882301F380912B
:1024F0009E0281112DC00E94FD0460939A02709388
:102500009B0280939C0290939D02109299021092DC
:1025100098021092970210929602109293021092D3
:102520009202109295021092940210928F021092D1
:102530008E02109291021092900210928B021092D1
:102540008A0210928D0210928C0281E080939E028A
:1025500080919E028823E9F180919F02811139C008
:102560000E94FD04C0909A02D0909B02E0909C02D1
:10257000F0909D026C197D098E099F09683E734099
:102580008105910598F080919802909199020196A9
:1025900090939902809398020E94FD0460939A029E
:1025A00070939B0280939C0290939D02809198026D
:1025B00090919902CC976CF080919602909197023D
:1025C000019690939702809396021092990210922E
:1025D00098020E942E0780919F0281110C94A222E2
:1025E000809189022091870230918802232B09F083
:1025F00046C3811144C380914502811115C0809169
:1026000096029091970290934202809341028091AA
:102610009802909199029093440280934302109201
:10262000400281E08093450280914502882309F4AD
:1026300057C08091400281118DC020E044E664E6DD
:1026400090E080E00E948C0181E090E00E94800A8E
:10265000D0935802C0935702D0935A02C0935902A4
:1026600088EE93E090935C0280935B02D0935E02CD
:10267000C0935D025092600240925F0290936202AA
:102680008093610260919602709197024091980246
:1026900050919902ACE3A69FC001A79F900D112411
:1026A000840F951FE0914102F0914202AE9F90018C
:1026B000AF9F300D1124E0914302F09144022E0FA0
:1026C0003F1F821B930B06975CF07093420260934E
:1026D0004102509344024093430281E080934002C0
:1026E00080917D0290917E0283589540833B9105B5
:1026F000E8F480917B0290917C0283589540833B63
:102700009105A0F48091790290917A0283589540C6
:10271000833B910558F48091770290917802835819
:102720009540833B910510F40C949C228091750296
:102730009091760201969093760280937502809133
:1027400075029091760203970CF4B1CE81E08093EC
:102750009F02ADCE813009F051C024E640E064E62E
:1027600090E080E00E948C0181E090E00E94800A6D
:10277000D0935802C0935702D0935A02C093590283
:1027800088EE93E090935C0280935B0280ED97E08B
:1027900090935E0280935D025092600240925F02CD
:1027A000609196027091970240919802509199021F
:1027B000ACE3A69FC001A79F900D1124840F951F25
:1027C000E0914102F0914202AE9F9001AF9F300D27
:1027D0001124E0914302F09144022E0F3F1F821B0F
:1027E000930B06970CF47CCF7093420260934102E6
:1027F000509344024093430283E070CF833009F04A
:102800004FC081E090E00E94800A24E640E060E052
:1028100090E080E00E948C01D0935802C093570250
:10282000D0935A02C093590284E195E090935C02E0
:1028300080935B02D0935E02C0935D02509260026F
:1028400040925F02609196027091970240919802C7
:1028500050919902ACE3A69FC001A79F900D11244F
:10286000840F951FE0914102F0914202AE9F9001CA
:10287000AF9F300D1124E0914302F09144022E0FDE
:102880003F1F821B930B04970CF42ACF70934202D4
:1028900060934102509344024093430287E01ECF6D
:1028A000873009F04DC081E090E00E94800A24E664
:1028B00044E664E690E080E00E948C01D0935802E8
:1028C000C0935702D0935A02C0935902D0935C022E
:1028D000C0935B02D0935E02C0935D02509260028F
:1028E00040925F0260919602709197024091980227
:1028F00050919902ACE3A69FC001A79F900D1124AF
:10290000840F951FE0914102F0914202AE9F900129
:10291000AF9F300D1124E0914302F09144022E0F3D
:102920003F1F821B930B04970CF4DACE7093420284
:102930006093410250934402409343028FE0CECE15
:102940008F3009F0D7C00E94FD04C0904602D0909D
:102950004702E0904802F09049026C197D098E0907
:102960009F09643671058105910508F06DC020E06E
:1029700040E06FEF90E080E00E948C0181E090E009
:102980000E94800A80916702909168028A319105C5
:102990000CF47FC030925802209257028091690255
:1029A00090916A02853191050CF482C030925A02EE
:1029B0002092590284EA96E090935C0280935B0235
:1029C000809165029091660297FF81C08E5A9F4F59
:1029D000853A910508F089C040E456E050935E02C4
:1029E00040935D025092600240925F0260919602B5
:1029F000709197024091980250919902ACE3A69F82
:102A0000C001A79F900D1124840F951FE0914102F2
:102A1000F0914202AE9F9001AF9F300D1124E091E2
:102A20004302F09144022E0F3F1F821B930B079726
:102A30000CF456CE709342026093410250934402CC
:102A4000409343028FE34ACE0E94FD046C197D0936
:102A50008E099F09643671058105910578F00E9401
:102A6000FD046C197D098E099F09683C710581057B
:102A7000910520F420E040E060E07CCF0E94FD045E
:102A800060934602709347028093480290934902F4
:102A900075CF873E9F4F3CF486E995E090935802AE
:102AA000809357027BCFD0935802C093570276CFC2
:102AB0008C3E9F4F3CF426E935E030935A02209338
:102AC000590278CFD0935A02C093590273CF00971E
:102AD00061F08E5A9F4F853A910538F468E775E0AA
:102AE00070935E0260935D027DCFD0935E02C093CF
:102AF0005D0278CF8F3309F0AEC081E090E00E9494
:102B0000800AC0906F02D0907002D0926A02C09288
:102B10006902A0906D02B0906E02B0926802A0921D
:102B20006702E0907102F0907202F0926602E09209
:102B3000650224E640E060E090E080E00E948C01C5
:102B40008EE096E07AE1A716B10444F487EEA81669
:102B50008FEFB8060CF057C08AEA95E090935802C0
:102B60008093570295E1C916D1040CF451C08EE050
:102B700096E090935A0280935902D0935C02C093DE
:102B80005B02F7FE52C0BFE4EB0EF11C2FE9E21628
:102B9000F10408F05BC040E456E050935E024093BD
:102BA0005D025092600240925F02609196027091C5
:102BB00097024091980250919902ACE3A69FC00100
:102BC000A79F900D1124840F951FE0914102F09171
:102BD0004202AE9F9001AF9F300D1124E09143025D
:102BE000F09144022E0F3F1F821B930B04970CF4AD
:102BF00077CD709342026093410250934402409318
:102C000043028FE76BCDD0935802C0935702AACFEF
:102C1000ACEECA16AFEFDA061CF48AEA95E0A9CF4B
:102C2000D0935A02C0935902A8CFE114F10471F075
:102C30005FE4E50EF11C6FE9E616F10438F488E76D
:102C400095E090935E0280935D02ABCFD0935E02DD
:102C5000C0935D02A6CF8F3709F042CD20E040E05F
:102C600060E090E080E00E948C0181E08093890226
:102C7000A1E0B0E0B0938802A093870231CD20910B
:102C8000850230918602232B09F04EC2813009F073
:102C90004BC290914B02911116C020919602309137
:102CA00097023093930220939202209198023091E0
:102CB0009902309395022093940210924A028093D5
:102CC0004B020E94FD0480914B02882309F408CD39
:102CD00080914A0281110DC182E090E00E94800A39
:102CE00020916F023091700230936A022093690242
:102CF00040916D0250916E025093680240936702BA
:102D000080917102909172029093660280936502A5
:102D1000453151050CF48DC040E456E05093580203
:102D200040935702E0906B02F0906C02B1E0EB161A
:102D3000F10409F098C0213131050CF489C02EE06E
:102D400036E030935A0220935902D0935C02C0932C
:102D50005B0297FF8FC08E5A9F4F853A910508F00E
:102D600095C010935E0200935D0250926002409203
:102D70005F020E94FD048090460290904702A0905E
:102D80004802B0904902681979098A099B09683C90
:102D900071058105910508F089C020E040E071E0EF
:102DA000E716F10409F480C082E0E816F10409F0A6
:102DB00072C02FEF40E060E090E080E00E948C0164
:102DC0000E94EF03609196027091970240919802E1
:102DD00050919902ACE3A69FC001A79F900D1124CA
:102DE000840F951FE0919202F0919302AE9F9001A3
:102DF000AF9F300D1124E0919402F09195022E0FB7
:102E00003F1F821B930B893091053CF4EA94EF2815
:102E100009F066CC02970CF463CC70939302609334
:102E20009202509395024093940281E080934A026B
:102E300057CC4C3E5F4F3CF4A8E7B5E0B093580246
:102E4000A09357026FCFD0935802C09357026ACF16
:102E5000203F3F4F1CF42AEA35E073CFD0935A024B
:102E6000C093590272CF68E775E070935A0260937D
:102E700059026BCF009751F08E5A9F4F853A9105BA
:102E800028F470925E0260925D026FCFD0935E0272
:102E9000C0935D026ACF20E04FEF93E0E916F104A2
:102EA00009F489CF2FEF4FEF6FEF86CF0E94FD041B
:102EB000681979098A099B09683C710581059105A2
:102EC00068F00E94FD04681979098A099B0920E0CD
:102ED0006C3271408105910508F46CCF0E94FD04AD
:102EE0006093460270934702809348029093490290
:102EF00067CF813009F00BC183E090E00E94800A27
:102F000020916F023091700230936A02209369021F
:102F100040916D0250916E02509368024093670297
:102F20008091710290917202909366028093650283
:102F30004A3151050CF452C01093580200935702C5
:102F4000233131050CF457C010935A0200935902F3
:102F5000D0935C02C0935B0297FF5AC08E5A9F4F7A
:102F6000853A910508F062C030925E0220925D02BF
:102F70005092600240925F020E94FD0480904602DF
:102F800090904702A0904802B0904902E0906B02F6
:102F9000F0906C02681979098A099B09683C7105EF
:102FA0008105910508F047C020E091E0E916F104A1
:102FB00071F02FEFA2E0EA16F10409F4A5C020E0B9
:102FC0004FEFB3E0EB16F10409F49FC02FEF40E0A0
:102FD0006FEF90E080E00E948C0143C0473E5F4F5E
:102FE0002CF47092580260925702AACFD0935802E4
:102FF000C0935702A5CF2E3E3F4F2CF470925A0239
:1030000060925902A5CFD0935A02C0935902A0CF23
:10301000009761F08E5A9F4F853A910538F486E902
:1030200095E090935E0280935D02A2CFD0935E0202
:10303000C0935D029DCF0E94FD04681979098A0939
:103040009B09683C71058105910508F050C00E94FC
:10305000FD04609346027093470280934802909368
:1030600049020E94EF03609196027091970240918D
:10307000980250919902ACE3A69FC001A79F900DC2
:103080001124840F951FE0919202F0919302AE9F5C
:103090009001AF9F300D1124E0919402F0919502C0
:1030A0002E0F3F1F821B930B8531910554F497011E
:1030B000225031092230310508F012CB03970CF46D
:1030C0000FCB7093930260939202509395024093BA
:1030D00094028DE192E032E0E316F10411F08FE109
:1030E00092E0909364028093630283E09FCE0E94FB
:1030F000FD04681979098A099B096C3271408105C0
:10310000910508F0A4CF20E040E060E062CF83307A
:1031100009F0E6CA82E08093890241E050E05093D2
:10312000860240938502DCCA20918302309184029A
:10313000232B09F07DC5823009F07AC580915202B7
:10314000811115C0809196029091970290938F0201
:1031500080938E02809198029091990290939102AF
:10316000809390021092510281E0809352028091EC
:103170005202882309F4B4CA809151028111CDC052
:1031800084E090E00E94800A40916F0250917002AA
:1031900050936A0240936902E0906D02F0906E02D3
:1031A000F0926802E09267022091710230917202FF
:1031B00030936602209365028091630290916402CD
:1031C00062E08F31960709F079C06CE875E0709382
:1031D000580260935702403151050CF47BC01093A4
:1031E0005A0200935902D0935C02C0935B021216FC
:1031F00013060CF07CC02B3031050CF480C010930A
:103200005E0200935D025092600240925F02C090A5
:103210006B02D0906C02C114D10409F075C020E09B
:103220004FEF52E08F31950729F08D51924039F4DC
:103230002FEF40E060E090E080E00E948C010E946F
:10324000EF0385E0C816D10409F04ACA60919602DE
:10325000709197024091980250919902ACE3A69F19
:10326000C001A79F900D1124840F951FE0918E023D
:10327000F0918F02AE9F9001AF9F300D1124E0912D
:103280009002F09191022E0F3F1F821B930B059726
:103290000CF426CA94E0E90EF11CA9E0EA16F10448
:1032A00008F01ECA70938F0260938E0250939102B1
:1032B0004093900281E08093510212CA72E08D31F6
:1032C000970709F082CFACE2B6E0B0935802A09322
:1032D000570281CF413F5F4F2CF470925A026092A7
:1032E000590281CFD0935A02C09359027CCF263F16
:1032F0003F4F2CF470925E0260925D0284CFD093B7
:103300005E02C0935D027FCF75E0C716D10409F05D
:1033100096CF2FEF4FEF6FEF8ECF813009F0A8C01F
:1033200084E090E00E94800A20916F023091700248
:1033300030936A022093690240916D0250916E02AF
:1033400050936802409367028091710290917202DB
:103350009093660280936502453151050CF461C07B
:103360001093580200935702213131050CF466C0C6
:1033700010935A0200935902D0935C02C0935B02EF
:10338000181619060CF067C00B970CF46CC010935C
:103390005E0200935D025092600240925F02809153
:1033A0006B0290916C0220E040E060E0009729F011
:1033B000059739F42FEF4FEF6FEF90E080E00E9418
:1033C0008C010E94EF0360919602709197024091E8
:1033D000980250919902ACE3A69FC001A79F900D5F
:1033E0001124840F951FE0918E02F0918F02AE9F01
:1033F0009001AF9F300D1124E0919002F091910265
:103400002E0F3F1F821B930B02970CF469C9709318
:103410008F0260938E02509391024093900283E05A
:103420004ACF4C3E5F4F2CF4709258026092570284
:103430009BCFD0935802C093570296CF203F3F4F67
:103440002CF470925A026092590296CFD0935A028D
:10345000C093590291CF863F9F4F2CF470925E0229
:1034600060925D0298CFD0935E02C0935D0293CFCD
:10347000833009F091C085E090E00E94800A80913D
:103480006F029091700290936A028093690220917A
:103490006D0230916E023093680220936702809132
:1034A00071029091720290936602809365022031BE
:1034B00031050CF453C01093580200935702A8E74B
:1034C000B5E0B0935A02A0935902D0935C02C09326
:1034D0005B0297FF50C08E5A9F4F853A910508F0C6
:1034E00056C010935E0200935D02509260024092BB
:1034F0005F022FEF40E06FEF90E080E00E948C01D0
:1035000060919602709197024091980250919902B1
:10351000ACE3A69FC001A79F900D1124840F951FB7
:10352000E0918E02F0918F02AE9F9001AF9F300D1F
:103530001124E0919002F09191022E0F3F1F821B07
:10354000930B03970CF4CCC870938F0260938E0298
:10355000509391024093900287E0ADCE213F3F4FC0
:103560002CF47092580260925702A9CFD09358025F
:10357000C0935702A4CF009751F08E5A9F4F853ABF
:10358000910528F470925E0260925D02AECFD093F6
:103590005E02C0935D02A9CF873009F0F9C0809127
:1035A000630290916402B2E08D319B0709F0B0C0D4
:1035B0002FEF40E060E090E080E00E948C0188E422
:1035C00090E00E94800A80916F0290917002909327
:1035D0006A028093690220916D0230916E023093ED
:1035E0006802209367028091710290917202909319
:1035F0006602809365022B3031050CF496C0309240
:10360000580220925702A8E7B5E0B0935A02A0935F
:103610005902D0935C02C0935B0297FF95C08E5A0B
:103620009F4F853A910508F09BC010935E0200936E
:103630005D025092600240925F02E0906B02F09057
:103640006C02E114F10409F090C020E040E060E079
:1036500090E080E00E948C01809196029091970208
:103660006CE3689F9001699F300D1124809198024E
:1036700090919902820F931F40918E0250918F0278
:10368000649F9001659F300D1124409190025091EC
:103690009102240F351F821B930B0B970CF071C006
:1036A0006091960270919702409198025091990210
:1036B000ACE3A69FC001A79F900D1124840F951F16
:1036C000E0918E02F0918F02AE9F9001AF9F300D7E
:1036D0001124E0919002F09191022E0F3F1F821B66
:1036E000930B8531910554F435E0E316F10411F0A4
:1036F0000C947013049714F40C94701370938F024D
:1037000060938E0250939102409390028FE0D3CD4C
:103710008F51924039F420E04FEF60E090E080E07C
:103720000E948C0189E490E04CCF263F3F4F3CF44F
:1037300066E975E0709358026093570264CFD093A6
:103740005802C09357025FCF009751F08E5A9F4F97
:10375000853A910528F470925E0260925D0269CF0D
:10376000D0935E02C0935D0264CFB5E0EB16F10426
:1037700009F072CF20E04FEF60E090E080E00E941F
:103780008C0124E338E0309362022093610288CFF9
:103790008F3009F0B4C086E090E00E94800AE0908B
:1037A0006F02F0907002F0926A02E092690220913A
:1037B0006D0230916E02309368022093670280910F
:1037C000710290917202909366028093650220319B
:1037D00031050CF474C03092580220925702A8E7C9
:1037E000B5E0B0935A02A0935902D0935C02C09303
:1037F0005B0297FF73C08E5A9F4F853A910508F080
:1038000079C010935E0200935D0250926002409274
:103810005F02C0906B02D0906C0220E040E060E05C
:10382000C114D10439F0B5E0CB16D10439F42FEF2F
:103830004FEF6FEF90E080E00E948C016091960264
:10384000709197024091980250919902ACE3A69F23
:10385000C001A79F900D1124840F951FE0918E0247
:10386000F0918F02AE9F9001AF9F300D1124E09137
:103870009002F09191022E0F3F1F821B930B80311B
:1038800091059CF425E0C216D10411F00C9470133C
:103890003BE0E30EF11CA7E1EA16F10410F00C94F2
:1038A0007013049714F40C94701370938F02609348
:1038B0008E0250939102409390028FE1FCCC213F05
:1038C0003F4F3CF466E975E07093580260935702ED
:1038D00086CFD0935802C093570281CF009751F002
:1038E0008E5A9F4F853A910528F470925E0260923D
:1038F0005D028BCFD0935E02C0935D0286CF8F3185
:1039000009F0A5C086E090E00E94800A20916F0235
:103910003091700230936A022093690240916D02E7
:1039200050916E0250936802409367028091710239
:103930009091720290936602809365024031510526
:103940000CF458C010935802009357022D303105E3
:103950000CF45DC010935A0200935902D0935C029C
:10396000C0935B0297FF60C08E5A9F4F853A9105C6
:1039700008F068C030925E0220925D0250926002B0
:1039800040925F0224E64FEF64E690E080E00E9400
:103990008C010E94EF036091960270919702409112
:1039A000980250919902ACE3A69FC001A79F900D89
:1039B0001124840F951FE0918E02F0918F02AE9F2B
:1039C0009001AF9F300D1124E0919002F09191028F
:1039D0002E0F3F1F821B930B049714F40C9470134B
:1039E00070938F0260938E025093910240939002E5
:1039F0008FE361CC413F5F4F2CF47092580260928C
:103A00005702A4CFD0935802C09357029FCF243FB0
:103A10003F4F2CF470925A02609259029FCFD0937C
:103A20005A02C09359029ACF009761F08E5A9F4F65
:103A3000853A910538F466E975E070935E0260930B
:103A40005D029CCFD0935E02C0935D0297CF8F330F
:103A500009F0DFC088E090E00E94800AC0906F0209
:103A6000D0907002D0926A02C092690280916D0279
:103A700090916E029093680280936702E0907102C9
:103A8000F0907202F0926602E09265028091630209
:103A90009091640272E08D31970709F08DC02FEF8D
:103AA00040E060E090E080E00E948C0186E995E0D3
:103AB0009093580280935702B0E1CB16D1040CF4D6
:103AC0008AC010935A0200935902D0935C02C093AB
:103AD0005B021E141F040CF08DC03BE0E316F104E2
:103AE0000CF492C010935E0200935D02509260024B
:103AF00040925F022FEF40E06FEF90E080E00E9485
:103B00008C0180916B0290916C02059751F40E9498
:103B1000FD0460934D0270934E0280934F02909388
:103B2000500210924C020E94FD04C0904D02D090B1
:103B30004E02E0904F02F09050026C197D098E0900
:103B40009F096D3B72408105910518F081E08093DB
:103B50004C026091960270919702409198025091A8
:103B60009902ACE3A69FC001A79F900D1124840F7A
:103B7000951FE0918E02F0918F02AE9F9001AF9F52
:103B8000300D1124E0919002F09191022E0F3F1F11
:103B9000821B930B089734F480914C02882311F414
:103BA0000C94701370938F0260938E025093910265
:103BB000409390028FE77FCB8F51924039F420E001
:103BC0004FEF60E090E080E00E948C01309258025C
:103BD0002092570271CF21EFC2162FEFD2062CF49C
:103BE00070925A026092590270CFD0935A02C093D9
:103BF00059026BCF46EFE4164FEFF4062CF47092A7
:103C00005E0260925D0272CFD0935E02C0935D024D
:103C10006DCF8F3711F00C94701383E0809389027D
:103C200061E070E070938402609383020C947013DF
:103C30002091810230918202232B09F06DC48330E0
:103C400009F06AC480917402811115C080919602B6
:103C50009091970290938B0280938A0280919802B0
:103C60009091990290938D0280938C02109273022E
:103C700081E08093740280917402882311F40C9483
:103C800070138091730281111CC188E090E00E9442
:103C9000800AE0906F02F0907002F0926A02E09267
:103CA0006902A0906D02B0906E02B0926802A0927C
:103CB0006702C0907102D0907202D0926602C092E8
:103CC000650280906B0290906C0275E087169104FB
:103CD00009F4BAC08091630290916402A2E08D3130
:103CE0009A0709F099C02FEF40E060E090E080E093
:103CF0000E948C0128E735E0309358022093570248
:103D000090E1E916F1040CF4BEC010935A0200933E
:103D10005902D0935C02C0935B021C141D040CF08A
:103D2000C1C0BBE0CB16D1040CF4C6C010935E0238
:103D300000935D025092600240925F0235E083166C
:103D4000910471F44EE0E40EF11C5DE1E516F1041E
:103D500038F480916702909168020B96479750F073
:103D60000E94FD04609353027093540280935502A5
:103D7000909356020E94FD04E0919602F091970202
:103D800040919802509199022CE3D22EDE9E900130
:103D9000DF9E300D11247901E40EF51E20918A0278
:103DA00030918B02D29ED001D39EB00D1124209170
:103DB0008C0230918D022A0F3B1FD701A21BB30B3F
:103DC0009D011B97E4F48090530290905402A090C0
:103DD0005502B09056026B017C01C818D908EA0858
:103DE000FB08BDE2CB16B1E0DB06E104F10410F400
:103DF0000C9470132330310514F40C947013F09369
:103E00008B02E0938A0250938D0240938C0287E0EC
:103E1000809373020C9470138F51924071F420E0E0
:103E20004FEF60E090E080E00E948C0140E456E0BB
:103E3000509358024093570263CF60E476E070934A
:103E40005802609357025CCF20E04FEF60E090E0B3
:103E500080E00E948C0173E1A716B1042CF010934E
:103E60005802009357024CCF8EEEA8168FEFB8067B
:103E70002CF4709258026092570242CFD0935802AD
:103E8000C09357023DCFA1EFEA16AFEFFA062CF42C
:103E900070925A02609259023CCFD0935A02C0935A
:103EA000590237CF26EFC2162FEFD2062CF47092AC
:103EB0005E0260925D023ECFD0935E02C0935D02CF
:103EC00039CF813009F0A0C086E090E00E94800ADE
:103ED00020916F023091700230936A022093690240
:103EE00040916D0250916E025093680240936702B8
:103EF00080917102909172029093660280936502A4
:103F0000433151050CF453C01093580200935702EB
:103F1000203131050CF458C010935A020093590215
:103F2000D0935C02C0935B0297FF5BC08E5A9F4F99
:103F3000853A910508F063C030925E0220925D02DE
:103F40005092600240925F0224E64FEF64E690E0F8
:103F500080E00E948C010E94EF03609196027091B4
:103F600097024091980250919902ACE3A69FC0013C
:103F7000A79F900D1124840F951FE0918A02F09164
:103F80008B02AE9F9001AF9F300D1124E0918C0207
:103F9000F0918D022E0F3F1F821B930B039714F499
:103FA0000C94701370938B0260938A022CCF4E3E58
:103FB0005F4F2CF47092580260925702A9CFD093B1
:103FC0005802C0935702A4CF213F3F4F2CF4709268
:103FD0005A0260925902A4CFD0935A02C093590258
:103FE0009FCF009761F08E5A9F4F853A910538F424
:103FF00086E995E090935E0280935D02A1CFD09315
:104000005E02C0935D029CCF873009F09FC085E0BF
:1040100090E00E94800A80916F02909170029093CC
:104020006A028093690220916D0230916E02309392
:1040300068022093670280917102909172029093BE
:10404000660280936502203131050CF45FC0109345
:1040500058020093570220E436E030935A0220932E
:104060005902D0935C02C0935B0297FF5CC08E5AEA
:104070009F4F853A910508F064C030925E0220920D
:104080005D025092600240925F022FEF40E06FEFBE
:1040900090E080E00E948C016091960270919702FE
:1040A0004091980250919902ACE3A69FC001A79F4E
:1040B000900D1124840F951FE0918A02F0918B02DC
:1040C000AE9F9001AF9F300D1124E0918C02F091D2
:1040D0008D022E0F3F1F821B930B8430910564F4D9
:1040E00020916B0230916C02232B11F00C94701311
:1040F000029714F40C94701370938B0260938A02ED
:1041000050938D0240938C028FE082CE213F3F4F2F
:104110002CF470925802609257029DCFD0935802AF
:10412000C093570298CF009761F08E5A9F4F853AFF
:10413000910538F446E955E050935E0240935D02E4
:10414000A0CFD0935E02C0935D029BCF8F3009F069
:104150009CC089E090E00E94800A80916F0290915B
:10416000700290936A028093690220916D023091EF
:104170006E023093680220936702809171029091E1
:1041800072029093660280936502233131050CF42C
:104190005AC03092580220925702A6E3B6E0B0937C
:1041A0005A02A0935902D0935C02C0935B0297FF1E
:1041B00059C08E5A9F4F853A910508F061C03092E0
:1041C0005E0220925D025092600240925F0222E302
:1041D0004FEF62E390E080E00E948C0160919602D4
:1041E000709197024091980250919902ACE3A69F7A
:1041F000C001A79F900D1124840F951FE0918A02A2
:10420000F0918B02AE9F9001AF9F300D1124E09191
:104210008C02F0918D022E0F3F1F821B930B0B9788
:1042200044F480916B0290916C02019711F00C9410
:10423000701370938B0260938A0250938D024093A7
:104240008C028FE1E5CD2E3E3F4F3CF466E975E0F0
:104250007093580260935702A0CFD0935802C09336
:1042600057029BCF009761F08E5A9F4F853A910578
:1042700038F426E935E030935E0220935D02A3CF47
:10428000D0935E02C0935D029ECF8F3109F0B0C023
:104290008AE090E00E94800A20916F0230917002C3
:1042A00030936A022093690240916D0250916E0230
:1042B000509368024093670280917102909172025C
:1042C0009093660280936502433151050CF45FC000
:1042D0003092580220925702203131050CF466C00A
:1042E00030925A0220925902D0935C02C0935B0232
:1042F00097FF6BC08E5A9F4F853A910508F073C0A7
:1043000030925E0220925D025092600240925F0203
:1043100080916B0290916C022FEF4FEF6FEF01973E
:1043200019F020E040E060E090E080E00E948C0125
:104330006091960270919702409198025091990273
:10434000ACE3A69FC001A79F900D1124840F951F79
:10435000E0918A02F0918B02AE9F9001AF9F300DE9
:104360001124E0918C02F0918D022E0F3F1F821BD1
:10437000930B059714F40C94701370938B02609355
:104380008A0250938D0240938C028FE341CD4E3EC2
:104390005F4F3CF4A6E9B5E0B0935802A0935702F2
:1043A0009BCFD0935802C093570296CF213F3F4FE7
:1043B0003CF426E935E030935A022093590294CF19
:1043C000D0935A02C09359028FCF009761F08E5A52
:1043D0009F4F853A910538F446E955E050935E02C7
:1043E00040935D0291CFD0935E02C0935D028CCF6B
:1043F0008F3309F082C08BE090E00E94800A8091A8
:1044000063029091640252E08F31950709F056C023
:1044100020E04FEF60E090E080E00E948C0160E4DB
:1044200076E070935802609357022EE536E03093A1
:104430005A0220935902D0935C02C0935B02D0933E
:104440005E02C0935D025092600240925F020E9441
:10445000EF036091960270919702409198025091FB
:104460009902ACE3A69FC001A79F900D1124840F71
:10447000951FE0918A02F0918B02AE9F9001AF9F51
:10448000300D1124E0918C02F0918D022E0F3F1F10
:10449000821B930B049744F480916B0290916C0201
:1044A000019711F00C94701370938B0260938A0241
:1044B00050938D0240938C028EEFAACC8D51924086
:1044C00071F42FEF40E060E090E080E00E948C010A
:1044D00088E795E09093580280935702A6CF20E09A
:1044E00040E06FEF90E080E00E948C01A0E4B6E035
:1044F000B0935802A093570298CF8E3F11F00C94BE
:10450000701384E08093890241E050E0509382026E
:10451000409381020C94701320917F0230918002AD
:10452000232B11F00C947013843011F00C94701341
:104530000E94AD060C9470131092760210927502D0
:104540000C949F1320E040E06FEF90E080E00E9429
:104550008C010E940E070C9457120E94AD060C9419
:104560005712CF93DF938091EF049091F004892B41
:10457000C1F0D0E0C0E0E091EF04F091F004EC0F66
:10458000FD1F80819181009711F00E944E28229694
:10459000C032D10581F78091EF049091F0040E9420
:1045A0004E288091F1049091F204892BC1F0D0E063
:1045B000C0E0E091F104F091F204EC0FFD1F808166
:1045C0009181009711F00E944E282296C032D105A9
:1045D00081F78091F1049091F2040E944E2880911D
:1045E0003E0590913F050E944E2880913B05909199
:1045F0003C0597FD05C060E0DF91CF910C949903D5
:10460000DF91CF910895662777270C9468231F9335
:10461000FC0199278827BC01E89411911032E9F335
:10462000193010F01E30C8F31B3251F01D3249F41E
:10463000689406C00E943923610F711D811D911D70
:10464000119110531A30B0F33EF490958095709507
:1046500061957F4F8F4F9F4F1F910895BB274A3021
:1046600031F4992322F4BDE2909581959F4F0C94EB
:104670004F23592F482F372F262F660F771F881F5C
:10468000991F660F771F881F991F620F731F841F62
:10469000951F660F771F881F991F0895BB27FB0181
:1046A0005527AA27880F991FAA1FA41710F0A41B2B
:1046B00083955051B9F7A05DAA3308F0A95DA19385
:1046C000009779F7B111B1931192CB010C94E724C3
:1046D0008F929F92AF92BF92CF92DF92EF92FF9212
:1046E0000F931F93CF93DF935C017B0161157105DD
:1046F00019F0DB018D939C9385010F5F1F4FF5012E
:10470000D0818D2F90E00E94C6246C01892BB9F5D1
:10471000DD32B9F50F5F1F4FD5011196DC91C1E075
:104720005801F1E0AF1AB10843E050E064E571E0F0
:10473000C5010E94CF24892B69F5680182E0C80E6B
:10474000D11C45E050E06FE471E0C6010E94CF2427
:10475000892B21F4680197E0C90ED11CE114F10402
:1047600019F0D701CD92DC9260E070E080E89FEF15
:10477000C111FFC060E070E080E89FE7FAC0580117
:10478000BBCFDB3229F485010E5F1F4FF501D181CC
:10479000C0E0C6CF43E050E06CE471E0C5010E9488
:1047A000CF24892BE9F0F80110E000E020E030E0B0
:1047B000A9015F01B0ED8B2E8D0E89E08815C8F13F
:1047C0009C2E689491F88C2F8870C2FF16C08111BE
:1047D00002C00F5F1F4F3196D501DC91C92DE9CF83
:1047E000E114F10429F00E5F1F4FF70111830083DC
:1047F00060E070E080EC9FE7BCC0882311F00150BE
:104800001109A5E0B0E00E943D269B01AC01220FFA
:10481000331F441F551F280D311D411D511D2839BF
:1048200099E93907490799E15907A8F2C6609C2E12
:10483000D2CFAEEF8A1206C0C3FD3CC09C2E689456
:1048400093F8C9CFDF7DD534A9F580818D3239F455
:10485000C061DF011296818162E070E006C0DF0175
:104860008B32C1F3119661E070E080535D01A61AAE
:10487000B70A8A30F8F4E0E8CE16ECE0DE065CF425
:10488000B601660F771F660F771FC60ED71ECC0CBA
:10489000DD1CC80ED11C5D01FFEFAF1ABF0A8C9161
:1048A00080538A30A8F1C4FF03C0D194C194D108C9
:1048B0000C0D1D1DC1FF09C0E114F10431F081E0B0
:1048C000A81AB108D701AD92BC92CA01B9010E94E1
:1048D000FC24C370C33009F490584B015C0120E004
:1048E00030E0A9010E94F724882309F440C0C3E8FE
:1048F000D1E017FF05C0119501951109CBE6D1E074
:104900006E01B8E1CB1AD10880E2E82EF12C0FC07D
:10491000D501B1CFFE0125913591459154910E19E4
:104920001F09C501B4010E945D254B015C01D50141
:10493000C4010E151F0574F72497F594E794CC165F
:10494000DD06A9F78A2F880F8B2F881F8F3F49F02C
:1049500020E030E0A901C501B4010E94F7248111D3
:1049600006C082E290E090934C0580934B05C50110
:10497000B401DF91CF911F910F91FF90EF90DF90E5
:10498000CF90BF90AF909F908F90089591110C940D
:10499000CA25803219F089508550C8F70895FB0167
:1049A000DC014150504088F08D9181341CF08B35F2
:1049B0000CF4805E659161341CF06B350CF4605E24
:1049C000861B611171F3990B0895881BFCCFDC01E4
:1049D000FC01672F71917723E1F7329704C07C9136
:1049E0006D9370836291AE17BF07C8F308950E945C
:1049F000392508F481E00895E89409C097FB3EF456
:104A000090958095709561957F4F8F4F9F4F99231B
:104A1000A9F0F92F96E9BB279395F6958795779599
:104A20006795B795F111F8CFFAF4BB0F11F460FF59
:104A30001BC06F5F7F4F8F4F9F4F16C0882311F0B1
:104A400096E911C0772321F09EE8872F762F05C0C5
:104A5000662371F096E8862F70E060E02AF09A9560
:104A6000660F771F881FDAF7880F9695879597F955
:104A70000895990F0008550FAA0BE0E8FEEF1616EF
:104A80001706E807F907C0F012161306E407F50742
:104A900098F0621B730B840B950B39F40A2661F0B6
:104AA000232B242B252B21F408950A2609F4A14059
:104AB000A6958FEF811D811D08950E9470250C948D
:104AC000E4250E94D62538F00E94DD2520F09523AC
:104AD00011F00C94CD250C94D32511240C94182698
:104AE0000E94F52570F3959FC1F3950F50E0551F77
:104AF000629FF001729FBB27F00DB11D639FAA2733
:104B0000F00DB11DAA1F649F6627B00DA11D661F81
:104B1000829F2227B00DA11D621F739FB00DA11DA2
:104B2000621F839FA00D611D221F749F3327A00D5C
:104B3000611D231F849F600D211D822F762F6A2FF8
:104B400011249F5750409AF0F1F088234AF0EE0F5D
:104B5000FF1FBB1F661F771F881F91505040A9F78A
:104B60009E3F510580F00C94CD250C9418265F3F94
:104B7000E4F3983ED4F3869577956795B795F795C6
:104B8000E7959F5FC1F7FE2B880F911D969587953E
:104B900097F9089599278827089597F99F6780E8DE
:104BA00070E060E008959FEF80EC089500240A947F
:104BB0001616170618060906089500240A941216F8
:104BC0001306140605060895092E0394000C11F42B
:104BD000882352F0BB0F40F4BF2B11F460FF04C0D8
:104BE0006F5F7F4F8F4F9F4F089557FD9058440F31
:104BF000551F59F05F3F71F04795880F97FB991F3C
:104C000061F09F3F79F087950895121613061406F8
:104C1000551FF2CF4695F1DF08C016161706180685
:104C2000991FF1CF86957105610508940895E89460
:104C3000BB2766277727CB0197F90895052E97FBA9
:104C40001EF400940E94352657FD07D00E9450267E
:104C500007FC03D04EF40C943526509540953095C2
:104C600021953F4F4F4F5F4F0895909580957095D8
:104C700061957F4F8F4F9F4F08950E947226A59F89
:104C8000900DB49F900DA49F800D911D1124089547
:104C9000B7FF0C943D260E943D26821B930B08957E
:104CA000A1E21A2EAA1BBB1BFD010DC0AA1FBB1F30
:104CB000EE1FFF1FA217B307E407F50720F0A21BA2
:104CC000B30BE40BF50B661F771F881F991F1A940F
:104CD00069F760957095809590959B01AC01BD0139
:104CE000CF010895A29FB001B39FC001A39F700D93
:104CF000811D1124911DB29F700D811D1124911DE4
:104D000008955058BB27AA270E9499260C94E425A1
:104D10000E94D62538F00E94DD2520F039F49F3F0F
:104D200019F426F40C94D3250EF4E095E7FB0C94CB
:104D3000CD25E92F0E94F52558F3BA1762077307AE
:104D40008407950720F079F4A6F50C9417260EF445
:104D5000E0950B2EBA2FA02D0B01B90190010C018B
:104D6000CA01A0011124FF27591B99F0593F50F4A3
:104D7000503E68F11A16F040A22F232F342F4427FB
:104D8000585FF3CF469537952795A795F0405395F3
:104D9000C9F77EF41F16BA0B620B730B840BBAF0C3
:104DA0009150A1F0FF0FBB1F661F771F881FC2F72E
:104DB0000EC0BA0F621F731F841F48F48795779542
:104DC0006795B795F7959E3F08F0B0CF9395880FFC
:104DD00008F09927EE0F9795879508950E9402276E
:104DE0000C94E4250E94DD2558F00E94D62540F061
:104DF00029F45F3F29F00C94CD2551110C9418260D
:104E00000C94D3250E94F52568F39923B1F355231B
:104E100091F3951B550BBB27AA27621773078407CD
:104E200038F09F5F5F4F220F331F441FAA1FA9F363
:104E300035D00E2E3AF0E0E832D091505040E69551
:104E4000001CCAF72BD0FE2F29D0660F771F881FB2
:104E5000BB1F261737074807AB07B0E809F0BB0BA5
:104E6000802DBF01FF2793585F4F3AF09E3F5105B9
:104E700078F00C94CD250C9418265F3FE4F3983E0F
:104E8000D4F3869577956795B795F7959F5FC9F7A2
:104E9000880F911D9695879597F90895E1E0660F23
:104EA000771F881FBB1F621773078407BA0720F09C
:104EB000621B730B840BBA0BEE1F88F7E095089505
:104EC0000E9467276894B1110C94182608950E94D7
:104ED000FD2588F09F5798F0B92F9927B751B0F06A
:104EE000E1F0660F771F881F991F1AF0BA95C9F76E
:104EF00014C0B13091F00E941726B1E008950C94CF
:104F00001726672F782F8827B85F39F0B93FCCF381
:104F1000869577956795B395D9F73EF490958095EA
:104F2000709561957F4F8F4F9F4F0895AA1BBB1BB4
:104F300051E107C0AA1FBB1FA617B70710F0A61B99
:104F4000B70B881F991F5A95A9F780959095BC01BA
:104F5000CD010895EE0FFF1F881F8BBF0790F691BC
:104F6000E02D19940F931F93CF93DF938230910517
:104F700010F482E090E0E0914F05F091500530E0B0
:104F800020E0B0E0A0E0309799F42115310509F454
:104F90004AC0281B390B24303105D8F58A819B8102
:104FA0006115710589F1FB0193838283FE0111C0B4
:104FB000408151810281138148175907E0F0481759
:104FC000590799F4109761F012960C931297139663
:104FD0001C933296CF01DF91CF911F910F910895CD
:104FE00000934F0510935005F4CF2115310551F072
:104FF0004217530738F0A901DB019A01BD01DF0117
:10500000F801C1CFEF01F9CF9093500580934F0580
:10501000CDCFFE01E20FF31F81939193225031090E
:1050200039832883D7CF20914D0530914E05232B0E
:1050300041F4209105023091060230934E052093F1
:105040004D0520910302309104022115310541F4F0
:105050002DB73EB74091070250910802241B350B33
:10506000E0914D05F0914E05E217F307A0F42E1BD9
:105070003F0B2817390778F0AC014E5F5F4F2417BC
:10508000350748F04E0F5F1F50934E0540934D0576
:10509000819391939FCFF0E0E0E09CCFCF93DF939B
:1050A0000097E9F0FC01329713821282A0914F051C
:1050B000B0915005ED0130E020E01097A1F420817F
:1050C0003181820F931F20914D0530914E05281795
:1050D000390709F061C0F0934E05E0934D05DF916B
:1050E000CF910895EA01CE17DF07E8F54A815B8189
:1050F0009E0141155105B1F7E901FB83EA8349910E
:105100005991C40FD51FEC17FD0761F4808191817F
:105110000296840F951FE901998388838281938188
:105120009B838A83F0E0E0E012968D919C91139727
:105130000097B9F52D913C911197CD010296820F00
:10514000931F20914D0530914E052817390739F6E8
:10515000309751F51092500510924F05B0934E05BF
:10516000A0934D05BCCFD383C28340815181840F6E
:10517000951FC817D90761F44E5F5F4F88819981E9
:10518000480F591F518340838A819B819383828377
:105190002115310509F0B0CFF0935005E0934F058C
:1051A0009ECFFD01DC01C0CF13821282D7CF4F9278
:1051B0005F926F927F928F929F92AF92BF92CF92A7
:1051C000DF92EF92FF920F931F93CF93DF938C01A7
:1051D000009799F4CB01DF91CF911F910F91FF9030
:1051E000EF90DF90CF90BF90AF909F908F907F9087
:1051F0006F905F904F900C94B227FC01E60FF71F61
:105200009C0122503109E217F30708F4AEC0D9011E
:10521000CD91DC911197C617D70720F1C530D10584
:1052200078F0CE0104978617970750F0C61BD70B6E
:105230002297C193D1936D937C93CF010E944E2806
:10524000C801DF91CF911F910F91FF90EF90DF90F8
:10525000CF90BF90AF909F908F907F906F905F9016
:105260004F9008955B01AC1ABD0A4C018C0E9D1E37
:10527000A0914F05B0915005512C412CF12CE12CFF
:10528000109731F580914D0590914E05881599053F
:1052900009F05CC04616570608F058C0809103021A
:1052A00090910402009741F48DB79EB74091070298
:1052B00050910802841B950BE817F90708F055C0B8
:1052C000F0934E05E0934D05F90171836083B8CFEB
:1052D0008D919C91119712966C90129713967C90D9
:1052E0001397A815B90559F56C0142E0C40ED11CFD
:1052F000CA14DB0420F1AC014A195B09DA011296E9
:10530000159780F06282738251834083D9016D9337
:105310007C93E114F10471F0D7011396FC93EE93A2
:1053200012978ECF22968C0F9D1FF9019183808357
:10533000F301EFCFF0935005E0934F0581CF48166E
:10534000590608F42C017D01D3019ACFCB010E94AC
:10535000B2277C01009749F0AE01B8010E94B8293C
:10536000C8010E944E2887016BCF10E000E068CF93
:10537000FB01DC0102C001900D9241505040D8F772
:105380000895FC018191861721F08823D9F7992788
:1053900008953197CF010895FB01DC0101900D9232
:1053A0000020E1F70895FB01DC014150504048F036
:1053B00001900D920020C9F701C01D92415050404C
:1053C000E0F7089511E0C8E4D1E000E006C0802FC6
:1053D000FE010E94AA272196011DC934D10780E051
:0853E0000807A9F7F894FFCFBC
:1053E800010101000051058000000000007302D394
:1053F800010002C00231020F02230230006200677E
:025408000000A2
:00000001FF
