:100000000C9449010C947A010C947A010C947A01B5
:100010000C947A010C947A010C947A010C947A0174
:100020000C947A010C947A010C947A010C947A0164
:100030000C947A010C947A010C947A010C947A0154
:100040000C947A010C942E100C947A010C947A0181
:100050000C947A010C947A010C947A010C94E40FBC
:100060000C947A010C94AE0F0C94840F0C947A01CA
:100070000C947A010C947A010C947A010C947A0114
:100080000C947A010C947A010C947A010C947A0104
:100090000C944E0F0C94240F0C947A010C947A015A
:1000A0000C947A010C947A010C947A010C947A01E4
:1000B0000C947A010C947A010C947A010C947A01D4
:1000C0000C947A010C947A010C947A010C947A01C4
:1000D0000C947A010C947A010C947A010C947A01B4
:1000E0000C947A010C9400020C94D3010C947703C5
:1000F0000C947B030C9442030C9473020C946303E2
:100100000C94C0020C946D030C94AD100C943D0340
:100110000C940F020C9469030C9454030C94810307
:100120000C9485030C9458030C9431020C945C03DA
:100130000C9460030C9423020C9493030C940E28EB
:100140000C948F030C9473030C9489034E414E4915
:100150004E495459494E46CDCCCC3D0AD7233C1785
:10016000B7D13877CC2B329595E6241FB14F0A00D2
:100170000020410000C84200401C4620BCBE4CCAC2
:100180001B0E5AAEC59D7400002100240027002AD2
:10019000002D003000330001010000040107010AB6
:1001A0000100000A0B02090C0D0E080703040100F0
:1001B000000000000000000000000000000000003F
:1001C00000000000000000000000000000121110FC
:1001D000000000000000000000000000000000001F
:1001E000000000000000000102102020080810207C
:1001F00040102040800201020108040201010204B3
:100200000810204080804020100804020180040271
:1002100001804020100804020108040201010204C8
:1002200008102040800102040810204080000022B5
:1002300000250028002B002E0031003400020100B0
:1002400000050108010B010505050507050808085B
:1002500008020202020A0A08080404040401010157
:10026000010101010103030303030303030407075F
:10027000070C0C0C0C0C0C0C0C02020202060606FD
:1002800006060606060B0B0B0B0B0B0B0B00AD103B
:100290000E2811241FBECFEFD1E2DEBFCDBF00E09C
:1002A0000CBF12E0A0E0B2E0E8EDFEE500E00BBF1D
:1002B00002C007900D92A43FB107D9F726E0A4EF42
:1002C000B2E001C01D92A935B207E1F711E0C8E420
:1002D000D1E000E006C021970109802FFE010E94B5
:1002E000192DC734D10780E00807A9F70E94DF1154
:1002F0000C945A2F0C94000080919303882359F09A
:10030000E09192039FEF980F90939303E81BF0E026
:10031000EC56FC4F82810895E0912706F091280663
:100320008E179F0798F530912D06332361F0639F58
:10033000B0011124672F349FA0011124452F329F53
:1003400090011124232F30913306E0912E06F09175
:100350002F065091300635131AC0DC01AA0FBB1FBF
:100360008A0F9B1F8E0F9F1FE0913006E80FF92F19
:10037000F11D6083E0913106E80FF92FF11D4083F4
:1003800030913206830F911DFC0120830895880F60
:10039000991F880F991F8E0F9F1FFC01E30FF11DFE
:1003A0001082E2CF0895AF92BF92CF92DF92EF9288
:1003B000FF920F931F93CF93DF936C017B018B010F
:1003C000040F151FEB015E01AE18BF08C017D1075F
:1003D00059F06991D601ED91FC910190F081E02DE9
:1003E000C6011995892B79F7C501DF91CF911F912E
:1003F0000F91FF90EF90DF90CF90BF90AF90089556
:10040000FC01538D448D252F30E0842F90E0821B1A
:10041000930B541710F0CF96089501970895FC019F
:10042000918D828D981761F0A28DAE0FBF2FB11DF7
:100430005D968C91928D9F5F9F73928F90E008954F
:100440008FEF9FEF0895FC01918D828D981731F009
:10045000828DE80FF11D858D90E008958FEF9FEF5D
:100460000895FC01918D228D892F90E0805C9F4F33
:10047000821B91098F739927089585E594E00E9466
:10048000310221E0892B09F420E0822F089588EBC6
:1004900093E00E94310221E0892B09F420E0822FB1
:1004A0000895FC01A48DA80FB92FB11DA35ABF4F09
:1004B0002C91848D90E001968F739927848FA68963
:1004C000B7892C93A089B1898C91837080648C93B7
:1004D000938D848D981306C00288F389E02D808166
:1004E0008F7D80830895EF92FF920F931F93CF9398
:1004F000DF93EC0181E0888F9B8D8C8D98131AC05F
:10050000E889F989808185FF15C09FB7F894EE8945
:10051000FF896083E889F9898081837080648083A2
:100520009FBF81E090E0DF91CF911F910F91FF90ED
:10053000EF900895F62E0B8D10E00F5F1F4F0F7395
:100540001127E02E8C8D8E110CC00FB607FCFACF50
:10055000E889F989808185FFF5CFCE010E9451029B
:10056000F1CFEB8DEC0FFD2FF11DE35AFF4FF08221
:100570009FB7F8940B8FEA89FB8980818062CFCF87
:10058000CF93DF93EC01888D8823B9F0AA89BB89CA
:10059000E889F9898C9185FD03C0808186FD0DC0B5
:1005A0000FB607FCF7CF8C9185FFF2CF808185FFD6
:1005B000EDCFCE010E945102E9CFDF91CF91089596
:1005C00080E090E0892B29F00E94470281110E946F
:1005D000000080E090E0892B29F00E943D0281110B
:1005E0000E94000080E090E0892B49F080E090E0DC
:1005F000892B29F00E94000081110E94000080E0F8
:1006000090E0892B49F080E090E0892B29F00E944E
:10061000000081110C9400000895282F30E0F901AA
:10062000EF55FE4F9491F901E951FE4F4491295B3A
:100630003D4FF9012491222309F435C0992311F18A
:1006400091509231F8F4E92FF0E08827E55DFC4FF6
:100650008F4F0C94192D5C0360033D035403580322
:100660004203630369036D03730377037B03810311
:100670008503420389038F039303809180008F7762
:1006800080938000E22FF0E0EE0FFF1FE35DFD4F4F
:10069000A591B4918FB7F894EC91611148C0409541
:1006A0004E234C938FBF0895809180008F7DE8CFBB
:1006B00080918000877FE4CF84B58F7784BDE2CFBF
:1006C00084B58F7DFBCF8091B0008F778093B00091
:1006D000D9CF8091B0008F7DF9CF809190008F7736
:1006E00080939000CFCF809190008F7DF9CF809143
:1006F0009000877FF5CF8091A0008F778093A00036
:10070000C1CF8091A0008F7DF9CF8091A000877F1D
:10071000F5CF809120018F7780932001B3CF809116
:1007200020018F7DF9CF80912001877FF5CF4E2B5F
:10073000B8CFCF93DF9390E0FC01E951FE4F2491B5
:10074000895B9D4FFC0184918823D1F090E0880F54
:10075000991FFC01E957FE4FA591B491FC01E35D9F
:10076000FD4FC591D49161110EC09FB7F8948C9143
:10077000E22FE0958E238C932881E223E8839FBFAC
:10078000DF91CF9108958FB7F894EC91E22BEC9321
:100790008FBFF6CF3FB7F89480910803909109037B
:1007A000A0910A03B0910B0326B5A89B05C02F3F6B
:1007B00019F00196A11DB11D3FBFBA2FA92F982F87
:1007C0008827BC01CD01620F711D811D911D42E082
:1007D000660F771F881F991F4A95D1F70895CF920A
:1007E000DF92EF92FF920F931F93CF93DF9300D08E
:1007F00000D000D0CDB7DEB780912E0690912F06A5
:10080000892B09F480C0C0903406D0903506E09062
:100810003606F09037060E94CA036C157D058E05DA
:100820009F0550F40E94CA03609334067093350606
:1008300080933606909337060E94CA0300913406CF
:10084000109135062091360630913706601B710BEA
:10085000820B930B6C32714081059105A0F2F894E4
:100860008091290690912A069A838983E0912E0629
:10087000F0912F06DF0111968081898790912506DE
:10088000E0913806F091390680913A06992309F4EF
:1008900049C09081982B98879081809589238F8378
:1008A0008F818C8388E08B8358856F8149853B815C
:1008B0002C8189819A81508347FD252F3A95208389
:1008C000262F39F0441F00C000006083000000C0E4
:1008D000F2CF38E04D9160830000019761F7F0930B
:1008E0003906E093380649873B832C839A838983B2
:1008F00078940E94CA0360933406709335068093FF
:1009000036069093370629960FB6F894DEBF0FBED1
:10091000CDBFDF91CF911F910F91FF90EF90DF90AE
:10092000CF9008959081982B988790818095892306
:100930008F838F818E8388E08D8358856F81498571
:100940003D812E8189819A81508347FD252F00C0EA
:1009500000C0208300C000C000C000C000C0608391
:100960000000262F3A9541F0441F000000C000C04F
:1009700000C000C000C0E8CF38E04D9100C06083E7
:1009800000C0019709F7F0933906E09338064987CC
:100990003D832E83ABCF8F929F92AF92BF92CF9227
:1009A000DF92EF92FF924B015C010E94CA036B0140
:1009B0007C010E94CA036C197D098E099F09683E5B
:1009C000734081059105A8F321E0821A9108A108DE
:1009D000B10888EEC80E83E0D81EE11CF11C81141A
:1009E0009104A104B10429F7FF90EF90DF90CF901C
:1009F000BF90AF909F908F9008952FB7F89460911B
:100A000004037091050380910603909107032FBFA3
:100A10000895CF92DF92EF92FF92CF93DF930E94DF
:100A2000FD046B017C0184E98093BC00C091B60396
:100A3000D091B7038091BC0084FF1FC02097D1F3F1
:100A40000E94FD04AB01BC014C195D096E097F09D0
:100A5000CE01B0E0A0E0481759076A077B0730F3E2
:100A60001092BC0084E48093BC0081E0DF91CF91C0
:100A7000FF90EF90DF90CF90089580E0F7CFCF9276
:100A8000DF92EF92FF92CF93DF938093BB000E949F
:100A9000FD046B017C0184E88093BC00C091B60327
:100AA000D091B7038091BC0087FD20C02097D1F37F
:100AB0000E94FD04AB01BC014C195D096E097F0960
:100AC000CE01B0E0A0E0481759076A077B0730F372
:100AD0001092BC0084E48093BC00C1E08C2FDF91B5
:100AE000CF91FF90EF90DF90CF9008958091B90063
:100AF000887F8831D9F08091B900887F8034B1F047
:100B0000C091B900C87F8091B900887F803259F0C8
:100B10008091B900887F883431F01092BC0084E461
:100B20008093BC00DBCF0E940905D8CFC0E0D6CFB0
:100B3000CF92DF92EF92FF92CF93DF930E94FD045A
:100B40006B017C0184EA8093BC00C091B603D09114
:100B5000B7038091BC0087FD1FC02097D1F30E948E
:100B6000FD04AB01BC014C195D096E097F09CE0182
:100B7000B0E0A0E0481759076A077B0730F31092EE
:100B8000BC0084E48093BC0081E0DF91CF91FF90B2
:100B9000EF90DF90CF9008958091B900887F8830E2
:100BA000B9F08091B900887F803191F08091B900CF
:100BB000887F883349F48091B900887F1092BC0007
:100BC00094E49093BC00E1CF8091B900887FDDCFA1
:100BD00080E0DBCFCF92DF92EF92FF92CF93DF9353
:100BE000C82F0E94FD046B017C0184ECC11101C07F
:100BF00084E88093BC00C091B603D091B703809184
:100C0000BC0087FD1FC02097D1F30E94FD04AB01FB
:100C1000BC014C195D096E097F09CE01B0E0A0E06E
:100C2000481759076A077B0730F31092BC0084E429
:100C30008093BC0081E0DF91CF91FF90EF90DF9037
:100C4000CF9008958091B900887F883349F48091CE
:100C5000B900887F1092BC0094E49093BC00EBCF65
:100C60008091B900887FE7CF0F931F93CF93DF93D5
:100C7000C82FD62F10929303611101C0D1E08FEFDE
:100C80008D0F80939503109294030E949805809392
:100C9000940381111CC08C2F880F8F5F0E943F0529
:100CA00080939403882321F0813089F485E00FC07C
:100CB00006E913E0C0E0809195038C1325C080E025
:100CC0000E94EA0580939403813031F486E0DF913D
:100CD000CF911F910F9108958835C9F78091BB007E
:100CE000F80181938F01CF5FC0939303C093920368
:100CF000DC13E1CF0E94090580939403882339F324
:100D0000813029F787E0E3CF81E00E94EA058093F4
:100D100094038130D9F2803509F3D9CF209156035D
:100D200030915703032E000C440B550B285E3340C3
:100D300041095109A8E1BCEF0E94B52B28EE33E030
:100D400040E050E00E94882B2053384F4F4F5F4FB8
:100D5000309363032093620308954F925F926F92E2
:100D60007F928F929F92AF92BF92CF92DF92EF923B
:100D7000FF92CF93DF935C01EB0123E333E343E383
:100D80005FE360912603709127038091280390917F
:100D900029030E94C72A6B017C0125010B2C000C42
:100DA00066087708AB2809F45DC1C301B2010E944F
:100DB000682A2AE939E949E95EE30E94C72AA701BE
:100DC00096010E94EC2B6B017C0120E030E048ECA6
:100DD00052EC0E94612A87FD3EC120E030E048ECE1
:100DE00052E4C701B6010E94002D181634F4C12C3C
:100DF000D12CF8ECEF2EF2E4FF2EC0922603D09215
:100E00002703E0922803F0922903C0902203D09098
:100E10002303E0902403F0902503C301B2010E9454
:100E2000682A4B015C018092220390922303A092D6
:100E30002403B0922503A70196010E94EB2B6B01BE
:100E40007C0120E030E048EC52EC0E94612A87FDF2
:100E500057C120E030E048EC52E4C701B6010E94DF
:100E6000002D181634F4C12CD12C58ECE52E52E488
:100E7000F52E20E030E0A901609126037091270350
:100E800080912803909129030E94C72A2B013C01DD
:100E90002DEC3CEC4CEC5FE3C501B4010E94C72A89
:100EA0009B01AC01C301B2010E94EC2B4B015C0120
:100EB00020E030E0A901C701B6010E94C72A9B01CA
:100EC000AC01C501B4010E94EC2B60933503709313
:100ED00036038093370390933803BE010D2E000C28
:100EE000880B990B0E94682A4B015C01C0901E037D
:100EF000D0901F03E0902003F0902103D7FF03C0A0
:100F0000D195C195D10926970CF401C12AE939E997
:100F100049E95EE3C501B4010E94C72A23E333E334
:100F200043E35FE30E94EC2BA70196010E94EC2BA8
:100F30006B017C0120E030E048EC52EC0E94612A19
:100F400087FDEEC020E030E048EC52E4C701B60176
:100F50000E94002D181634F4C12CD12C38ECE32E4D
:100F600032E4F32EC0921E03D0921F03E0922003BE
:100F7000F092210320911A0330911B0340911C032E
:100F800050911D0380921A0390921B03A0921C03A0
:100F9000B0921D03C501B4010E94EB2B6B017C01D3
:100FA00020E030E048EC52EC0E94612A87FDBFC08F
:100FB00020E030E048EC52E4C701B6010E94002D69
:100FC000181634F4C12CD12C98ECE92E92E4F92EA9
:100FD00020E030E0A90160911E0370911F03809111
:100FE0002003909121030E94C72A2B013C012DEC84
:100FF0003CEC4CEC5FE3C501B4010E94C72A9B01A5
:10100000AC01C301B2010E94EC2B4B015C0120E05A
:1010100030E0A901C701B6010E94C72A9B01AC01BB
:10102000C501B4010E94EC2B6093390370933A031D
:1010300080933B0390933C03DF91CF91FF90EF901F
:10104000DF90CF90BF90AF909F908F907F906F90E8
:101050005F904F900895C12CD12CE8ECEE2EE2EC7D
:10106000FE2ECBCE20E030E048EC52EC0E94612A0C
:1010700087FD33C020E030E048EC52E4C701B60100
:101080000E94002D181634F4C12CD12C78ECE72ED8
:1010900072E4F72EC0922603D0922703E092280331
:1010A000F092290320E030E0A901C701B6010E94B7
:1010B000002D1816CCF420E030E040EA52E4C701DD
:1010C000B6010E94002D87FDA0CE2FEF4FEF6FEFEE
:1010D00081E090E00E948C0198CEC12CD12C68EC6C
:1010E000E62E62ECF62ED6CF20E030E040EA52EC5D
:1010F000C701B6010E94612A18160CF486CEE5CF0E
:10110000C12CD12C48ECE42E42ECF42EB2CE23E3D9
:1011100033E343E35FE3C701B6010E94C72A08CF68
:10112000C12CD12C28ECE22E22ECF22E1BCFC12CAC
:10113000D12C88ECE82E82ECF82E4ACFCF92DF92A9
:10114000EF92FF920E94FD04C0901503D090160309
:10115000E0901703F09018036C197D098E099F0920
:10116000643671058105910520F528EC48EC68ECA2
:1011700090E080E00E948C018CED95E09093590303
:101180008093580390935B0380935A0322EF33E0DC
:1011900030935D0320935C0390935F0380935E0321
:1011A0009093610380936003FF90EF90DF90CF9066
:1011B00008950E94FD046C197D098E099F0964360B
:1011C00071058105910578F00E94FD046C197D0977
:1011D0008E099F09683C71058105910520F420E086
:1011E00040E060E0C5CF0E94FD046093150370935A
:1011F00016038093170390931803BECF3F924F922C
:101200005F926F927F928F929F92AF92BF92CF9296
:10121000DF92EF92FF920F931F93CF93DF93809112
:10122000F80281110DC00E94CA036093F40270930A
:10123000F5028093F6029093F70281E08093F80222
:101240000E94CA030091F4021091F5022091F60267
:101250003091F702601B710B820B930B0091FA0423
:101260001091FB042091FC043091FD040617170730
:101270002807390710F41092FE04C1E0809123067C
:1012800090912406DC01ED91FC910084F185E02D24
:101290001995181619060CF06CC00E94CA036093C9
:1012A000F4027093F5028093F6029093F702809116
:1012B000230690912406DC01ED91FC910284F385D4
:1012C000E02D1995809300059091FE04911116C0B0
:1012D0009091F60489130FC09091FF042091F704B8
:1012E000921739F02091F90492232091F804921377
:1012F00002C0C093FE048093FF04C0CF993140F434
:10130000E92FF0E0EE50FB4F86879F5F9093FE043D
:101310009091FE04993179F79091F704891739F08B
:101320009091F90489239091F804891320C01092B8
:10133000FE046091010570910205C0900205D12C58
:1013400080900305D0910405E09005050091060505
:10135000A0900705C09108053090090580911705F8
:10136000909119059823B9F41092000217C01092B9
:10137000FE04DF91CF911F910F91FF90EF90DF90CE
:10138000CF90BF90AF909F908F907F906F905F9025
:101390004F903F90089591E09093000290911A052C
:1013A000892309F435C181E080930202912CF12C4C
:1013B00010E0B12C7770072E000C880B990B0E945F
:1013C000682A23E333E343E35FE30E94C72A20E074
:1013D00030EC46E454E40E94EC2B0E94CA2C9B01A2
:1013E000AC012B51344041095109A8EEB3E00E94F1
:1013F000A72B28E9422E23E0522E612C712CA30149
:1014000092010E94882B28513C4F4F4F5F4F3093E1
:101410006D0320936C0333E0D594C7943A95E1F7BC
:10142000B40145E0660F771F4A95E1F76C297D29E5
:101430007770072E000C880B990B0E94682A23E313
:1014400033E343E35FE30E94C72A20E030EC46E445
:1014500054E40E94EC2B0E94CA2C9B01AC012B513E
:10146000344041095109A8EEB3E00E94A72BA30123
:1014700092010E94882B28513C4F4F4F5F4F309371
:101480006B0320936A03B4E0DB9FB0011124C70112
:10149000982F8827990F990F682B792BE6E0959460
:1014A0008794EA95E1F7682979297770072E000C6F
:1014B000880B990B0E94682A23E333E343E35FE33D
:1014C0000E94C72A20E030EC46E454E40E94EC2B52
:1014D0000E94CA2C9B01AC012B5134404109510997
:1014E000A8EEB3E00E94A72BA30192010E94882BD3
:1014F00028513C4F4F4F5F4F30936903209368034F
:10150000B701759567957801F694FE2CEE24F79453
:10151000E7946E297F297770072E000C880B990BB2
:101520000E94682A23E333E343E35FE30E94C72A70
:1015300020E030EC46E454E40E94EC2B0E94CA2CDC
:101540009B01AC012B51344041095109A8EEB3E095
:101550000E94A72BA30192010E94882B28513C4F87
:101560004F4F5F4F3093670320936603B801B4E099
:1015700075956795BA95E1F78501D4E0000F111FC5
:10158000DA95E1F7602B712B7770072E000C880B32
:10159000990B0E94682A23E333E343E35FE30E944D
:1015A000C72A20E030EC46E454E40E94EC2B0E9471
:1015B000CA2C70939103609390036C2F70E0660FB8
:1015C000771FC32DD0E0DC2FCC27DD0F6C2B7D2BBC
:1015D000AA0CAB2CAA1CBB086A297B297770072EA2
:1015E000000C880B990B0E94682A23E333E343E342
:1015F0005FE30E94C72A20E030EC46E454E40E94F6
:10160000EC2B0E94CA2C7093570360935603B1CE03
:1016100010920202CBCECF93DF93EC0188819981A7
:10162000009711F00E94BD2D198218821D821C8224
:101630001B821A82DF91CF910895FC0180819181F4
:10164000009711F00C94BD2D0895CF93DF93FC010A
:10165000248135816217730788F49B01C081D18191
:101660006BE370E0CE01820F931F0E94302F009732
:1016700029F08C1B9D0BDF91CF9108958FEF9FEF89
:10168000FACFFC0124813581232B39F421E0FB01C1
:101690008081882349F020E007C0808191810E94E9
:1016A0003B2F21E0892BB9F7822F08950F931F93C9
:1016B000CF93DF93EC0188819981009759F02A81BB
:1016C0003B812617370730F081E0DF91CF911F91E2
:1016D0000F9108958B016F5F7F4F0E94462E0097F8
:1016E00059F0998388831B830A832C813D81232BA6
:1016F00059F7FC011082E8CF80E0E7CFEF92FF922C
:101700000F931F93CF93DF93EC017B011982188213
:101710001B821A821D821C82FB0101900020E9F7C6
:1017200031978F01061B170BB8010E94560B8111D0
:1017300009C0CE01DF91CF911F910F91FF90EF90E3
:101740000C940B0B1D830C83B70188819981DF9169
:10175000CF911F910F91FF90EF900C94442FEF9237
:10176000FF920F931F93CF93DF938C017B01EB01CB
:1017700009900020E9F72197C61BD70BBE010E94F4
:10178000560B811109C0C801DF91CF911F910F91B4
:10179000FF90EF900C940B0BF801D583C483B70135
:1017A00080819181DF91CF911F910F91FF90EF90F8
:1017B0000C94442FAF92BF92CF92DF92EF92FF92A0
:1017C0000F931F93CF93DF936C015B017A01890123
:1017D0002417350720F48F2D7901042F182F6CE181
:1017E00072E0C6010E947E0BD5011496CD91DC916A
:1017F000EC16FD06E0F40C171D0708F4E801D5010E
:10180000ED91FC911197EC0FFD1F108110826D91ED
:101810007C916E0D7F1DC60161157105A1F00E94BE
:10182000AF0BF50180819181C80FD91F1883C601C4
:10183000DF91CF911F910F91FF90EF90DF90CF90AC
:10184000BF90AF9008950E940B0BEBCF10928D03C9
:10185000109277031092760310921403E0E1F3E004
:1018600011821082138212826BE172E08DE496E0A5
:101870000E94AF0B1092750310927403109219031B
:10188000E1E8F3E011821082138212826BE172E0D0
:1018900087E496E00E94AF0B1092730310927203DC
:1018A00010923403EDE7F3E011821082138212826A
:1018B0006BE172E081E496E00E94AF0B109271033D
:1018C0001092700310925503E9E7F3E01182108241
:1018D000138212826BE172E08BE396E00E94AF0B01
:1018E00010926F0310926E031092780310928F0380
:1018F000109265031092640310924A0310924903F8
:1019000010924803109247038AE590E090934603B3
:1019100080934503EBE4F3E011821082138212827C
:1019200015821482178216828BE192E09093540301
:101930008093530310922A0310922B0310922C03CE
:1019400010922D0310922E031092330310922F0346
:1019500010923003109231031092320320E040E0E5
:1019600060E082E090E00C948C018F929F92AF92A5
:10197000BF92EF92FF920F931F93CF93DF93CDB758
:10198000DEB7C05AD1090FB6F894DEBF0FBECDBF87
:10199000182F092F0E94FD0480900C0390900D03D6
:1019A000A0900E03B0900F03681979098A099B096A
:1019B000643671058105910508F424C2CE010196B3
:1019C0007C0180E8F70111928A95E9F76CE172E0F9
:1019D000CE0187569F4F0E947E0BCD56DF4F198256
:1019E0001882C359D040CB56DF4F19821882C5598F
:1019F000D040C956DF4F19821882C759D0404AE0FB
:101A0000BE016F577F4F812F902F0E949828BE01F3
:101A10006F577F4FCE018D569F4F0E94AF0BC75619
:101A2000DF4F88819981C959D040009709F47EC061
:101A3000CD56DF4F68817981C359D040611571055A
:101A400009F472C0C556DF4F48815981CB59D04047
:101A5000C956DF4F28813981C759D04042175307F3
:101A600008F462C00E94442FC956DF4F88819981D3
:101A7000C759D040C356DF4F99838883CD59D04092
:101A8000C956DF4F19821882C759D040CE018D56F2
:101A90009F4F0E941D0BC356DF4F88819981CD59FE
:101AA000D040892B09F073C0C156DF4F1882CF593F
:101AB000D040109294030E94980580939403811162
:101AC00092C084E20E943F058093940381118BC0F1
:101AD0001093BB000E94FD044B015C0184E88093DD
:101AE000BC000091B6031091B7038091BC0087FD44
:101AF00061C001151105C9F30E94FD04AB01BC01D1
:101B0000481959096A097B0930E020E0401751075C
:101B10006207730730F31092BC0084E48093BC002A
:101B200081E0809394035FC00E94BD2DCD56DF4FAE
:101B300088819981C359D040C756DF4F99838883E4
:101B4000C959D040CB56DF4F88819981C559D040C3
:101B5000C556DF4F99838883CB59D040C956DF4F94
:101B600088819981C759D040C356DF4F99838883B4
:101B7000CD59D040CD56DF4F19821882C359D0407D
:101B8000CB56DF4F19821882C559D04079CFC7563E
:101B9000DF4F68817981C959D04041E050E0CE01E2
:101BA00081569F4F0E944B2FC056DF4F1882C05A5C
:101BB000D0407FCF8091B900887F883229F410927D
:101BC00094030E940905ADCF1091B900187F809150
:101BD000B900887F803309F03FC00E940905109347
:101BE0009403112371F362E082E10E943406809134
:101BF0009303823009F044C00E947C01082F0E94A8
:101C00007C01182F61E070E080E090E00E94CB043E
:101C1000602F82E10E943406012E000C220B330B50
:101C20004091930350E070E060E004171507260729
:101C30003707C1F42FEF4FEF6FEF82E090E00E9483
:101C40008C01870180919303882309F10E947C0114
:101C5000F80181938F01F6CF1092BC0084E4809349
:101C6000BC00BDCF20E040E06FEF82E090E00E943A
:101C70008C0180919303882351F00E947C01F9CF5D
:101C800020E040E060E082E090E00E948C01B7013B
:101C9000CE018D569F4F0E947E0B70E060E0CE011A
:101CA0008D569F4F0E94250B7C019C0150E040E027
:101CB000BE016D567F4FCE018F579F4F0E94DA0BAA
:101CC000CF57DF4F88819981C158D040009709F4E0
:101CD000ABC00E94712870934C0360934B03CE01FC
:101CE0008F579F4F0E941D0BFFEFEF1AFF0AB7019E
:101CF000CE018D569F4F0E94250B8C019C01A701A0
:101D0000BE016D567F4FCE018F579F4F0E94DA0B59
:101D1000CF57DF4F88819981C158D040009709F48F
:101D200087C00E946D280E94CA2C70934E03609356
:101D30004D03CE018F579F4F0E941D0B0F5F1F4F0A
:101D4000B801CE018D569F4F0E94250B7C019C014E
:101D5000A801BE016D567F4FCE018F579F4F0E9445
:101D6000DA0BCF57DF4F88819981C158D040009757
:101D700009F462C00E946D280E94CA2C709350031F
:101D800060934F03CE018F579F4F0E941D0BC95682
:101D9000DF4F28813981C759D040A7014F5F5F4F7E
:101DA000BE016D567F4FCE018F579F4F0E94DA0BB9
:101DB000CF57DF4F88819981C158D040009709F4EF
:101DC0003FC00E946D280E94CA2C709352036093FA
:101DD0005103CE018F579F4F0E941D0B0E94FD049F
:101DE00060930C0370930D0380930E0390930F0385
:101DF000CE018D569F4F0E941D0BCE0187569F4FDF
:101E00000E941D0BC056DF4F0FB6F894DEBF0FBE09
:101E1000CDBFDF91CF911F910F91FF90EF90BF90B9
:101E2000AF909F908F90089560E070E0CB0153CF0A
:101E300060E070E0CB0177CF60E070E0CB019CCF39
:101E400060E070E0CB01BFCF1F920F920FB60F92F0
:101E500011240BB60F922F933F934F935F936F9381
:101E60007F938F939F93AF93BF93EF93FF9385E5FA
:101E700094E00E945102FF91EF91BF91AF919F9129
:101E80008F917F916F915F914F913F912F910F9023
:101E90000BBE0F900FBE0F901F9018951F920F92C0
:101EA0000FB60F9211240BB60F922F938F939F931F
:101EB000EF93FF93E0916504F09166048081E091D7
:101EC0006B04F0916C0482FD1DC0908180916E04C2
:101ED0008F5F8F7320916F04821741F0E0916E0441
:101EE000F0E0EB5AFB4F958F80936E04FF91EF91DA
:101EF0009F918F912F910F900BBE0F900FBE0F905F
:101F00001F9018958081F2CF1F920F920FB60F92FB
:101F100011240BB60F922F933F934F935F936F93C0
:101F20007F938F939F93AF93BF93EF93FF9388EB30
:101F300093E00E945102FF91EF91BF91AF919F9169
:101F40008F917F916F915F914F913F912F910F9062
:101F50000BBE0F900FBE0F901F9018951F920F92FF
:101F60000FB60F9211240BB60F922F938F939F935E
:101F7000EF93FF93E091C803F091C9038081E09152
:101F8000CE03F091CF0382FD1DC090818091D103DB
:101F90008F5F8F732091D203821741F0E091D103BC
:101FA000F0E0E854FC4F958F8093D103FF91EF91BF
:101FB0009F918F912F910F900BBE0F900FBE0F909E
:101FC0001F9018958081F2CF1F920F920FB60F923B
:101FD00011242F933F938F939F93AF93BF9380913F
:101FE000040390910503A0910603B091070330917B
:101FF000030323E0230F2D3758F50196A11DB11DD2
:10200000209303038093040390930503A093060396
:10201000B09307038091080390910903A0910A03EC
:10202000B0910B030196A11DB11D809308039093FD
:102030000903A0930A03B0930B03BF91AF919F9143
:102040008F913F912F910F900FBE0F901F90189579
:1020500026E8230F0296A11DB11DD2CF1F920F9229
:102060000FB60F9211240BB60F922F933F934F93FD
:102070005F936F937F938F939F93AF93BF93EF93F0
:10208000FF931092850010928400809101028823B2
:10209000F9F061E08DE10E940D0388E592E09093F4
:1020A00089008093880010920102FF91EF91BF9107
:1020B000AF919F918F917F916F915F914F913F91E0
:1020C0002F910F900BBE0F900FBE0F901F90189581
:1020D00060E08DE10E940D0391E0909301028091F8
:1020E00002038630C0F010920203809100039091A9
:1020F0000103845D9E4F919581959109880F991FE9
:10210000805C93469093890080938800109201032D
:1021100010920003CACFE82FF0E0EE0FFF1FE85A3D
:10212000FC4F208131812C523140220F331F3093DC
:1021300089002093880020910003309101034081A1
:102140005181240F351F30930103209300038F5FCB
:102150008093020390938E03A8CF1092580410929C
:10216000570448EE53E060E070E040935904509308
:102170005A0460935B0470935C048DE092E090934A
:102180005604809355042DEC30E030936204209384
:1021900061042CEC30E0309364042093630428EC59
:1021A00030E0309366042093650429EC30E03093EE
:1021B0006804209367042AEC30E030936A0420938B
:1021C00069042EEC30E030936C0420936B04109281
:1021D0006E0410926F0410927004109271041092A9
:1021E000BB031092BA034093BC035093BD036093AA
:1021F000BE037093BF039093B9038093B80385EC3B
:1022000090E09093C5038093C40384EC90E0909396
:10221000C7038093C60380EC90E09093C90380933A
:10222000C80381EC90E09093CB038093CA0382ECC7
:1022300090E09093CD038093CC0386EC90E0909354
:10224000CF038093CE031092D1031092D203109249
:10225000D3031092D4036BE172E08DE496E00E9408
:102260007E0B6BE172E087E496E00E947E0B6BE1EF
:1022700072E081E496E00E947E0B6BE172E08BE3FA
:1022800096E00E947E0B1092260610922D06109268
:10229000340610923506109236061092370681E009
:1022A00080933306809330061092310692E090932B
:1022B00032068093250689E090E090932A06809369
:1022C00029060E94212D90932F0680932E060097B9
:1022D00009F46CC029E0FC0111922A95E9F783E02A
:1022E00090E0909328068093270686E090E09093F4
:1022F0002C0680932B0680912606882341F061E00E
:1023000086E00E94990360E086E00E940D03EDE400
:10231000F2E0E491F0E0EE0FFF1FE35DFD4F8591E9
:1023200094919093390680933806EDEEF1E0E491B4
:10233000E0933A0680EA96E8A1E0B0E08093F204E8
:102340009093F304A093F404B093F5049FE090936A
:10235000F6041092F70484E08093F8049093F90453
:1023600048E55BE160E070E04093FA045093FB04C1
:102370006093FC047093FD041092FF048093190590
:1023800088E080931A058FE890E090931C05809375
:102390001B0588E797E090931E0580931D0585E552
:1023A00094E09093240680932306089510922A06C1
:1023B00010922906109228061092270696CFCF93E6
:1023C000DF9300D01F921F92CDB7DEB7789484B50B
:1023D000826084BD84B5816084BD85B5826085BD21
:1023E00085B5816085BD80916E00816080936E00AF
:1023F00010928100809181008260809381008091A1
:102400008100816080938100809180008160809351
:1024100080008091B10084608093B1008091B00011
:1024200081608093B00080919100826080939100E0
:1024300080919100816080939100809190008160F3
:10244000809390008091A10082608093A100809190
:10245000A10081608093A1008091A00081608093A1
:10246000A00080912101826080932101809121014F
:1024700081608093210180912001816080932001FF
:1024800080917A00846080937A0080917A008260E3
:1024900080937A0080917A00816080937A008091A5
:1024A0007A00806880937A001092C10080912B0698
:1024B00090912C0697FD08C061E00E94990360E0AE
:1024C00080912B060E940D0381E0809326060E94D6
:1024D000EF0360912D06633329F120912E06309190
:1024E0002F066150C9F070E08FEF92E30E94052D36
:1024F000F9014091290650912A06CF01821B930BC6
:102500008417950760F44081469FC001479F900D56
:10251000112490833196EDCF70E060E0E9CF83E342
:1025200080932D06589A599A8091B9008E7F809396
:10253000B9008091B9008D7F8093B90088E48093C1
:10254000B80084E48093BC002CED35E03093B703F1
:102550002093B6038CE08093B80060E086E30E948D
:10256000990360E082E00E94990360E08DE00E94A0
:1025700099034CED55E05093590340935803509301
:102580005B0340935A0350935F0340935E03509361
:1025900061034093600388EE93E090935D03809322
:1025A0005C0384E398E090936303809362030E944A
:1025B000FD0460930C0370930D0380930E039093BE
:1025C0000F031092FE0400911D0510911E058091CD
:1025D0001B0590911C059A838983BC0190E080E0E3
:1025E0000E94662A4B015C01B80190E080E00E94E5
:1025F000662AA50194010E94EB2B2B013C01AC0142
:102600009B0160E070E080E090E40E94582C6B0138
:102610007C0120E030E040E05FE3C301B2010E94B2
:10262000C72AA50194010E94EC2B9058A70196019E
:102630000E94C72AEFE1F5E0AFE5B5E02FE335E012
:1026400049815A8141935193178F068FCD92DD9224
:10265000ED92FD92DC966D937D938D939C93DF9725
:102660002E173F0769F780912306909124069A83DD
:102670008983C090F204D090F304E090F404F090C9
:10268000F50460E079E08DE390E0A70196010E94F7
:10269000BA2B215031094109510956954795379573
:1026A0002795A981BA815096ED91FC9182E08083B3
:1026B000C114B1EEDB06E104F10421F02115E0E1E3
:1026C0003E07B0F0A981BA815096ED91FC9110823D
:1026D00060E874E88EE190E0A70196010E94BA2BB1
:1026E000215031094109510956954795379527954C
:1026F000A981BA811C96ED91FC911D9730831E969D
:10270000ED91FC911F97208358961C9258975496F0
:10271000ED91FC9155978EE280835296ED91FC915C
:1027200053978081806180835296ED91FC915397FD
:102730008081886080835296ED91FC9153978081CF
:10274000806880835296ED91FC9180818F7D80839B
:1027500061E08DE10E94990360E08DE10E940D032C
:10276000F894109280001092810088E790E0909396
:102770008900809388008091810088608093810027
:102780008091810082608093810080916F008260DF
:1027900080936F00789468EB7BE080E090E00E948B
:1027A000CB041A82198220E040E0698190E080E049
:1027B0000E948C010E94EF03E981FA813196FA832D
:1027C000E983E115F14079F71A82198220E0498105
:1027D00060E081E090E00E948C010E94EF0349815B
:1027E0005A814F5F5F4F5A8349834115514071F7BA
:1027F0001A821982298140E060E082E090E00E9424
:102800008C010E94EF0389819A8101969A838983C2
:102810008115914079F768EE73E080E090E00E94C6
:10282000CB041A8219822981422F622F90E080E026
:102830000E948C012981422F622F81E090E00E944A
:102840008C012981422F622F82E090E00E948C014E
:102850000E94EF03E981FA813196FA83E983E11559
:10286000F14009F74FEF50E05A8349832981422F05
:10287000622F90E080E00E948C012981422F622F1C
:1028800081E090E00E948C012981422F622F82E03A
:1028900090E00E948C010E94EF0389819A81019748
:1028A0009A838983019611F720E040E060E090E090
:1028B00080E00E948C0120E040E060E081E090E058
:1028C0000E948C0120E040E060E082E090E00E9405
:1028D0008C010E94EF0320E040E060E090E080E0A7
:1028E0000E948C010E94EF030E94FD043EE7632ECC
:1028F00034E0732E46E9242E45E0342E52E2A52E14
:1029000056E0B52E60EA862E65E0962E78E1472ED9
:1029100076E0572E0E94FE088091020281110C94ED
:102920000A2880919003909191038E34B3E09B0725
:102930000CF480C0813BE3E09E070CF042C020E035
:102940004FEF60E090E080E00E948C0180916C038A
:1029500090916D03909359038093580380916A037B
:1029600090916B0390935B0380935A03809168036B
:102970009091690390935D0380935C03809166035B
:102980009091670390935F0380935E0384E195E0E9
:102990009093610380936003809156039091570355
:1029A00090936303809362030E94260C80918E03B0
:1029B000882321F00E94EF0310928E030E94E00210
:1029C000A9CF863BF5E09F07ACF1893126E092075D
:1029D00064F52FEF40E060E090E080E00E948C0121
:1029E00080916C0390916D039093590380935803E9
:1029F00080916A0390916B0390935B0380935A03D9
:102A0000809168039091690390935D0380935C03C8
:102A1000809166039091670390935F0380935E03B8
:102A20007092610360926003B7CF8A5198408336F9
:102A3000910528F080918F03882309F4B7CF809106
:102A40008D0381112DC00E94FD0460938903709352
:102A50008A0380938B0390938C03109288031092C7
:102A600087031092860310928503109282031092BE
:102A70008103109284031092830310927E031092BC
:102A80007D031092800310927F0310927A031092BC
:102A9000790310927C0310927B0381E080938D0375
:102AA00080918D038823E9F180918F03811139C0D2
:102AB0000E94FD040091890310918A0320918B03E9
:102AC00030918C03601B710B820B930B683E73403B
:102AD0008105910598F08091870390918803019674
:102AE00090938803809387030E94FD046093890379
:102AF00070938A0380938B0390938C038091870358
:102B000090918803CC976CF0809185039091860317
:102B10000196909386038093850310928803109208
:102B200087030E94FE0880918F0381110C94D327A4
:102B3000109178038091760390917703892B09F0A7
:102B40009AC3111198C38091140381111FC0809101
:102B500085039091860390931103809310038091D5
:102B600087039091880390931303809312036BE182
:102B700072E08DE496E00E94AF0B81E08093140335
:102B80006BE172E08DE496E00E94AF0B809114033C
:102B9000882309F436C36BE172E08DE496E00E946D
:102BA000410B882309F45CC020E044E664E690E031
:102BB00080E00E948C0181E090E00E94B50C4CED19
:102BC00055E0509359034093580350935B0340934F
:102BD0005A0388EE93E090935D0380935C035093D7
:102BE0005F0340935E03709261036092600384E32D
:102BF00098E09093630380936203609185037091E2
:102C000086034091870350918803ACE3A69FC001DF
:102C1000A79F900D1124840F951FE0911003F09150
:102C20001103AE9F9001AF9F300D1124E09112036C
:102C3000F09113032E0F3F1F821B930B06970CF48A
:102C4000E0C27093110360931003509313034093F9
:102C500012036DE172E08DE496E00E94AF0BD1C2E9
:102C60006DE172E08DE496E00E94410B882309F447
:102C700054C024E640E064E690E080E00E948C01CD
:102C800081E090E00E94B50C8CED95E090935903A3
:102C90008093580390935B0380935A0388EE93E0EC
:102CA00090935D0380935C0380ED97E090935F03C6
:102CB00080935E037092610360926003609185036C
:102CC000709186034091870350918803ACE3A69FDF
:102CD000C001A79F900D1124840F951FE091100350
:102CE000F0911103AE9F9001AF9F300D1124E09140
:102CF0001203F09113032E0F3F1F821B930B0697B5
:102D00000CF47FC27093110360931003509313036C
:102D10004093120361E272E09ECF61E272E08DE4C3
:102D200096E00E94410B882309F452C081E090E0B4
:102D30000E94B50C24E640E060E090E080E00E9454
:102D40008C01ACEDB5E0B0935903A0935803B09358
:102D50005B03A0935A0384E195E090935D03809315
:102D60005C03B0935F03A0935E0370926103609273
:102D700060036091850370918603409187035091B1
:102D80008803ACE3A69FC001A79F900D1124840F78
:102D9000951FE0911003F0911103AE9F9001AF9F3A
:102DA000300D1124E0911203F09113032E0F3F1FF9
:102DB000821B930B04970CF424C27093110360934D
:102DC000100350931303409312036BE272E043CF5E
:102DD0006BE272E08DE496E00E94410B882309F4D7
:102DE00050C081E090E00E94B50C24E644E664E621
:102DF00090E080E00E948C01ECEDF5E0F093590347
:102E0000E0935803F0935B03E0935A03F0935D0360
:102E1000E0935C03F0935F03E0935E0370926103C1
:102E200060926003609185037091860340918703EF
:102E300050918803ACE3A69FC001A79F900D112479
:102E4000840F951FE0911003F0911103AE9F900144
:102E5000AF9F300D1124E0911203F09113032E0F58
:102E60003F1F821B930B04970CF4CBC1709311038B
:102E700060931003509313034093120365E372E0D1
:102E8000EACE65E372E08DE496E00E94410B882370
:102E900009F4DAC00E94FD04C0901503D090160317
:102EA000E0901703F09018036C197D098E099F09B3
:102EB000643671058105910508F06EC020E040E0A0
:102EC0006FEF90E080E00E948C0181E090E00E9432
:102ED000B50C80914703909148038A3191050CF419
:102EE00080C0B0925903A0925803809149039091F9
:102EF0004A03853191050CF483C0B0925B03A09224
:102F00005A0384EA96E090935D0380935C0380917A
:102F100045039091460397FF82C08E5A9F4F853A92
:102F2000910508F08AC080E496E090935F03809357
:102F30005E037092610360926003609185037091FB
:102F400086034091870350918803ACE3A69FC0019C
:102F5000A79F900D1124840F951FE0911003F0910D
:102F60001103AE9F9001AF9F300D1124E091120329
:102F7000F09113032E0F3F1F821B930B07970CF446
:102F800040C1709311036093100350931303409357
:102F900012036EE372E05FCE0E94FD046C197D099E
:102FA0008E099F09643671058105910578F00E94AC
:102FB000FD046C197D098E099F09683C7105810526
:102FC000910520F420E040E060E07BCF0E94FD040A
:102FD000609315037093160380931703909318035F
:102FE00074CF873E9F4F2CF43092590320925803A0
:102FF0007CCF2CED35E0309359032093580375CFE7
:103000008C3E9F4F2CF430925B0320925A0379CF71
:103010004CED55E050935B0340935A0372CF0097F9
:1030200061F08E5A9F4F853A910538F4A8E7B5E0D4
:10303000B0935F03A0935E037CCFECEDF5E0F093DB
:103040005F03E0935E0375CF6EE372E08DE496E07C
:103050000E94410B882309F4BCC081E090E00E94EB
:10306000B50CE0904F03F0905003F0924A03E092C9
:103070004903C0904D03D0904E03D0924803C092B4
:10308000470300915103109152031093460300939C
:10309000450324E640E060E090E080E00E948C017F
:1030A000FAE1CF16D1040CF458C02EE036E030938C
:1030B00059032093580395E1E916F1040CF460C01C
:1030C000AEE0B6E0B0935B03A0935A034CED55E03D
:1030D00050935D0340935C0317FF65C0015B1F4F76
:1030E0000F39110508F06EC080E496E090935F03FD
:1030F00080935E0370926103609260036091850328
:10310000709186034091870350918803ACE3A69F9A
:10311000C001A79F900D1124840F951FE09110030B
:10312000F0911103AE9F9001AF9F300D1124E091FB
:103130001203F09113032E0F3F1F821B930B049772
:103140000CF45FC07093110360931003509313034A
:10315000409312036BE472E07ECD37EEC3163FEF6F
:10316000D3063CF44AEA55E0509359034093580380
:10317000A2CF8CED95E090935903809358039BCF99
:10318000BCEEEB16BFEFFB063CF4EAEAF5E0F09389
:103190005B03E0935A039ACF2CED35E030935B0349
:1031A00020935A0393CF0115110561F0015B1F4F66
:1031B0000F39110538F4A8E7B5E0B0935F03A09389
:1031C0005E0398CFECEDF5E0F0935F03E0935E03D0
:1031D00091CF6BE472E08DE496E00E94410B88236E
:1031E00081F020E040E060E090E080E00E948C010F
:1031F00081E08093780321E030E0309377032093DF
:10320000760380916C0390916D0383589540833BC6
:103210009105E8F480916A0390916B03835895407F
:10322000833B9105A0F480916803909169038358D2
:103230009540833B910558F4809166039091670314
:1032400083589540833B910510F40C94CD278091D1
:1032500064039091650301969093650380936403E2
:10326000809164039091650303970CF49FCB81E0F8
:1032700080938F039BCB8091740390917503892B6E
:1032800009F06AC2113009F067C2809119038111F7
:1032900020C0809185039091860390938203809350
:1032A0008103809187039091880390938403809396
:1032B00083036BE172E087E496E00E94AF0B10930A
:1032C00019030E94FD046BE472E087E496E00E941B
:1032D000AF0B80911903882309F493CF6BE172E05F
:1032E00087E496E00E94410B882309F40DC182E037
:1032F00090E00E94B50C20914F0330915003309321
:103300004A032093490340914D0350914E0350933B
:103310004803409347038091510390915203909347
:10332000460380934503453151050CF48BC040E4BE
:1033300056E0509359034093580300914B0310916A
:103340004C030130110509F091C0213131050CF415
:103350008AC020E436E030935B0320935A032CEDBF
:1033600035E030935D0320935C0397FF8DC08E5A48
:103370009F4F853A910508F093C050925F034092A9
:103380005E0370926103609260030E94FD04C0902E
:103390001503D0901603E0901703F09018036C19F2
:1033A0007D098E099F09683C71058105910508F02A
:1033B00088C020E040E00130110509F480C00230EF
:1033C000110509F074C02FEF40E060E090E080E06C
:1033D0000E948C0160918503709186034091870360
:1033E00050918803ACE3A69FC001A79F900D1124C4
:1033F000840F951FE0918103F0918203AE9F9001AD
:10340000AF9F300D1124E0918303F09184032E0FC0
:103410003F1F821B930B893091053CF4013011054D
:1034200009F0EFCE02970CF4ECCE70938203609318
:103430008103509384034093830360E572E087E443
:1034400096E00BCC4C3E5F4F3CF4A8E7B5E0B09360
:103450005903A093580371CFECEDF5E0F0935903B5
:10346000E09358036ACF203F3F4F3CF4A8E7B5E014
:10347000B0935B03A0935A0372CFECEDF5E0F093A9
:103480005B03E0935A036BCF009751F08E5A9F4F26
:10349000853A910528F490925F0380925E0371CF84
:1034A0004CED55E050935F0340935E036ACF20E0FC
:1034B0004FEF0330110509F488CF2FEF4FEF6FEF77
:1034C00085CF0E94FD046C197D098E099F09683C17
:1034D00071058105910568F00E94FD046C197D0954
:1034E0008E099F0920E06C3271408105910508F436
:1034F0006BCF0E94FD0460931503709316038093B5
:1035000017039093180366CF60E572E087E496E0B6
:103510000E94410B882309F40CC183E090E00E94D3
:10352000B50C20914F033091500330934A03209300
:10353000490340914D0350914E03509348034093EB
:1035400047038091510390915203909346038093D7
:1035500045034A3151050CF451C0B0925903A09271
:103560005803253131050CF458C0B0925B03A0928A
:103570005A032CED35E030935D0320935C0397FFF5
:103580005BC08E5A9F4F853A910508F061C0B0929A
:103590005F03A0925E0370926103609260030E94D9
:1035A000FD04C0901503D0901603E0901703F0902F
:1035B000180300914B0310914C036C197D098E097F
:1035C0009F09683C71058105910508F048C020E01D
:1035D0000130110561F02FEF0230110509F4A6C08A
:1035E00020E04FEF0330110509F4A1C02FEF40E0B8
:1035F0006FEF90E080E00E948C0147C0473E5F4F34
:103600002CF43092590320925803ABCFACEDB5E0C7
:10361000B0935903A0935803A4CF2C3E3F4F2CF4F2
:1036200030925B0320925A03A4CFECEDF5E0F093C7
:103630005B03E0935A039DCF009751F08E5A9F4F42
:10364000853A910528F430925F0320925E03A3CF60
:103650004CED55E050935F0340935E039CCF0E9476
:10366000FD046C197D098E099F09683C710581056F
:10367000910508F04EC00E94FD04609315037093FD
:10368000160380931703909318036091850370913C
:1036900086034091870350918803ACE3A69FC00145
:1036A000A79F900D1124840F951FE0918103F09145
:1036B0008203AE9F9001AF9F300D1124E0918303F0
:1036C000F09184032E0F3F1F821B930B85319105D0
:1036D00054F49801225031092230310508F091CD7F
:1036E00003970CF48ECD7093820360938103509303
:1036F0008403409383038BE592E00230110511F0BF
:103700008DE592E090935403809353036BE472E051
:1037100096CE0E94FD046C197D098E099F096C32BA
:1037200071408105910508F0A6CF20E040E060E0FF
:1037300060CF6BE472E087E496E00E94410B88233F
:1037400009F45FCD82E08093780381E090E090936C
:1037500075038093740355CD809172039091730328
:10376000892B09F09BC6123009F098C6809134036A
:1037700081111FC0809185039091860390937E03F1
:1037800080937D03809187039091880390938003B9
:1037900080937F036BE172E081E496E00E94AF0BBF
:1037A00081E0809334036BE472E081E496E00E9450
:1037B000AF0B80913403882309F423CD6BE172E0D1
:1037C00081E496E00E94410B882309F49AC184E0C9
:1037D00090E00E94B50CE0904F03F0905003F092FF
:1037E0004A03E092490360914D0370914E03709338
:1037F000480360934703C0905103D0905203D09286
:103800004603C0924503C7010E94AD0600914B03D9
:1038100010914C030130110571F080913303811137
:103820000AC00E94FD0460932F03709330038093BD
:103830003103909332030E94FD0420912F033091B5
:103840003003409131035091320329833A834B83F3
:103850005C83621B730B840B950B693E734081057F
:10386000910518F081E080933303409133034D8339
:10387000411127C0809153039091540352E08D353C
:103880009507B1F48CE895E0909359038093580321
:1038900039E0E316F1040CF065C0B8EFEB16BFEFAA
:1038A000FB060CF0FBC090925B0380925A035EC053
:1038B0008B55924019F48CE296E0E6CF88E795E0CC
:1038C000E3CF0E94FD0429813A814B815C81621B18
:1038D000730B840B950B613D77408105910580F159
:1038E0000E94FD0429813A814B815C81621B730B2C
:1038F000840B950B683B7B408105910508F5809111
:1039000053039091540342E08D35940701F53092B2
:1039100059032092580320E030E84BEB54E46091C7
:1039200035037091360380913703909138030E94DC
:10393000EC2B0E94CA2C70935B0360935A0316C051
:103940008CED95E09093590380935803E4CF8B5509
:10395000924029F4B0925903A0925803DCCF8CE82E
:1039600095E0F0CF50925B0340925A032CED35E086
:1039700030935D0320935C031C141D040CF095C070
:1039800036E0C316D1040CF49AC050925F03409203
:103990005E039D8191119AC07092610360926003F1
:1039A00020E040E00730110531F00530110509F045
:1039B00094C02FEF4FEF6FEF90E080E00E948C01FA
:1039C000609185037091860340918703509188032D
:1039D000ACE3A69FC001A79F900D1124840F951FF3
:1039E000E0917D03F0917E03AE9F9001AF9F300D7B
:1039F0001124E0917F03F09180032E0F3F1F821B63
:103A0000930B8F3191055CF40530110509F0F9CB6A
:103A100005970CF4F6CBBD81BB2309F4F2CB709370
:103A20007E0360937D035093800340937F036FE593
:103A300072E081E496E00E94AF0B10923503109281
:103A40003603109237031092380310923903109204
:103A50003A0310923B0310923C03109226031092FB
:103A60002703109228031092290310922203109228
:103A70002303109224031092250310921E03109228
:103A80001F03109220031092210310921A03109228
:103A90001B0310921C0310921D03B3CBECEDF5E059
:103AA000F0935B03E0935A0361CF4BEFC4164FEFE3
:103AB000D4062CF490925F0380925E036ACF8CED63
:103AC00095E090935F0380935E0363CFA8E7B5E032
:103AD000B0936103A093600363CF2FEF0230110511
:103AE00069F020E04FEF0330110549F024E640E093
:103AF00064E60130110509F45FCF20E040E060E0AA
:103B00005BCF6FE572E081E496E00E94410B882371
:103B100009F4B1C084E090E00E94B50C20914F03FD
:103B20003091500330934A032093490340914D0351
:103B300050914E03509348034093470380915103A3
:103B4000909152039093460380934503453151056C
:103B50000CF464C05092590340925803213131054E
:103B60000CF46BC050925B0340925A03ECEDF5E00D
:103B7000F0935D03E0935C03181619060CF06CC01B
:103B80000B970CF471C050925F0340925E037092E9
:103B900061036092600380914B0390914C0320E09D
:103BA00040E060E0009729F0059739F42FEF4FEFE0
:103BB0006FEF90E080E00E948C016091850370912E
:103BC00086034091870350918803ACE3A69FC00110
:103BD000A79F900D1124840F951FE0917D03F09114
:103BE0007E03AE9F9001AF9F300D1124E0917F03C3
:103BF000F09180032E0F3F1F821B930B04970CF450
:103C000000CB70937E0360937D03509380034093B9
:103C10007F036DE672E081E496E01FC84C3E5F4F83
:103C20002CF4909259038092580398CF4CED55E0B4
:103C3000509359034093580391CF203F3F4F2CF4AA
:103C400090925B0380925A0391CFACEDB5E0B093B4
:103C50005B03A0935A038ACF863F9F4F2CF4909228
:103C60005F0380925E0393CF2CED35E030935F03CA
:103C700020935E038CCF6DE672E081E496E00E94B3
:103C8000410B882309F498C085E090E00E94B50CB0
:103C900080914F039091500390934A03809349037E
:103CA00020914D0330914E033093480320934703F6
:103CB0008091510390915203909346038093450362
:103CC000203131050CF456C05092590340925803EC
:103CD000E8E7F5E0F0935B03E0935A032CED35E061
:103CE00030935D0320935C0397FF53C08E5A9F4F20
:103CF000853A910508F059C050925F0340925E03E7
:103D000070926103609260032FEF40E06FEF90E0EC
:103D100080E00E948C016091850370918603409140
:103D2000870350918803ACE3A69FC001A79F900D25
:103D30001124840F951FE0917D03F0917E03AE9FC7
:103D40009001AF9F300D1124E0917F03F09180032B
:103D50002E0F3F1F821B930B03970CF452CA7093D4
:103D60007E0360937D035093800340937F036AE753
:103D700072E051CF213F3F4F2CF490925903809233
:103D80005803A6CFACEDB5E0B0935903A093580308
:103D90009FCF009751F08E5A9F4F853A910528F496
:103DA00090925F0380925E03ABCF4CED55E0509351
:103DB0005F0340935E03A4CF6AE772E081E496E07C
:103DC0000E94410B882309F4FAC08091530390911B
:103DD000540352E08B35950709F0B0C02FEF40E057
:103DE00060E090E080E00E948C0188E490E00E9416
:103DF000B50C80914F039091500390934A038093A8
:103E0000490320914D0330914E0330934803209392
:103E100047038091510390915203909346038093FE
:103E200045032B3031050CF496C0B0925903A09293
:103E3000580328E735E030935B0320935A034CED99
:103E400055E050935D0340935C0397FF93C08E5AF7
:103E50009F4F853A910508F099C050925F034092B8
:103E60005E03709261036092600300914B031091B6
:103E70004C030115110509F090C020E040E060E01E
:103E800090E080E00E948C018091850390918603F0
:103E90006CE3689F9001699F300D11248091870326
:103EA00090918803820F931F40917D0350917E0370
:103EB000649F9001659F300D112440917F035091C4
:103EC0008003240F351F821B930B0B970CF070C0DF
:103ED0006091850370918603409187035091880318
:103EE000ACE3A69FC001A79F900D1124840F951FDE
:103EF000E0917D03F0917E03AE9F9001AF9F300D66
:103F00001124E0917F03F09180032E0F3F1F821B4D
:103F1000930B853191053CF40530110509F071C909
:103F200004970CF46EC970937E0360937D035093E5
:103F3000800340937F0367E872E06DCE8D55924019
:103F400039F420E04FEF60E090E080E00E948C01C7
:103F500089E490E04CCF263F3F4F2CF43092590338
:103F60002092580366CFECEDF5E0F0935903E0930F
:103F700058035FCF009751F08E5A9F4F853A9105B5
:103F800028F490925F0380925E036BCF8CED95E0F6
:103F900090935F0380935E0364CF0530110509F0B1
:103FA00073CF20E04FEF60E090E080E00E948C0152
:103FB00088EE93E0909363038093620389CF67E870
:103FC00072E081E496E00E94410B882309F4B4C0BA
:103FD00086E090E00E94B50C00914F0310915003D1
:103FE00010934A030093490320914D0330914E03EF
:103FF00030934803209347038091510390915203DB
:104000009093460380934503203131050CF472C030
:10401000B0925903A092580328E735E030935B0330
:1040200020935A034CED55E050935D0340935C039D
:1040300097FF6FC08E5A9F4F853A910508F075C063
:1040400050925F0340925E0370926103609260033E
:10405000E0904B03F0904C0320E040E060E0E1147E
:10406000F10439F095E0E916F10439F42FEF4FEF40
:104070006FEF90E080E00E948C0160918503709169
:1040800086034091870350918803ACE3A69FC0014B
:10409000A79F900D1124840F951FE0917D03F0914F
:1040A0007E03AE9F9001AF9F300D1124E0917F03FE
:1040B000F09180032E0F3F1F821B930B80319105DF
:1040C00074F4A5E0EA16F10409F09BC8055F1F4FE0
:1040D0000731110508F095C804970CF492C8709345
:1040E0007E0360937D035093800340937F0363E9D5
:1040F00072E091CD213F3F4F2CF430925903209232
:1041000058038ACFECEDF5E0F0935903E0935803A0
:1041100083CF009751F08E5A9F4F853A910528F42E
:1041200090925F0380925E038FCF8CED95E0909329
:104130005F0380935E0388CF63E972E081E496E0D9
:104140000E94410B882309F4AAC086E090E00E94F7
:10415000B50C20914F033091500330934A032093C4
:10416000490340914D0350914E03509348034093AF
:10417000470380915103909152039093460380939B
:104180004503403151050CF459C0509259034092F7
:1041900058032D3031050CF460C050925B034092FF
:1041A0005A034CED55E050935D0340935C0397FF39
:1041B00063C08E5A9F4F853A910508F069C0B0924E
:1041C0005F03A0925E03709261036092600324E635
:1041D0004FEF64E690E080E00E948C0160918503DF
:1041E000709186034091870350918803ACE3A69FAA
:1041F000C001A79F900D1124840F951FE0917D03AE
:10420000F0917E03AE9F9001AF9F300D1124E0919D
:104210007F03F09180032E0F3F1F821B930B0497A7
:1042200014F40C94011970937E0360937D035093F2
:10423000800340937F0361EA72E0EDCC413F5F4F22
:104240002CF49092590380925803A3CFECEDF5E043
:10425000F0935903E09358039CCF243F3F4F2CF435
:1042600090925B0380925A039CCF2CED35E0309303
:104270005B0320935A0395CF009751F08E5A9F4FBE
:10428000853A910528F430925F0320925E039BCF1C
:104290008CED95E090935F0380935E0394CF61EA89
:1042A00072E081E496E00E94410B882309F4E1C0AA
:1042B00088E090E00E94B50CE0904F03F09050032E
:1042C000F0924A03E092490380914D0390914E038E
:1042D0009093480380934703009151031091520338
:1042E0001093460300934503809153039091540328
:1042F000A2E08B359A0709F08DC02FEF40E060E017
:1043000090E080E00E948C01309259032092580383
:10431000E0E1EE16F1040CF48CC050925B03409285
:104320005A034CED55E050935D0340935C03101627
:1043300011060CF08FC00B3011050CF493C0509295
:104340005F0340925E0370926103609260032FEFFF
:1043500040E06FEF90E080E00E948C0180914B0381
:1043600090914C03059751F40E94FD0460932B0338
:1043700070932C0380932D0390932E0310922A03A5
:104380000E94FD0400912B0310912C0320912D031A
:1043900030912E03601B710B820B930B6D3B7240AF
:1043A0008105910518F081E080932A0360918503CF
:1043B000709186034091870350918803ACE3A69FD8
:1043C000C001A79F900D1124840F951FE0917D03DC
:1043D000F0917E03AE9F9001AF9F300D1124E091CC
:1043E0007F03F09180032E0F3F1F821B930B0897D2
:1043F00034F480912A03882311F40C9401197093EA
:104400007E0360937D035093800340937F036BE4AE
:1044100072E001CC8D55924039F420E04FEF60E01E
:1044200090E080E00E948C01B0925903A092580362
:104430006FCFF1EFEF16FFEFFF062CF490925B03C6
:1044400080925A036ECF2CED35E030935B032093BE
:104450005A0367CF063F1F4F2CF490925F03809260
:104460005E0371CF8CED95E090935F0380935E03C4
:104470006ACF6BE472E081E496E00E94410B8823EE
:1044800011F40C94011983E080937803E1E0F0E0EB
:10449000F0937303E09372030C94011980917003FD
:1044A00090917103892B09F068C5133009F065C537
:1044B00080915503811125C08091850390918603D9
:1044C00090937A0380937903809187039091880376
:1044D00090937C0380937B036BE172E08BE396E027
:1044E0000E94AF0B81E0809355038DE592E090939D
:1044F0005403809353036BE172E08BE396E00E94D8
:10450000AF0B80915503882311F40C9401196BE1D2
:1045100072E08BE396E00E94410B882309F43CC1D2
:1045200088E090E00E94B50C80914F039091500379
:104530000A9790934A038093490360914D037091C9
:104540004E03709348036093470300915103109109
:10455000520310934603009345030E94AD06209139
:104560004B0330914C033A8329832530310509F4FC
:10457000F4C00E94FD04C0904103D0904203E0903B
:104580004303F09044036C197D098E099F09693C2F
:1045900071058105910508F0B8C080915303909191
:1045A000540332E08B35930709F0A0C02FEF40E0B1
:1045B00060E090E080E00E948C019092590380922C
:1045C0005803ECEDF5E0F0935B03E0935A03F093AE
:1045D0005D03E0935C03101611060CF0CCC00530AF
:1045E00011050CF4D2C02EE036E030935F03209327
:1045F0005E03A8E7B5E0B0936103A0936003E9818F
:10460000FA81359771F48091490390914A030E968F
:104610004D9738F480914703909148030B96479744
:1046200050F00E94FD0460933D0370933E0380931D
:104630003F03909340030E94FD04E0918503F091B5
:10464000860340918703509188032CE3F22EFE9E4F
:104650009001FF9E300D11248901040F151F209138
:10466000790330917A03F29ED001F39EB00D1124AC
:1046700020917B0330917C032A0F3B1FD801A21BA2
:10468000B30BAB30B105DCF400913D0310913E0358
:1046900020913F03309140036B017C01C01AD10A85
:1046A000E20AF30A2DE2C21621E0D206E104F10487
:1046B00010F40C940119139714F40C940119F0934D
:1046C0007A03E093790350937C0340937B0360EB80
:1046D00072E08BE396E00E94AF0B20E040E060E0E8
:1046E00081E090E00E948C010C9401198D5592405C
:1046F00039F420E04FEF60E090E080E00E948C0110
:1047000050925903409258035CCF0E94FD046C19EB
:104710007D098E099F09693C71058105910590F01D
:104720000E94FD046C197D098E099F09643C794043
:104730008105910538F48CED95E0909359038093B1
:1047400058033FCF0E94FD046093410370934203DE
:10475000809343039093440334CF2FEF4FEF6FEFD9
:1047600090E080E00E948C01ACEDB5E0B09359037D
:10477000A093580326CF0C3F1F4F3CF44AEA55E064
:1047800050935F0340935E0334CF8CED95E090939C
:104790005F0380935E032DCF6EEB72E08BE396E0B8
:1047A0000E94410B882309F480C086E090E00E94BB
:1047B000B50C80914F039091500390934A038093DE
:1047C000490360914D0370914E03709348036093C9
:1047D0004703009151031091520310934603009335
:1047E00045030E94AD0620E030E84BEB54E46091B5
:1047F000390370913A0380913B0390913C030E94EE
:10480000EC2B0E94CA2C709359036093580320E04C
:1048100030E84BEB54E4609135037091360380919E
:104820003703909138030E94EC2B0E94CA2C70939E
:104830005B0360935A034CED55E050935D03409346
:104840005C0317FF1EC00E5A1F4F053A110530F5C5
:10485000B0925F03A0925E03A8E7B5E0B093610356
:10486000A093600380914B0390914C032FEF4FEF87
:104870006FEF059719F020E040E060E090E080E005
:1048800031CF0115110551F00E5A1F4F053A110590
:1048900028F430925F0320925E03DECF8CED95E02A
:1048A00090935F0380935E03D7CF60EB72E08BE35E
:1048B00096E00E94410B882309F4ADC086E090E0A9
:1048C0000E94B50C20914F033091500330934A035E
:1048D0002093490340914D0350914E035093480358
:1048E0004093470380915103909152039093460364
:1048F00080934503433151050CF45CC05092590339
:1049000040925803203131050CF463C050925B0390
:1049100040925A034CED55E050935D0340935C0385
:1049200097FF66C08E5A9F4F853A910508F06CC07C
:10493000B0925F03A0925E03709261036092600385
:1049400024E64FEF64E690E080E00E948C016091E5
:104950008503709186034091870350918803ACE3EF
:10496000A69FC001A79F900D1124840F951FE09171
:104970007903F0917A03AE9F9001AF9F300D11241F
:10498000E0917B03F0917C032E0F3F1F821B930B62
:10499000039714F40C94011970937A0360937903CC
:1049A00050937C0340937B0363EC72E08BE396E0CF
:1049B0000C942D164E3E5F4F2CF49092590380922A
:1049C0005803A0CFECEDF5E0F0935903E0935803C2
:1049D00099CF213F3F4F2CF490925B0380925A0372
:1049E00099CF2CED35E030935B0320935A0392CF9F
:1049F000009751F08E5A9F4F853A910528F43092D6
:104A00005F0320925E0398CF8CED95E090935F0357
:104A100080935E0391CF63EC72E08BE396E00E949B
:104A2000410B882309F4A4C085E090E00E94B50CF6
:104A300080914F039091500390934A0380934903D0
:104A400020914D0330914E03309348032093470348
:104A500080915103909152039093460380934503B4
:104A6000203131050CF462C0509259034092580332
:104A700020E436E030935B0320935A034CED55E07D
:104A800050935D0340935C0397FF5FC08E5A9F4F26
:104A9000853A910508F065C0B0925F03A0925E036D
:104AA00070926103609260032FEF40E06FEF90E03F
:104AB00080E00E948C016091850370918603409193
:104AC000870350918803ACE3A69FC001A79F900D78
:104AD0001124840F951FE0917903F0917A03AE9F22
:104AE0009001AF9F300D1124E0917B03F0917C0386
:104AF0002E0F3F1F821B930B8430910564F420918D
:104B00004B0330914C03232B11F00C9401190297A5
:104B100014F40C94011970937A0360937903509301
:104B20007C0340937B0361ED72E040CF213F3F4F18
:104B30002CF490925903809258039ACFECEDF5E053
:104B4000F0935903E093580393CF009751F08E5A96
:104B50009F4F853A910528F430925F0320925E03BF
:104B60009FCF8CED95E090935F0380935E0398CF89
:104B700061ED72E08BE396E00E94410B882309F41B
:104B80009FC089E090E00E94B50C80914F03909106
:104B9000500390934A038093490320914D03309131
:104BA0004E03309348032093470380915103909123
:104BB00052039093460380934503233131050CF44F
:104BC0005DC0B0925903A092580326E336E03093BB
:104BD0005B0320935A034CED55E050935D034093E3
:104BE0005C0397FF5AC08E5A9F4F853A910508F093
:104BF00060C0B0925F03A0925E0370926103609206
:104C0000600322E34FEF62E390E080E00E948C01BA
:104C100060918503709186034091870350918803CA
:104C2000ACE3A69FC001A79F900D1124840F951F90
:104C3000E0917903F0917A03AE9F9001AF9F300D20
:104C40001124E0917B03F0917C032E0F3F1F821B08
:104C5000930B0B9744F480914B0390914C03019775
:104C600011F00C94011970937A03609379035093B7
:104C70007C0340937B036AED72E098CE2E3E3F4F5B
:104C80002CF430925903209258039FCFECEDF5E0BD
:104C9000F0935903E093580398CF009751F08E5A40
:104CA0009F4F853A910528F430925F0320925E036E
:104CB000A4CF8CED95E090935F0380935E039DCF2E
:104CC0006AED72E08BE396E00E94410B882309F4C1
:104CD000B3C08AE090E00E94B50C20914F03309160
:104CE000500330934A032093490340914D03509160
:104CF0004E03509348034093470380915103909192
:104D000052039093460380934503433151050CF4BD
:104D100062C0B0925903A0925803203131050CF4BF
:104D200069C0B0925B03A0925A034CED55E05093DA
:104D30005D0340935C0397FF6CC08E5A9F4F853A8A
:104D4000910508F072C0B0925F03A0925E0370926A
:104D500061036092600380914B0390914C032FEFAD
:104D60004FEF6FEF019719F020E040E060E090E036
:104D700080E00E948C0160918503709186034091D0
:104D8000870350918803ACE3A69FC001A79F900DB5
:104D90001124840F951FE0917903F0917A03AE9F5F
:104DA0009001AF9F300D1124E0917B03F0917C03C3
:104DB0002E0F3F1F821B930B059714F40C940119BF
:104DC00070937A036093790350937C0340937B0341
:104DD00068EE72E0EBCD4E3E5F4F2CF430925903FB
:104DE000209258039ACFECEDF5E0F0935903E0934D
:104DF000580393CF213F3F4F2CF430925B03209216
:104E00005A0393CF2CED35E030935B0320935A0384
:104E10008CCF009751F08E5A9F4F853A910528F418
:104E200030925F0320925E0392CF8CED95E09093D9
:104E30005F0380935E038BCF68EE72E08BE396E0B6
:104E40000E94410B882309F483C08BE090E00E940C
:104E5000B50C8091530390915403A2E08D359A07CD
:104E600009F057C020E04FEF60E090E080E00E9442
:104E70008C01E0E4F6E0F0935903E09358038EE5EB
:104E800096E090935B0380935A03ACEDB5E0B0934A
:104E90005D03A0935C03B0935F03A0935E037092E5
:104EA0006103609260036091850370918603409175
:104EB000870350918803ACE3A69FC001A79F900D84
:104EC0001124840F951FE0917903F0917A03AE9F2E
:104ED0009001AF9F300D1124E0917B03F0917C0392
:104EE0002E0F3F1F821B930B049744F480914B03BA
:104EF00090914C03019711F00C94011970937A036F
:104F00006093790350937C0340937B036BE472E0DE
:104F10004DCD8B55924071F42FEF40E060E090E072
:104F200080E00E948C0128E735E0309359032093FC
:104F30005803A5CF20E040E06FEF90E080E00E94B2
:104F40008C0140E456E0509359034093580397CFA7
:104F50006BE472E08BE396E00E94410B882311F42E
:104F60000C94011984E080937803E1E0F0E0F09381
:104F70007103E09370030C94011980916E0390917A
:104F80006F03892B11F00C940119143011F00C945B
:104F900001190E949E080C94011910926503109249
:104FA00064030C94301920E040E06FEF90E080E063
:104FB0000E948C0180916C0390916D039093590332
:104FC0008093580380916A0390916B0390935B03E5
:104FD00080935A03809168039091690390935D03D5
:104FE00080935C03809166039091670390935F03C5
:104FF00080935E0328E735E03093610320936003DC
:1050000080915603909157039093630380936203BA
:105010000C94D6140E949E080C94D614CF93DF9360
:105020008091DF059091E005892BC1F0D0E0C0E0D0
:10503000E091DF05F091E005EC0FFD1F808191818B
:10504000009711F00E94BD2D2296C032D10581F744
:105050008091DF059091E0050E94BD2D8091E105D2
:105060009091E205892BC1F0D0E0C0E0E091E1052C
:10507000F091E205EC0FFD1F80819181009711F006
:105080000E94BD2D2296C032D10581F78091E105A5
:105090009091E2050E94BD2D80912E0690912F06E1
:1050A0000E94BD2D80912B0690912C0697FD03C088
:1050B00060E00E9499038BE396E00E941D0B81E45F
:1050C00096E00E941D0B87E496E00E941D0B8DE484
:1050D00096E0DF91CF910C941D0B662777270C94F7
:1050E000D2281F93FC0199278827BC01E8941191CD
:1050F0001032E9F3193010F01E30C8F31B3251F0B2
:105100001D3249F4689406C00E94A328610F711DE6
:10511000811D911D119110531A30B0F33EF49095FA
:105120008095709561957F4F8F4F9F4F1F91089588
:10513000BB274A3031F4992322F4BDE29095819542
:105140009F4F0C94B928592F482F372F262F660FC1
:10515000771F881F991F660F771F881F991F620F7F
:10516000731F841F951F660F771F881F991F08954F
:10517000BB27FB015527AA27880F991FAA1FA41731
:1051800010F0A41B83955051B9F7A05DAA3308F025
:10519000A95DA193009779F7B111B1931192CB0159
:1051A0000C94512A8F929F92AF92BF92CF92DF922E
:1051B000EF92FF920F931F93CF93DF935C017B01DC
:1051C0006115710519F0DB018D939C9385010F5FCB
:1051D0001F4FF501D0818D2F90E00E94302A6C0185
:1051E000892BB9F5DD32B9F50F5F1F4FD501119647
:1051F000DC91C1E05801F1E0AF1AB10843E050E0A2
:1052000064E571E0C5010E94392A892B69F56801BE
:1052100082E0C80ED11C45E050E06FE471E0C601A9
:105220000E94392A892B21F4680197E0C90ED11C0C
:10523000E114F10419F0D701CD92DC9260E070E046
:1052400080E89FEFC111FFC060E070E080E89FE759
:10525000FAC05801BBCFDB3229F485010E5F1F4F26
:10526000F501D181C0E0C6CF43E050E06CE471E0CD
:10527000C5010E94392A892BE9F0F80110E000E00D
:1052800020E030E0A9015F01B0ED8B2E8D0E89E0AA
:105290008815C8F19C2E689491F88C2F8870C2FFF5
:1052A00016C0811102C00F5F1F4F3196D501DC91EE
:1052B000C92DE9CFE114F10429F00E5F1F4FF7016A
:1052C0001183008360E070E080EC9FE7BCC088231E
:1052D00011F001501109A5E0B0E00E94A72B9B013D
:1052E000AC01220F331F441F551F280D311D411DD6
:1052F000511D283999E93907490799E15907A8F259
:10530000C6609C2ED2CFAEEF8A1206C0C3FD3CC051
:105310009C2E689493F8C9CFDF7DD534A9F58081A0
:105320008D3239F4C061DF011296818162E070E054
:1053300006C0DF018B32C1F3119661E070E080534B
:105340005D01A61AB70A8A30F8F4E0E8CE16ECE060
:10535000DE065CF4B601660F771F660F771FC60E78
:10536000D71ECC0CDD1CC80ED11C5D01FFEFAF1A9F
:10537000BF0A8C9180538A30A8F1C4FF03C0D19436
:10538000C194D1080C0D1D1DC1FF09C0E114F10429
:1053900031F081E0A81AB108D701AD92BC92CA01E0
:1053A000B9010E94662AC370C33009F490584B01BA
:1053B0005C0120E030E0A9010E94612A882309F401
:1053C00040C0C3E8D1E017FF05C011950195110950
:1053D000CBE6D1E06E01B8E1CB1AD10880E2E82E2D
:1053E000F12C0FC0D501B1CFFE012591359145912A
:1053F00054910E191F09C501B4010E94C72A4B011F
:105400005C01D501C4010E151F0574F72497F594AE
:10541000E794CC16DD06A9F78A2F880F8B2F881FFB
:105420008F3F49F020E030E0A901C501B4010E949E
:10543000612A811106C082E290E090935406809325
:105440005306C501B401DF91CF911F910F91FF90D9
:10545000EF90DF90CF90BF90AF909F908F90089586
:1054600091110C94342B803219F089508550C8F773
:105470000895FB01DC014150504088F08D9181344A
:105480001CF08B350CF4805E659161341CF06B353B
:105490000CF4605E861B611171F3990B0895881BF3
:1054A000FCCFDC01FC01672F71917723E1F7329784
:1054B00004C07C916D9370836291AE17BF07C8F3EF
:1054C00008950E94A32A08F481E00895E89409C091
:1054D00097FB3EF490958095709561957F4F8F4F27
:1054E0009F4F9923A9F0F92F96E9BB279395F6953D
:1054F000879577956795B795F111F8CFFAF4BB0FBB
:1055000011F460FF1BC06F5F7F4F8F4F9F4F16C01E
:10551000882311F096E911C0772321F09EE8872FA8
:10552000762F05C0662371F096E8862F70E060E064
:105530002AF09A95660F771F881FDAF7880F9695DD
:10554000879597F90895990F0008550FAA0BE0E881
:10555000FEEF16161706E807F907C0F01216130635
:10556000E407F50798F0621B730B840B950B39F475
:105570000A2661F0232B242B252B21F408950A26DB
:1055800009F4A140A6958FEF811D811D08950E9409
:10559000DA2A0C944E2B0E94402B38F00E94472BA5
:1055A00020F0952311F00C94372B0C943D2B1124F3
:1055B0000C94822B0E945F2B70F3959FC1F3950F83
:1055C00050E0551F629FF001729FBB27F00DB11D87
:1055D000639FAA27F00DB11DAA1F649F6627B00D17
:1055E000A11D661F829F2227B00DA11D621F739F00
:1055F000B00DA11D621F839FA00D611D221F749F0E
:105600003327A00D611D231F849F600D211D822F54
:10561000762F6A2F11249F5750409AF0F1F088237B
:105620004AF0EE0FFF1FBB1F661F771F881F9150A8
:105630005040A9F79E3F510580F00C94372B0C94F5
:10564000822B5F3FE4F3983ED4F386957795679578
:10565000B795F795E7959F5FC1F7FE2B880F911DD2
:105660009695879597F9089599278827089597F92A
:105670009F6780E870E060E008959FEF80EC0895F8
:1056800000240A9416161706180609060895002421
:105690000A9412161306140605060895092E03949B
:1056A000000C11F4882352F0BB0F40F4BF2B11F40F
:1056B00060FF04C06F5F7F4F8F4F9F4F089557FD6E
:1056C0009058440F551F59F05F3F71F04795880F70
:1056D00097FB991F61F09F3F79F087950895121607
:1056E00013061406551FF2CF4695F1DF08C01616B3
:1056F00017061806991FF1CF869571056105089464
:105700000895E894BB2766277727CB0197F908957A
:10571000052E97FB1EF400940E949F2B57FD07D087
:105720000E94BA2B07FC03D04EF40C949F2B50958B
:105730004095309521953F4F4F4F5F4F089590957D
:105740008095709561957F4F8F4F9F4F08950E9470
:10575000DC2BA59F900DB49F900DA49F800D911DF3
:1057600011240895B7FF0C94A72B0E94A72B821B2E
:10577000930B0895A1E21A2EAA1BBB1BFD010DC0BD
:10578000AA1FBB1FEE1FFF1FA217B307E407F507F1
:1057900020F0A21BB30BE40BF50B661F771F881FCD
:1057A000991F1A9469F760957095809590959B0163
:1057B000AC01BD01CF010895A29FB001B39FC0010C
:1057C000A39F700D811D1124911DB29F700D811D2D
:1057D0001124911D08955058BB27AA270E94032C1D
:1057E0000C944E2B0E94402B38F00E94472B20F047
:1057F00039F49F3F19F426F40C943D2B0EF4E095F8
:10580000E7FB0C94372BE92F0E945F2B58F3BA1754
:10581000620773078407950720F079F4A6F50C94C6
:10582000812B0EF4E0950B2EBA2FA02D0B01B901A0
:1058300090010C01CA01A0011124FF27591B99F006
:10584000593F50F4503E68F11A16F040A22F232F12
:10585000342F4427585FF3CF469537952795A79562
:10586000F0405395C9F77EF41F16BA0B620B730B09
:10587000840BBAF09150A1F0FF0FBB1F661F771F7A
:10588000881FC2F70EC0BA0F621F731F841F48F42F
:10589000879577956795B795F7959E3F08F0B0CFB8
:1058A0009395880F08F09927EE0F9795879508959F
:1058B0000E946C2C0C944E2B0E94472B58F00E9497
:1058C000402B40F029F45F3F29F00C94372B511105
:1058D0000C94822B0C943D2B0E945F2B68F3992330
:1058E000B1F3552391F3951B550BBB27AA276217DC
:1058F0007307840738F09F5F5F4F220F331F441FE9
:10590000AA1FA9F335D00E2E3AF0E0E832D091501C
:105910005040E695001CCAF72BD0FE2F29D0660F09
:10592000771F881FBB1F261737074807AB07B0E84C
:1059300009F0BB0B802DBF01FF2793585F4F3AF052
:105940009E3F510578F00C94372B0C94822B5F3FCF
:10595000E4F3983ED4F3869577956795B795F795D8
:105960009F5FC9F7880F911D9695879597F90895C0
:10597000E1E0660F771F881FBB1F6217730784075C
:10598000BA0720F0621B730B840BBA0BEE1F88F76B
:10599000E09508950E94D12C6894B1110C94822B4B
:1059A00008950E94672B88F09F5798F0B92F992788
:1059B000B751B0F0E1F0660F771F881F991F1AF0FA
:1059C000BA95C9F714C0B13091F00E94812BB1E0B3
:1059D00008950C94812B672F782F8827B85F39F0B2
:1059E000B93FCCF3869577956795B395D9F73EF493
:1059F00090958095709561957F4F8F4F9F4F08953B
:105A00000E94A32A08F48FEF0895AA1BBB1B51E143
:105A100007C0AA1FBB1FA617B70710F0A61BB70B1E
:105A2000881F991F5A95A9F780959095BC01CD01C3
:105A30000895EE0FFF1F881F8BBF0790F691E02D92
:105A400019940F931F93CF93DF938230910510F435
:105A500082E090E0E0915706F091580630E020E0B7
:105A6000B0E0A0E0309799F42115310509F44AC05F
:105A7000281B390B24303105D8F58A819B816115AB
:105A8000710589F1FB0193838283FE0111C040817E
:105A900051810281138148175907E0F048175907CF
:105AA00099F4109761F012960C93129713961C9329
:105AB0003296CF01DF91CF911F910F9108950093FE
:105AC000570610935806F4CF2115310551F04217AF
:105AD000530738F0A901DB019A01BD01DF01F8018C
