:100000000C9449010C947A010C947A010C947A01B5
:100010000C947A010C947A010C947A010C947A0174
:100020000C947A010C947A010C947A010C947A0164
:100030000C947A010C947A010C947A010C947A0154
:100040000C947A010C942B0E0C947A010C947A0186
:100050000C947A010C947A010C947A010C94E10DC1
:100060000C947A010C94AB0D0C94810D0C947A01D4
:100070000C947A010C947A010C947A010C947A0114
:100080000C947A010C947A010C947A010C947A0104
:100090000C944B0D0C94210D0C947A010C947A0164
:1000A0000C947A010C947A010C947A010C947A01E4
:1000B0000C947A010C947A010C947A010C947A01D4
:1000C0000C947A010C947A010C947A010C947A01C4
:1000D0000C947A010C947A010C947A010C947A01B4
:1000E0000C947A010C948F030C9442030C9400023C
:1000F0000C9469030C942F240C9473020C945403F5
:100100000C9458030C9481030C9489030C943D03C4
:100110000C9423020C940F020C9485030C947B0323
:100120000C9473030C946D030C9463030C943102D0
:100130000C9493030C94D3010C94AA0E0C947703A3
:100140000C945C030C9460030C94C0024E414E4925
:100150004E495459494E46CDCCCC3D0AD7233C1785
:10016000B7D13877CC2B329595E6241FB14F0A00D2
:100170000020410000C84200401C4620BCBE4CCAC2
:100180001B0E5AAEC59D7400002100240027002AD2
:10019000002D003000330001010000040107010AB6
:1001A0000100000A0B02090C0D0E080703040100F0
:1001B000000000000000000000000000000000003F
:1001C00000000000000000000000000000121110FC
:1001D000000000000000000000000000000000001F
:1001E000000000000000000102102020080810207C
:1001F00040102040800201020108040201010204B3
:100200000810204080804020100804020180040271
:1002100001804020100804020108040201010204C8
:1002200008102040800102040810204080000022B5
:1002300000250028002B002E0031003400020100B0
:1002400000050108010B010505050507050808085B
:1002500008020202020A0A08080404040401010157
:10026000010101010103030303030303030407075F
:10027000070C0C0C0C0C0C0C0C02020202060606FD
:1002800006060606060B0B0B0B0B0B0B0B00AA0E40
:100290002F2411241FBECFEFD1E2DEBFCDBF00E07F
:1002A0000CBF12E0A0E0B2E0E0E1F7E500E00BBF38
:1002B00002C007900D92AC3EB107D9F726E0ACEE34
:1002C000B2E001C01D92A033B207E1F711E0C8E42B
:1002D000D1E000E006C021970109802FFE010E94B5
:1002E0003529C734D10780E00807A9F70E94DC0F41
:1002F0000C94762B0C94000080916A03882359F0AB
:10030000E09169039FEF980F90936A03E81BF0E078
:10031000E559FC4F82810895E091FE05F091FF05BB
:100320008E179F0798F530910406332361F0639F81
:10033000B0011124672F349FA0011124452F329F53
:1003400090011124232F30910A06E0910506F091C7
:1003500006065091070635131AC0DC01AA0FBB1F11
:100360008A0F9B1F8E0F9F1FE0910706E80FF92F42
:10037000F11D6083E0910806E80FF92FF11D40831D
:1003800030910906830F911DFC0120830895880F89
:10039000991F880F991F8E0F9F1FFC01E30FF11DFE
:1003A0001082E2CF0895AF92BF92CF92DF92EF9288
:1003B000FF920F931F93CF93DF936C017B018B010F
:1003C000040F151FEB015E01AE18BF08C017D1075F
:1003D00059F06991D601ED91FC910190F081E02DE9
:1003E000C6011995892B79F7C501DF91CF911F912E
:1003F0000F91FF90EF90DF90CF90BF90AF90089556
:10040000FC01538D448D252F30E0842F90E0821B1A
:10041000930B541710F0CF96089501970895FC019F
:10042000918D828D981761F0A28DAE0FBF2FB11DF7
:100430005D968C91928D9F5F9F73928F90E008954F
:100440008FEF9FEF0895FC01918D828D981731F009
:10045000828DE80FF11D858D90E008958FEF9FEF5D
:100460000895FC01918D228D892F90E0805C9F4F33
:10047000821B91098F73992708958CE294E00E9462
:10048000310221E0892B09F420E0822F08958FE8C2
:1004900093E00E94310221E0892B09F420E0822FB1
:1004A0000895FC01A48DA80FB92FB11DA35ABF4F09
:1004B0002C91848D90E001968F739927848FA68963
:1004C000B7892C93A089B1898C91837080648C93B7
:1004D000938D848D981306C00288F389E02D808166
:1004E0008F7D80830895EF92FF920F931F93CF9398
:1004F000DF93EC0181E0888F9B8D8C8D98131AC05F
:10050000E889F989808185FF15C09FB7F894EE8945
:10051000FF896083E889F9898081837080648083A2
:100520009FBF81E090E0DF91CF911F910F91FF90ED
:10053000EF900895F62E0B8D10E00F5F1F4F0F7395
:100540001127E02E8C8D8E110CC00FB607FCFACF50
:10055000E889F989808185FFF5CFCE010E9451029B
:10056000F1CFEB8DEC0FFD2FF11DE35AFF4FF08221
:100570009FB7F8940B8FEA89FB8980818062CFCF87
:10058000CF93DF93EC01888D8823B9F0AA89BB89CA
:10059000E889F9898C9185FD03C0808186FD0DC0B5
:1005A0000FB607FCF7CF8C9185FFF2CF808185FFD6
:1005B000EDCFCE010E945102E9CFDF91CF91089596
:1005C00080E090E0892B29F00E94470281110E946F
:1005D000000080E090E0892B29F00E943D0281110B
:1005E0000E94000080E090E0892B49F080E090E0DC
:1005F000892B29F00E94000081110E94000080E0F8
:1006000090E0892B49F080E090E0892B29F00E944E
:10061000000081110C9400000895282F30E0F901AA
:10062000EF55FE4F9491F901E951FE4F4491295B3A
:100630003D4FF9012491222309F435C0992311F18A
:1006400091509231F8F4E92FF0E08827E55DFC4FF6
:100650008F4F0C9435295C0360033D03540358030A
:100660004203630369036D03730377037B03810311
:100670008503420389038F039303809180008F7762
:1006800080938000E22FF0E0EE0FFF1FE35DFD4F4F
:10069000A591B4918FB7F894EC91611148C0409541
:1006A0004E234C938FBF0895809180008F7DE8CFBB
:1006B00080918000877FE4CF84B58F7784BDE2CFBF
:1006C00084B58F7DFBCF8091B0008F778093B00091
:1006D000D9CF8091B0008F7DF9CF809190008F7736
:1006E00080939000CFCF809190008F7DF9CF809143
:1006F0009000877FF5CF8091A0008F778093A00036
:10070000C1CF8091A0008F7DF9CF8091A000877F1D
:10071000F5CF809120018F7780932001B3CF809116
:1007200020018F7DF9CF80912001877FF5CF4E2B5F
:10073000B8CFCF93DF9390E0FC01E951FE4F2491B5
:10074000895B9D4FFC0184918823D1F090E0880F54
:10075000991FFC01E957FE4FA591B491FC01E35D9F
:10076000FD4FC591D49161110EC09FB7F8948C9143
:10077000E22FE0958E238C932881E223E8839FBFAC
:10078000DF91CF9108958FB7F894EC91E22BEC9321
:100790008FBFF6CF3FB7F89480910003909101038B
:1007A000A0910203B091030326B5A89B05C02F3F7B
:1007B00019F00196A11DB11D3FBFBA2FA92F982F87
:1007C0008827BC01CD01620F711D811D911D42E082
:1007D000660F771F881F991F4A95D1F70895CF920A
:1007E000DF92EF92FF920F931F93CF93DF9300D08E
:1007F00000D000D0CDB7DEB78091050690910606F7
:10080000892B09F480C0C0900B06D0900C06E090B4
:100810000D06F0900E060E94CA036C157D058E052C
:100820009F0550F40E94CA0360930B0670930C0658
:1008300080930D0690930E060E94CA0300910B064A
:1008400010910C0620910D0630910E06601B710B65
:10085000820B930B6C32714081059105A0F2F894E4
:1008600080910006909101069A838983E0910506A4
:10087000F0910606DF011196808189879091FC0531
:10088000E0910F06F091100680911106992309F46A
:1008900049C09081982B98879081809589238F8378
:1008A0008F818C8388E08B8358856F8149853B815C
:1008B0002C8189819A81508347FD252F3A95208389
:1008C000262F39F0441F00C000006083000000C0E4
:1008D000F2CF38E04D9160830000019761F7F0930B
:1008E0001006E0930F0649873B832C839A83898304
:1008F00078940E94CA0360930B0670930C06809351
:100900000D0690930E0629960FB6F894DEBF0FBE23
:10091000CDBFDF91CF911F910F91FF90EF90DF90AE
:10092000CF9008959081982B988790818095892306
:100930008F838F818E8388E08D8358856F81498571
:100940003D812E8189819A81508347FD252F00C0EA
:1009500000C0208300C000C000C000C000C0608391
:100960000000262F3A9541F0441F000000C000C04F
:1009700000C000C000C0E8CF38E04D9100C06083E7
:1009800000C0019709F7F0931006E0930F0649871E
:100990003D832E83ABCF8F929F92AF92BF92CF9227
:1009A000DF92EF92FF924B015C010E94CA036B0140
:1009B0007C010E94CA036C197D098E099F09683E5B
:1009C000734081059105A8F321E0821A9108A108DE
:1009D000B10888EEC80E83E0D81EE11CF11C81141A
:1009E0009104A104B10429F7FF90EF90DF90CF901C
:1009F000BF90AF909F908F9008952FB7F89460911B
:100A0000FC027091FD028091FE029091FF022FBFC7
:100A10000895CF92DF92EF92FF92CF93DF930E94DF
:100A2000FD046B017C0184E98093BC00C0918D03BF
:100A3000D0918E038091BC0084FF1FC02097D1F31A
:100A40000E94FD04AB01BC014C195D096E097F09D0
:100A5000CE01B0E0A0E0481759076A077B0730F3E2
:100A60001092BC0084E48093BC0081E0DF91CF91C0
:100A7000FF90EF90DF90CF90089580E0F7CFCF9276
:100A8000DF92EF92FF92CF93DF938093BB000E949F
:100A9000FD046B017C0184E88093BC00C0918D0350
:100AA000D0918E038091BC0087FD20C02097D1F3A8
:100AB0000E94FD04AB01BC014C195D096E097F0960
:100AC000CE01B0E0A0E0481759076A077B0730F372
:100AD0001092BC0084E48093BC00C1E08C2FDF91B5
:100AE000CF91FF90EF90DF90CF9008958091B90063
:100AF000887F8831D9F08091B900887F8034B1F047
:100B0000C091B900C87F8091B900887F803259F0C8
:100B10008091B900887F883431F01092BC0084E461
:100B20008093BC00DBCF0E940905D8CFC0E0D6CFB0
:100B3000CF92DF92EF92FF92CF93DF930E94FD045A
:100B40006B017C0184EA8093BC00C0918D03D0913D
:100B50008E038091BC0087FD1FC02097D1F30E94B7
:100B6000FD04AB01BC014C195D096E097F09CE0182
:100B7000B0E0A0E0481759076A077B0730F31092EE
:100B8000BC0084E48093BC0081E0DF91CF91FF90B2
:100B9000EF90DF90CF9008958091B900887F8830E2
:100BA000B9F08091B900887F803191F08091B900CF
:100BB000887F883349F48091B900887F1092BC0007
:100BC00094E49093BC00E1CF8091B900887FDDCFA1
:100BD00080E0DBCFCF92DF92EF92FF92CF93DF9353
:100BE000C82F0E94FD046B017C0184ECC11101C07F
:100BF00084E88093BC00C0918D03D0918E038091D6
:100C0000BC0087FD1FC02097D1F30E94FD04AB01FB
:100C1000BC014C195D096E097F09CE01B0E0A0E06E
:100C2000481759076A077B0730F31092BC0084E429
:100C30008093BC0081E0DF91CF91FF90EF90DF9037
:100C4000CF9008958091B900887F883349F48091CE
:100C5000B900887F1092BC0094E49093BC00EBCF65
:100C60008091B900887FE7CF0F931F93CF93DF93D5
:100C7000C82FD62F10926A03611101C0D1E08FEF07
:100C80008D0F80936C0310926B030E9498058093E4
:100C90006B0381111CC08C2F880F8F5F0E943F0552
:100CA00080936B03882321F0813089F485E00FC0A5
:100CB0000DE613E0C0E080916C038C1325C080E04A
:100CC0000E94EA0580936B03813031F486E0DF9166
:100CD000CF911F910F9108958835C9F78091BB007E
:100CE000F80181938F01CF5FC0936A03C0936903BA
:100CF000DC13E1CF0E94090580936B03882339F34D
:100D0000813029F787E0E3CF81E00E94EA058093F4
:100D10006B038130D9F2803509F3D9CF20912D03AF
:100D200030912E03032E000C440B550B285E3340EC
:100D300041095109A8E1BCEF0E94D62728EE33E013
:100D400040E050E00E94A9272053384F4F4F5F4F9B
:100D500030933A03209339030895CF92DF92EF92B4
:100D6000FF920E94FD04C0900D03D0900E03E0900E
:100D70000F03F09010036C197D098E099F096436EA
:100D800071058105910528F528EC48EC68EC90E0A8
:100D900080E00E948C018CED95E09093300380936D
:100DA0002F03909332038093310322EF33E030938B
:100DB0003403209333039093360380933503909349
:100DC000380380933703FF90EF90DF90CF900C941F
:100DD000EF030E94FD046C197D098E099F0964369A
:100DE00071058105910578F00E94FD046C197D095B
:100DF0008E099F09683C71058105910520F420E06A
:100E000040E060E0C4CF0E94FD0460930D03709346
:100E10000E0380930F0390931003BDCF3F924F9228
:100E20005F926F927F928F929F92AF92BF92CF927A
:100E3000DF92EF92FF920F931F93CF93DF938091F6
:100E4000F00281110DC00E94CA036093EC027093FE
:100E5000ED028093EE029093EF0281E08093F00226
:100E60000E94CA030091EC021091ED022091EE0263
:100E70003091EF02601B710B820B930B0091D10438
:100E80001091D2042091D3043091D404061717078F
:100E90002807390710F41092D504C1E08091FA05B3
:100EA0009091FB05DC01ED91FC910084F185E02D32
:100EB0001995181619060CF06CC00E94CA036093AD
:100EC000EC027093ED028093EE029093EF0280911A
:100ED000FA059091FB05DC01ED91FC910284F3850C
:100EE000E02D19958093D7049091D504911116C0E7
:100EF0009091CD0489130FC09091D6042091CE0417
:100F0000921739F02091D00492232091CF049213AC
:100F100002C0C093D5048093D604C0CF993140F469
:100F2000E92FF0E0E753FB4F86879F5F9093D5044E
:100F30009091D504993179F79091CE04891739F0C1
:100F40009091D00489239091CF04891320C01092EE
:100F5000D5046091D8047091D904C090D904D12CE3
:100F60008090DA04D091DB04E090DC040091DD0491
:100F7000A090DE04C091DF043090E0048091EE0484
:100F80009091F0049823B9F41092000217C01092C7
:100F9000D504DF91CF911F910F91FF90EF90DF90DB
:100FA000CF90BF90AF909F908F907F906F905F9009
:100FB0004F903F90089591E0909300029091F1043A
:100FC000892309F435C181E080930202912CF12C30
:100FD00010E0B12C7770072E000C880B990B0E9443
:100FE000892623E333E343E35FE30E94E82620E01E
:100FF00030EC46E454E40E940D280E94EB289B014B
:10100000AC012B51344041095109A8EEB3E00E94D4
:10101000C82728E9422E23E0522E612C712CA3010F
:1010200092010E94A92728513C4F4F4F5F4F3093A8
:1010300044032093430333E0D594C7943A95E1F7F2
:10104000B40145E0660F771F4A95E1F76C297D29C9
:101050007770072E000C880B990B0E94892623E3DA
:1010600033E343E35FE30E94E82620E030EC46E40C
:1010700054E40E940D280E94EB289B01AC012B51E7
:10108000344041095109A8EEB3E00E94C827A301EA
:1010900092010E94A92728513C4F4F4F5F4F309338
:1010A000420320934103B4E0DB9FB0011124C70148
:1010B000982F8827990F990F682B792BE6E0959444
:1010C0008794EA95E1F7682979297770072E000C53
:1010D000880B990B0E94892623E333E343E35FE304
:1010E0000E94E82620E030EC46E454E40E940D28FB
:1010F0000E94EB289B01AC012B513440410951095E
:10110000A8EEB3E00E94C827A30192010E94A9277C
:1011100028513C4F4F4F5F4F3093400320933F0384
:10112000B701759567957801F694FE2CEE24F79437
:10113000E7946E297F297770072E000C880B990B96
:101140000E94892623E333E343E35FE30E94E8261A
:1011500020E030EC46E454E40E940D280E94EB2885
:101160009B01AC012B51344041095109A8EEB3E079
:101170000E94C827A30192010E94A92728513C4F31
:101180004F4F5F4F30933E0320933D03B801B4E0CF
:1011900075956795BA95E1F78501D4E0000F111FA9
:1011A000DA95E1F7602B712B7770072E000C880B16
:1011B000990B0E94892623E333E343E35FE30E9414
:1011C000E82620E030EC46E454E40E940D280E941A
:1011D000EB2870936803609367036C2F70E0660FD1
:1011E000771FC32DD0E0DC2FCC27DD0F6C2B7D2BA0
:1011F000AA0CAB2CAA1CBB086A297B297770072E86
:10120000000C880B990B0E94892623E333E343E308
:101210005FE30E94E82620E030EC46E454E40E94BC
:101220000D280E94EB2870932E0360932D03B1CEFE
:1012300010920202CBCECF93DF93EC01888199818B
:10124000009711F00E94D929198218821D821C82F0
:101250001B821A82DF91CF910895FC0180819181D8
:10126000009711F00C94D9290895CF93DF93FC01D6
:10127000248135816217730788F49B01C081D18175
:101280006BE370E0CE01820F931F0E944C2B0097FE
:1012900029F08C1B9D0BDF91CF9108958FEF9FEF6D
:1012A000FACFFC0124813581232B39F421E0FB01A5
:1012B0008081882349F020E007C0808191810E94CD
:1012C000572B21E0892BB9F7822F08950F931F9395
:1012D000CF93DF93EC0188819981009759F02A819F
:1012E0003B812617370730F081E0DF91CF911F91C6
:1012F0000F9108958B016F5F7F4F0E94622A0097C4
:1013000059F0998388831B830A832C813D81232B89
:1013100059F7FC011082E8CF80E0E7CFEF92FF920F
:101320000F931F93CF93DF93EC017B0119821882F7
:101330001B821A821D821C82FB0101900020E9F7AA
:1013400031978F01061B170BB8010E9466098111A6
:1013500009C0CE01DF91CF911F910F91FF90EF90C7
:101360000C941B091D830C83B70188819981DF913F
:10137000CF911F910F91FF90EF900C94602BEF9203
:10138000FF920F931F93CF93DF938C017B01EB01AF
:1013900009900020E9F72197C61BD70BBE010E94D8
:1013A0006609811109C0C801DF91CF911F910F918A
:1013B000FF90EF900C941B09F801D583C483B7010B
:1013C00080819181DF91CF911F910F91FF90EF90DC
:1013D0000C94602BAF92BF92CF92DF92EF92FF926C
:1013E0000F931F93CF93DF936C015B017A01890107
:1013F0002417350720F48F2D7901042F182F6CE165
:1014000072E0C6010E948E09D5011496CD91DC913F
:10141000EC16FD06E0F40C171D0708F4E801D501F1
:10142000ED91FC911197EC0FFD1F108110826D91D1
:101430007C916E0D7F1DC60161157105A1F00E94A2
:10144000BF09F50180819181C80FD91F1883C6019A
:10145000DF91CF911F910F91FF90EF90DF90CF9090
:10146000BF90AF9008950E941B09EBCF10926403C8
:1014700010924E0310924D0310920C03E8E0F3E03B
:1014800011821082138212826BE172E084E296E094
:101490000E94BF0910924C0310924B03109211034B
:1014A000E8E5F3E011821082138212826BE172E0B0
:1014B0008EE196E00E94BF0910924A031092490300
:1014C00010921703E4E5F3E0118210821382128276
:1014D0006BE172E088E196E00E94BF091092480338
:1014E0001092470310922C03E0E5F3E01182108282
:1014F000138212826BE172E082E196E00E94BF09E2
:10150000109246031092450310924F031092660307
:1015100010923C0310923B0310922303109222037B
:1015200010922103109220038AE590E090931F030C
:1015300080931E03E4E2F3E0118210821382128290
:1015400015821482178216828BE192E090931D031C
:1015500080931C0310921203109213031092140331
:10156000109215031092160320E040E060E082E044
:1015700090E00C948C018F929F92AF92BF92EF9269
:10158000FF920F931F93CF93DF93CDB7DEB7C05A6F
:10159000D1090FB6F894DEBF0FBECDBF182F092FAB
:1015A0000E94FD048090040390900503A090060320
:1015B000B0900703681979098A099B096436710597
:1015C0008105910508F41BC2CE0101967C0180E8DB
:1015D000F70111928A95E9F76CE172E0CE01875626
:1015E0009F4F0E948E09CD56DF4F19821882C35932
:1015F000D040CB56DF4F19821882C559D040C9560A
:10160000DF4F19821882C759D0404AE0BE016F5798
:101610007F4F812F902F0E94B924BE016F577F4FBB
:10162000CE018D569F4F0E94BF09C756DF4F88815C
:101630009981C959D040009709F47EC0CD56DF4F3B
:1016400068817981C359D0406115710509F472C070
:10165000C556DF4F48815981CB59D040C956DF4F1D
:1016600028813981C759D0404217530708F462C016
:101670000E94602BC956DF4F88819981C759D0409D
:10168000C356DF4F99838883CD59D040C956DF4F69
:1016900019821882C759D040CE018D569F4F0E94A3
:1016A0002D09C356DF4F88819981CD59D040892BB0
:1016B00009F073C0C156DF4F1882CF59D040109245
:1016C0006B030E94980580936B03811191C084E2A3
:1016D0000E943F0580936B0381118AC01093BB0069
:1016E0000E94FD044B015C0184E88093BC000091E2
:1016F0008D0310918E038091BC0087FD61C00115A0
:101700001105C9F30E94FD04AB01BC014819590938
:101710006A097B0930E020E0401751076207730730
:1017200030F31092BC0084E48093BC0081E080938D
:101730006B035EC00E94D929CD56DF4F8881998105
:10174000C359D040C756DF4F99838883C959D040C9
:10175000CB56DF4F88819981C559D040C556DF4FA0
:1017600099838883CB59D040C956DF4F88819981AE
:10177000C759D040C356DF4F99838883CD59D04095
:10178000CD56DF4F19821882C359D040CB56DF4F58
:1017900019821882C559D04079CFC756DF4F68816A
:1017A0007981C959D04041E050E0CE0181569F4F28
:1017B0000E94672BC056DF4F1882C05AD0407FCF9F
:1017C0008091B900887F883229F410926B030E94BF
:1017D0000905ADCF1091B900187F8091B900887FBD
:1017E0008033F1F50E94090510936B03112379F3FF
:1017F00062E082E10E94340680916A038230E9F55A
:101800000E947C01082F0E947C01182F61E070E08B
:1018100080E090E00E94CB04602F82E10E943406B9
:10182000012E000C220B330B40916A0350E070E054
:1018300060E00417150726073707C1F42FEF4FEFB5
:101840006FEF82E090E00E948C01870180916A0333
:101850008823D1F00E947C01F80181938F01F6CF9B
:101860001092BC0084E48093BC00BECF80916A03D8
:10187000882351F00E947C01F9CF20E040E06FEF17
:1018800082E090E00E948C01B701CE018D569F4FFF
:101890000E948E0970E060E0CE018D569F4F0E943D
:1018A00035097C019C0150E040E0BE016D567F4F40
:1018B000CE018F579F4F0E94EA09CF57DF4F888193
:1018C0009981C158D040009709F4ABC00E9492247E
:1018D0007093250360932403CE018F579F4F0E947E
:1018E0002D09FFEFEF1AFF0AB701CE018D569F4F6A
:1018F0000E9435098C019C01A701BE016D567F4FE6
:10190000CE018F579F4F0E94EA09CF57DF4F888142
:101910009981C158D040009709F487C00E948E2455
:101920000E94EB287093270360932603CE018F5704
:101930009F4F0E942D090F5F1F4FB801CE018D569A
:101940009F4F0E9435097C019C01A801BE016D5684
:101950007F4FCE018F579F4F0E94EA09CF57DF4F2D
:1019600088819981C158D040009709F462C00E94D3
:101970008E240E94EB287093290360932803CE01E4
:101980008F579F4F0E942D09C956DF4F28813981FB
:10199000C759D040A7014F5F5F4FBE016D567F4FC3
:1019A000CE018F579F4F0E94EA09CF57DF4F8881A2
:1019B0009981C158D040009709F43FC00E948E24FD
:1019C0000E94EB2870932B0360932A03CE018F575C
:1019D0009F4F0E942D090E94FD04609304037093A1
:1019E00005038093060390930703CE018D569F4F06
:1019F0000E942D09CE0187569F4F0E942D09C05687
:101A0000DF4F0FB6F894DEBF0FBECDBFDF91CF9191
:101A10001F910F91FF90EF90BF90AF909F908F908C
:101A2000089560E070E0CB0153CF60E070E0CB013F
:101A300077CF60E070E0CB019CCF60E070E0CB013D
:101A4000BFCF1F920F920FB60F9211240BB60F92B9
:101A50002F933F934F935F936F937F938F939F93B6
:101A6000AF93BF93EF93FF938CE294E00E945102F7
:101A7000FF91EF91BF91AF919F918F917F916F9166
:101A80005F914F913F912F910F900BBE0F900FBE22
:101A90000F901F9018951F920F920FB60F9211245E
:101AA0000BB60F922F938F939F93EF93FF93E09139
:101AB0003C04F0913D048081E0914204F0914304A4
:101AC00082FD1DC09081809145048F5F8F732091AE
:101AD0004604821741F0E0914504F0E0E45DFB4FDD
:101AE000958F80934504FF91EF919F918F912F9156
:101AF0000F900BBE0F900FBE0F901F901895808116
:101B0000F2CF1F920F920FB60F9211240BB60F92C5
:101B10002F933F934F935F936F937F938F939F93F5
:101B2000AF93BF93EF93FF938FE893E00E9451022E
:101B3000FF91EF91BF91AF919F918F917F916F91A5
:101B40005F914F913F912F910F900BBE0F900FBE61
:101B50000F901F9018951F920F920FB60F9211249D
:101B60000BB60F922F938F939F93EF93FF93E09178
:101B70009F03F091A0038081E091A503F091A6035B
:101B800082FD1DC090818091A8038F5F8F7320918B
:101B9000A903821741F0E091A803F0E0E157FC4F60
:101BA000958F8093A803FF91EF919F918F912F9133
:101BB0000F900BBE0F900FBE0F901F901895808155
:101BC000F2CF1F920F920FB60F9211242F933F93D3
:101BD0008F939F93AF93BF938091FC029091FD02EE
:101BE000A091FE02B091FF023091FB0223E0230F8F
:101BF0002D3758F50196A11DB11D2093FB0280934E
:101C0000FC029093FD02A093FE02B093FF0280912C
:101C1000000390910103A0910203B0910303019688
:101C2000A11DB11D8093000390930103A0930203B3
:101C3000B0930303BF91AF919F918F913F912F91EB
:101C40000F900FBE0F901F90189526E8230F029655
:101C5000A11DB11DD2CF1F920F920FB60F9211246A
:101C60000BB60F922F933F934F935F936F937F9396
:101C70008F939F93AF93BF93EF93FF931092850041
:101C800010928400809101028823F9F061E08DE1D7
:101C90000E940D0388E592E090938900809388006C
:101CA00010920102FF91EF91BF91AF919F918F919F
:101CB0007F916F915F914F913F912F910F900BBE4C
:101CC0000F900FBE0F901F90189560E08DE10E945D
:101CD0000D0391E0909301028091FA028630C0F0EA
:101CE0001092FA028091F8029091F902845D9E4F61
:101CF000919581959109880F991F805C93469093E7
:101D00008900809388001092F9021092F802CACFDD
:101D1000E82FF0E0EE0FFF1FE15DFC4F20813181E5
:101D20002C523140220F331F3093890020938800BA
:101D30002091F8023091F90240815181240F351F22
:101D40003093F9022093F8028F5F8093FA02909308
:101D50006503A8CF10922F0410922E0448EE53E092
:101D600060E070E04093300450933104609332049B
:101D7000709333048DE092E090932D0480932C04B3
:101D80002DEC30E030933904209338042CEC30E013
:101D900030933B0420933A0428EC30E030933D0428
:101DA00020933C0429EC30E030933F0420933E0420
:101DB0002AEC30E030934104209340042EEC30E0D4
:101DC0003093430420934204109245041092460439
:101DD00010924704109248041092920310929103BB
:101DE00040939303509394036093950370939603E9
:101DF0009093900380938F0385EC90E090939C03E5
:101E000080939B0384EC90E090939E0380939D03CA
:101E100080EC90E09093A00380939F0381EC90E08E
:101E20009093A2038093A10382EC90E09093A4038B
:101E30008093A30386EC90E09093A6038093A50380
:101E40001092A8031092A9031092AA031092AB0358
:101E50006BE172E084E296E00E948E096BE172E031
:101E60008EE196E00E948E096BE172E088E196E0D7
:101E70000E948E096BE172E082E196E00E948E0979
:101E80001092FD051092040610920B0610920C069B
:101E900010920D0610920E0681E080930A06809340
:101EA00007061092080692E0909309068093FC05BD
:101EB00089E090E090930106809300060E943D29FE
:101EC0009093060680930506009709F46CC029E0FC
:101ED000FC0111922A95E9F783E090E09093FF05C9
:101EE0008093FE0586E090E09093030680930206BF
:101EF0008091FD05882341F061E086E00E9499030E
:101F000060E086E00E940D03EDE4F2E0E491F0E091
:101F1000EE0FFF1FE35DFD4F8591949190931006A6
:101F200080930F06EDEEF1E0E491E093110680EA74
:101F300096E8A1E0B0E08093C9049093CA04A0930E
:101F4000CB04B093CC049FE09093CD041092CE04C8
:101F500084E08093CF049093D00448E55BE160E097
:101F600070E04093D1045093D2046093D3047093F3
:101F7000D4041092D6048093F00488E08093F10496
:101F80008FE890E09093F3048093F20488E797E061
:101F90009093F5048093F4048CE294E09093FB0515
:101FA0008093FA050895109201061092000610928F
:101FB000FF051092FE0596CF789484B5826084BDAB
:101FC00084B5816084BD85B5826085BD85B581603D
:101FD00085BD80916E00816080936E0010928100BB
:101FE0008091810082608093810080918100816076
:101FF0008093810080918000816080938000809137
:10200000B10084608093B1008091B00081608093C2
:10201000B000809191008260809391008091910046
:102020008160809391008091900081608093900006
:102030008091A10082608093A1008091A1008160C5
:102040008093A1008091A00081608093A000809186
:102050002101826080932101809121018160809320
:1020600021018091200181608093200180917A007C
:10207000846080937A0080917A00826080937A00F5
:1020800080917A00816080937A0080917A008068E4
:1020900080937A001092C10080910206909103060D
:1020A00097FD08C061E00E94990360E080910206FC
:1020B0000E940D0381E08093FD050E94EF03609173
:1020C0000406633329F1209105063091060661501C
:1020D000C9F070E08FEF92E30E942129F90140914D
:1020E000000650910106CF01821B930B84179507C0
:1020F00060F44081469FC001479F900D112490835A
:102100003196EDCF70E060E0E9CF83E38093040681
:10211000589A599A8091B9008E7F8093B900809126
:10212000B9008D7F8093B90088E48093B80084E47F
:102130008093BC00CCEDD5E0D0938E03C0938D038B
:102140008CE08093B80060E086E30E94990360E031
:1021500082E00E94990360E08DE00E949903D09391
:102160003003C0932F03D0933203C0933103D09335
:102170003603C0933503D0933803C093370388EEFA
:1021800093E0909334038093330384E398E0909337
:102190003A03809339030E94FD0460930403709313
:1021A000050380930603909307031092D5040091D2
:1021B000F4041091F504C091F204D091F304BE012F
:1021C00090E080E00E9487264B015C01B80190E01E
:1021D00080E00E948726A50194010E940C282B0113
:1021E0003C01AC019B0160E070E080E090E40E9463
:1021F00079286B017C0120E030E040E05FE3C3011F
:10220000B2010E94E826A50194010E940D28905871
:10221000A70196010E94E826E6EFF4E0A6E3B5E008
:1022200026E135E0C193D193178F068FCD92DD92D1
:10223000ED92FD92DC966D937D938D939C93DF9749
:102240002E173F0779F7C091FA05D091FB05C09092
:10225000C904D090CA04E090CB04F090CC0460E0B4
:1022600079E08DE390E0A70196010E94DB272150E1
:102270003109410951095695479537952795E889C0
:10228000F98982E08083C11441EED406E104F104AF
:1022900021F0211550E1350798F0E889F98910827D
:1022A00060E874E88EE190E0A70196010E94DB27C8
:1022B0002150310941095109569547953795279580
:1022C000EC85FD853083EE85FF852083188EEC89B3
:1022D000FD898EE28083EA89FB8980818061808329
:1022E000EA89FB89808188608083EA89FB89808113
:1022F00080688083EA89FB8980818F7D808361E0AB
:102300008DE10E94990360E08DE10E940D03F89435
:10231000109280001092810088E790E090938900ED
:1023200080938800809181008860809381008091F3
:10233000810082608093810080916F008260809331
:102340006F00789468EB7BE080E090E00E94CB0423
:10235000D0E0C0E020E040E06C2F90E080E00E9400
:102360008C010E94EF032196C11561E0D60791F719
:10237000D0E0C0E020E04C2F60E081E090E00E94DF
:102380008C010E94EF032196C11571E0D70791F7E8
:10239000D0E0C0E02C2F40E060E082E090E00E94BE
:1023A0008C010E94EF032196C11581E0D80791F7B7
:1023B00068EE73E080E090E00E94CB04D0E0C0E0E3
:1023C0002C2F4C2F6C2F90E080E00E948C012C2F42
:1023D0004C2F6C2F81E090E00E948C012C2F4C2F11
:1023E0006C2F82E090E00E948C010E94EF03219606
:1023F000C11591E0D90721F7CFEFD0E02C2F4C2F5A
:102400006C2F90E080E00E948C012C2F4C2F6C2FC1
:1024100081E090E00E948C012C2F4C2F6C2F82E0E9
:1024200090E00E948C010E94EF03219738F720E092
:1024300040E060E090E080E00E948C0120E040E01D
:1024400060E081E090E00E948C0120E040E060E0EC
:1024500082E090E00E948C010E94EF0320E040E0C7
:1024600060E090E080E00E948C010E94EF030E94F7
:10247000FD04CCEDD5E03EE7432E34E0532E42E29E
:10248000242E46E0342E50EA652E55E0752E08E1E4
:1024900016E00E940E078091020281110C942B24F9
:1024A00080916703909168038E34B3E09B070CF42E
:1024B00080C0813B23E092070CF042C020E04FEF48
:1024C00060E090E080E00E948C0180914303909155
:1024D00044039093300380932F03809141039091A4
:1024E0004203909332038093310380913F03909194
:1024F0004003909334038093330380913D03909184
:102500003E03909336038093350384E195E09093E6
:1025100038038093370380912D0390912E0390937D
:102520003A03809339030E94360A80916503882319
:1025300021F00E94EF03109265030E94E002A9CFF0
:10254000863B35E09307ACF1893146E0940764F5AA
:102550002FEF40E060E090E080E00E948C018091ED
:102560004303909144039093300380932F03809111
:102570004103909142039093320380933103809101
:102580003F039091400390933403809333038091F1
:102590003D0390913E039093360380933503509210
:1025A000380340923703B7CF8A519840833691055C
:1025B00028F080916603882309F4B7CF80916403E3
:1025C00081112DC00E94FD0460936003709361032C
:1025D000809362039093630310925F0310925E03F3
:1025E00010925D0310925C031092590310925803ED
:1025F00010925B0310925A031092550310925403E9
:1026000010925703109256031092510310925003E8
:10261000109253031092520381E0809364038091DF
:1026200064038823E9F180916603811139C00E9417
:10263000FD04C0906003D0906103E0906203F090CD
:1026400063036C197D098E099F09683E73408105FB
:10265000910598F080915E0390915F0301969093AD
:102660005F0380935E030E94FD0460936003709398
:102670006103809362039093630380915E03909162
:102680005F03CC976CF080915C0390915D030196A1
:1026900090935D0380935C0310925F0310925E033E
:1026A0000E940E078091660381110C94F423F09030
:1026B0004F0380914D0390914E03892B09F07DC308
:1026C000F1107BC380910C03811119C080915C03D0
:1026D00090915D03909309038093080380915E03BA
:1026E00090915F0390930B0380930A036BE172E078
:1026F00084E296E00E94BF0981E080930C03809100
:102700000C03882309F41FC36BE172E084E296E0B6
:102710000E945109882309F45AC020E044E664E687
:1027200090E080E00E948C0181E090E00E94BB0A72
:10273000D0933003C0932F03D0933203C09331035F
:1027400088EE93E09093340380933303D093360361
:10275000C0933503509238034092370384E398E0E6
:1027600090933A038093390360915C0370915D0309
:1027700040915E0350915F03ACE3A69FC001A79F09
:10278000900D1124840F951FE0910803F091090327
:10279000AE9F9001AF9F300D1124E0910A03F0919C
:1027A0000B032E0F3F1F821B930B06970CF4CBC21B
:1027B000709309036093080350930B0340930A033B
:1027C0006DE172E084E296E00E94BF09BCC26DE157
:1027D00072E084E296E00E945109882309F452C015
:1027E00024E640E064E690E080E00E948C0181E015
:1027F00090E00E94BB0AD0933003C0932F03D09384
:102800003203C093310388EE93E0909334038093B6
:10281000330380ED97E09093360380933503509215
:1028200038034092370360915C0370915D034091DF
:102830005E0350915F03ACE3A69FC001A79F900D7C
:102840001124840F951FE0910803F0910903AE9FB6
:102850009001AF9F300D1124E0910A03F0910B031A
:102860002E0F3F1F821B930B06970CF46CC27093C4
:1028700009036093080350930B0340930A0361E23A
:1028800072E0A0CF61E272E084E296E00E9451091A
:10289000882309F450C081E090E00E94BB0A24E63E
:1028A00040E060E090E080E00E948C01D093300333
:1028B000C0932F03D0933203C093310384E195E09A
:1028C0009093340380933303D0933603C09335033E
:1028D000509238034092370360915C0370915D031E
:1028E00040915E0350915F03ACE3A69FC001A79F98
:1028F000900D1124840F951FE0910803F0910903B6
:10290000AE9F9001AF9F300D1124E0910A03F0912A
:102910000B032E0F3F1F821B930B04970CF413C263
:10292000709309036093080350930B0340930A03C9
:102930006BE272E047CF6BE272E084E296E00E94C5
:102940005109882309F44EC081E090E00E94BB0A3F
:1029500024E644E664E690E080E00E948C01D09397
:102960003003C0932F03D0933203C0933103D0932D
:102970003403C0933303D0933603C093350350928E
:1029800038034092370360915C0370915D0340917E
:102990005E0350915F03ACE3A69FC001A79F900D1B
:1029A0001124840F951FE0910803F0910903AE9F55
:1029B0009001AF9F300D1124E0910A03F0910B03B9
:1029C0002E0F3F1F821B930B04970CF4BCC1709316
:1029D00009036093080350930B0340930A0365E3D4
:1029E00072E0F0CE65E372E084E296E00E94510965
:1029F000882309F4D8C00E94FD04C0900D03D09034
:102A00000E03E0900F03F09010036C197D098E09FE
:102A10009F09643671058105910508F06EC020E0BC
:102A200040E06FEF90E080E00E948C0181E090E058
:102A30000E94BB0A80912003909121038A31910565
:102A40000CF480C03092300320922F038091220337
:102A500090912303853191050CF483C030923203A9
:102A60002092310384EA96E09093340380933303F9
:102A700080911E0390911F0397FF82C08E5A9F4F33
:102A8000853A910508F08AC040E456E05093360339
:102A900040933503509238034092370360915C03B2
:102AA00070915D0340915E0350915F03ACE3A69F7C
:102AB000C001A79F900D1124840F951FE09108037A
:102AC000F0910903AE9F9001AF9F300D1124E0916A
:102AD0000A03F0910B032E0F3F1F821B930B0797E6
:102AE0000CF431C1709309036093080350930B03F6
:102AF00040930A036EE372E065CE0E94FD046C19F8
:102B00007D098E099F09643671058105910578F06C
:102B10000E94FD046C197D098E099F09683C7105AE
:102B20008105910520F420E040E060E07BCF0E9429
:102B3000FD0460930D0370930E0380930F03909335
:102B4000100374CF873E9F4F3CF486E995E0909345
:102B5000300380932F037ACFD0933003C0932F0399
:102B600075CF8C3E9F4F3CF426E935E0309332031D
:102B70002093310377CFD0933203C093310372CFC8
:102B8000009761F08E5A9F4F853A910538F468E7B7
:102B900075E070933603609335037CCFD093360392
:102BA000C093350377CF6EE372E084E296E00E9433
:102BB0005109882309F4AFC081E090E00E94BB0A6C
:102BC000C0902803D0902903D0922303C0922203FF
:102BD000A0902603B0902703B0922103A092200377
:102BE000E0902A03F0902B03F0921F03E0921E0363
:102BF00024E640E060E090E080E00E948C018EE0FE
:102C000096E07AE1A716B10444F487EEA8168FEF98
:102C1000B8060CF058C08AEA95E090933003809390
:102C20002F0395E1C916D1040CF452C08EE096E052
:102C30009093320380933103D0933403C0933303D2
:102C4000F7FE53C0BFE4EB0EF11C2FE9E216F104CE
:102C500008F05CC040E456E05093360340933503DF
:102C6000509238034092370360915C0370915D038A
:102C700040915E0350915F03ACE3A69FC001A79F04
:102C8000900D1124840F951FE0910803F091090322
:102C9000AE9F9001AF9F300D1124E0910A03F09197
:102CA0000B032E0F3F1F821B930B04970CF44BC09A
:102CB000709309036093080350930B0340930A0336
:102CC0006BE472E07FCDD0933003C0932F03A9CF84
:102CD000ACEECA16AFEFDA061CF48AEA95E0A8CF8C
:102CE000D0933203C0933103A7CFE114F10471F004
:102CF0005FE4E50EF11C6FE9E616F10438F488E7AD
:102D000095E09093360380933503AACFD093360392
:102D1000C0933503A5CF6BE472E084E296E00E9495
:102D20005109882381F020E040E060E090E080E0FD
:102D30000E948C0181E080934F03A1E0B0E0B0934A
:102D40004E03A0934D038091430390914403835815
:102D50009540833B9105E8F48091410390914203B3
:102D600083589540833B9105A0F480913F03909157
:102D7000400383589540833B910558F480913D036F
:102D800090913E0383589540833B910510F40C9439
:102D9000EE2380913B0390913C03019690933C037A
:102DA00080933B0380913B0390913C0303970CF489
:102DB000BCCB81E080936603B8CB80914B039091AC
:102DC0004C03892B09F065C2B1E0FB1262C280910D
:102DD000110381111AC080915C0390915D0390935F
:102DE00059038093580380915E0390915F03909301
:102DF0005B0380935A036BE172E08EE196E00E94E0
:102E0000BF09F09211030E94FD04809111038823F1
:102E100009F499CF6BE172E08EE196E00E945109CE
:102E2000882309F40EC182E090E00E94BB0A209141
:102E300028033091290330932303209322034091E8
:102E40002603509127035093210340932003809140
:102E50002A0390912B0390931F0380931E03453107
:102E600051050CF48CC040E456E05093300340937D
:102E70002F03E0902403F0902503B1E0EB16F1045A
:102E800009F099C0213131050CF488C01093320348
:102E900000933103D0933403C093330397FF92C060
:102EA0008E5A9F4F853A910508F098C010933603CB
:102EB0000093350350923803409237030E94FD047B
:102EC00080900D0390900E03A0900F03B09010031C
:102ED000681979098A099B09683C71058105910582
:102EE00008F08CC020E040E071E0E716F10409F43E
:102EF00083C082E0E816F10409F075C02FEF40E0CE
:102F000060E090E080E00E948C010E94EF036091FD
:102F10005C0370915D0340915E0350915F03ACE3ED
:102F2000A69FC001A79F900D1124840F951FE091CB
:102F30005803F0915903AE9F9001AF9F300D1124BB
:102F4000E0915A03F0915B032E0F3F1F821B930BFE
:102F5000893091053CF4EA94EF2809F0F4CE029709
:102F60000CF4F1CE709359036093580350935B03B4
:102F700040935A0360E572E08EE196E025CC4C3E2A
:102F80005F4F3CF4A8E7B5E0B0933003A0932F0364
:102F900070CFD0933003C0932F036BCF203F3F4FB0
:102FA0002CF4709232036092310374CFD0933203C9
:102FB000C09331036FCF68E775E07093320360937D
:102FC000310368CF009751F08E5A9F4F853A910593
:102FD00028F470923603609235036CCFD093360399
:102FE000C093350367CF20E04FEF93E0E916F1047B
:102FF00009F486CF2FEF4FEF6FEF83CF0E94FD04D0
:10300000681979098A099B09683C71058105910550
:1030100068F00E94FD04681979098A099B0920E07B
:103020006C3271408105910508F469CF0E94FD045E
:1030300060930D0370930E0380930F03909310031E
:1030400064CF60E572E08EE196E00E94510988232A
:1030500009F40CC183E090E00E94BB0A2091280390
:1030600030912903309323032093220340912603B8
:1030700050912703509321034093200380912A030A
:1030800090912B0390931F0380931E0345315105AC
:103090000CF452C01093300300932F0321313105FB
:1030A0000CF457C01093320300933103D0933403D0
:1030B000C093330397FF5AC08E5A9F4F853A9105AC
:1030C00008F062C0309236032092350350923803E4
:1030D000409237030E94FD0480900D0390900E03F0
:1030E000A0900F03B0901003E0902403F09025030C
:1030F000681979098A099B09683C71058105910560
:1031000008F047C020E091E0E916F10471F02FEFDC
:10311000A2E0EA16F10409F4A6C020E04FEFB3E004
:10312000EB16F10409F4A0C02FEF40E06FEF90E040
:1031300080E00E948C0143C04C3E5F4F2CF47092A3
:10314000300360922F03AACFD0933003C0932F0394
:10315000A5CF203F3F4F2CF4709232036092310391
:10316000A5CFD0933203C0933103A0CF009761F075
:103170008E5A9F4F853A910538F486E995E09093F1
:10318000360380933503A2CFD0933603C093350323
:103190009DCF0E94FD04681979098A099B09683C42
:1031A00071058105910508F051C00E94FD046093EE
:1031B0000D0370930E0380930F03909310030E94EE
:1031C000EF0360915C0370915D0340915E03509149
:1031D0005F03ACE3A69FC001A79F900D1124840F4D
:1031E000951FE0915803F0915903AE9F9001AF9F56
:1031F000300D1124E0915A03F0915B032E0F3F1F15
:10320000821B930B8531910554F4970122503109AB
:103210002230310508F097CD03970CF494CD7093CC
:1032200059036093580350935B0340935A038BE513
:1032300092E032E0E316F10411F08DE592E0909314
:103240001D0380931C036BE472E096CE0E94FD0484
:10325000681979098A099B096C32714081059105C9
:1032600008F0A3CF20E040E060E061CF6BE472E0C3
:103270008EE196E00E945109882309F464CD82E032
:1032800080934F0341E050E050934C0340934B0335
:103290005ACD8091490390914A03892B09F0A2C627
:1032A00052E0F5129FC680911703811119C08091D9
:1032B0005C0390915D039093550380935403809138
:1032C0005E0390915F0390935703809356036BE1E5
:1032D00072E088E196E00E94BF0981E080931703C5
:1032E00080911703882309F42ECD6BE172E088E109
:1032F00096E00E945109882309F4D3C084E090E04D
:103300000E94BB0A40912803509129035093230344
:1033100040932203809126039091270390932103E9
:103320008093200320912A0330912B0330931F03B5
:1033300020931E0380911C0390911D0362E08D3544
:10334000960709F077C0ACE8B5E0B0933003A093DE
:103350002F03403151050CF479C0A0E4B6E0B093DE
:103360003203A0933103D0933403C0933303121676
:1033700013060CF07AC0293031050CF47EC010938E
:103380003603009335035092380340923703E090A0
:103390002403F0902503E114F10409F073C020E048
:1033A0004FEF62E08D35960729F08B55924039F446
:1033B0002FEF40E060E090E080E00E948C010E94EE
:1033C000EF0360915C0370915D0340915E03509147
:1033D0005F03ACE3A69FC001A79F900D1124840F4B
:1033E000951FE0915403F0915503AE9F9001AF9F5C
:1033F000300D1124E0915603F09157032E0F3F1F1B
:10340000821B930B8730910544F4A7E0EA16F10480
:1034100009F099CC04970CF496CC70935503609303
:10342000540350935703409356036FE572E088E1CD
:1034300096E0CAC9B2E08B359B0709F084CF6CE2F5
:1034400076E07093300360932F0383CF413F5F4F4B
:103450003CF448E755E0509332034093310383CF67
:10346000D0933203C09331037ECF283F3F4F2CF4DB
:10347000709236036092350386CFD0933603C093A3
:10348000350381CF2FEF4FEF85E0E816F10439F0D7
:1034900097E0E916F10409F092CF20E040E06FEFE9
:1034A0008ACF6FE572E088E196E00E94BF098091C3
:1034B000180690911906892B09F085C06AE672E01A
:1034C00088E196E00E94510981115CC168E772E0D1
:1034D00088E196E00E945109882309F41AC285E028
:1034E00090E00E94BB0A8091280390912903909359
:1034F00023038093220320912603309127033093E6
:1035000021032093200380912A0390912B03909311
:103510001F0380931E03203131050CF4DCC110938E
:10352000300300932F0368E775E0709332036093D4
:103530003103D0933403C093330397FFD9C18E5A1C
:103540009F4F853A910508F0DFC110933603009331
:10355000350350923803409237032FEF40E06FEF6E
:1035600090E080E00E948C0160915C0370915D03AB
:1035700040915E0350915F03ACE3A69FC001A79FFB
:10358000900D1124840F951FE0915403F091550381
:10359000AE9F9001AF9F300D1124E0915603F09142
:1035A00057032E0F3F1F821B930B03970CF4CBCBBB
:1035B00070935503609354035093570340935603FD
:1035C00065E872E034CF84E090E00E94BB0A20916D
:1035D0002803309129033093230320932203E090A2
:1035E0002603F0902703F0922103E09220038091BC
:1035F0002A0390912B0390931F0380931E03C09086
:103600002403D0902503B7E0CB16D10409F089C07C
:1036100040911C0350911D0362E04D35560709F09F
:1036200075C0ACE8B5E0B0933003A0932F03203110
:1036300031050CF47BC060E476E070933203609354
:103640003103D0933403C0933303181619060CF0DA
:103650007CC009970CF481C01093360300933503A6
:103660005092380340923703C114D10409F081C04D
:1036700080911C0390911D0322E08D35920709F083
:1036800071C020E04FEF60E090E080E00E948C018C
:103690000E94EF0355E0C516D10409F054CB6091A8
:1036A0005C0370915D0340915E0350915F03ACE356
:1036B000A69FC001A79F900D1124840F951FE09134
:1036C0005403F0915503AE9F9001AF9F300D11242C
:1036D000E0915603F09157032E0F3F1F821B930B6F
:1036E00006970CF430CB84E0E80EF11C99E0E91663
:1036F000F10408F028CB7093550360935403509362
:103700005703409356036AE672E091CE4B55524000
:1037100009F087CF4CE256E05093300340932F03DB
:1037200086CFD0933003C0932F0381CF213F3F4FEB
:103730003CF4A8E7B5E0B0933203A093310381CF06
:10374000D0933203C09331037CCF883F9F4F2CF43A
:10375000709236036092350383CFD0933603C093C3
:1037600035037ECF8B55924009F092CF2FEF40E08A
:103770008ACF45E0C416D10409F08ACF2FEF4FEF6E
:103780006FEF82CF84E090E00E94BB0A2091280373
:103790003091290330932303209322034091260381
:1037A00050912703509321034093200380912A03D3
:1037B00090912B0390931F0380931E034531510575
:1037C0000CF462C01093300300932F0321313105B4
:1037D0000CF467C01093320300933103D093340389
:1037E000C0933303181619060CF068C00B970CF43D
:1037F0006DC0109336030093350350923803409206
:103800003703809124039091250320E040E060E09D
:10381000009729F0059739F42FEF4FEF6FEF90E005
:1038200080E00E948C010E94EF0360915C03709124
:103830005D0340915E0350915F03ACE3A69FC0011E
:10384000A79F900D1124840F951FE0915403F091D0
:103850005503AE9F9001AF9F300D1124E0915603A8
:10386000F09157032E0F3F1F821B930B02970CF40E
:103870006ACA70935503609354035093570340935F
:10388000560368E772E0D3CD4C3E5F4F2CF4709244
:10389000300360922F039ACFD0933003C0932F034D
:1038A00095CF203F3F4F2CF470923203609231034A
:1038B00095CFD0933203C093310390CF863F9F4F73
:1038C0002CF4709236036092350397CFD093360371
:1038D000C093350392CF213F3F4F2CF470923003B9
:1038E00060922F0320CED0933003C0932F031BCEC2
:1038F000009751F08E5A9F4F853A910528F47092A7
:1039000036036092350325CED0933603C09335033A
:1039100020CE65E872E088E196E00E945109882394
:1039200009F4F8C080911C0390911D0372E08B355F
:10393000970709F0AFC02FEF40E060E090E080E033
:103940000E948C0188E490E00E94BB0A80912803C9
:1039500090912903909323038093220320912603BF
:1039600030912703309321032093200380912A0371
:1039700090912B0390931F0380931E032B303105EE
:103980000CF495C03092300320922F0348E755E0A5
:103990005093320340933103D0933403C0933303E5
:1039A00097FF94C08E5A9F4F853A910508F09AC0B0
:1039B0001093360300933503509238034092370337
:1039C000E0902403F0902503E114F10409F08FC086
:1039D00020E040E060E090E080E00E948C01809177
:1039E0005C0390915D036CE3689F9001699F300DCB
:1039F000112480915E0390915F03820F931F409189
:103A0000540350915503649F9001659F300D11241C
:103A10004091560350915703240F351F821B930B7F
:103A20000B970CF070C060915C0370915D03409146
:103A30005E0350915F03ACE3A69FC001A79F900D6A
:103A40001124840F951FE0915403F0915503AE9F0C
:103A50009001AF9F300D1124E0915603F091570370
:103A60002E0F3F1F821B930B8531910544F4A5E077
:103A7000EA16F10409F067C904970CF464C970935D
:103A8000550360935403509357034093560362E9E0
:103A900072E0CDCC8D55924039F420E04FEF60E0DC
:103AA00090E080E00E948C0189E490E04DCF263FB9
:103AB0003F4F3CF426E935E03093300320932F0349
:103AC00065CFD0933003C0932F0360CF009751F0A0
:103AD0008E5A9F4F853A910528F470923603609272
:103AE00035036ACFD0933603C093350365CF55E0D5
:103AF000E516F10409F073CF20E04FEF60E090E0AD
:103B000080E00E948C0188EE93E090933A038093CA
:103B1000390389CF62E972E088E196E00E94510999
:103B2000882309F4B2C086E090E00E94BB0AE090CE
:103B30002803F0902903F0922303E09222032091BE
:103B40002603309127033093210320932003809193
:103B50002A0390912B0390931F0380931E0320311F
:103B600031050CF472C03092300320922F0348E7E5
:103B700055E05093320340933103D0933403C09304
:103B8000330397FF71C08E5A9F4F853A910508F015
:103B900077C0109336030093350350923803409258
:103BA0003703C0902403D090250320E040E060E07C
:103BB000C114D10439F055E0C516D10439F42FEF02
:103BC0004FEF6FEF90E080E00E948C0160915C030A
:103BD00070915D0340915E0350915F03ACE3A69F3B
:103BE000C001A79F900D1124840F951FE0915403ED
:103BF000F0915503AE9F9001AF9F300D1124E091DD
:103C00005603F09157032E0F3F1F821B930B8031F9
:103C1000910584F4A5E0CA16D10409F094C8BBE06C
:103C2000EB0EF11C27E1E216F10408F08CC80497B2
:103C30000CF489C870935503609354035093570351
:103C4000409356036EE972E0F2CB213F3F4F3CF4C4
:103C500026E935E03093300320932F0388CFD093AB
:103C60003003C0932F0383CF009751F08E5A9F4F9C
:103C7000853A910528F470923603609235038DCF12
:103C8000D0933603C093350388CF6EE972E088E1A4
:103C900096E00E945109882309F4A6C086E090E0CE
:103CA0000E94BB0A209128033091290330932303FB
:103CB0002093220340912603509127035093210320
:103CC0004093200380912A0390912B0390931F032C
:103CD00080931E03403151050CF459C010933003FA
:103CE00000932F032D3031050CF45EC01093320386
:103CF00000933103D0933403C093330397FF61C023
:103D00008E5A9F4F853A910508F069C0309236036C
:103D100020923503509238034092370324E64FEF48
:103D200064E690E080E00E948C010E94EF036091C5
:103D30005C0370915D0340915E0350915F03ACE3BF
:103D4000A69FC001A79F900D1124840F951FE0919D
:103D50005403F0915503AE9F9001AF9F300D112495
:103D6000E0915603F09157032E0F3F1F821B930BD8
:103D7000049714F40C94A3167093550360935403A2
:103D800050935703409356036CEA72E050CB413F87
:103D90005F4F2CF47092300360922F03A3CFD09327
:103DA0003003C0932F039ECF243F3F4F2CF47092DB
:103DB0003203609231039ECFD0933203C09331031C
:103DC00099CF009761F08E5A9F4F853A910538F44C
:103DD00086E995E090933603809335039BCFD0938B
:103DE0003603C093350396CF6CEA72E088E196E023
:103DF0000E945109882309F4E0C088E090E00E9405
:103E0000BB0AC0902803D0902903D0922303C0920C
:103E1000220380912603909127039093210380939E
:103E20002003E0902A03F0902B03F0921F03E0920E
:103E30001E0380911C0390911D03A2E08B359A070D
:103E400009F08EC02FEF40E060E090E080E00E943B
:103E50008C0126E935E03093300320932F0340E1B5
:103E6000C416D1040CF48BC01093320300933103B9
:103E7000D0933403C09333031E141F040CF08EC080
:103E80006BE0E616F1040CF493C010933603009334
:103E9000350350923803409237032FEF40E06FEF25
:103EA00090E080E00E948C01809124039091250392
:103EB000059751F40E94FD0460931303709314035B
:103EC0008093150390931603109212030E94FD0431
:103ED000C0901303D0901403E0901503F0901603E4
:103EE0006C197D098E099F096D3B72408105910512
:103EF00018F081E08093120360915C0370915D0380
:103F000040915E0350915F03ACE3A69FC001A79F61
:103F1000900D1124840F951FE0915403F0915503E7
:103F2000AE9F9001AF9F300D1124E0915603F091A8
:103F300057032E0F3F1F821B930B089734F4809179
:103F40001203882311F40C94A31670935503609305
:103F5000540350935703409356036BE472E067CACF
:103F60008D55924039F420E04FEF60E090E080E022
:103F70000E948C013092300320922F0370CF51EFBA
:103F8000C5165FEFD5062CF47092320360923103B0
:103F90006FCFD0933203C09331036ACF76EFE71629
:103FA0007FEFF7062CF4709236036092350371CFE1
:103FB000D0933603C09335036CCF6BE472E088E195
:103FC00096E00E945109882311F40C94A31683E013
:103FD00080934F0321E030E030934A03209349035C
:103FE0000C94A3168091470390914803892B09F004
:103FF000E5C333E0F312E2C380912C03811119C0B1
:1040000080915C0390915D039093510380935003E2
:1040100080915E0390915F039093530380935203CA
:104020006BE172E082E196E00E94BF0981E080933B
:104030002C0380912C03882311F40C94A3166BE1BC
:1040400072E082E196E00E945109882309F41AC1C6
:1040500088E090E00E94BB0AE0902803F0902903DA
:10406000F0922303E0922203A0902603B09027034E
:10407000B0922103A0922003C0902A03D0902B037A
:10408000D0921F03C0921E038090240390902503BA
:1040900045E08416910409F4B8C080911C03909106
:1040A0001D0352E08B35950709F097C02FEF40E0D4
:1040B00060E090E080E00E948C0168E775E070931A
:1040C000300360932F0330E1E316F1040CF4BCC01D
:1040D0001093320300933103D0933403C09333031E
:1040E0001C141D040CF0BFC05BE0C516D1040CF419
:1040F000C4C01093360300933503509238034092A6
:10410000370375E08716910471F48EE0E80EF11C18
:104110009DE1E916F10438F4809120039091210388
:104120000B96479750F00E94FD046093180370931C
:10413000190380931A0390931B030E94FD04E091DE
:104140005C03F0915D0340915E0350915F032CE3AB
:10415000D22EDE9E9001DF9E300D11247901E40EF7
:10416000F51E2091500330915103D29ED001D39E71
:10417000B00D112420915203309153032A0F3B1F9D
:10418000D701A21BB30B9D011B97E4F48090180389
:1041900090901903A0901A03B0901B036B017C014F
:1041A000C818D908EA08FB08BDE2CB16B1E0DB0667
:1041B000E104F10410F40C94A3162330310514F437
:1041C0000C94A316F0935103E093500350935303C0
:1041D000409352036BEB72E0D6C08D55924071F460
:1041E00020E04FEF60E090E080E00E948C0180E4EE
:1041F00096E09093300380932F0365CFA0E4B6E060
:10420000B0933003A0932F035ECF20E04FEF60E028
:1042100090E080E00E948C01B3E1AB16B1042CF079
:104220001093300300932F034ECF2EEEA2162FEFE4
:10423000B2062CF47092300360922F0344CFD093D7
:104240003003C0932F033FCF41EFE4164FEFF40646
:104250002CF470923203609231033ECFD09332033C
:10426000C093310339CF66EFC6166FEFD6062CF434
:10427000709236036092350340CFD0933603C093DB
:1042800035033BCF6BEB72E082E196E00E9451096F
:10429000882309F4A9C086E090E00E94BB0A20911F
:1042A0002803309129033093230320932203409164
:1042B00026035091270350932103409320038091BC
:1042C0002A0390912B0390931F0380931E03433185
:1042D00051050CF45CC01093300300932F03203180
:1042E00031050CF461C01093320300933103D09375
:1042F0003403C093330397FF64C08E5A9F4F853AAF
:10430000910508F06CC0309236032092350350922C
:1043100038034092370324E64FEF64E690E080E0F4
:104320000E948C010E94EF0360915C0370915D0319
:1043300040915E0350915F03ACE3A69FC001A79F2D
:10434000900D1124840F951FE0915003F0915103BB
:10435000AE9F9001AF9F300D1124E0915203F09178
:1043600053032E0F3F1F821B930B039714F40C94DF
:10437000A3167093510360935003509353034093DB
:10438000520369EC72E082E196E00C94E4134E3E35
:104390005F4F2CF47092300360922F03A0CFD09324
:1043A0003003C0932F039BCF213F3F4F2CF47092DB
:1043B0003203609231039BCFD0933203C093310319
:1043C00096CF009761F08E5A9F4F853A910538F449
:1043D00086E995E0909336038093350398CFD09388
:1043E0003603C093350393CF69EC72E082E196E027
:1043F0000E945109882309F4A0C085E090E00E9442
:10440000BB0A809128039091290390932303809302
:104410002203209126033091270330932103209318
:10442000200380912A0390912B0390931F03809384
:104430001E03203131050CF460C01093300300934B
:104440002F0320E436E03093320320933103D093DE
:104450003403C093330397FF5DC08E5A9F4F853A54
:10446000910508F065C030923603209235035092D2
:104470003803409237032FEF40E06FEF90E080E089
:104480000E948C0160915C0370915D0340915E031A
:1044900050915F03ACE3A69FC001A79F900D11242C
:1044A000840F951FE0915003F0915103AE9F90014E
:1044B000AF9F300D1124E0915203F09153032E0F62
:1044C0003F1F821B930B8430910564F420912403D9
:1044D00030912503232B11F00C94A316029714F4AA
:1044E0000C94A3167093510360935003509353039D
:1044F0004093520367ED72E046CF213F3F4F2CF4CB
:104500007092300360922F039CCFD0933003C093FE
:104510002F0397CF009761F08E5A9F4F853A9105F0
:1045200038F446E955E050933603409335039FCF66
:10453000D0933603C09335039ACF67ED72E082E1E2
:1045400096E00E945109882309F497C089E090E021
:104550000E94BB0A80912803909129039093230322
:104560008093220320912603309127033093210367
:104570002093200380912A0390912B0390931F0393
:1045800080931E03233131050CF455C03092300363
:1045900020922F03A6E3B6E0B0933203A093310339
:1045A000D0933403C093330397FF54C08E5A9F4F68
:1045B000853A910508F05CC03092360320923503AD
:1045C000509238034092370322E34FEF62E390E0CA
:1045D00080E00E948C0160915C0370915D034091CA
:1045E0005E0350915F03ACE3A69FC001A79F900DAF
:1045F0001124840F951FE0915003F0915103AE9F59
:104600009001AF9F300D1124E0915203F0915303BC
:104610002E0F3F1F821B930B0B9744F480912403B2
:1046200090912503019711F00C94A31670935103F8
:1046300060935003CBCD2E3E3F4F3CF466E975E0CE
:104640007093300360932F03A5CFD0933003C093B2
:104650002F03A0CF009761F08E5A9F4F853A9105A6
:1046600038F426E935E03093360320933503A8CF9C
:10467000D0933603C0933503A3CF60EE72E082E19E
:1046800096E00E945109882309F483C08BE090E0F2
:104690000E94BB0A80911C0390911D0332E08D356E
:1046A000930709F057C020E04FEF60E090E080E012
:1046B0000E948C0140E456E05093300340932F0356
:1046C000AEE5B6E0B0933203A0933103D093340348
:1046D000C0933303D0933603C0933503509238030D
:1046E000409237030E94EF0360915C0370915D0379
:1046F00040915E0350915F03ACE3A69FC001A79F6A
:10470000900D1124840F951FE0915003F0915103F7
:10471000AE9F9001AF9F300D1124E0915203F091B4
:1047200053032E0F3F1F821B930B049744F4809179
:10473000240390912503019711F00C94A316709314
:1047400051036093500350935303409352036BE41F
:1047500072E019CE8B55924071F42FEF40E060E08B
:1047600090E080E00E948C0168E775E07093300370
:1047700060932F03A5CF20E040E06FEF90E080E052
:104780000E948C0180E496E09093300380932F0385
:1047900097CF6BE472E082E196E00E945109882392
:1047A00011F40C94A31684E080934F0321E030E0D1
:1047B00030934803209347030C94A316809145033C
:1047C00090914603892B11F00C94A31634E0F31258
:1047D0000C94A3160E94AD060C94A31610923C03F1
:1047E00010923B030C94D21620E040E06FEF90E073
:1047F00080E00E948C018091430390914403909348
:10480000300380932F038091410390914203909352
:1048100032038093310380913F0390914003909342
:1048200034038093330380913D0390913E03909332
:1048300036038093350348E755E05093380340939F
:10484000370380912D0390912E0390933A03809328
:1048500039030C9495120E94AD060C949512CF93D7
:10486000DF938091B6059091B705892BC1F0D0E018
:10487000C0E0E091B605F091B705EC0FFD1F808117
:104880009181009711F00E94D9292296C032D1055A
:1048900081F78091B6059091B7050E94D929809142
:1048A000B8059091B905892BC1F0D0E0C0E0E09146
:1048B000B805F091B905EC0FFD1F8081918100973B
:1048C00011F00E94D9292296C032D10581F780913A
:1048D000B8059091B9050E94D9298091050690915B
:1048E00006060E94D929809102069091030697FD41
:1048F00003C060E00E94990382E196E00E942D09C6
:1049000088E196E00E942D098EE196E00E942D0933
:1049100084E296E0DF91CF910C942D0966277727EA
:104920000C94F3241F93FC0199278827BC01E89479
:1049300011911032E9F3193010F01E30C8F31B3218
:1049400051F01D3249F4689406C00E94C424610FDE
:10495000711D811D911D119110531A30B0F33EF459
:1049600090958095709561957F4F8F4F9F4F1F91C8
:104970000895BB274A3031F4992322F4BDE2909583
:1049800081959F4F0C94DA24592F482F372F262FCB
:10499000660F771F881F991F660F771F881F991F43
:1049A000620F731F841F951F660F771F881F991F43
:1049B0000895BB27FB015527AA27880F991FAA1F17
:1049C000A41710F0A41B83955051B9F7A05DAA332A
:1049D00008F0A95DA193009779F7B111B1931192F5
:1049E000CB010C9472268F929F92AF92BF92CF927E
:1049F000DF92EF92FF920F931F93CF93DF935C01AF
:104A00007B016115710519F0DB018D939C93850184
:104A10000F5F1F4FF501D0818D2F90E00E9451262E
:104A20006C01892BB9F5DD32B9F50F5F1F4FD50148
:104A30001196DC91C1E05801F1E0AF1AB10843E0F2
:104A400050E064E571E0C5010E945A26892B69F5A2
:104A5000680182E0C80ED11C45E050E06FE471E0CF
:104A6000C6010E945A26892B21F4680197E0C90EDD
:104A7000D11CE114F10419F0D701CD92DC9260E071
:104A800070E080E89FEFC111FFC060E070E080E857
:104A90009FE7FAC05801BBCFDB3229F485010E5FD6
:104AA0001F4FF501D181C0E0C6CF43E050E06CE478
:104AB00071E0C5010E945A26892BE9F0F80110E047
:104AC00000E020E030E0A9015F01B0ED8B2E8D0EFB
:104AD00089E08815C8F19C2E689491F88C2F887015
:104AE000C2FF16C0811102C00F5F1F4F3196D50162
:104AF000DC91C92DE9CFE114F10429F00E5F1F4FBD
:104B0000F7011183008360E070E080EC9FE7BCC098
:104B1000882311F001501109A5E0B0E00E94C827D8
:104B20009B01AC01220F331F441F551F280D311D5F
:104B3000411D511D283999E93907490799E159075C
:104B4000A8F2C6609C2ED2CFAEEF8A1206C0C3FD7B
:104B50003CC09C2E689493F8C9CFDF7DD534A9F56D
:104B600080818D3239F4C061DF011296818162E06B
:104B700070E006C0DF018B32C1F3119661E070E096
:104B800080535D01A61AB70A8A30F8F4E0E8CE1621
:104B9000ECE0DE065CF4B601660F771F660F771F48
:104BA000C60ED71ECC0CDD1CC80ED11C5D01FFEF5C
:104BB000AF1ABF0A8C9180538A30A8F1C4FF03C09A
:104BC000D194C194D1080C0D1D1DC1FF09C0E11481
:104BD000F10431F081E0A81AB108D701AD92BC927E
:104BE000CA01B9010E948726C370C33009F49058E6
:104BF0004B015C0120E030E0A9010E94822688235D
:104C000009F440C0C3E8D1E017FF05C01195019534
:104C10001109CBE6D1E06E01B8E1CB1AD10880E2F0
:104C2000E82EF12C0FC0D501B1CFFE0125913591B1
:104C3000459154910E191F09C501B4010E94E8263F
:104C40004B015C01D501C4010E151F0574F72497B3
:104C5000F594E794CC16DD06A9F78A2F880F8B2FE1
:104C6000881F8F3F49F020E030E0A901C501B40161
:104C70000E948226811106C082E290E090932B066A
:104C800080932A06C501B401DF91CF911F910F9146
:104C9000FF90EF90DF90CF90BF90AF909F908F905C
:104CA000089591110C945527803219F08950855040
:104CB000C8F70895FB01DC014150504088F08D9108
:104CC00081341CF08B350CF4805E659161341CF0EE
:104CD0006B350CF4605E861B611171F3990B0895BE
:104CE000881BFCCFDC01FC01672F71917723E1F772
:104CF000329704C07C916D9370836291AE17BF07A9
:104D0000C8F308950E94C42608F481E00895E89449
:104D100009C097FB3EF490958095709561957F4F03
:104D20008F4F9F4F9923A9F0F92F96E9BB279395B1
:104D3000F695879577956795B795F111F8CFFAF4C1
:104D4000BB0F11F460FF1BC06F5F7F4F8F4F9F4FF2
:104D500016C0882311F096E911C0772321F09EE850
:104D6000872F762F05C0662371F096E8862F70E0B6
:104D700060E02AF09A95660F771F881FDAF7880F90
:104D80009695879597F90895990F0008550FAA0BE6
:104D9000E0E8FEEF16161706E807F907C0F012164E
:104DA0001306E407F50798F0621B730B840B950B51
:104DB00039F40A2661F0232B242B252B21F40895A6
:104DC0000A2609F4A140A6958FEF811D811D089543
:104DD0000E94FB260C946F270E94612738F00E94E6
:104DE000682720F0952311F00C9458270C945E2727
:104DF00011240C94A3270E94802770F3959FC1F380
:104E0000950F50E0551F629FF001729FBB27F00D78
:104E1000B11D639FAA27F00DB11DAA1F649F6627CD
:104E2000B00DA11D661F829F2227B00DA11D621F1C
:104E3000739FB00DA11D621F839FA00D611D221FD6
:104E4000749F3327A00D611D231F849F600D211DBA
:104E5000822F762F6A2F11249F5750409AF0F1F03D
:104E600088234AF0EE0FFF1FBB1F661F771F881FA6
:104E700091505040A9F79E3F510580F00C9458275F
:104E80000C94A3275F3FE4F3983ED4F3869577957F
:104E90006795B795F795E7959F5FC1F7FE2B880F4C
:104EA000911D9695879597F90895992788270895D4
:104EB00097F99F6780E870E060E008959FEF80ECCD
:104EC000089500240A941616170618060906089570
:104ED00000240A9412161306140605060895092ED6
:104EE0000394000C11F4882352F0BB0F40F4BF2B45
:104EF00011F460FF04C06F5F7F4F8F4F9F4F089585
:104F000057FD9058440F551F59F05F3F71F047957A
:104F1000880F97FB991F61F09F3F79F0879508955F
:104F2000121613061406551FF2CF4695F1DF08C07E
:104F3000161617061806991FF1CF8695710561059B
:104F400008940895E894BB2766277727CB0197F943
:104F50000895052E97FB1EF400940E94C02757FD6C
:104F600007D00E94DB2707FC03D04EF40C94C02727
:104F700050954095309521953F4F4F4F5F4F089585
:104F800090958095709561957F4F8F4F9F4F0895B5
:104F90000E94FD27A59F900DB49F900DA49F800DAA
:104FA000911D11240895B7FF0C94C8270E94C827AB
:104FB000821B930B0895A1E21A2EAA1BBB1BFD01B5
:104FC0000DC0AA1FBB1FEE1FFF1FA217B307E407E8
:104FD000F50720F0A21BB30BE40BF50B661F771F40
:104FE000881F991F1A9469F7609570958095909520
:104FF0009B01AC01BD01CF010895A29FB001B39FF9
:10500000C001A39F700D811D1124911DB29F700DD1
:10501000811D1124911D08955058BB27AA270E9475
:1050200024280C946F270E94612738F00E9468277B
:1050300020F039F49F3F19F426F40C945E270EF407
:10504000E095E7FB0C945827E92F0E94802758F33E
:10505000BA17620773078407950720F079F4A6F55D
:105060000C94A2270EF4E0950B2EBA2FA02D0B0165
:10507000B90190010C01CA01A0011124FF27591B9D
:1050800099F0593F50F4503E68F11A16F040A22FA3
:10509000232F342F4427585FF3CF46953795279514
:1050A000A795F0405395C9F77EF41F16BA0B620B13
:1050B000730B840BBAF09150A1F0FF0FBB1F661F5A
:1050C000771F881FC2F70EC0BA0F621F731F841F9D
:1050D00048F4879577956795B795F7959E3F08F0C3
:1050E000B0CF9395880F08F09927EE0F9795879585
:1050F00008950E948D280C946F270E94682758F00D
:105100000E94612740F029F45F3F29F00C94582752
:1051100051110C94A3270C945E270E94802768F3FA
:105120009923B1F3552391F3951B550BBB27AA2760
:1051300062177307840738F09F5F5F4F220F331F9A
:10514000441FAA1FA9F335D00E2E3AF0E0E832D062
:1051500091505040E695001CCAF72BD0FE2F29D065
:10516000660F771F881FBB1F261737074807AB0737
:10517000B0E809F0BB0B802DBF01FF2793585F4FAC
:105180003AF09E3F510578F00C9458270C94A327D1
:105190005F3FE4F3983ED4F3869577956795B7958E
:1051A000F7959F5FC9F7880F911D9695879597F999
:1051B0000895E1E0660F771F881FBB1F6217730712
:1051C0008407BA0720F0621B730B840BBA0BEE1F27
:1051D00088F7E09508950E94F2286894B1110C9424
:1051E000A32708950E94882788F09F5798F0B92F29
:1051F0009927B751B0F0E1F0660F771F881F991F0C
:105200001AF0BA95C9F714C0B13091F00E94A227E4
:10521000B1E008950C94A227672F782F8827B85FF4
:1052200039F0B93FCCF3869577956795B395D9F763
:105230003EF490958095709561957F4F8F4F9F4F6D
:105240000895AA1BBB1B51E107C0AA1FBB1FA617CD
:10525000B70710F0A61BB70B881F991F5A95A9F71F
:1052600080959095BC01CD010895EE0FFF1F881F1A
:105270008BBF0790F691E02D19940F931F93CF9356
:10528000DF938230910510F482E090E0E0912E06E9
:10529000F0912F0630E020E0B0E0A0E0309799F4E4
:1052A0002115310509F44AC0281B390B243031057A
:1052B000D8F58A819B816115710589F1FB01938382
:1052C0008283FE0111C04081518102811381481700
:1052D0005907E0F04817590799F4109761F01296B2
:1052E0000C93129713961C933296CF01DF91CF91B6
:1052F0001F910F91089500932E0610932F06F4CF5F
:105300002115310551F04217530738F0A901DB018F
:105310009A01BD01DF01F801C1CFEF01F9CF9093F0
:105320002F0680932E06CDCFFE01E20FF31F81934F
:1053300091932250310939832883D7CF20912C06AD
:1053400030912D06232B41F4209105023091060265
:1053500030932D0620932C062091030230910402F5
:105360002115310541F42DB73EB740910702509108
:105370000802241B350BE0912C06F0912D06E21754
:10538000F307A0F42E1B3F0B2817390778F0AC0168
:105390004E5F5F4F2417350748F04E0F5F1F509345
:1053A0002D0640932C06819391939FCFF0E0E0E08F
:1053B0009CCFCF93DF930097E9F0FC0132971382E3
:1053C0001282A0912E06B0912F06ED0130E020E070
:1053D0001097A1F420813181820F931F20912C0618
:1053E00030912D062817390709F061C0F0932D067A
:1053F000E0932C06DF91CF910895EA01CE17DF07E5
:10540000E8F54A815B819E0141155105B1F7E9013B
:10541000FB83EA8349915991C40FD51FEC17FD070F
:1054200061F4808191810296840F951FE90199832F
:105430008883828193819B838A83F0E0E0E01296E7
:105440008D919C9113970097B9F52D913C911197EF
:10545000CD010296820F931F20912C0630912D06CC
:105460002817390739F6309751F510922F06109208
:105470002E06B0932D06A0932C06BCCFD383C283F7
:1054800040815181840F951FC817D90761F44E5F81
:105490005F4F88819981480F591F518340838A81CA
:1054A0009B81938382832115310509F0B0CFF0935E
:1054B0002F06E0932E069ECFFD01DC01C0CF1382A4
:1054C0001282D7CF4F925F926F927F928F929F926C
:1054D000AF92BF92CF92DF92EF92FF920F931F9302
:1054E000CF93DF938C01009799F4CB01DF91CF919B
:1054F0001F910F91FF90EF90DF90CF90BF90AF90F2
:105500009F908F907F906F905F904F900C943D296B
:10551000FC01E60FF71F9C0122503109E217F30747
:1055200008F4AEC0D901CD91DC911197C617D70709
:1055300020F1C530D10578F0CE0104978617970782
:1055400050F0C61BD70B2297C193D1936D937C93D8
:10555000CF010E94D929C801DF91CF911F910F91EE
:10556000FF90EF90DF90CF90BF90AF909F908F9083
:105570007F906F905F904F9008955B01AC1ABD0AC9
:105580004C018C0E9D1EA0912E06B0912F06512C21
:10559000412CF12CE12C109731F580912C06909143
:1055A0002D068815990509F05CC04616570608F0C7
:1055B00058C08091030290910402009741F48DB786
:1055C0009EB74091070250910802841B950BE81783
:1055D000F90708F055C0F0932D06E0932C06F90169
:1055E00071836083B8CF8D919C91119712966C90C6
:1055F000129713967C901397A815B90559F56C016D
:1056000042E0C40ED11CCA14DB0420F1AC014A19DB
:105610005B09DA011296159780F0628273825183DA
:105620004083D9016D937C93E114F10471F0D701AB
:105630001396FC93EE9312978ECF22968C0F9D1F9C
:10564000F90191838083F301EFCFF0932F06E0936C
:105650002E0681CF4816590608F42C017D01D3018E
:105660009ACFCB010E943D297C01009749F0AE0101
:10567000B8010E94432BC8010E94D92987016BCF32
:1056800010E000E068CFFB01DC0102C001900D9248
:1056900041505040D8F70895FC018191861721F0C0
:1056A0008823D9F7992708953197CF010895FB01F1
:1056B000DC018D91019080190110D9F3990B0895A7
:1056C000FB01DC0101900D920020E1F70895FB0140
:1056D000DC014150504048F001900D920020C9F784
:1056E00001C01D9241505040E0F7089511E0C8E418
:1056F000D1E000E006C0802FFE010E9435292196EE
:10570000011DC934D10780E00807A9F7F894FFCF3D
:10571000010101000030068000000000007302D388
:10572000010002C00231020F022302300041524D3B
:1057300000505245504152455F3100505245504152
:1057400052455F320054414B455F4F46460053542B
:1057500041595F415F5748494C45004F56455200FB
:10576000425245414B5F5741495400620067004433
:1057700045544543545F52454400535441424C45BF
:105780005F54414E475F31004D4F56455F464F5283
:10579000574F52440046494E445F53414E444241A4
:1057A000470046494E445F54414E475F32005354D0
:1057B00041424C455F54414E475F32004D4F564584
:1057C0005F464F52574F52445F3200535441424C50
:1057D000455F54414E475F33004D4F56455F424150
:1057E000434B574F52440046494E445F5245440094
:0C57F00043484F4F53455F4C414E44006E
:00000001FF
