:100000000C9449010C947A010C947A010C947A01B5
:100010000C947A010C947A010C947A010C947A0174
:100020000C947A010C947A010C947A010C947A0164
:100030000C947A010C947A010C947A010C947A0154
:100040000C947A010C94D40E0C947A010C947A01DD
:100050000C947A010C947A010C947A010C948A0E17
:100060000C947A010C94540E0C942A0E0C947A0180
:100070000C947A010C947A010C947A010C947A0114
:100080000C947A010C947A010C947A010C947A0104
:100090000C94F40D0C94CA0D0C947A010C947A0112
:1000A0000C947A010C947A010C947A010C947A01E4
:1000B0000C947A010C947A010C947A010C947A01D4
:1000C0000C947A010C947A010C947A010C947A01C4
:1000D0000C947A010C947A010C947A010C947A01B4
:1000E0000C947A010C94F1030C94EB030C94D90357
:1000F0000C9423020C94C5030C94D5030C94F503C3
:100100000C94CB030C94BE030C940F020C9431029C
:100110000C94530F0C949F030C94B6030C94A403FB
:100120000C94D5020C94DD030C94CF030C94BA0309
:100130000C94E7030C94C2030C94D3010C94220397
:100140000C9419260C94E3030C9400024E414E4982
:100150004E495459494E46CDCCCC3D0AD7233C1785
:10016000B7D13877CC2B329595E6241FB14F0A00D2
:100170000020410000C84200401C4620BCBE4CCAC2
:100180001B0E5AAEC59D7400002100240027002AD2
:10019000002D003000330001010000040107010AB6
:1001A0000100000A0B02090C0D0E080703040100F0
:1001B000000000000000000000000000000000003F
:1001C00000000000000000000000000000121110FC
:1001D000000000000000000000000000000000001F
:1001E000000000000000000102102020080810207C
:1001F00040102040800201020108040201010204B3
:100200000810204080804020100804020180040271
:1002100001804020100804020108040201010204C8
:1002200008102040800102040810204080000022B5
:1002300000250028002B002E0031003400020100B0
:1002400000050108010B010505050507050808085B
:1002500008020202020A0A08080404040401010157
:10026000010101010103030303030303030407075F
:10027000070C0C0C0C0C0C0C0C02020202060606FD
:1002800006060606060B0B0B0B0B0B0B0B00530F96
:10029000192611241FBECFEFD1E2DEBFCDBF00E093
:1002A0000CBF12E0A0E0B2E0EEEEFAE500E00BBF1A
:1002B00002C007900D92A03FB107D9F726E0A0EF4A
:1002C000B2E001C01D92A735B207E1F711E0C8E422
:1002D000D1E000E006C021970109802FFE010E94B5
:1002E000242BC734D10780E00807A9F70E948510A6
:1002F0000C94652D0C94000080919103882359F093
:10030000E09190039FEF980F90939103E81BF0E02A
:10031000EE56FC4F82810895E0912506F091260665
:100320008E179F0798F530912B06332361F0639F5A
:10033000B0011124672F349FA0011124452F329F53
:1003400090011124232F30913106E0912C06F09179
:100350002D0650912E0635131AC0DC01AA0FBB1FC3
:100360008A0F9B1F8E0F9F1FE0912E06E80FF92F1B
:10037000F11D6083E0912F06E80FF92FF11D4083F6
:1003800030913006830F911DFC0120830895880F62
:10039000991F880F991F8E0F9F1FFC01E30FF11DFE
:1003A0001082E2CF0895AF92BF92CF92DF92EF9288
:1003B000FF920F931F93CF93DF936C017B018B010F
:1003C000040F151FEB015E01AE18BF08C017D1075F
:1003D00059F06991D601ED91FC910190F081E02DE9
:1003E000C6011995892B79F7C501DF91CF911F912E
:1003F0000F91FF90EF90DF90CF90BF90AF90089556
:10040000FC01538D448D252F30E0842F90E0821B1A
:10041000930B541710F0CF96089501970895FC019F
:10042000918D828D981761F0A28DAE0FBF2FB11DF7
:100430005D968C91928D9F5F9F73928F90E008954F
:100440008FEF9FEF0895FC01918D828D981731F009
:10045000828DE80FF11D858D90E008958FEF9FEF5D
:100460000895FC01918D228D892F90E0805C9F4F33
:10047000821B91098F739927089583E594E00E9468
:10048000310221E0892B09F420E0822F089586EBC8
:1004900093E00E94310221E0892B09F420E0822FB1
:1004A0000895CF92DF92EF92FF921F93CF93DF9345
:1004B000EC016A017B01122FE889F98982E08083CF
:1004C000C11481EED806E104F104A1F060E079E006
:1004D0008DE390E0A70196010E94C52921503109C2
:1004E000410951095695479537952795211580E182
:1004F000380798F0E889F989108260E874E88EE19D
:1005000090E0A70196010E94C529215031094109B7
:1005100051095695479537952795EC85FD8530838C
:10052000EE85FF852083188EEC89FD891083EA898A
:10053000FB89808180618083EA89FB898081886072
:100540008083EA89FB89808180688083EA89FB89CE
:1005500080818F7D8083DF91CF911F91FF90EF90FD
:10056000DF90CF900895FC01A48DA80FB92FB11D85
:10057000A35ABF4F2C91848D90E001968F739927D9
:10058000848FA689B7892C93A089B1898C918370B7
:1005900080648C93938D848D981306C00288F389B0
:1005A000E02D80818F7D80830895EF92FF920F93DD
:1005B0001F93CF93DF93EC0181E0888F9B8D8C8D0F
:1005C00098131AC0E889F989808185FF15C09FB703
:1005D000F894EE89FF896083E889F98980818370C6
:1005E000806480839FBF81E090E0DF91CF911F9175
:1005F0000F91FF90EF900895F62E0B8D10E00F5F96
:100600001F4F0F731127E02E8C8D8E110CC00FB66B
:1006100007FCFACFE889F989808185FFF5CFCE0103
:100620000E94B302F1CFEB8DEC0FFD2FF11DE35AC9
:10063000FF4FF0829FB7F8940B8FEA89FB89808186
:100640008062CFCFCF93DF93EC01888D8823B9F000
:10065000AA89BB89E889F9898C9185FD03C08081CD
:1006600086FD0DC00FB607FCF7CF8C9185FFF2CF4A
:10067000808185FFEDCFCE010E94B302E9CFDF91EB
:10068000CF91089580E090E0892B29F00E944702E5
:1006900081110E94000080E090E0892B29F00E94E7
:1006A0003D0281110E94000080E090E0892B49F01A
:1006B00080E090E0892B29F00E94000081110E94C7
:1006C000000080E090E0892B49F080E090E0892BE9
:1006D00029F00E94000081110C9400000895282F39
:1006E00030E0F901EF55FE4F9491F901E951FE4FC9
:1006F0004491295B3D4FF9012491222309F435C02F
:10070000992311F191509231F8F4E92FF0E0882704
:10071000E357FC4F8F4F0C94242BBE03C2039F035F
:10072000B603BA03A403C503CB03CF03D503D90390
:10073000DD03E303E703A403EB03F103F503809177
:1007400080008F7780938000E22FF0E0EE0FFF1F94
:10075000E35DFD4FA591B4918FB7F894EC916111D1
:1007600048C040954E234C938FBF089580918000E0
:100770008F7DE8CF80918000877FE4CF84B58F772D
:1007800084BDE2CF84B58F7DFBCF8091B0008F77A1
:100790008093B000D9CF8091B0008F7DF9CF809148
:1007A00090008F7780939000CFCF809190008F7DC5
:1007B000F9CF80919000877FF5CF8091A0008F774F
:1007C0008093A000C1CF8091A0008F7DF9CF809150
:1007D000A000877FF5CF809120018F778093200143
:1007E000B3CF809120018F7DF9CF80912001877F49
:1007F000F5CF4E2BB8CFCF93DF9390E0FC01E951BA
:10080000FE4F2491895B9D4FFC0184918823D1F098
:1008100090E0880F991FFC01E957FE4FA591B49114
:10082000FC01E35DFD4FC591D49161110EC09FB7EE
:10083000F8948C91E22FE0958E238C932881E2230B
:10084000E8839FBFDF91CF9108958FB7F894EC9123
:10085000E22BEC938FBFF6CF3FB7F894809104035F
:1008600090910503A0910603B091070326B5A89BBC
:1008700005C02F3F19F00196A11DB11D3FBFBA2F32
:10088000A92F982F8827BC01CD01620F711D811DF2
:10089000911D42E0660F771F881F991F4A95D1F777
:1008A0000895CF92DF92EF92FF920F931F93CF9311
:1008B000DF9300D000D000D0CDB7DEB780912C06FA
:1008C00090912D06892B09F480C0C0903206D090FB
:1008D0003306E0903406F09035060E942C046C1527
:1008E0007D058E059F0550F40E942C04609332060E
:1008F0007093330680933406909335060E942C043F
:10090000009132061091330620913406309135065D
:10091000601B710B820B930B6C327140810591054A
:10092000A0F2F89480912706909128069A838983F3
:10093000E0912C06F0912D06DF01119680818987C8
:1009400090912306E0913606F091370680913806A3
:10095000992309F449C09081982B988790818095BC
:1009600089238F838F818C8388E08B8358856F8167
:1009700049853B812C8189819A81508347FD252FB0
:100980003A952083262F39F0441F00C00000608371
:10099000000000C0F2CF38E04D9160830000019765
:1009A00061F7F0933706E093360649873B832C8343
:1009B0009A83898378940E942C0460933206709302
:1009C0003306809334069093350629960FB6F89433
:1009D000DEBF0FBECDBFDF91CF911F910F91FF9072
:1009E000EF90DF90CF9008959081982B9887908119
:1009F000809589238F838F818E8388E08D835885AE
:100A00006F8149853D812E8189819A81508347FD7F
:100A1000252F00C000C0208300C000C000C000C05F
:100A200000C060830000262F3A9541F0441F00006B
:100A300000C000C000C000C000C0E8CF38E04D9149
:100A400000C0608300C0019709F7F0933706E09378
:100A5000360649873D832E83ABCF8F929F92AF920C
:100A6000BF92CF92DF92EF92FF924B015C010E9406
:100A70002C046B017C010E942C046C197D098E09E9
:100A80009F09683E734081059105A8F321E0821A11
:100A90009108A108B10888EEC80E83E0D81EE11CB9
:100AA000F11C81149104A104B10429F7FF90EF9087
:100AB000DF90CF90BF90AF909F908F9008952FB709
:100AC000F89460910003709101038091020390916A
:100AD00003032FBF0895CF92DF92EF92FF92CF933F
:100AE000DF930E945F056B017C0184E98093BC0069
:100AF000C091B403D091B5038091BC0084FF1FC0A6
:100B00002097D1F30E945F05AB01BC014C195D0930
:100B10006E097F09CE01B0E0A0E0481759076A07C7
:100B20007B0730F31092BC0084E48093BC0081E02A
:100B3000DF91CF91FF90EF90DF90CF90089580E00C
:100B4000F7CFCF92DF92EF92FF92CF93DF93809314
:100B5000BB000E945F056B017C0184E88093BC00B0
:100B6000C091B403D091B5038091BC0087FD20C033
:100B70002097D1F30E945F05AB01BC014C195D09C0
:100B80006E097F09CE01B0E0A0E0481759076A0757
:100B90007B0730F31092BC0084E48093BC00C1E07A
:100BA0008C2FDF91CF91FF90EF90DF90CF90089541
:100BB0008091B900887F8831D9F08091B900887F11
:100BC0008034B1F0C091B900C87F8091B900887FAE
:100BD000803259F08091B900887F883431F01092CA
:100BE000BC0084E48093BC00DBCF0E946B05D8CFAF
:100BF000C0E0D6CFCF92DF92EF92FF92CF93DF93F8
:100C00000E945F056B017C0184EA8093BC00C09167
:100C1000B403D091B5038091BC0087FD1FC020971D
:100C2000D1F30E945F05AB01BC014C195D096E094F
:100C30007F09CE01B0E0A0E0481759076A077B079B
:100C400030F31092BC0084E48093BC0081E0DF911B
:100C5000CF91FF90EF90DF90CF9008958091B900F1
:100C6000887F8830B9F08091B900887F803191F019
:100C70008091B900887F883349F48091B900887FDA
:100C80001092BC0094E49093BC00E1CF8091B90035
:100C9000887FDDCF80E0DBCFCF92DF92EF92FF92B3
:100CA000CF93DF93C82F0E945F056B017C0184EC1A
:100CB000C11101C084E88093BC00C091B403D091FD
:100CC000B5038091BC0087FD1FC02097D1F30E941F
:100CD0005F05AB01BC014C195D096E097F09CE01AE
:100CE000B0E0A0E0481759076A077B0730F310927D
:100CF000BC0084E48093BC0081E0DF91CF91FF9041
:100D0000EF90DF90CF9008958091B900887F88336D
:100D100049F48091B900887F1092BC0094E49093CC
:100D2000BC00EBCF8091B900887FE7CF0F931F9372
:100D3000CF93DF93C82FD62F10929103611101C07A
:100D4000D1E08FEF8D0F80939303109292030E9456
:100D5000FA058093920381111CC08C2F880F8F5F3E
:100D60000E94A10580939203882321F0813089F4A9
:100D700085E00FC004E913E0C0E0809193038C1379
:100D800025C080E00E944C0680939203813031F4AC
:100D900086E0DF91CF911F910F9108958835C9F7B3
:100DA0008091BB00F80181938F01CF5FC0939103C5
:100DB000C0939003DC13E1CF0E946B0580939203F4
:100DC000882339F3813029F787E0E3CF81E00E945F
:100DD0004C06809392038130D9F2803509F3D9CF44
:100DE0002091540330915503032E000C440B550BF6
:100DF000285E334041095109A8E1BCEF0E94C02997
:100E000028EE33E040E050E00E9493292053384F11
:100E10004F4F5F4F3093610320936003089510920A
:100E20002C0310922D0310922E0310922F03109278
:100E300028031092290310922A0310922B03109278
:100E4000230310922403109225031092260310927C
:100E5000270310921F031092200310922103109277
:100E6000220310921B0310921C0310921D03109278
:100E70001E0310921603109217031092180310927B
:100E8000190310921A030895CF92DF92EF92FF9206
:100E90000E945F05C0901103D0901203E0901303ED
:100EA000F09014036C197D098E099F096436710551
:100EB0008105910520F528EC48EC68EC90E080E095
:100EC0000E948C018CED95E090935703809356031C
:100ED000909359038093580322EF33E030935B03E0
:100EE00020935A0390935D0380935C0390935F0378
:100EF00080935E03FF90EF90DF90CF9008950E9463
:100F00005F056C197D098E099F096436710581059D
:100F1000910578F00E945F056C197D098E099F0983
:100F2000683C71058105910520F420E040E060E017
:100F3000C5CF0E945F0560931103709312038093E5
:100F4000130390931403BECF3F924F925F926F9220
:100F50007F928F929F92AF92BF92CF92DF92EF9249
:100F6000FF920F931F93CF93DF938091F40281112F
:100F70000DC00E942C046093F0027093F1028093E4
:100F8000F2029093F30281E08093F4020E942C0419
:100F90000091F0021091F1022091F2023091F302DF
:100FA000601B710B820B930B0091F8041091F904F4
:100FB0002091FA043091FB04061717072807390718
:100FC00010F41092FC04C1E0809121069091220659
:100FD000DC01ED91FC910084F185E02D1995181646
:100FE00019060CF06CC00E942C046093F002709300
:100FF000F1028093F2029093F30280912106909186
:101000002206DC01ED91FC910284F385E02D199517
:101010008093FE049091FC04911116C09091F40409
:1010200089130FC09091FD042091F504921739F0B7
:101030002091F70492232091F604921302C0C093EA
:10104000FC048093FD04C0CF993140F4E92FF0E017
:10105000E051FB4F86879F5F9093FC049091FC04C6
:10106000993179F79091F504891739F09091F70447
:1010700089239091F604891320C01092FC0460919A
:10108000FF0470910005C0900005D12C80900105EF
:10109000D0910205E090030500910405A09005059C
:1010A000C0910605309007058091150590911705B0
:1010B0009823B9F41092000217C01092FC04DF913B
:1010C000CF911F910F91FF90EF90DF90CF90BF9045
:1010D000AF909F908F907F906F905F904F903F90D8
:1010E000089591E09093000290911805892309F4E6
:1010F00035C181E080930202912CF12C10E0B12CDB
:101100007770072E000C880B990B0E94732823E33D
:1011100033E343E35FE30E94D22820E030EC46E46F
:1011200054E40E94F7290E94D52A9B01AC012B515F
:10113000344041095109A8EEB3E00E94B22928E9E0
:10114000422E23E0522E612C712CA30192010E94A9
:10115000932928513C4F4F4F5F4F30936B0320939F
:101160006A0333E0D594C7943A95E1F7B40145E0BA
:10117000660F771F4A95E1F76C297D297770072E56
:10118000000C880B990B0E94732823E333E343E39D
:101190005FE30E94D22820E030EC46E454E40E9451
:1011A000F7290E94D52A9B01AC012B5134404109FB
:1011B0005109A8EEB3E00E94B229A30192010E9456
:1011C000932928513C4F4F4F5F4F30936903209331
:1011D0006803B4E0DB9FB0011124C701982F882772
:1011E000990F990F682B792BE6E095948794EA95EF
:1011F000E1F7682979297770072E000C880B990B85
:101200000E94732823E333E343E35FE30E94D22881
:1012100020E030EC46E454E40E94F7290E94D52AED
:101220009B01AC012B51344041095109A8EEB3E0B8
:101230000E94B229A30192010E94932928513C4F98
:101240004F4F5F4F3093670320936603B701759547
:1012500067957801F694FE2CEE24F794E7946E29B6
:101260007F297770072E000C880B990B0E9473283A
:1012700023E333E343E35FE30E94D22820E030EC32
:1012800046E454E40E94F7290E94D52A9B01AC0150
:101290002B51344041095109A8EEB3E00E94B22914
:1012A000A30192010E94932928513C4F4F4F5F4F59
:1012B0003093650320936403B801B4E07595679596
:1012C000BA95E1F78501D4E0000F111FDA95E1F737
:1012D000602B712B7770072E000C880B990B0E94E6
:1012E000732823E333E343E35FE30E94D22820E043
:1012F00030EC46E454E40E94F7290E94D52A70930A
:101300008F0360938E036C2F70E0660F771FC32DE1
:10131000D0E0DC2FCC27DD0F6C2B7D2BAA0CAB2C67
:10132000AA1CBB086A297B297770072E000C880B42
:10133000990B0E94732823E333E343E35FE30E94A6
:10134000D22820E030EC46E454E40E94F7290E94C1
:10135000D52A7093550360935403B1CE10920202C4
:10136000CBCECF93DF93EC0188819981009711F068
:101370000E94C82B198218821D821C821B821A822D
:10138000DF91CF910895FC0180819181009711F048
:101390000C94C82B0895CF93DF93FC0124813581F1
:1013A0006217730788F49B01C081D1816BE370E001
:1013B000CE01820F931F0E943B2D009729F08C1BBA
:1013C0009D0BDF91CF9108958FEF9FEFFACFFC0136
:1013D00024813581232B39F421E0FB01808188238E
:1013E00049F020E007C0808191810E94462D21E0D4
:1013F000892BB9F7822F08950F931F93CF93DF9313
:10140000EC0188819981009759F02A813B81261748
:10141000370730F081E0DF91CF911F910F91089550
:101420008B016F5F7F4F0E94512C009759F0998379
:1014300088831B830A832C813D81232B59F7FC0170
:101440001082E8CF80E0E7CFEF92FF920F931F93D7
:10145000CF93DF938C017B01EB0109900020E9F72A
:101460002197C61BD70BBE010E94FC09811109C040
:10147000C801DF91CF911F910F91FF90EF900C94D5
:10148000B109F801D583C483B70180819181DF91CF
:10149000CF911F910F91FF90EF900C944F2D1092D0
:1014A0008B03109275031092740310921003ECE0FA
:1014B000F3E011821082138212826BE172E08BE4FE
:1014C00096E00E94240A1092730310927203109205
:1014D0001503EFE7F3E011821082138212826BE1B1
:1014E00072E085E496E00E94240A10927103109243
:1014F000700310923A03EBE7F3E01182108213823B
:1015000012826BE172E08FE396E00E94240A10924F
:101510006F0310926E0310925303E7E7F3E011821A
:101520001082138212826BE172E089E396E00E94DE
:10153000240A10926D0310926C031092760310929D
:101540008D03109263031092620310924A0310926B
:10155000490310924803109247038AE590E0909364
:10156000460380934503EBE4F3E01182108213827B
:10157000128215821482178216828BE192E0909378
:10158000400380933F031092300310923103109276
:1015900032031092330310923403109239031092E5
:1015A000350310923603109237031092380320E06F
:1015B00040E060E082E090E00C948C01EF92FF92BA
:1015C0000F931F93CF93DF93EC017B011982188255
:1015D0001B821A821D821C82FB0101900020E9F708
:1015E00031978F01061B170BB8010E94FC0981116E
:1015F00009C0CE01DF91CF911F910F91FF90EF9025
:101600000C94B1091D830C83B70188819981DF9106
:10161000CF911F910F91FF90EF900C944F2DAF92AF
:10162000BF92CF92DF92EF92FF920F931F93CF93CF
:10163000DF936C015B017A0189012417350720F4DF
:101640008F2D7901042F182F6CE172E0C6010E94E2
:10165000DE0AD5011496CD91DC91EC16FD06E0F47E
:101660000C171D0708F4E801D501ED91FC911197C5
:10167000EC0FFD1F108110826D917C916E0D7F1D0E
:10168000C60161157105A1F00E94240AF50180814F
:101690009181C80FD91F1883C601DF91CF911F9187
:1016A0000F91FF90EF90DF90CF90BF90AF90089593
:1016B0000E94B109EBCF8F929F92AF92BF92EF92AF
:1016C000FF920F931F93CF93DF93CDB7DEB7C05A2E
:1016D000D1090FB6F894DEBF0FBECDBF182F092F6A
:1016E0000E945F058090080390900903A0900A0370
:1016F000B0900B03681979098A099B096436710552
:101700008105910508F424C2CE0101967C0180E890
:10171000F70111928A95E9F76CE172E0CE018756E4
:101720009F4F0E94DE0ACD56DF4F19821882C3599F
:10173000D040CB56DF4F19821882C559D040C956C8
:10174000DF4F19821882C759D0404AE0BE016F5757
:101750007F4F812F902F0E94A326BE016F577F4F8E
:10176000CE018D569F4F0E94240AC756DF4F8881B5
:101770009981C959D040009709F47EC0CD56DF4FFA
:1017800068817981C359D0406115710509F472C02F
:10179000C556DF4F48815981CB59D040C956DF4FDC
:1017A00028813981C759D0404217530708F462C0D5
:1017B0000E944F2DC956DF4F88819981C759D0406B
:1017C000C356DF4F99838883CD59D040C956DF4F28
:1017D00019821882C759D040CE018D569F4F0E9462
:1017E000C309C356DF4F88819981CD59D040892BD9
:1017F00009F073C0C156DF4F1882CF59D040109204
:1018000092030E94FA0580939203811192C084E2B0
:101810000E94A1058093920381118BC01093BB009D
:101820000E945F054B015C0184E88093BC0000913D
:10183000B4031091B5038091BC0087FD61C0011510
:101840001105C9F30E945F05AB01BC014819590994
:101850006A097B0930E020E04017510762077307EF
:1018600030F31092BC0084E48093BC0081E080934C
:1018700092035FC00E94C82BCD56DF4F88819981AB
:10188000C359D040C756DF4F99838883C959D04088
:10189000CB56DF4F88819981C559D040C556DF4F5F
:1018A00099838883CB59D040C956DF4F888199816D
:1018B000C759D040C356DF4F99838883CD59D04054
:1018C000CD56DF4F19821882C359D040CB56DF4F17
:1018D00019821882C559D04079CFC756DF4F688129
:1018E0007981C959D04041E050E0CE0181569F4FE7
:1018F0000E94562DC056DF4F1882C05AD0407FCF6D
:101900008091B900887F883229F4109292030E9456
:101910006B05ADCF1091B900187F8091B900887F19
:10192000803309F03FC00E946B051093920311238E
:1019300071F362E082E10E94960680919103823009
:1019400009F044C00E947C01082F0E947C01182FDE
:1019500061E070E080E090E00E942D05602F82E160
:101960000E949606012E000C220B330B409191032E
:1019700050E070E060E00417150726073707C1F450
:101980002FEF4FEF6FEF82E090E00E948C01870114
:1019900080919103882309F10E947C01F8018193D1
:1019A0008F01F6CF1092BC0084E48093BC00BDCFC1
:1019B00020E040E06FEF82E090E00E948C01809197
:1019C0009103882351F00E947C01F9CF20E040E090
:1019D00060E082E090E00E948C01B701CE018D565C
:1019E0009F4F0E94DE0A70E060E0CE018D569F4F4F
:1019F0000E94CB097C019C0150E040E0BE016D5685
:101A00007F4FCE018F579F4F0E940F0BCF57DF4F55
:101A100088819981C158D040009709F4ABC00E94D9
:101A20007C2670934C0360934B03CE018F579F4FDE
:101A30000E94C309FFEFEF1AFF0AB701CE018D56CE
:101A40009F4F0E94CB098C019C01A701BE016D56DE
:101A50007F4FCE018F579F4F0E940F0BCF57DF4F05
:101A600088819981C158D040009709F487C00E94AD
:101A700078260E94D52A70934E0360934D03CE01C1
:101A80008F579F4F0E94C3090F5F1F4FB801CE01B0
:101A90008D569F4F0E94CB097C019C01A801BE017D
:101AA0006D567F4FCE018F579F4F0E940F0BCF5720
:101AB000DF4F88819981C158D040009709F462C0F6
:101AC0000E9478260E94D52A7093500360934F039A
:101AD000CE018F579F4F0E94C309C956DF4F2881FF
:101AE0003981C759D040A7014F5F5F4FBE016D5686
:101AF0007F4FCE018F579F4F0E940F0BCF57DF4F65
:101B000088819981C158D040009709F43FC00E9454
:101B100078260E94D52A7093520360935103CE0118
:101B20008F579F4F0E94C3090E945F05609308036F
:101B30007093090380930A0390930B03CE018D5693
:101B40009F4F0E94C309CE0187569F4F0E94C30931
:101B5000C056DF4F0FB6F894DEBF0FBECDBFDF918A
:101B6000CF911F910F91FF90EF90BF90AF909F90FA
:101B70008F90089560E070E0CB0153CF60E070E09B
:101B8000CB0177CF60E070E0CB019CCF60E070E0EC
:101B9000CB01BFCF1F920F920FB60F9211240BB63D
:101BA0000F922F933F934F935F936F937F938F93F6
:101BB0009F93AF93BF93EF93FF9383E594E00E94CD
:101BC000B302FF91EF91BF91AF919F918F917F9160
:101BD0006F915F914F913F912F910F900BBE0F909E
:101BE0000FBE0F901F9018951F920F920FB60F9275
:101BF00011240BB60F922F938F939F93EF93FF9324
:101C0000E0916304F09164048081E0916904F091B3
:101C10006A0482FD1DC0908180916C048F5F8F7378
:101C200020916D04821741F0E0916C04F0E0ED5AD0
:101C3000FB4F958F80936C04FF91EF919F918F9153
:101C40002F910F900BBE0F900FBE0F901F90189505
:101C50008081F2CF1F920F920FB60F9211240BB614
:101C60000F922F933F934F935F936F937F938F9335
:101C70009F93AF93BF93EF93FF9386EB93E00E9404
:101C8000B302FF91EF91BF91AF919F918F917F919F
:101C90006F915F914F913F912F910F900BBE0F90DD
:101CA0000FBE0F901F9018951F920F920FB60F92B4
:101CB00011240BB60F922F938F939F93EF93FF9363
:101CC000E091C603F091C7038081E091CC03F091CD
:101CD000CD0382FD1DC090818091CF038F5F8F73F4
:101CE0002091D003821741F0E091CF03F0E0EA5455
:101CF000FC4F958F8093CF03FF91EF919F918F9130
:101D00002F910F900BBE0F900FBE0F901F90189544
:101D10008081F2CF1F920F920FB60F9211242F9352
:101D20003F938F939F93AF93BF93809100039091C4
:101D30000103A0910203B09103033091FF0223E05D
:101D4000230F2D3758F50196A11DB11D2093FF02D9
:101D50008093000390930103A0930203B0930303C5
:101D60008091040390910503A0910603B0910703AD
:101D70000196A11DB11D8093040390930503A093C8
:101D80000603B0930703BF91AF919F918F913F914D
:101D90002F910F900FBE0F901F90189526E8230FDC
:101DA0000296A11DB11DD2CF1F920F920FB60F92B6
:101DB00011240BB60F922F933F934F935F936F9322
:101DC0007F938F939F93AF93BF93EF93FF93109263
:101DD000850010928400809101028823F9F061E06F
:101DE0008DE10E946F0388E592E0909389008093D3
:101DF000880010920102FF91EF91BF91AF919F91E6
:101E00008F917F916F915F914F913F912F910F90A3
:101E10000BBE0F900FBE0F901F90189560E08DE1E4
:101E20000E946F0391E0909301028091FE02863040
:101E3000C0F01092FE028091FC029091FD02845D40
:101E40009E4F919581959109880F991F805C9346CB
:101E500090938900809388001092FD021092FC02FA
:101E6000CACFE82FF0E0EE0FFF1FEA5AFC4F2081A7
:101E700031812C523140220F331F3093890020933F
:101E800088002091FC023091FD0240815181240F95
:101E9000351F3093FD022093FC028F5F8093FE027A
:101EA00090938C03A8CF109256041092550448EEDC
:101EB00053E060E070E040935704509358046093FF
:101EC000590470935A048DE092E0909354048093E7
:101ED00053042DEC30E03093600420935F042CEC2D
:101EE00030E0309362042093610428EC30E03093BA
:101EF00064042093630429EC30E03093660420935B
:101F000065042AEC30E030936804209367042EECDB
:101F100030E030936A042093690410926C041092AC
:101F20006D0410926E0410926F041092B903109217
:101F3000B8034093BA035093BB036093BC03709300
:101F4000BD039093B7038093B60385EC90E0909324
:101F5000C3038093C20384EC90E09093C503809305
:101F6000C40380EC90E09093C7038093C60381EC98
:101F700090E09093C9038093C80382EC90E0909323
:101F8000CB038093CA0386EC90E09093CD038093BB
:101F9000CC031092CF031092D0031092D103109271
:101FA000D2036BE172E08BE496E00E94DE0A6BE103
:101FB00072E085E496E00E94DE0A6BE172E08FE356
:101FC00096E00E94DE0A6BE172E089E396E00E94EF
:101FD000DE0A1092240610922B06109232061092FE
:101FE0003306109234061092350681E08093310654
:101FF00080932E0610922F0692E0909330068093E5
:10200000230689E090E090932806809327060E949B
:102010002C2B90932D0680932C06009709F46CC00E
:1020200029E0FC0111922A95E9F783E090E0909372
:1020300026068093250686E090E090932A068093FA
:10204000290680912406882341F061E086E00E9401
:10205000FB0360E086E00E946F03EDE4F2E0E491B0
:10206000F0E0EE0FFF1FE35DFD4F8591949190939B
:10207000370680933606EDEEF1E0E491E093380602
:1020800080EA96E8A1E0B0E08093F0049093F10438
:10209000A093F204B093F3049FE09093F4041092A1
:1020A000F50484E08093F6049093F70448E55BE13F
:1020B00060E070E04093F8045093F9046093FA04F0
:1020C0007093FB041092FD048093170588E08093C1
:1020D00018058FE890E090931A058093190588E71A
:1020E00097E090931C0580931B0583E594E0909303
:1020F0002206809321060895109228061092270642
:10210000109226061092250696CF789484B58260A8
:1021100084BD84B5816084BD85B5826085BD85B58B
:10212000816085BD80916E00816080936E00109209
:102130008100809181008260809381008091810084
:102140008160809381008091800081608093800015
:102150008091B10084608093B1008091B000816073
:102160008093B00080919100826080939100809173
:1021700091008160809391008091900081608093B4
:1021800090008091A10082608093A1008091A100C5
:1021900081608093A1008091A00081608093A00065
:1021A00080912101826080932101809121018160D1
:1021B0008093210180912001816080932001809192
:1021C0007A00846080937A0080917A0082608093A4
:1021D0007A0080917A00816080937A0080917A0001
:1021E000806880937A001092C10026E040E052ECB3
:1021F00061E070E086EB93E00E9451028091290635
:1022000090912A0697FD08C061E00E94FB0360E000
:10221000809129060E946F0381E0809324060E942A
:10222000510460912B06633329F120912C063091E3
:102230002D066150C9F070E08FEF92E30E94102BE1
:10224000F9014091270650912806CF01821B930B7C
:102250008417950760F44081469FC001479F900D09
:10226000112490833196EDCF70E060E0E9CF83E3F5
:1022700080932B06589A599A8091B9008E7F80934B
:10228000B9008091B9008D7F8093B90088E4809374
:10229000B80084E48093BC00CCEDD5E0D093B503C6
:1022A000C093B4038CE08093B80060E086E30E94A2
:1022B000FB0360E082E00E94FB0360E08DE00E948F
:1022C000FB03D0935703C0935603D0935903C09395
:1022D0005803D0935D03C0935C03D0935F03C09316
:1022E0005E0388EE93E090935B0380935A03909390
:1022F0006103809360030E945F05609308037093FD
:10230000090380930A0390930B031092FC0400913D
:102310001B0510911C05C0911905D0911A05BE012D
:1023200090E080E00E9471284B015C01B80190E0D0
:1023300080E00E947128A50194010E94F6292B01DA
:102340003C01AC019B0160E070E080E090E40E9401
:10235000632A6B017C0120E030E040E05FE3C301D1
:10236000B2010E94D228A50194010E94F729905839
:10237000A70196010E94D228EDE1F5E0ADE5B5E0B8
:10238000C193D193178F068FCD92DD92ED92FD927E
:10239000DC966D937D938D939C93DF9725E0ED33D1
:1023A000F20771F74091F0045091F1046091F2044A
:1023B0007091F3042EE280912106909122060E94F2
:1023C000510261E08DE10E94FB0360E08DE10E941B
:1023D0006F03F894109280001092810088E790E0DB
:1023E0009093890080938800809181008860809319
:1023F00081008091810082608093810080916F00D4
:10240000826080936F00789468EC70E080E090E0E8
:102410000E942D05D0E0C0E020E04C2F60E081E07C
:1024200090E00E948C010E9451042196C11531E078
:10243000D30791F7D0E0C0E020E04C2F60E081E0CE
:1024400090E00E948C010E9451042196C11541E048
:10245000D40791F7D0E0C0E020E04C2F60E081E0AD
:1024600090E00E948C010E9451042196C11551E018
:10247000D50791F7D0E0C0E02C2F4C2F6C2F90E0C7
:1024800080E00E948C012C2F4C2F6C2F81E090E07B
:102490000E948C012C2F4C2F6C2F82E090E00E9428
:1024A0008C010E9451042196C11561E0D60721F7E5
:1024B000CFEFD0E02C2F4C2F6C2F90E080E00E94CB
:1024C0008C012C2F4C2F6C2F81E090E00E948C010E
:1024D0002C2F4C2F6C2F82E090E00E948C010E94E8
:1024E0005104219738F720E040E060E090E080E080
:1024F0000E948C0120E040E060E081E090E00E94DA
:102500008C0120E040E060E082E090E00E948C01DD
:102510000E94510420E040E060E090E080E00E94F2
:102520008C010E9451040E945F05CCEDD5E0A6E429
:102530002A2EA5E03A2E02E716E00E94A407809119
:10254000020281110C940F2680918E0390918F03CB
:102550008E3423E092070CF47DC0813B33E0930777
:10256000E4F520E04FEF60E090E080E00E948C0115
:1025700080916A0390916B03909357038093560365
:102580008091680390916903909359038093580355
:10259000809166039091670390935B0380935A0345
:1025A000809164039091650390935D0380935C0335
:1025B00084E195E090935F0380935E030E94F006B0
:1025C0000E944F0A80918C03882321F00E945104BD
:1025D00010928C030E944203B0CF863B45E09407E3
:1025E000CCF1893156E0950784F52FEF40E060E0AB
:1025F00090E080E00E948C0180916A0390916B03CF
:1026000090935703809356038091680390916903D8
:1026100090935903809358038091660390916703C8
:1026200090935B0380935A038091640390916503B8
:1026300090935D0380935C038EE794E090935F0337
:1026400080935E030E94F006BBCF8A519840833688
:10265000910528F080918D03882309F4B3CF8091F0
:102660008B0381112DC00E945F05609387037093D7
:1026700088038093890390938A03109286031092B3
:1026800085031092840310928303109280031092AA
:102690007F03109282031092810310927C031092A8
:1026A0007B0310927E0310927D03109278031092A8
:1026B000770310927A031092790381E080938B0361
:1026C00080918B038823E9F180918D03811139C0BA
:1026D0000E945F05C0908703D0908803E090890333
:1026E000F0908A036C197D098E099F09683E73403A
:1026F0008105910598F0809185039091860301965C
:1027000090938603809385030E945F0560938703FF
:10271000709388038093890390938A038091850343
:1027200090918603CC976CF0809183039091840301
:1027300001969093840380938303109286031092F2
:1027400085030E94A40780918D0381110C94DE25DE
:10275000F09076038091740390917503892B09F0B2
:102760002FC3F1102DC38091100381111FC08091E0
:1027700083039091840390930D0380930C038091C5
:1027800085039091860390930F0380930E036BE172
:1027900072E08BE496E00E94240A81E080931003AB
:1027A0006BE172E08BE496E00E94240A80911003B2
:1027B000882309F4CBC26BE172E08BE496E00E94BF
:1027C000E709882309F45AC020E044E664E690E073
:1027D00080E00E948C0181E090E00E945B0BD0932E
:1027E0005703C0935603D0935903C093580388EE00
:1027F00093E090935B0380935A03D0935D03C0935F
:102800005C034EE754E050935F0340935E03909364
:10281000610380936003609183037091840340910E
:10282000850350918603ACE3A69FC001A79F900D3E
:102830001124840F951FE0910C03F0910D03AE9FBE
:102840009001AF9F300D1124E0910E03F0910F0322
:102850002E0F3F1F821B930B06970CF477C27093C9
:102860000D0360930C0350930F0340930E036DE12F
:1028700072E08BE496E00E94240A68C26DE172E087
:102880008BE496E00E94E709882309F454C024E60B
:1028900040E064E690E080E00E948C0181E090E0FE
:1028A0000E945B0BD0935703C0935603D0935903F8
:1028B000C093580388EE93E090935B0380935A0390
:1028C00080ED97E090935D0380935C038EE794E046
:1028D00090935F0380935E03609183037091840300
:1028E0004091850350918603ACE3A69FC001A79F4A
:1028F000900D1124840F951FE0910C03F0910D03AE
:10290000AE9F9001AF9F300D1124E0910E03F09126
:102910000F032E0F3F1F821B930B06970CF416C25A
:1029200070930D0360930C0350930F0340930E03B9
:1029300061E272E09ECF61E272E08BE496E00E9479
:10294000E709882309F452C081E090E00E945B0B04
:1029500024E640E060E090E080E00E948C01D093AB
:102960005703C0935603D0935903C093580384E18F
:1029700095E090935B0380935A03D0935D03C093DB
:102980005C032EE734E030935F0320935E03609195
:102990008303709184034091850350918603ACE3D7
:1029A000A69FC001A79F900D1124840F951FE09151
:1029B0000C03F0910D03AE9F9001AF9F300D1124D9
:1029C000E0910E03F0910F032E0F3F1F821B930B1C
:1029D00004970CF4BBC170930D0360930C035093E8
:1029E0000F0340930E036BE272E043CF6BE272E0A1
:1029F0008BE496E00E94E709882309F450C081E047
:102A000090E00E945B0B24E644E664E690E080E000
:102A10000E948C01D0935703C0935603D09359035F
:102A2000C0935803D0935B03C0935A03D0935D03C4
:102A3000C0935C034EE754E050935F0340935E0302
:102A400060918303709184034091850350918603C4
:102A5000ACE3A69FC001A79F900D1124840F951F82
:102A6000E0910C03F0910D03AE9F9001AF9F300DEC
:102A70001124E0910E03F0910F032E0F3F1F821BD4
:102A8000930B04970CF462C170930D0360930C03D5
:102A900050930F0340930E0365E372E0EACE65E3C3
:102AA00072E08BE496E00E94E709882309F4A8C04D
:102AB0000E945F05C0901103D0901203E0901303B1
:102AC000F09014036C197D098E099F096436710515
:102AD0008105910508F05CC020E040E06FEF90E0D8
:102AE00080E00E948C01D0935703C0935603D0938B
:102AF0005903C093580384EA96E090935B03809354
:102B00005A03809145039091460397FF66C08E5A01
:102B10009F4F853A910508F06EC02EE036E0309365
:102B20005D0320935C038EE794E090935F038093B2
:102B30005E036091830370918403409185035091FB
:102B40008603ACE3A69FC001A79F900D1124840FBC
:102B5000951FE0910C03F0910D03AE9F9001AF9F84
:102B6000300D1124E0910E03F0910F032E0F3F1F43
:102B7000821B930B07970CF4E9C070930D036093CD
:102B80000C0350930F0340930E036EE372E071CE7B
:102B90000E945F056C197D098E099F0964367105D5
:102BA0008105910578F00E945F056C197D098E09F9
:102BB0009F09683C71058105910520F420E040E003
:102BC00060E08DCF0E945F05609311037093120344
:102BD000809313039093140386CF009761F08E5A6D
:102BE0009F4F853A910538F44AEA55E050935D03CA
:102BF00040935C0398CFD0935D03C0935C0393CF65
:102C00006EE372E08BE496E00E94E709882309F402
:102C100085C080914F039091500390934A03809315
:102C2000490380914D0390914E0390934803809304
:102C30004703E0905103F0905203F0924603E09274
:102C4000450324E640E060E090E080E00E948C01D3
:102C5000D0935703C0935603D0935903C09358039E
:102C6000D0935B03C0935A03F7FE42C09FE4E90E82
:102C7000F11C2FE9E216F10408F04BC040E456E0E5
:102C800050935D0340935C032EE734E030935F0381
:102C900020935E03609183037091840340918503C8
:102CA00050918603ACE3A69FC001A79F900D11240D
:102CB000840F951FE0910C03F0910D03AE9F9001DE
:102CC000AF9F300D1124E0910E03F0910F032E0FF2
:102CD0003F1F821B930B0497CCF170930D036093FD
:102CE0000C0350930F0340930E036BE472E0C1CDCD
:102CF000E114F10471F05FE4E50EF11C6FE9E616F2
:102D0000F10438F488E795E090935D0380935C03C9
:102D1000BBCFD0935D03C0935C03B6CF6BE472E08E
:102D20008BE496E00E94E709882381F020E040E0F0
:102D300060E090E080E00E948C0181E08093760367
:102D400041E050E0509375034093740380916A030F
:102D500090916B0383589540833B9105E8F48091F3
:102D600068039091690383589540833B9105A0F4D3
:102D7000809166039091670383589540833B91054A
:102D800058F4809164039091650383589540833B88
:102D9000910510F40C94D8258091620390916303FF
:102DA00001969093630380936203809162039091F4
:102DB000630303970CF406CC81E080938D0302CC6F
:102DC0008091720390917303892B09F009C251E03D
:102DD000F51206C28091150381111EC080918303F4
:102DE000909184039093800380937F038091850367
:102DF0009091860390938203809381036BE172E04C
:102E000085E496E00E94240AF09215036BE172E0DB
:102E100085E496E00E94240A80911503882309F432
:102E200095CF6BE172E085E496E00E94E709882384
:102E300009F4AAC082E090E00E945B0B20914F034E
:102E40003091500330934A032093490340914D033E
:102E500050914E0350934803409347038091510390
:102E6000909152039093460380934503433151055B
:102E70000CF461C0109357030093560340914B0329
:102E800050914C034130510509F065C023313105A3
:102E90000CF45EC01093590300935803D0935B0366
:102EA000C0935A0397FF61C08E5A9F4F853A910590
:102EB00008F065C088E196E090935D0380935C0321
:102EC0008EE794E090935F0380935E034530510555
:102ED00009F03CCF60918303709184034091850396
:102EE00050918603ACE3A69FC001A79F900D1124CB
:102EF000840F951FE0917F03F0918003AE9F9001B6
:102F0000AF9F300D1124E0918103F09182032E0FC9
:102F10003F1F821B930B06970CF418CF709380030E
:102F200060937F03509382034093810360E572E0D6
:102F300085E496E0A0CC4E3E5F4F2CF430925703D0
:102F4000209256039BCFD0935703C093560396CF3E
:102F50002E3E3F4F2CF430925903209258039ECFBF
:102F6000D0935903C093580399CF009741F08E5ADC
:102F70009F4F853A910518F480EA95E09DCFD09354
:102F80005D03C0935C039CCF60E572E085E496E04E
:102F90000E94E709882309F410C183E090E00E94B1
:102FA0005B0B20914F0330915003265F3F4F3093CE
:102FB0004A032093490340914D0350914E0350938F
:102FC000480340934703809151039091520390939B
:102FD000460380934503433151050CF493C010938D
:102FE000570300935603233131050CF498C0109316
:102FF000590300935803D0935B03C0935A0397FF80
:103000009BC08C5A9F4F893A910508F0A3C08EE06F
:1030100096E090935D0380935C034EE754E05093F9
:103020005F0340935E030E945F05809011039090C0
:103030001203A0901303B0901403E0904B03F090A0
:103040004C03681979098A099B09683C7105810557
:10305000910508F08FC020E051E0E516F10409F475
:1030600086C062E0E616F10409F079C02FEF40E077
:1030700060E090E080E00E948C0160918303709199
:1030800084034091850350918603ACE3A69FC00161
:10309000A79F900D1124840F951FE0917F03F0915D
:1030A0008003AE9F9001AF9F300D1124E09181030A
:1030B000F09182032E0F3F1F821B930B85319105E8
:1030C00054F49701225031092230310508F03ECEE8
:1030D00003970CF43BCE7093800360937F0350936F
:1030E0008203409381038BE592E032E0E316F10422
:1030F00011F08DE592E09093400380933F036BE4E1
:1031000072E016CF4E3E5F4F2CF430925703209260
:10311000560369CFD0935703C093560364CF2E3E16
:103120003F4F2CF4309259032092580364CFD09330
:103130005903C09358035FCF009761F08C5A9F4F9B
:10314000893A910538F42AEA35E030935D032093FB
:103150005C0363CFD0935D03C0935C035ECF20E03C
:103160004FEF83E0E816F10409F482CF2FEF40E03F
:103170006FEF7FCF0E945F05681979098A099B0963
:10318000683C71058105910568F00E945F0568192A
:1031900079098A099B096C3271408105910510F407
:1031A00020E065CF0E945F056093110370931203C6
:1031B000809313039093140360CF6BE472E085E473
:1031C00096E00E94E709882309F4C0CD82E080934D
:1031D000760341E050E05093730340937203B6CD01
:1031E0008091700390917103892B11F00C94EC2065
:1031F00052E0F512F1C780913A0381111FC080910E
:1032000083039091840390937C0380937B0380914C
:1032100085039091860390937E0380937D036BE1F9
:1032200072E08FE396E00E94240A81E080933A03E3
:103230006BE472E08FE396E00E94240A80913A03E7
:10324000882309F483CD6BE172E08FE396E00E945E
:10325000E709882309F468C184E090E00E945B0BD1
:10326000C0904F03D09050036AE0C61AD108D092A4
:103270004A03C092490380914D0390914E0390936D
:10328000480380934703E0905103F0905203F0927B
:103290004603E092450380914B0390914C030197C4
:1032A00071F08091390381110AC00E945F0560931B
:1032B00035037093360380933703909338030E944D
:1032C0005F058090350390903603A0903703B0904F
:1032D0003803681979098A099B09693572408105A3
:1032E000910518F081E08093390380913903882398
:1032F00009F4DEC00E945F05809041039090420374
:10330000A0904303B0904403681979098A099B0986
:10331000693873418105910508F084C080913F03AD
:103320009091400342E08B35940739F0FAE6AF2ED6
:10333000BB24BA948D55924019F0E6E9AE2EB12C1B
:103340002FEF4FEF6FEF90E080E00E948C0144E29E
:10335000A41A4AEFB40AB0925703A092560355E15B
:10336000C516D1040CF489C0109359030093580377
:103370001E141F040CF090C087E0E816F1040CF452
:10338000BFC02EE036E030935D0320935C03D09302
:103390005B03C0935A032EE734E030935F0320931E
:1033A0005E0380914B0390914C03059709F0CECCBE
:1033B000609183037091840340918503509186034B
:1033C000ACE3A69FC001A79F900D1124840F951F09
:1033D000E0917B03F0917C03AE9F9001AF9F300D95
:1033E0001124E0917D03F0917E032E0F3F1F821B7D
:1033F000930B04970CF4AACC80913903882309F429
:10340000A5CC70937C0360937B0350937E03409321
:103410007D036FE572E08FE396E00E94240A0E942C
:103420000F0794CC0E945F05681979098A099B09E6
:103430006938734181059105A8F00E945F056819FC
:1034400079098A099B0960347F418105910550F40F
:103450002FEF4FEF6FEF90E080E00E948C01B12CD6
:10346000A12C75CF0E945F056093410370934203C6
:103470008093430390934403F2CF6CEEC6166FEF34
:10348000D6062CF4309259032092580371CFD09372
:103490005903C09358036CCF3AEFE3163FEFF3069E
:1034A0007CF54AEA55E050935D0340935C036FCF8F
:1034B00080913F039091400352E08D35950729F5A7
:1034C00080EB94E0909357038093560380E996E055
:1034D00055E1C516D1043CF46CEEC6166FEFD60666
:1034E000F4F488E295E090935903809358031E14F6
:1034F0001F040CF441CF9AEFE9169FEFF9068CF206
:10350000D0935D03C0935C0342CF8B559240C1F6CC
:1035100044EA56E05093570340935603D7CFD093D5
:103520005903C0935803E3CF6FE572E08FE396E051
:103530000E94E709882309F4B7C084E090E00E9464
:103540005B0B80914F03909150030A9790934A032D
:103550008093490340914D0350914E03509348038B
:103560004093470320915103309152033093460317
:1035700020934503403151050CF46DC0109357035F
:1035800000935603803191050CF472C010935903D7
:1035900000935803D0935B03C0935A03121613068B
:1035A0000CF073C0263031050CF479C08EE096E043
:1035B00090935D0380935C034EE754E050935F0368
:1035C00040935E0380914B0390914C0320E040E0D8
:1035D00060E0009729F0059739F42FEF4FEF6FEF78
:1035E00090E080E00E948C016091830370918403DD
:1035F0004091850350918603ACE3A69FC001A79F2D
:10360000900D1124840F951FE0917B03F0917C03B2
:10361000AE9F9001AF9F300D1124E0917D03F0919A
:103620007E032E0F3F1F821B930B06970CF48ECB4D
:1036300070937C0360937B0350937E0340937D03E0
:103640006DE672E08FE396E00E94240A10924C032C
:1036500010924B03E4CE413F5F4F2CF4309257035E
:10366000209256038FCFD0935703C09356038ACF2F
:10367000813F9F4F2CF430925903209258038ACFF8
:10368000D0935903C093580385CF2B3F3F4F3CF451
:103690002AEA35E030935D0320935C038DCFD0930D
:1036A0005D03C0935C0388CF6DE672E08FE396E024
:1036B0000E94E709882309F49AC085E090E00E94FF
:1036C0005B0B80914F039091500390934A0380933A
:1036D000490320914D0330914E03309348032093CA
:1036E0004703809151039091520390934603809336
:1036F0004503233131050CF45AC01093570300934E
:10370000560320EB34E03093590320935803D093B1
:103710005B03C0935A0397FF57C08C5A9F4F893A57
:10372000910508F05FC04EE056E050935D03409372
:103730005C032EE734E030935F0320935E032FEFAA
:1037400040E06FEF90E080E00E948C016091830385
:10375000709184034091850350918603ACE3A69F4A
:10376000C001A79F900D1124840F951FE0917B034A
:10377000F0917C03AE9F9001AF9F300D1124E0913A
:103780007D03F0917E032E0F3F1F821B930B029748
:103790000CF4DCCA70937C0360937B0350937E032C
:1037A00040937D036AE772E08FE396E064C82E3EA3
:1037B0003F4F2CF43092570320925603A2CFD09360
:1037C0005703C09356039DCF009761F08C5A9F4FCB
:1037D000893A910538F48AEA95E090935D038093E5
:1037E0005C03A7CFD0935D03C0935C03A2CF6AE7CD
:1037F00072E08FE396E00E94E709882309F439C25A
:1038000080913F039091400332E08B35930709F09C
:103810008FC12FEF40E060E090E080E00E948C01DB
:1038200088E490E00E945B0BC0904F03D09050035F
:10383000D0924A03C0924903E0904D03F0904E03AA
:10384000F0924803E0924703809151039091520314
:103850009093460380934503B6010D2C000C880B12
:10386000990B0E9473284B015C0160912C037091AD
:103870002D0380912E0390912F03CD2809F471C15F
:103880009B01AC01C501B4010E94F7292B013C0149
:1038900020E030E04AEF54EC0E946C2887FD68C1BC
:1038A00020E030E04AEF54E4C301B2010E940B2B48
:1038B000181634F4412C512C7AEF672E74E4772ECD
:1038C00040922C0350922D0360922E0370922F038E
:1038D000209128033091290340912A0350912B0312
:1038E0008092280390922903A0922A03B0922B037E
:1038F00080912703882309F449C1C501B4010E94BE
:10390000F6294B015C0120E030E040E751EC0E94D9
:103910006C2887FD34C120E030E040E751E4C50168
:10392000B4010E940B2B181634F4812C912C50E713
:10393000A52E51E4B52E8092230390922403A092E9
:103940002503B0922603B7010F2C000C880B990BAE
:103950000E9473284B015C0160911F03709120034A
:103960008091210390912203EF2809F41BC19B0150
:10397000AC01C501B4010E94F7296B017C0120E074
:1039800030E04AEF54EC0E946C2887FD12C120E021
:1039900030E04AEF54E4C701B6010E940B2B181621
:1039A00034F4C12CD12C3AEFE32E34E4F32EC09240
:1039B0001F03D0922003E0922103F0922203209172
:1039C0001B0330911C0340911D0350911E038092F4
:1039D0001B0390921C03A0921D03B0921E038091C2
:1039E0001A03882309F4F3C0C501B4010E94F62923
:1039F0006B017C0120E030E040E751EC0E946C2834
:103A000087FDDEC020E030E040E751E4C701B601A9
:103A10000E940B2B181634F4C12CD12C90E7E92E00
:103A200091E4F92EC0921603D0921703E092180386
:103A3000F0921903809147039091480380319105DA
:103A40000CF4D1C010935703009356030E945F05F6
:103A5000C0904103D0904203E0904303F0904403B0
:103A60006C197D098E099F096037774181059105A1
:103A700008F0C6C03092590320925803D0935B03DC
:103A8000C0935A03809145039091460397FFDEC08F
:103A90008C5A9F4F893A910508F0E6C08EE096E077
:103AA00090935D0380935C034EE754E050935F0373
:103AB00040935E036091830370918403409185037A
:103AC00050918603ACE3A69FC001A79F900D1124DF
:103AD000840F951FE0917B03F0917C03AE9F9001D2
:103AE000AF9F300D1124E0917D03F0917E032E0FE6
:103AF0003F1F821B930B20914B0330914C032530C9
:103B0000310511F00C94132603970CF41FC984E3BC
:103B100098E0909361038093600370937C036093BB
:103B20007B0350937E0340937D0367E872E03CCEB5
:103B30008D55924051F420E04FEF60E090E080E03E
:103B40000E948C0189E490E06DCE89E490E00E94AF
:103B50005B0B20E04FEF6FEF90E080E00E948C0164
:103B600063CE23E333E343E35FE30E94D2288ECEA8
:103B7000412C512C6AEF662E64EC762EA1CE812C5E
:103B8000912C40E7A42E41ECB42ED5CE81E0809359
:103B900027031092230310922403109225031092FE
:103BA0002603D1CE23E333E343E35FE30E94D2282D
:103BB000E4CEC12CD12C2AEFE22E24ECF22EF7CE4B
:103BC000C12CD12C80E7E82E81ECF82E2BCF10925F
:103BD000160310921703109218031092190381E034
:103BE00080931A0327CF813F9F4F2CF430925703C5
:103BF000209256032BCFD0935703C093560326CF62
:103C00000E945F056C197D098E099F096037774115
:103C10008105910558F40E945F05609341037093FC
:103C20004203809343039093440328CF0E945F058F
:103C30006C197D098E099F0960347F4181059105CA
:103C400050F7D0935903C093580318CF009761F0F1
:103C50008C5A9F4F893A910538F42AEA35E030931F
:103C60005D0320935C0320CFD0935D03C0935C037E
:103C70001BCF67E872E08FE396E00E94E709882394
:103C800009F4E4C086E090E00E945B0B80914F0352
:103C90009091500390934A038093490380914D0380
:103CA00090914E039093480380934703E090510313
:103CB000F0905203F0924603E09245038331910560
:103CC0000CF47BC010935703009356030E945F05CA
:103CD0008090410390904203A0904303B09044032E
:103CE000681979098A099B0960377741810591052F
:103CF00008F070C03092590320925803D0935B03B0
:103D0000C0935A03F7FE8CC064E5E60EF11C89EA05
:103D1000E816F10408F095C02EE036E030935D031C
:103D200020935C032EE734E030935F0320935E031F
:103D300060918303709184034091850350918603C1
:103D4000ACE3A69FC001A79F900D1124840F951F7F
:103D5000E0917B03F0917C03AE9F9001AF9F300D0B
:103D60001124E0917D03F0917E032E0F3F1F821BF3
:103D7000930B803191056CF420914B0330914C03EF
:103D80002530310511F00C94A616049714F40C9408
:103D9000A61670937C0360937B0350937E0340933D
:103DA0007D0363E972E08FE396E00E94240A10929B
:103DB0004C0310924B030C94A6168E3E9F4F2CF48E
:103DC000309257032092560381CFD0935703C0936C
:103DD00056037CCF0E945F05681979098A099B09FF
:103DE000603777418105910558F40E945F05609323
:103DF00041037093420380934303909344037ECF27
:103E00000E945F05681979098A099B0960347F411E
:103E10008105910550F7D0935903C09358036ECF95
:103E2000E114F10471F034E5E30EF11C49EAE41603
:103E3000F10438F48AEA95E090935D0380935C0383
:103E400071CFD0935D03C0935C036CCF63E972E0E4
:103E50008FE396E00E94E709882309F4AAC086E070
:103E600090E00E945B0B20914F03309150032A5049
:103E7000310930934A032093490340914D035091F7
:103E80004E03509348034093470380915103909110
:103E900052039093460380934503453151050CF43A
:103EA0005FC044EA56E050935703409356032531D0
:103EB00031050CF460C024EA36E0309359032093B6
:103EC0005803D0935B03C0935A0397FF5FC08C5A8B
:103ED0009F4F893A910508F067C04EE056E0509335
:103EE0005D0340935C032EE734E030935F0320933F
:103EF0005E0324E64FEF64E690E080E00E948C01D0
:103F000060918303709184034091850350918603EF
:103F1000ACE3A69FC001A79F900D1124840F951FAD
:103F2000E0917B03F0917C03AE9F9001AF9F300D39
:103F30001124E0917D03F0917E032E0F3F1F821B21
:103F4000930B069714F40C94A61670937C0360935D
:103F50007B0350937E0340937D036BE472E024CC9B
:103F60004C3E5F4F1CF440EB54E09DCFD093570381
:103F7000C09356039CCF2C3E3F4F1CF420EB34E003
:103F80009CCFD0935903C09358039BCF009761F007
:103F90008C5A9F4F893A910538F48AEA95E09093BC
:103FA0005D0380935C039FCFD0935D03C0935C035C
:103FB0009ACF61EA72E08FE396E00E94E7098823D6
:103FC00009F4F5C088E090E00E945B0BE0904F039D
:103FD000F09050033AE0E31AF108F0924A03E092BD
:103FE000490380914D0390914E0390934803809331
:103FF0004703C0905103D0905203D0924603C09221
:10400000450380913F039091400342E08B35940734
:1040100009F097C02FEF40E060E090E080E00E9460
:104020008C0180EB94E0909357038093560353E107
:10403000E516F1040CF49BC0109359030093580348
:10404000D0935B03C0935A031C141D040CF09EC054
:1040500086E0C816D1040CF4A5C02EE036E03093FB
:104060005D0320935C038EE794E090935F0380935D
:104070005E032FEF40E06FEF90E080E00E948C0144
:1040800080914B0390914C03059751F40E945F057A
:10409000609331037093320380933303909334031E
:1040A000109230030E945F05C0903103D09032031C
:1040B000E0903303F09034036C197D098E099F0959
:1040C000653F71408105910518F081E080933003D0
:1040D000609183037091840340918503509186031E
:1040E000ACE3A69FC001A79F900D1124840F951FDC
:1040F000E0917B03F0917C03AE9F9001AF9F300D68
:104100001124E0917D03F0917E032E0F3F1F821B4F
:10411000930B8630910554F420913003222311F43F
:104120000C94A616029714F40C94A61670937C03B4
:1041300060937B0350937E0340937D036BE472E0B6
:1041400032CE8D55924071F420E04FEF60E090E068
:1041500080E00E948C0144EA56E05093570340935C
:10416000560365CF109357030093560360CF6EEE4E
:10417000E6166FEFF6062CF430925903209258039E
:104180005FCFD0935903C09358035ACF3BEFC31668
:104190003FEFD3063CF44AEA55E050935D03409369
:1041A0005C0361CFD0935D03C0935C035CCF6BE491
:1041B00072E08FE396E00E94E709882311F40C94E3
:1041C000A61683E08093760341E050E0509371039C
:1041D000409370030C94A61680916E0390916F0328
:1041E000892B09F0D5C453E0F512D2C48091530352
:1041F00081111FC080918303909184039093780371
:1042000080937703809185039091860390937A033E
:10421000809379036BE172E089E396E00E94240ABF
:1042200081E0809353036BE472E089E396E00E949F
:10423000240A80915303882311F40C94A6166BE191
:1042400072E089E396E00E94E709882309F442C1FD
:1042500088E090E00E945B0BE0904F03F0905003E9
:10426000F0924A03E0924903A0904D03B0904E03B0
:10427000B0924803A0924703C0905103D0905203DC
:10428000D0924603C092450360904B0370904C035C
:1042900065E06616710409F4EBC00E945F0580902A
:1042A000410390904203A0904303B09044036819E7
:1042B00079098A099B09693873418105910508F0DC
:1042C000B1C080913F039091400332E08B3593075A
:1042D00061F42FEF40E060E090E080E00E948C010C
:1042E00030925703209256030EC08D55924039F4F8
:1042F00020E04FEF60E090E080E00E948C0110939E
:1043000057030093560353E1E516F1040CF4C2C0C1
:104310001093590300935803D0935B03C0935A033F
:104320001C141D040CF0C5C086E0C816D1040CF4A2
:10433000CCC02EE036E030935D0320935C038EE723
:1043400094E090935F0380935E0395E06916710497
:1043500071F421E1E20EF11C33E2E316F10438F4CA
:1043600080914703909148034196839750F00E94B3
:104370005F0560933B0370933C0380933D039093F0
:104380003E030E945F05C0903B03D0903C03E09049
:104390003D03F0903E036C197D098E099F096D3233
:1043A00071408105910510F40C94A6166091830369
:1043B000709184034091850350918603ACE3A69FDE
:1043C000C001A79F900D1124840F951FE0917703E2
:1043D000F0917803AE9F9001AF9F300D1124E091D2
:1043E0007903F0917A032E0F3F1F821B930B0597E1
:1043F00014F40C94A616709378036093770350938B
:104400007A034093790360EB72E089E396E00E94BF
:10441000240A20E040E060E081E090E00E948C010E
:104420000C94A6160E945F05681979098A099B09F0
:10443000693873418105910580F00E945F05681914
:1044400079098A099B0968357B418105910528F422
:10445000D0935703C093560356CF0E945F056093D5
:1044600041037093420380934303909344034BCFE3
:104470002FEF4FEF6FEF90E080E00E948C0133E16F
:10448000A316B1040CF03BCF4EEEA4164FEFB406CA
:10449000FCF626CF6EEEE6166FEFF6062CF43092A1
:1044A00059032092580338CFD0935903C09358032F
:1044B00033CF3BEFC3163FEFD3063CF44AEA55E057
:1044C00050935D0340935C033ACFD0935D03C09358
:1044D0005C0335CF60EB72E089E396E00E94E70968
:1044E000882309F4ABC086E090E00E945B0B20912A
:1044F0004F033091500330934A0320934903409176
:104500004D0350914E0350934803409347038091CD
:104510005103909152039093460380934503433196
:1045200051050CF45EC010935703009356032331DA
:1045300031050CF463C01093590300935803D093D2
:104540005B03C0935A0397FF66C08C5A9F4F893A0A
:10455000910508F06EC08EE096E090935D03809325
:104560005C034EE754E050935F0340935E0324E600
:104570004FEF64E690E080E00E948C01609183033D
:10458000709184034091850350918603ACE3A69F0C
:10459000C001A79F900D1124840F951FE091770310
:1045A000F0917803AE9F9001AF9F300D1124E09100
:1045B0007903F0917A032E0F3F1F821B930B06970E
:1045C00014F40C94A61670937803609377035093B9
:1045D0007A03409379036EEB72E089E396E00C94E2
:1045E0003B144E3E5F4F2CF43092570320925603FB
:1045F0009ECFD0935703C093560399CF2E3E3F4F83
:104600002CF4309259032092580399CFD093590338
:10461000C093580394CF009761F08C5A9F4F893A0A
:10462000910538F42AEA35E030935D0320935C036A
:1046300098CFD0935D03C0935C0393CF6EEB72E091
:1046400089E396E00E94E709882309F4A4C085E085
:1046500090E00E945B0B80914F03909150039093E8
:104660004A038093490320914D0330914E033093C8
:1046700048032093470380915103909152039093F4
:10468000460380934503233131050CF464C0109335
:1046900057030093560324EA36E0309359032093DE
:1046A0005803D0935B03C0935A0397FF61C08C5AA1
:1046B0009F4F893A910508F069C04EE056E050934B
:1046C0005D0340935C032EE734E030935F03209357
:1046D0005E032FEF40E06FEF90E080E00E948C01DE
:1046E0006091830370918403409185035091860308
:1046F000ACE3A69FC001A79F900D1124840F951FC6
:10470000E0917703F0917803AE9F9001AF9F300D59
:104710001124E0917903F0917A032E0F3F1F821B41
:10472000930B8330910564F420914B0330914C033B
:10473000232B11F00C94A616029711F00C94A616D8
:10474000709378036093770350937A0340937903CF
:104750006CEC72E042CF2E3E3F4F2CF43092570368
:104760002092560398CFD0935703C093560393CF0C
:10477000009761F08C5A9F4F893A910538F48AEA84
:1047800095E090935D0380935C039DCFD0935D0390
:10479000C0935C0398CF6CEC72E089E396E00E94D2
:1047A000E709882309F49DC089E090E00E945B0B33
:1047B00080914F039091500390934A038093490353
:1047C00020914D0330914E033093480320934703CB
:1047D0008091510390915203909346038093450337
:1047E000233131050CF45DC0109357030093560339
:1047F0001093590300935803D0935B03C0935A035B
:1048000097FF5CC08C5A9F4F893A910508F064C0AD
:104810008EE096E090935D0380935C034EE754E056
:1048200050935F0340935E0322E34FEF62E390E017
:1048300080E00E948C016091830370918403409119
:10484000850350918603ACE3A69FC001A79F900DFE
:104850001124840F951FE0917703F0917803AE9FA8
:104860009001AF9F300D1124E0917903F0917A030C
:104870002E0F3F1F821B930B409744F480914B03F4
:1048800090914C03019711F00C94A6167093780345
:104890006093770350937A034093790365ED72E058
:1048A0009CCE2E3E3F4F2CF430925703209256035D
:1048B0009FCFD0935703C09356039ACF009761F0D0
:1048C0008C5A9F4F893A910538F42AEA35E03093A3
:1048D0005D0320935C03A2CFD0935D03C0935C0380
:1048E0009DCF65ED72E089E396E00E94E709882399
:1048F00009F4B1C08AE090E00E945B0B20914F0365
:104900003091500330934A032093490340914D0363
:1049100050914E03509348034093470380915103B5
:104920009091520390934603809345034331510580
:104930000CF464C0109357030093560323313105E0
:104940000CF469C01093590300935803D0935B0390
:10495000C0935A0397FF6CC08C5A9F4F893A9105B8
:1049600008F074C08EE096E090935D0380935C0342
:104970004EE754E050935F0340935E0380914B03F6
:1049800090914C032FEF4FEF6FEF019719F020E05C
:1049900040E060E090E080E00E948C016091830341
:1049A000709184034091850350918603ACE3A69FE8
:1049B000C001A79F900D1124840F951FE0917703EC
:1049C000F0917803AE9F9001AF9F300D1124E091DC
:1049D0007903F0917A032E0F3F1F821B930B0597EB
:1049E00014F40C94A6167093780360937703509395
:1049F0007A034093790363EE72E0EFCD4E3E5F4F52
:104A00002CF4309257032092560398CFD09357033B
:104A1000C093560393CF2E3E3F4F2CF43092590350
:104A20002092580393CFD0935903C09358038ECF4D
:104A3000009761F08C5A9F4F893A910538F42AEA21
:104A400035E030935D0320935C0392CFD0935D03F8
:104A5000C0935C038DCF63EE72E089E396E00E9421
:104A6000E709882309F47FC08BE090E00E945B0B8C
:104A700080913F039091400352E08D35950771F48A
:104A800020E04FEF60E090E080E00E948C0184EA3B
:104A900096E0909357038093560311C08B55924034
:104AA00009F057C02FEF40E060E090E080E00E9406
:104AB0008C0140EB54E0509357034093560326ED8E
:104AC00036E03093590320935803D0935B03C0938F
:104AD0005A03D0935D03C0935C034EE754E05093B8
:104AE0005F0340935E036091830370918403409160
:104AF000850350918603ACE3A69FC001A79F900D4C
:104B00001124840F951FE0917703F0917803AE9FF5
:104B10009001AF9F300D1124E0917903F0917A0359
:104B20002E0F3F1F821B930B049744F480914B037D
:104B300090914C03019711F00C94A6167093780392
:104B40006093770350937A03409379036BE472E0A8
:104B500044CD20E040E06FEF90E080E00E948C01C7
:104B600080E496E096CF6BE472E089E396E00E94E1
:104B7000E709882311F40C94A61684E08093760349
:104B800081E090E090936F0380936E030C94A616DF
:104B900080916C0390916D03892B11F00C94A616F3
:104BA00094E0F9120C94A6160E9444070C94A616E1
:104BB00010926303109262030C94D51620E040E03B
:104BC0006FEF90E080E00E948C0180916A039091E9
:104BD0006B039093570380935603809168039091E1
:104BE00069039093590380935803809166039091D1
:104BF000670390935B0380935A03809164039091C1
:104C0000650390935D0380935C0328E735E0309360
:104C10005F0320935E030E94F0060C94E2120E9450
:104C200044070C94E2124F9714F40C94A6160C94BB
:104C30008D1DCF93DF938091DD059091DE05892B4B
:104C4000C1F0D0E0C0E0E091DD05F091DE05EC0FB1
:104C5000FD1F80819181009711F00E94C82B229640
:104C6000C032D10581F78091DD059091DE050E946B
:104C7000C82B8091DF059091E005892BC1F0D0E031
:104C8000C0E0E091DF05F091E005EC0FFD1F8081B1
:104C90009181009711F00E94C82B2296C032D10555
:104CA00081F78091DF059091E0050E94C82B8091EB
:104CB0002C0690912D060E94C82B80912906909178
:104CC0002A0697FD03C060E00E94FB0389E396E09B
:104CD0000E94C3098FE396E00E94C30985E496E031
:104CE0000E94C3098BE496E0DF91CF910C94C30935
:104CF000662777270C94DD261F93FC0199278827C8
:104D0000BC01E89411911032E9F3193010F01E3013
:104D1000C8F31B3251F01D3249F4689406C00E945A
:104D2000AE26610F711D811D911D119110531A3016
:104D3000B0F33EF490958095709561957F4F8F4FBD
:104D40009F4F1F910895BB274A3031F4992322F4D5
:104D5000BDE2909581959F4F0C94C426592F482F02
:104D6000372F262F660F771F881F991F660F771F13
:104D7000881F991F620F731F841F951F660F771F6F
:104D8000881F991F0895BB27FB015527AA27880F65
:104D9000991FAA1FA41710F0A41B83955051B9F7AF
:104DA000A05DAA3308F0A95DA193009779F7B1112E
:104DB000B1931192CB010C945C288F929F92AF9289
:104DC000BF92CF92DF92EF92FF920F931F93CF93F8
:104DD000DF935C017B016115710519F0DB018D9397
:104DE0009C9385010F5F1F4FF501D0818D2F90E0BF
:104DF0000E943B286C01892BB9F5DD32B9F50F5FB4
:104E00001F4FD5011196DC91C1E05801F1E0AF1AB6
:104E1000B10843E050E064E571E0C5010E94442818
:104E2000892B69F5680182E0C80ED11C45E050E08D
:104E30006FE471E0C6010E944428892B21F46801C7
:104E400097E0C90ED11CE114F10419F0D701CD92FD
:104E5000DC9260E070E080E89FEFC111FFC060E08D
:104E600070E080E89FE7FAC05801BBCFDB3229F43D
:104E700085010E5F1F4FF501D181C0E0C6CF43E031
:104E800050E06CE471E0C5010E944428892BE9F0F0
:104E9000F80110E000E020E030E0A9015F01B0ED92
:104EA0008B2E8D0E89E08815C8F19C2E689491F8A0
:104EB0008C2F8870C2FF16C0811102C00F5F1F4F78
:104EC0003196D501DC91C92DE9CFE114F10429F027
:104ED0000E5F1F4FF7011183008360E070E080ECEC
:104EE0009FE7BCC0882311F001501109A5E0B0E094
:104EF0000E94B2299B01AC01220F331F441F551F92
:104F0000280D311D411D511D283999E939074907DF
:104F100099E15907A8F2C6609C2ED2CFAEEF8A1253
:104F200006C0C3FD3CC09C2E689493F8C9CFDF7DBA
:104F3000D534A9F580818D3239F4C061DF01129634
:104F4000818162E070E006C0DF018B32C1F311960F
:104F500061E070E080535D01A61AB70A8A30F8F468
:104F6000E0E8CE16ECE0DE065CF4B601660F771FD3
:104F7000660F771FC60ED71ECC0CDD1CC80ED11CC9
:104F80005D01FFEFAF1ABF0A8C9180538A30A8F100
:104F9000C4FF03C0D194C194D1080C0D1D1DC1FFE5
:104FA00009C0E114F10431F081E0A81AB108D70179
:104FB000AD92BC92CA01B9010E947128C370C3307E
:104FC00009F490584B015C0120E030E0A9010E94F7
:104FD0006C28882309F440C0C3E8D1E017FF05C05E
:104FE000119501951109CBE6D1E06E01B8E1CB1A1C
:104FF000D10880E2E82EF12C0FC0D501B1CFFE011F
:1050000025913591459154910E191F09C501B4019F
:105010000E94D2284B015C01D501C4010E151F0569
:1050200074F72497F594E794CC16DD06A9F78A2F38
:10503000880F8B2F881F8F3F49F020E030E0A901B7
:10504000C501B4010E946C28811106C082E290E083
:105050009093520680935106C501B401DF91CF9120
:105060001F910F91FF90EF90DF90CF90BF90AF9086
:105070009F908F90089591110C943F29803219F0E0
:1050800089508550C8F70895FB01DC01415050401C
:1050900088F08D9181341CF08B350CF4805E659125
:1050A00061341CF06B350CF4605E861B611171F38A
:1050B000990B0895881BFCCFDC01FC01672F7191CF
:1050C0007723E1F7329704C07C916D9370836291EE
:1050D000AE17BF07C8F308950E94AE2808F481E018
:1050E0000895E89409C097FB3EF4909580957095DB
:1050F00061957F4F8F4F9F4F9923A9F0F92F96E924
:10510000BB279395F695879577956795B795F11198
:10511000F8CFFAF4BB0F11F460FF1BC06F5F7F4F35
:105120008F4F9F4F16C0882311F096E911C0772347
:1051300021F09EE8872F762F05C0662371F096E850
:10514000862F70E060E02AF09A95660F771F881F1F
:10515000DAF7880F9695879597F90895990F0008C3
:10516000550FAA0BE0E8FEEF16161706E807F90739
:10517000C0F012161306E407F50798F0621B730BD4
:10518000840B950B39F40A2661F0232B242B252B55
:1051900021F408950A2609F4A140A6958FEF811DF8
:1051A000811D08950E94E5280C9459290E944B29DD
:1051B00038F00E94522920F0952311F00C944229D6
:1051C0000C94482911240C948D290E946A2970F3AB
:1051D000959FC1F3950F50E0551F629FF001729F9C
:1051E000BB27F00DB11D639FAA27F00DB11DAA1FAB
:1051F000649F6627B00DA11D661F829F2227B00DF8
:10520000A11D621F739FB00DA11D621F839FA00D82
:10521000611D221F749F3327A00D611D231F849FD2
:10522000600D211D822F762F6A2F11249F57504029
:105230009AF0F1F088234AF0EE0FFF1FBB1F661FA4
:10524000771F881F91505040A9F79E3F510580F06D
:105250000C9442290C948D295F3FE4F3983ED4F3DB
:10526000869577956795B795F795E7959F5FC1F711
:10527000FE2B880F911D9695879597F9089599278C
:105280008827089597F99F6780E870E060E00895A7
:105290009FEF80EC089500240A941616170618064E
:1052A0000906089500240A9412161306140605062A
:1052B0000895092E0394000C11F4882352F0BB0FBB
:1052C00040F4BF2B11F460FF04C06F5F7F4F8F4F1E
:1052D0009F4F089557FD9058440F551F59F05F3F59
:1052E00071F04795880F97FB991F61F09F3F79F008
:1052F00087950895121613061406551FF2CF46958A
:10530000F1DF08C0161617061806991FF1CF86950B
:105310007105610508940895E894BB2766277727EF
:10532000CB0197F90895052E97FB1EF400940E9477
:10533000AA2957FD07D00E94C52907FC03D04EF4C7
:105340000C94AA2950954095309521953F4F4F4F89
:105350005F4F089590958095709561957F4F8F4F21
:105360009F4F08950E94E729A59F900DB49F900D2F
:10537000A49F800D911D11240895B7FF0C94B229AC
:105380000E94B229821B930B0895A1E21A2EAA1B38
:10539000BB1BFD010DC0AA1FBB1FEE1FFF1FA217E5
:1053A000B307E407F50720F0A21BB30BE40BF50BE2
:1053B000661F771F881F991F1A9469F7609570956B
:1053C000809590959B01AC01BD01CF010895A29FEE
:1053D000B001B39FC001A39F700D811D1124911DC9
:1053E000B29F700D811D1124911D08955058BB2747
:1053F000AA270E940E2A0C9459290E944B2938F0A2
:105400000E94522920F039F49F3F19F426F40C949D
:1054100048290EF4E095E7FB0C944229E92F0E94FD
:105420006A2958F3BA17620773078407950720F0B3
:1054300079F4A6F50C948C290EF4E0950B2EBA2F76
:10544000A02D0B01B90190010C01CA01A00111248A
:10545000FF27591B99F0593F50F4503E68F11A1636
:10546000F040A22F232F342F4427585FF3CF4695C7
:1054700037952795A795F0405395C9F77EF41F16E9
:10548000BA0B620B730B840BBAF09150A1F0FF0FB3
:10549000BB1F661F771F881FC2F70EC0BA0F621F9F
:1054A000731F841F48F4879577956795B795F7958F
:1054B0009E3F08F0B0CF9395880F08F09927EE0F24
:1054C0009795879508950E94772A0C9459290E94F0
:1054D000522958F00E944B2940F029F45F3F29F0EF
:1054E0000C94422951110C948D290C9448290E9446
:1054F0006A2968F39923B1F3552391F3951B550B52
:10550000BB27AA2762177307840738F09F5F5F4F96
:10551000220F331F441FAA1FA9F335D00E2E3AF0D5
:10552000E0E832D091505040E695001CCAF72BD0ED
:10553000FE2F29D0660F771F881FBB1F261737073E
:105540004807AB07B0E809F0BB0B802DBF01FF2770
:1055500093585F4F3AF09E3F510578F00C944229E2
:105560000C948D295F3FE4F3983ED4F386957795AC
:105570006795B795F7959F5FC9F7880F911D969529
:10558000879597F90895E1E0660F771F881FBB1F85
:10559000621773078407BA0720F0621B730B840B32
:1055A000BA0BEE1F88F7E09508950E94DC2A6894F4
:1055B000B1110C948D2908950E94722988F09F578B
:1055C00098F0B92F9927B751B0F0E1F0660F771F27
:1055D000881F991F1AF0BA95C9F714C0B13091F01D
:1055E0000E948C29B1E008950C948C29672F782FA4
:1055F0008827B85F39F0B93FCCF3869577956795E2
:10560000B395D9F73EF490958095709561957F4F4D
:105610008F4F9F4F08950E94AE2808F48FEF089592
:10562000AA1BBB1B51E107C0AA1FBB1FA617B707C8
:1056300010F0A61BB70B881F991F5A95A9F78095E4
:105640009095BC01CD010895EE0FFF1F881F8BBF01
:105650000790F691E02D19940F931F93CF93DF934A
:105660008230910510F482E090E0E0915506F091CF
:10567000560630E020E0B0E0A0E0309799F4211524
:10568000310509F44AC0281B390B24303105D8F5FF
:105690008A819B816115710589F1FB019383828366
:1056A000FE0111C0408151810281138148175907C1
:1056B000E0F04817590799F4109761F012960C938F
:1056C000129713961C933296CF01DF91CF911F91C1
:1056D0000F9108950093550610935606F4CF2115A7
:1056E000310551F04217530738F0A901DB019A0147
:1056F000BD01DF01F801C1CFEF01F9CF909356064C
:1057000080935506CDCFFE01E20FF31F8193919355
:105710002250310939832883D7CF20915306309105
:105720005406232B41F42091050230910602309358
:105730005406209353062091030230910402211550
:10574000310541F42DB73EB7409107025091080250
:10575000241B350BE0915306F0915406E217F30732
:10576000A0F42E1B3F0B2817390778F0AC014E5FD1
:105770005F4F2417350748F04E0F5F1F50935406B4
:1057800040935306819391939FCFF0E0E0E09CCF4C
:10579000CF93DF930097E9F0FC01329713821282D6
:1057A000A0915506B0915606ED0130E020E010972B
:1057B000A1F420813181820F931F209153063091F3
:1057C00054062817390709F061C0F0935406E09396
:1057D0005306DF91CF910895EA01CE17DF07E8F570
:1057E0004A815B819E0141155105B1F7E901FB83B7
:1057F000EA8349915991C40FD51FEC17FD0761F455
:10580000808191810296840F951FE9019983888395
:10581000828193819B838A83F0E0E0E012968D91F0
:105820009C9113970097B9F52D913C911197CD015B
:105830000296820F931F2091530630915406281729
:10584000390739F6309751F51092560610925506E1
:10585000B0935406A0935306BCCFD383C283408138
:105860005181840F951FC817D90761F44E5F5F4FB0
:1058700088819981480F591F518340838A819B8178
:10588000938382832115310509F0B0CFF09356063A
:10589000E09355069ECFFD01DC01C0CF138212823A
:1058A000D7CF4F925F926F927F928F929F92AF92DB
:1058B000BF92CF92DF92EF92FF920F931F93CF93FD
:1058C000DF938C01009799F4CB01DF91CF911F9169
:1058D0000F91FF90EF90DF90CF90BF90AF909F908F
:1058E0008F907F906F905F904F900C942C2BFC01C9
:1058F000E60FF71F9C0122503109E217F30708F465
:10590000AEC0D901CD91DC911197C617D70720F110
:10591000C530D10578F0CE0104978617970750F06F
:10592000C61BD70B2297C193D1936D937C93CF0164
:105930000E94C82BC801DF91CF911F910F91FF905A
:10594000EF90DF90CF90BF90AF909F908F907F901F
:105950006F905F904F9008955B01AC1ABD0A4C01A7
:105960008C0E9D1EA0915506B0915606512C412CCF
:10597000F12CE12C109731F580915306909154064B
:105980008815990509F05CC04616570608F058C0FE
:105990008091030290910402009741F48DB79EB765
:1059A0004091070250910802841B950BE817F907F4
:1059B00008F055C0F0935406E0935306F901718343
:1059C0006083B8CF8D919C91119712966C9012972D
:1059D00013967C901397A815B90559F56C0142E010
:1059E000C40ED11CCA14DB0420F1AC014A195B09B6
:1059F000DA011296159780F0628273825183408398
:105A0000D9016D937C93E114F10471F0D7011396E1
:105A1000FC93EE9312978ECF22968C0F9D1FF90167
:105A200091838083F301EFCFF0935606E093550600
:105A300081CF4816590608F42C017D01D3019ACF75
:105A4000CB010E942C2B7C01009749F0AE01B801DC
:105A50000E94322DC8010E94C82B87016BCF10E035
:105A600000E068CFFB01DC0102C001900D924150C3
:105A70005040D8F70895FC018191861721F08823C2
:105A8000D9F7992708953197CF010895FB01DC01DB
:105A90008D91019080190110D9F3990B0895FB01A4
:105AA000DC0101900D920020E1F70895FB01DC017B
:105AB0004150504048F001900D920020C9F701C0BC
:105AC0001D9241505040E0F7089511E0C8E4D1E044
:105AD00000E006C0802FFE010E94242B2196011DAC
