:020000040000FA
:100000000C9449010C947A010C947A010C947A01B5
:100010000C947A010C947A010C947A010C947A0174
:100020000C947A010C947A010C947A010C947A0164
:100030000C947A010C947A010C947A010C947A0154
:100040000C947A010C940A0E0C947A010C947A01A7
:100050000C947A010C947A010C947A010C94C00DE2
:100060000C947A010C948A0D0C94600D0C947A0116
:100070000C947A010C947A010C947A010C947A0114
:100080000C947A010C947A010C947A010C947A0104
:100090000C942A0D0C94000D0C947A010C947A01A6
:1000A0000C947A010C947A010C947A010C947A01E4
:1000B0000C947A010C947A010C947A010C947A01D4
:1000C0000C947A010C947A010C947A010C947A01C4
:1000D0000C947A010C947A010C947A010C947A01B4
:1000E0000C947A010C9442030C948F030C947703C4
:1000F0000C9493030C9462230C945C030C94000204
:100100000C9473020C9460030C9485030C94C0024D
:100110000C94890E0C9463030C940F020C9423022C
:100120000C9469030C94D3010C9431020C94540385
:100130000C9473030C9458030C9481030C943D03AA
:100140000C946D030C947B030C9489034E414E492F
:100150004E495459494E46CDCCCC3D0AD7233C1785
:10016000B7D13877CC2B329595E6241FB14F0A00D2
:100170000020410000C84200401C4620BCBE4CCAC2
:100180001B0E5AAEC59D7400002100240027002AD2
:10019000002D003000330001010000040107010AB6
:1001A0000100000A0B02090C0D0E080703040100F0
:1001B000000000000000000000000000000000003F
:1001C00000000000000000000000000000121110FC
:1001D000000000000000000000000000000000001F
:1001E000000000000000000102102020080810207C
:1001F00040102040800201020108040201010204B3
:100200000810204080804020100804020180040271
:1002100001804020100804020108040201010204C8
:1002200008102040800102040810204080000022B5
:1002300000250028002B002E0031003400020100B0
:1002400000050108010B010505050507050808085B
:1002500008020202020A0A08080404040401010157
:10026000010101010103030303030303030407075F
:10027000070C0C0C0C0C0C0C0C02020202060606FD
:1002800006060606060B0B0B0B0B0B0B0B00890E61
:10029000622311241FBECFEFD1E2DEBFCDBF00E04D
:1002A0000CBF12E0A0E0B2E0EAE4F5E500E00BBF2D
:1002B00002C007900D92A232B107D9F725E0A2E261
:1002C000B2E001C01D92A235B207E1F711E0C8E427
:1002D000D1E000E006C021970109802FFE010E94B5
:1002E0005B28C734D10780E00807A9F70E94A30F55
:1002F0000C94932A0C9400008091A402882359F056
:10030000E091A3029FEF980F9093A402E81BF0E006
:10031000EB55FD4F82810895E0913805F091390544
:100320008E179F0798F530913E05332361F0639F48
:10033000B0011124672F349FA0011124452F329F53
:1003400090011124232F30914405E0913F05F09155
:1003500040055091410535131AC0DC01AA0FBB1F9F
:100360008A0F9B1F8E0F9F1FE0914105E80FF92F09
:10037000F11D6083E0914205E80FF92FF11D4083E4
:1003800030914305830F911DFC0120830895880F50
:10039000991F880F991F8E0F9F1FFC01E30FF11DFE
:1003A0001082E2CF0895AF92BF92CF92DF92EF9288
:1003B000FF920F931F93CF93DF936C017B018B010F
:1003C000040F151FEB015E01AE18BF08C017D1075F
:1003D00059F06991D601ED91FC910190F081E02DE9
:1003E000C6011995892B79F7C501DF91CF911F912E
:1003F0000F91FF90EF90DF90CF90BF90AF90089556
:10040000FC01538D448D252F30E0842F90E0821B1A
:10041000930B541710F0CF96089501970895FC019F
:10042000918D828D981761F0A28DAE0FBF2FB11DF7
:100430005D968C91928D9F5F9F73928F90E008954F
:100440008FEF9FEF0895FC01918D828D981731F009
:10045000828DE80FF11D858D90E008958FEF9FEF5D
:100460000895FC01918D228D892F90E0805C9F4F33
:10047000821B91098F739927089586E693E00E9465
:10048000310221E0892B09F420E0822F089589ECC4
:1004900092E00E94310221E0892B09F420E0822FB2
:1004A0000895FC01A48DA80FB92FB11DA35ABF4F09
:1004B0002C91848D90E001968F739927848FA68963
:1004C000B7892C93A089B1898C91837080648C93B7
:1004D000938D848D981306C00288F389E02D808166
:1004E0008F7D80830895EF92FF920F931F93CF9398
:1004F000DF93EC0181E0888F9B8D8C8D98131AC05F
:10050000E889F989808185FF15C09FB7F894EE8945
:10051000FF896083E889F9898081837080648083A2
:100520009FBF81E090E0DF91CF911F910F91FF90ED
:10053000EF900895F62E0B8D10E00F5F1F4F0F7395
:100540001127E02E8C8D8E110CC00FB607FCFACF50
:10055000E889F989808185FFF5CFCE010E9451029B
:10056000F1CFEB8DEC0FFD2FF11DE35AFF4FF08221
:100570009FB7F8940B8FEA89FB8980818062CFCF87
:10058000CF93DF93EC01888D8823B9F0AA89BB89CA
:10059000E889F9898C9185FD03C0808186FD0DC0B5
:1005A0000FB607FCF7CF8C9185FFF2CF808185FFD6
:1005B000EDCFCE010E945102E9CFDF91CF91089596
:1005C00080E090E0892B29F00E94470281110E946F
:1005D000000080E090E0892B29F00E943D0281110B
:1005E0000E94000080E090E0892B49F080E090E0DC
:1005F000892B29F00E94000081110E94000080E0F8
:1006000090E0892B49F080E090E0892B29F00E944E
:10061000000081110C9400000895282F30E0F901AA
:10062000EF55FE4F9491F901E951FE4F4491295B3A
:100630003D4FF9012491222309F435C0992311F18A
:1006400091509231F8F4E92FF0E08827E55DFC4FF6
:100650008F4F0C945B285C0360033D0354035803E5
:100660004203630369036D03730377037B03810311
:100670008503420389038F039303809180008F7762
:1006800080938000E22FF0E0EE0FFF1FE35DFD4F4F
:10069000A591B4918FB7F894EC91611148C0409541
:1006A0004E234C938FBF0895809180008F7DE8CFBB
:1006B00080918000877FE4CF84B58F7784BDE2CFBF
:1006C00084B58F7DFBCF8091B0008F778093B00091
:1006D000D9CF8091B0008F7DF9CF809190008F7736
:1006E00080939000CFCF809190008F7DF9CF809143
:1006F0009000877FF5CF8091A0008F778093A00036
:10070000C1CF8091A0008F7DF9CF8091A000877F1D
:10071000F5CF809120018F7780932001B3CF809116
:1007200020018F7DF9CF80912001877FF5CF4E2B5F
:10073000B8CFCF93DF9390E0FC01E951FE4F2491B5
:10074000895B9D4FFC0184918823D1F090E0880F54
:10075000991FFC01E957FE4FA591B491FC01E35D9F
:10076000FD4FC591D49161110EC09FB7F8948C9143
:10077000E22FE0958E238C932881E223E8839FBFAC
:10078000DF91CF9108958FB7F894EC91E22BEC9321
:100790008FBFF6CF3FB7F894809136029091370221
:1007A000A0913802B091390226B5A89B05C02F3F11
:1007B00019F00196A11DB11D3FBFBA2FA92F982F87
:1007C0008827BC01CD01620F711D811D911D42E082
:1007D000660F771F881F991F4A95D1F70895CF920A
:1007E000DF92EF92FF920F931F93CF93DF9300D08E
:1007F00000D000D0CDB7DEB780913F059091400585
:10080000892B09F480C0C0904505D0904605E09042
:100810004705F09048050E94CA036C157D058E05BA
:100820009F0550F40E94CA036093450570934605E6
:1008300080934705909348050E94CA03009145059F
:10084000109146052091470530914805601B710BBA
:10085000820B930B6C32714081059105A0F2F894E4
:1008600080913A0590913B059A838983E0913F05F9
:10087000F0914005DF0111968081898790913605BE
:10088000E0914905F0914A0580914B05992309F4BF
:1008900049C09081982B98879081809589238F8378
:1008A0008F818C8388E08B8358856F8149853B815C
:1008B0002C8189819A81508347FD252F3A95208389
:1008C000262F39F0441F00C000006083000000C0E4
:1008D000F2CF38E04D9160830000019761F7F0930B
:1008E0004A05E093490549873B832C839A83898392
:1008F00078940E94CA0360934505709346058093DF
:1009000047059093480529960FB6F894DEBF0FBEB1
:10091000CDBFDF91CF911F910F91FF90EF90DF90AE
:10092000CF9008959081982B988790818095892306
:100930008F838F818E8388E08D8358856F81498571
:100940003D812E8189819A81508347FD252F00C0EA
:1009500000C0208300C000C000C000C000C0608391
:100960000000262F3A9541F0441F000000C000C04F
:1009700000C000C000C0E8CF38E04D9100C06083E7
:1009800000C0019709F7F0934A05E09349054987AC
:100990003D832E83ABCF8F929F92AF92BF92CF9227
:1009A000DF92EF92FF924B015C010E94CA036B0140
:1009B0007C010E94CA036C197D098E099F09683E5B
:1009C000734081059105A8F321E0821A9108A108DE
:1009D000B10888EEC80E83E0D81EE11CF11C81141A
:1009E0009104A104B10429F7FF90EF90DF90CF901C
:1009F000BF90AF909F908F9008952FB7F89460911B
:100A000032027091330280913402909135022FBFEF
:100A10000895CF92DF92EF92FF92CF93DF930E94DF
:100A2000FD046B017C0184E98093BC00C091C70286
:100A3000D091C8028091BC0084FF1FC02097D1F3E1
:100A40000E94FD04AB01BC014C195D096E097F09D0
:100A5000CE01B0E0A0E0481759076A077B0730F3E2
:100A60001092BC0084E48093BC0081E0DF91CF91C0
:100A7000FF90EF90DF90CF90089580E0F7CFCF9276
:100A8000DF92EF92FF92CF93DF938093BB000E949F
:100A9000FD046B017C0184E88093BC00C091C70217
:100AA000D091C8028091BC0087FD20C02097D1F36F
:100AB0000E94FD04AB01BC014C195D096E097F0960
:100AC000CE01B0E0A0E0481759076A077B0730F372
:100AD0001092BC0084E48093BC00C1E08C2FDF91B5
:100AE000CF91FF90EF90DF90CF9008958091B90063
:100AF000887F8831D9F08091B900887F8034B1F047
:100B0000C091B900C87F8091B900887F803259F0C8
:100B10008091B900887F883431F01092BC0084E461
:100B20008093BC00DBCF0E940905D8CFC0E0D6CFB0
:100B3000CF92DF92EF92FF92CF93DF930E94FD045A
:100B40006B017C0184EA8093BC00C091C702D09104
:100B5000C8028091BC0087FD1FC02097D1F30E947E
:100B6000FD04AB01BC014C195D096E097F09CE0182
:100B7000B0E0A0E0481759076A077B0730F31092EE
:100B8000BC0084E48093BC0081E0DF91CF91FF90B2
:100B9000EF90DF90CF9008958091B900887F8830E2
:100BA000B9F08091B900887F803191F08091B900CF
:100BB000887F883349F48091B900887F1092BC0007
:100BC00094E49093BC00E1CF8091B900887FDDCFA1
:100BD00080E0DBCFCF92DF92EF92FF92CF93DF9353
:100BE000C82F0E94FD046B017C0184ECC11101C07F
:100BF00084E88093BC00C091C702D091C802809164
:100C0000BC0087FD1FC02097D1F30E94FD04AB01FB
:100C1000BC014C195D096E097F09CE01B0E0A0E06E
:100C2000481759076A077B0730F31092BC0084E429
:100C30008093BC0081E0DF91CF91FF90EF90DF9037
:100C4000CF9008958091B900887F883349F48091CE
:100C5000B900887F1092BC0094E49093BC00EBCF65
:100C60008091B900887FE7CF0F931F93CF93DF93D5
:100C7000C82FD62F1092A402611101C0D1E08FEFCE
:100C80008D0F8093A6021092A5020E949805809372
:100C9000A50281111CC08C2F880F8F5F0E943F0519
:100CA0008093A502882321F0813089F485E00FC06C
:100CB00007EA12E0C0E08091A6028C1325C080E014
:100CC0000E94EA058093A502813031F486E0DF912D
:100CD000CF911F910F9108958835C9F78091BB007E
:100CE000F80181938F01CF5FC093A402C093A30248
:100CF000DC13E1CF0E9409058093A502882339F314
:100D0000813029F787E0E3CF81E00E94EA058093F4
:100D1000A5028130D9F2803509F3D9CF20913E0266
:100D200030913F02032E000C440B550B285E3340DC
:100D300041095109A8E1BCEF0E94FC2628EE33E0EE
:100D400040E050E00E94CF262053384F4F4F5F4F76
:100D500030936202209361020895CF92DF92EF9266
:100D6000FF920E94FD04C0904602D0904702E0909E
:100D70004802F09049026C197D098E099F0964367A
:100D800071058105910528F528EC48EC68EC90E0A8
:100D900080E00E948C018CED95E090935802809346
:100DA000570290935A028093590222EF33E0309316
:100DB0005C0220935B0290935E0280935D029093AD
:100DC000600280935F02FF90EF90DF90CF900C94D1
:100DD000EF030E94FD046C197D098E099F0964369A
:100DE00071058105910578F00E94FD046C197D095B
:100DF0008E099F09683C71058105910520F420E06A
:100E000040E060E0C4CF0E94FD046093460270930E
:100E100047028093480290934902BDCFE7E5F2E094
:100E200080917D0290917E029183808380917B02EC
:100E300090917C02938382838091790290917A02CF
:100E4000958384838091770290917802978386833B
:100E500088E795E0918780870C948E063F924F92A9
:100E60005F926F927F928F929F92AF92BF92CF923A
:100E7000DF92EF92FF920F931F93CF93DF938091B6
:100E8000260281110DC00E94CA0360932202709352
:100E90002302809324029093250281E0809326020E
:100EA0000E94CA0300912202109123022091240281
:100EB00030912502601B710B820B930B00910B0488
:100EC00010910C0420910D0430910E0406171707A1
:100ED0002807390710F410920F04C1E080913405FF
:100EE00090913505DC01ED91FC910084F185E02DB8
:100EF0001995181619060CF06CC00E94CA0360936D
:100F00002202709323028093240290932502809101
:100F1000340590913505DC01ED91FC910284F38557
:100F2000E02D19958093110490910F04911116C032
:100F30009091070489130FC0909110042091080428
:100F4000921739F020910A049223209109049213F8
:100F500002C0C0930F0480931004C0CF993140F4B5
:100F6000E92FF0E0ED5FFB4F86879F5F90930F04C2
:100F700090910F04993179F790910804891739F00D
:100F800090910A04892390910904891320C010923A
:100F90000F046091120470911304C0901304D12CBB
:100FA00080901404D0911504E09016040091170469
:100FB000A0901804C091190430901A04809128045C
:100FC00090912A049823B9F41092000217C010924D
:100FD0000F04DF91CF911F910F91FF90EF90DF9061
:100FE000CF90BF90AF909F908F907F906F905F90C9
:100FF0004F903F90089591E09093000290912B04C0
:10100000892309F435C181E080930202912CF12CEF
:1010100010E0B12C7770072E000C880B990B0E9402
:10102000AF2523E333E343E35FE30E940E2620E092
:1010300030EC46E454E40E9433270E9411289B01BF
:10104000AC012B51344041095109A8EEB3E00E9494
:10105000EE2628E9422E23E0522E612C712CA301AA
:1010600092010E94CF2628513C4F4F4F5F4F309343
:101070007E0220937D0233E0D594C7943A95E1F740
:10108000B40145E0660F771F4A95E1F76C297D2989
:101090007770072E000C880B990B0E94AF2523E375
:1010A00033E343E35FE30E940E2620E030EC46E4A6
:1010B00054E40E9433270E9411289B01AC012B515C
:1010C000344041095109A8EEB3E00E94EE26A30185
:1010D00092010E94CF2628513C4F4F4F5F4F3093D3
:1010E0007C0220937B02B4E0DB9FB0011124C70196
:1010F000982F8827990F990F682B792BE6E0959404
:101100008794EA95E1F7682979297770072E000C12
:10111000880B990B0E94AF2523E333E343E35FE39E
:101120000E940E2620E030EC46E454E40E9433276F
:101130000E9411289B01AC012B51344041095109F7
:10114000A8EEB3E00E94EE26A30192010E94CF26F2
:1011500028513C4F4F4F5F4F30937A0220937902D2
:10116000B701759567957801F694FE2CEE24F794F7
:10117000E7946E297F297770072E000C880B990B56
:101180000E94AF2523E333E343E35FE30E940E268F
:1011900020E030EC46E454E40E9433270E941128FA
:1011A0009B01AC012B51344041095109A8EEB3E039
:1011B0000E94EE26A30192010E94CF2628513C4FA7
:1011C0004F4F5F4F3093780220937702B801B4E01D
:1011D00075956795BA95E1F78501D4E0000F111F69
:1011E000DA95E1F7602B712B7770072E000C880BD6
:1011F000990B0E94AF2523E333E343E35FE30E94AF
:101200000E2620E030EC46E454E40E9433270E948E
:1012100011287093A2026093A1026C2F70E0660FF8
:10122000771FC32DD0E0DC2FCC27DD0F6C2B7D2B5F
:10123000AA0CAB2CAA1CBB086A297B297770072E45
:10124000000C880B990B0E94AF2523E333E343E3A3
:101250005FE30E940E2620E030EC46E454E40E9456
:1012600033270E94112870933F0260933E02B1CE53
:1012700010920202CBCE10929E021092880210921F
:10128000870210924502E1E4F2E01182108213829B
:1012900012821092400210928602109285021092E1
:1012A0004B02E2E9F2E01182108213821282109264
:1012B0004A02109284021092830210925202EEE8C7
:1012C000F2E0118210821382128210925102109267
:1012D00082021092810210927402EAE8F2E0118216
:1012E0001082138212821092730210928002109266
:1012F0007F02109289021092A00210927602109240
:10130000750210926A02109269021092680210929D
:1013100067028AE590E09093660280936502EBE6AF
:10132000F2E01182108213821282158214821782D7
:1013300016828BE192E09093640280936302109294
:101340004C0210924D0210924E0210924F021092D7
:10135000500220E040E060E082E090E00C948C01DC
:10136000FC0180819181009711F00C94FF28089571
:10137000CF93DF93FC01248135816217730788F4D2
:101380009B01C081D1816BE370E0CE01820F931F7E
:101390000E94722A009729F08C1B9D0BDF91CF9140
:1013A00008958FEF9FEFFACFEF92FF920F931F9365
:1013B000CF93DF93EC017B018A01888199810097AB
:1013C00029F02A813B812417350788F4B8016F5F23
:1013D0007F4F0E948829009791F0998388831B830F
:1013E0000A832C813D81232B11F4FC0110821D8383
:1013F0000C83B701888199810E947D2A0CC0888165
:101400009981009711F00E94FF28198218821D828D
:101410001C821B821A82CE01DF91CF911F910F9106
:10142000FF90EF900895AF92BF92CF92DF92EF922C
:10143000FF920F931F93CF93DF93EC016B015A013F
:1014400079012417350720F48B2D5901E42EF82E4D
:10145000198218821B821A821D821C8250E040E091
:101460006CE172E0CE010E94D409D60114960D9170
:101470001C91A016B10628F5E016F10608F48701C4
:10148000D601ED91FC911197E00FF11FF0801082D1
:101490006D917C916A0D7B1D61157105F1F0FB0169
:1014A00001900020E9F73197AF01461B570BCE01A1
:1014B0000E94D409F60180819181080F191FD8017B
:1014C000FC92CE01DF91CF911F910F91FF90EF9091
:1014D000DF90CF90BF90AF90089588819981009759
:1014E00011F00E94FF28198218821D821C821B8223
:1014F0001A82E0CF8F929F92AF92BF92CF92DF92EB
:10150000EF92FF920F931F93CF93DF93CDB7DEB788
:10151000C05AD1090FB6F894DEBF0FBECDBFF82E6A
:10152000E92E0E94FD0400913A0210913B022091A5
:101530003C0230913D02601B710B820B930B6436B1
:1015400071058105910508F437C2CE0101966C0141
:1015500080E8F60111928A95E9F7C756DF4F1982A4
:101560001882C959D040C556DF4F19821882CB590D
:10157000D040C356DF4F19821882CD59D04050E079
:1015800040E06CE172E0CE0187569F4F0E94D40983
:10159000CD56DF4F19821882C359D040CB56DF4F4A
:1015A00019821882C559D040C956DF4F1982188256
:1015B000C759D0408E010F571F4F4AE0B8018F2DF9
:1015C0009E2D0E94DF23F80101900020E9F731975A
:1015D000AF01401B510BB801CE018D569F4F0E94A9
:1015E000D409C756DF4F88819981C959D0400097E7
:1015F00009F47FC0CD56DF4F68817981C359D0404F
:101600006115710509F473C0C556DF4F48815981D2
:10161000CB59D040C956DF4F28813981C759D040B6
:101620004217530708F463C00E947D2AC956DF4F52
:1016300088819981C759D040C356DF4F99838883E9
:10164000CD59D040C956DF4F19821882C759D040B2
:10165000CE018D569F4F0E94B009C356DF4F88813F
:101660009981CD59D040892B09F074C0C156DF4F04
:101670001882CF59D0401092A5020E9498058093FD
:10168000A502811193C084E20E943F058093A502C8
:1016900081118CC0F092BB000E94FD044B015C01E3
:1016A00084E88093BC00E090C702F090C80280916B
:1016B000BC0087FD62C0E114F104C9F30E94FD047F
:1016C000AB01BC01481959096A097B09C701B0E09F
:1016D000A0E0481759076A077B0728F31092BC005F
:1016E00084E48093BC0081E08093A5025FC00E94E7
:1016F000FF28CD56DF4F88819981C359D040C75606
:10170000DF4F99838883C959D040CB56DF4F8881FA
:101710009981C559D040C556DF4F99838883CB59ED
:10172000D040C956DF4F88819981C759D040C356F0
:10173000DF4F99838883CD59D040CD56DF4F198232
:101740001882C359D040CB56DF4F19821882C55931
:10175000D04078CFC756DF4F68817981C959D040D2
:1017600041E050E0CE0181569F4F0E94842AC0562E
:10177000DF4F1882C05AD0407ECF8091B900887F59
:10178000883229F41092A5020E940905ADCF8091FC
:10179000B900887FF82E8091B900887F8033F1F5F9
:1017A0000E940905F092A502FF2071F362E082E138
:1017B0000E9434068091A4028230E9F50E947C01E7
:1017C000E82E0E947C01F82E61E070E080E090E05D
:1017D0000E94CB046E2D82E10E943406C701FF0CEB
:1017E000AA0BBB0B4091A40250E070E060E08417AC
:1017F0009507A607B707C1F424E644E664E682E04D
:1018000090E00E948C0176018091A4028823D1F09F
:101810000E947C01F70181937F01F6CF1092BC00FA
:1018200084E48093BC00BECF8091A402882351F051
:101830000E947C01F9CF20E040E064E682E090E085
:101840000E948C01CD56DF4F19821882C359D040B7
:10185000CB56DF4F19821882C559D040C956DF4F89
:1018600019821882C759D040F60101900020E9F78B
:101870003197AF014C195D09B601CE018D569F4FCE
:101880000E94D40970E060E0CE018D569F4F0E9407
:10189000B8096C019C0150E040E0BE016D567F4FDD
:1018A000C8010E94130AF80180819181009709F410
:1018B00097C00E94B82370936C0260936B02C801BA
:1018C0000E94B009FFEFCF1ADF0AB601CE018D5694
:1018D0009F4F0E94B8097C019C01A601BE016D5674
:1018E0007F4FC8010E94130AF801808191810097FF
:1018F00009F47AC00E94B4230E94112870936E02EA
:1019000060936D02C8010E94B009FFEFEF1AFF0A51
:10191000B701CE018D569F4F0E94B8096C019C0102
:10192000A701BE016D567F4FC8010E94130AF8013E
:1019300080819181009709F45BC00E94B4230E94CA
:1019400011287093700260936F02C8010E94B00961
:10195000C956DF4F28813981C759D040A6014F5F52
:101960005F4FBE016D567F4FC8010E94130AF801F8
:1019700080819181009709F43FC00E94B4230E94A6
:1019800011287093720260937102C8010E94B0091D
:101990000E94FD0460933A0270933B0280933C02E4
:1019A00090933D02CE018D569F4F0E94B009CE010B
:1019B00087569F4F0E94B009C056DF4F0FB6F8946C
:1019C000DEBF0FBECDBFDF91CF911F910F91FF9072
:1019D000EF90DF90CF90BF90AF909F908F90089541
:1019E00060E070E0CB0167CF60E070E0CB0184CFB6
:1019F00060E070E0CB01A3CF60E070E0CB01BFCF2F
:101A00001F920F920FB60F9211240BB60F922F93C5
:101A10003F934F935F936F937F938F939F93AF9376
:101A2000BF93EF93FF9386E693E00E945102FF91EC
:101A3000EF91BF91AF919F918F917F916F915F9146
:101A40004F913F912F910F900BBE0F900FBE0F90B3
:101A50001F9018951F920F920FB60F9211240BB67C
:101A60000F922F938F939F93EF93FF93E0917603C1
:101A7000F09177038081E0917C03F0917D0382FDFA
:101A80001DC0908180917F038F5F8F7320918003B1
:101A9000821741F0E0917F03F0E0EA59FC4F958F07
:101AA00080937F03FF91EF919F918F912F910F90E2
:101AB0000BBE0F900FBE0F901F9018958081F2CF34
:101AC0001F920F920FB60F9211240BB60F922F9305
:101AD0003F934F935F936F937F938F939F93AF93B6
:101AE000BF93EF93FF9389EC92E00E945102FF9124
:101AF000EF91BF91AF919F918F917F916F915F9186
:101B00004F913F912F910F900BBE0F900FBE0F90F2
:101B10001F9018951F920F920FB60F9211240BB6BB
:101B20000F922F938F939F93EF93FF93E091D9029E
:101B3000F091DA028081E091DF02F091E00282FD13
:101B40001DC090818091E2028F5F8F732091E3022C
:101B5000821741F0E091E202F0E0E753FD4F958FEC
:101B60008093E202FF91EF919F918F912F910F90BF
:101B70000BBE0F900FBE0F901F9018958081F2CF73
:101B80001F920F920FB60F9211242F933F938F93B2
:101B90009F93AF93BF938091320290913302A091B3
:101BA0003402B09135023091310223E0230F2D37FA
:101BB00058F50196A11DB11D209331028093320288
:101BC00090933302A0933402B09335028091360291
:101BD00090913702A0913802B09139020196A11D6F
:101BE000B11D8093360290933702A0933802B093D0
:101BF0003902BF91AF919F918F913F912F910F909B
:101C00000FBE0F901F90189526E8230F0296A11D76
:101C1000B11DD2CF1F920F920FB60F9211240BB6A7
:101C20000F922F933F934F935F936F937F938F9375
:101C30009F93AF93BF93EF93FF9310928500109201
:101C40008400809101028823F9F061E08DE10E9417
:101C50000D0388E592E090938900809388001092AC
:101C60000102FF91EF91BF91AF919F918F917F9171
:101C70006F915F914F913F912F910F900BBE0F90FD
:101C80000FBE0F901F90189560E08DE10E940D032C
:101C900091E090930102809130028630C0F0109262
:101CA000300280912E0290912F02845D9E4F91957B
:101CB00081959109880F991F805C934690938900C4
:101CC0008093880010922F0210922E02CACFE82F24
:101CD000F0E0EE0FFF1FE95AFD4F208131812C52B9
:101CE0003140220F331F30938900209388002091C8
:101CF0002E0230912F0240815181240F351F3093E5
:101D00002F0220932E028F5F8093300290939F02C8
:101D1000A8CF109269031092680348EE53E060E088
:101D200070E040936A0350936B0360936C0370936D
:101D30006D038DE092E090936703809366032DEC32
:101D400030E030937303209372032CEC30E0309337
:101D500075032093740328EC30E0309377032093CD
:101D6000760329EC30E030937903209378032AEC52
:101D700030E030937B0320937A032EEC30E03093F5
:101D80007D0320937C0310927F03109280031092B6
:101D90008103109282031092CC021092CB024093E6
:101DA000CD025093CE026093CF027093D0029093F5
:101DB000CA028093C90285EC90E09093D60280938A
:101DC000D50284EC90E09093D8028093D70280EC07
:101DD00090E09093DA028093D90281EC90E09093A6
:101DE000DC028093DB0282EC90E09093DE02809331
:101DF000DD0286EC90E09093E0028093DF02109287
:101E0000E2021092E3021092E4021092E5021092B4
:101E1000370510923E051092450510924605109226
:101E200047051092480581E0809344058093410561
:101E30001092420592E0909343058093360589E025
:101E400090E090933B0580933A050E94632890931D
:101E5000400580933F05009709F46CC029E0FC0120
:101E600011922A95E9F783E090E0909339058093E9
:101E7000380586E090E090933D0580933C05809185
:101E80003705882341F061E086E00E94990360E015
:101E900086E00E940D03EDE4F2E0E491F0E0EE0F45
:101EA000FF1FE35DFD4F8591949190934A058093C8
:101EB0004905EDEEF1E0E491E0934B0580EA96E808
:101EC000A1E0B0E08093030490930404A093050480
:101ED000B09306049FE0909307041092080484E0F6
:101EE0008093090490930A0448E55BE160E070E0A8
:101EF00040930B0450930C0460930D0470930E04F4
:101F00001092100480932A0488E080932B048FE8B9
:101F100090E090932D0480932C0488E797E09093B1
:101F20002F0480932E0486E693E0909335058093EA
:101F30003405089510923B0510923A051092390528
:101F40001092380596CFCF93DF9300D01F92CDB774
:101F5000DEB7789484B5826084BD84B5816084BD29
:101F600085B5826085BD85B5816085BD80916E0037
:101F7000816080936E001092810080918100826068
:101F800080938100809181008160809381008091A5
:101F900080008160809380008091B1008460809394
:101FA000B1008091B00081608093B0008091910079
:101FB0008260809391008091910081608093910074
:101FC000809190008160809390008091A100826058
:101FD0008093A1008091A10081608093A1008091F5
:101FE000A00081608093A000809121018260809395
:101FF0002101809121018160809321018091200144
:1020000081608093200180917A00846080937A00BF
:1020100080917A00826080937A0080917A0081605A
:1020200080937A0080917A00806880937A00109281
:10203000C10080913C0590913D0597FD08C061E08D
:102040000E94990360E080913C050E940D0381E0AD
:10205000809337050E94EF0360913E05633329F1B9
:1020600020913F05309140056150C9F070E08FEF3D
:1020700092E30E944728F90140913A0550913B05AF
:10208000CF01821B930B8417950760F44081469F14
:10209000C001479F900D112490833196EDCF70E0E1
:1020A00060E0E9CF83E380933E05589A599A809186
:1020B000B9008E7F8093B9008091B9008D7F8093A5
:1020C000B90088E48093B80084E48093BC002CEDD0
:1020D00035E03093C8022093C7028CE08093B800AB
:1020E00060E086E30E94990360E082E00E94990329
:1020F00060E08DE00E9499034CED55E0509358024A
:102100004093570250935A024093590250935E02F3
:1021100040935D025093600240935F0288EE93E02B
:1021200090935C0280935B029093620280936102C1
:102130000E94FD0460933A0270933B0280933C023C
:1021400090933D0210920F0400912E0410912F04E1
:1021500080912C0490912D049A838983BC0190E096
:1021600080E00E94AD254B015C01B80190E080E069
:102170000E94AD25A50194010E9432272B013C014C
:10218000AC019B0160E070E080E090E40E949F273A
:102190006B017C0120E030E040E05FE3C301B2016D
:1021A0000E940E26A50194010E9433279058A70192
:1021B00096010E940E26E0E3F4E0A0E7B4E020E5FB
:1021C00034E049815A8141935193178F068FCD9204
:1021D000DD92ED92FD92DC966D937D938D939C93B1
:1021E000DF972E173F0769F78091340590913505E9
:1021F0009A838983C0900304D0900404E09005047E
:10220000F090060460E079E08DE390E0A70196018C
:102210000E940127215031094109510956954795DE
:1022200037952795A981BA815096ED91FC9182E06E
:102230008083C114B1EEDB06E104F10421F0211525
:10224000E0E13E07B0F0A981BA815096ED91FC9192
:10225000108260E874E88EE190E0A70196010E9488
:102260000127215031094109510956954795379564
:102270002795A981BA811C96ED91FC911D97308319
:102280001E96ED91FC911F97208358961C925897AB
:102290005496ED91FC9155978EE280835296ED9184
:1022A000FC9153978081806180835296ED91FC91DF
:1022B00053978081886080835296ED91FC9153976B
:1022C0008081806880835296ED91FC9180818F7D22
:1022D000808361E08DE10E94990360E08DE10E94BE
:1022E0000D03F894109280001092810088E790E02E
:1022F000909389008093880080918100886080930A
:1023000081008091810082608093810080916F00C4
:10231000826080936F00789468EB7BE080E090E0CF
:102320000E94CB041A82198220E040E0698190E08B
:1023300080E00E948C010E94EF03E981FA813196CE
:10234000FA83E983E115F14079F71A82198220E0D6
:10235000498160E081E090E00E948C010E94EF03DF
:1023600049815A814F5F5F4F5A83498341155140DC
:1023700071F71A821982298140E060E082E090E0E2
:102380000E948C010E94EF0389819A8101969A83B1
:1023900089838115914079F768EE73E080E090E0E1
:1023A0000E94CB041A8219822981422F622F90E069
:1023B00080E00E948C012981422F622F81E090E011
:1023C0000E948C012981422F622F82E090E00E94BE
:1023D0008C010E94EF03E981FA813196FA83E98347
:1023E000E115F14009F74FEF50E05A834983298105
:1023F000422F622F90E080E00E948C012981422FC1
:10240000622F81E090E00E948C012981422F622F8F
:1024100082E090E00E948C010E94EF0389819A8102
:1024200001979A838983019611F720E040E060E0EC
:1024300090E080E00E948C0120E040E060E081E0DC
:1024400090E00E948C0120E040E060E082E090E0BB
:102450000E948C010E94EF0320E040E060E090E0E9
:1024600080E00E948C010E94EF030E94FD043EE781
:10247000232E34E0332E48E7842E45E0942E54E09A
:10248000A52E56E0B52E60EA462E65E0562E78E180
:10249000672E76E0772E0E942E078091020281112E
:1024A0000C945E238091A1029091A2028E34B3E03D
:1024B0009B070CF457C0813BE3E09E07E4F520E066
:1024C0004FEF60E090E080E00E948C0180917D02FF
:1024D00090917E02909358028093570280917B02E4
:1024E00090917C0290935A028093590280917902D4
:1024F00090917A0290935C0280935B0280917702C4
:102500009091780290935E0280935D0284E195E061
:102510009093600280935F020E948E060E943B09A6
:1025200080919F02882321F00E94EF0310929F0266
:102530000E94E002B0CF863BF5E09F079CF0893116
:1025400026E0920754F42FEF40E060E090E080E056
:102550000E948C010E940E07E1CF8A519840833679
:10256000910520F08091A0028823D1F280919E02F3
:1025700081112DC00E94FD0460939A0270939B020A
:1025800080939C0290939D0210929902109298025F
:102590001092970210929602109293021092920259
:1025A000109295021092940210928F0210928E0255
:1025B000109291021092900210928B0210928A0255
:1025C00010928D0210928C0281E080939E02809185
:1025D0009E028823E9F18091A002811139C00E94F6
:1025E000FD0400919A0210919B0220919C0230916F
:1025F0009D02601B710B820B930B683E734081053B
:10260000910598F08091980290919902019690938B
:102610009902809398020E94FD0460939A0270933D
:102620009B0280939C0290939D02809198029091CE
:102630009902CC976CF08091960290919702019646
:1026400090939702809396021092990210929802AA
:102650000E942E078091A00281110C945323809137
:1026600089022091870230918802232B09F058C3F8
:10267000811156C380914502811115C08091960247
:102680009091970290934202809341028091980228
:1026900090919902909344028093430210924002D9
:1026A00081E08093450280914502882309F459C056
:1026B0008091400281118FC020E044E664E690E002
:1026C00080E00E948C0181E090E00E947A0A4CED4B
:1026D00055E0509358024093570250935A0240934A
:1026E000590288EE93E090935C0280935B025093D2
:1026F0005E0240935D023092600220925F029093EE
:1027000062028093610260919602709197024091FB
:10271000980250919902ACE3A69FC001A79F900D2B
:102720001124840F951FE0914102F0914202AE9F67
:102730009001AF9F300D1124E0914302F0914402CB
:102740002E0F3F1F821B930B06975CF07093420283
:1027500060934102509344024093430281E080938E
:10276000400280917D0290917E0283589540833B88
:102770009105E8F480917B0290917C02835895400A
:10278000833B9105A0F48091790290917A0283585D
:102790009540833B910558F480917702909178029F
:1027A00083589540833B910510F40C944D23809100
:1027B000750290917602019690937602809375024D
:1027C000809175029091760203970CF4A9CE81E076
:1027D0008093A002A5CE813009F053C024E640E0EA
:1027E00064E690E080E00E948C0181E090E00E942D
:1027F0007A0A8CED95E0909358028093570290935B
:102800005A028093590288EE93E090935C02809381
:102810005B0280ED97E090935E0280935D023092C0
:10282000600220925F02609196027091970240913F
:10283000980250919902ACE3A69FC001A79F900D0A
:102840001124840F951FE0914102F0914202AE9F46
:102850009001AF9F300D1124E0914302F0914402AA
:102860002E0F3F1F821B930B06970CF47ACF7093A9
:10287000420260934102509344024093430283E03A
:102880006ECF833009F051C081E090E00E947A0A57
:1028900024E640E060E090E080E00E948C01ACED36
:1028A000B5E0B0935802A0935702B0935A02A09398
:1028B000590284E195E090935C0280935B02B093AF
:1028C0005E02A0935D023092600220925F026091EE
:1028D0009602709197024091980250919902ACE350
:1028E000A69FC001A79F900D1124840F951FE09112
:1028F0004102F0914202AE9F9001AF9F300D112432
:10290000E0914302F09144022E0F3F1F821B930B74
:1029100004970CF426CF70934202609341025093C7
:1029200044024093430287E01ACF873009F04FC03A
:1029300081E090E00E947A0A24E644E664E690E0B2
:1029400080E00E948C01ECEDF5E0F0935802E093FA
:102950005702F0935A02E0935902F0935C02E0931D
:102960005B02F0935E02E0935D023092600220927F
:102970005F02609196027091970240919802509187
:102980009902ACE3A69FC001A79F900D1124840F6C
:10299000951FE0914102F0914202AE9F9001AF9FDE
:1029A000300D1124E0914302F09144022E0F3F1F9D
:1029B000821B930B04970CF4D4CE70934202609365
:1029C000410250934402409343028FE0C8CE8F30BF
:1029D00009F0DFC00E94FD04C0904602D09047027B
:1029E000E0904802F09049026C197D098E099F0918
:1029F000643671058105910508F071C020E040E062
:102A00006FEF90E080E00E948C0181E090E00E94F6
:102A10007A0A80916702909168028A3191050CF4DC
:102A200083C022E236E0309358022093570280910F
:102A3000690290916A02853191050CF486C0A2E288
:102A4000B6E0B0935A02A093590284EA96E09093BC
:102A50005C0280935B02809165029091660297FF11
:102A600085C08E5A9F4F853A910508F08BC040E48F
:102A700056E050935E0240935D02309260022092D5
:102A80005F02609196027091970240919802509176
:102A90009902ACE3A69FC001A79F900D1124840F5B
:102AA000951FE0914102F0914202AE9F9001AF9FCD
:102AB000300D1124E0914302F09144022E0F3F1F8C
:102AC000821B930B07970CF44CCE709342026093D9
:102AD000410250934402409343028FE340CE0E9450
:102AE000FD046C197D098E099F0964367105810505
:102AF000910578F00E94FD046C197D098E099F09EB
:102B0000683C71058105910520F420E040E060E01B
:102B100078CF0E94FD046093460270934702809331
:102B200048029093490271CF873E9F4F3CF446E99B
:102B300055E0509358024093570279CF8CED95E0C1
:102B4000909358028093570272CF8C3E9F4F3CF473
:102B5000E6E9F5E0F0935A02E093590276CF2CEDC6
:102B600035E030935A02209359026FCF009751F00D
:102B70008E5A9F4F853A910528F490925E0280927A
:102B80005D027BCF8CED95E090935E0280935D02B9
:102B900074CF8F3309F0B0C081E090E00E947A0AD0
:102BA000E0906F02F0907002F0926A02E092690287
:102BB000C0906D02D0906E02D0926802C0926702FF
:102BC00000917102109172021093660200936502E7
:102BD00024E640E060E090E080E00E948C019AE111
:102BE000C916D1040CF45EC08EE096E090935802B2
:102BF000809357028EE096E0F5E1EF16F10444F47D
:102C00002CEEE2162FEFF2060CF05BC08AEA95E09C
:102C100090935A02809359028CED95E090935C0258
:102C200080935B0217FF54C0015B1F4F0F391105E2
:102C300008F05BC0A0E4B6E0B0935E02A0935D0232
:102C40003092600220925F0260919602709197022A
:102C50004091980250919902ACE3A69FC001A79FB2
:102C6000900D1124840F951FE0914102F0914202D2
:102C7000AE9F9001AF9F300D1124E0914302F0917F
:102C800044022E0F3F1F821B930B04970CF469CD57
:102C90007093420260934102509344024093430276
:102CA0008FE75DCDA7EECA16AFEFDA061CF48AEA0D
:102CB00095E09CCFECEDF5E0F0935802E0935702DD
:102CC00099CF4CED55E050935A0240935902A4CF4E
:102CD0000115110551F0015B1F4F0F39110528F443
:102CE00090925E0280925D02ABCFECEDF5E0F09346
:102CF0005E02E0935D02A4CF8F3709F032CD20E071
:102D000040E060E090E080E00E948C0181E08093F0
:102D1000890221E030E0309388022093870221CDA0
:102D20002091850230918602232B09F054C2813014
:102D300009F051C290914B02911116C02091960258
:102D4000309197023093930220939202209198023F
:102D500030919902309395022093940210924A0286
:102D600080934B020E94FD0480914B02882309F45A
:102D7000F8CC80914A0281110DC182E090E00E945E
:102D80007A0A20916F023091700230936A02209388
:102D9000690240916D0250916E0250936802409317
:102DA0006702809171029091720290936602809303
:102DB0006502453151050CF48CC040E456E0509357
:102DC00058024093570200916B0210916C0201303F
:102DD000110509F09AC0213131050CF489C02EE0AB
:102DE00036E030935A02209359022CED35E03093AF
:102DF0005C0220935B0297FF8DC08E5A9F4F853AED
:102E0000910508F093C070925E0260925D0230926C
:102E1000600220925F020E94FD04C0904602D090A2
:102E20004702E0904802F09049026C197D098E0932
:102E30009F09683C71058105910508F088C020E074
:102E400040E00130110509F480C00230110509F09D
:102E500074C02FEF40E060E090E080E00E948C01C1
:102E60000E94EF0360919602709197024091980240
:102E700050919902ACE3A69FC001A79F900D112429
:102E8000840F951FE0919202F0919302AE9F900102
:102E9000AF9F300D1124E0919402F09195022E0F16
:102EA0003F1F821B930B893091053CF401301105C3
:102EB00009F057CC02970CF454CC709393026093B2
:102EC0009202509395024093940281E080934A02CB
:102ED00048CC4C3E5F4F2CF490925802809257029F
:102EE00072CFACEDB5E0B0935802A09357026BCF10
:102EF000203F3F4F1CF42AEA35E073CFECEDF5E0BC
:102F0000F0935A02E093590270CF90925A02809245
:102F100059026BCF009751F08E5A9F4F853A910519
:102F200028F450925E0240925D0271CF4CED55E064
:102F300050935E0240935D026ACF20E04FEF033072
:102F4000110509F488CF2FEF4FEF6FEF85CF0E9467
:102F5000FD046C197D098E099F09683C7105810586
:102F6000910568F00E94FD046C197D098E099F0986
:102F700020E06C3271408105910508F46BCF0E940E
:102F8000FD04609346027093470280934802909339
:102F9000490266CF813009F011C183E090E00E94C0
:102FA0007A0A20916F023091700230936A02209366
:102FB000690240916D0250916E02509368024093F5
:102FC00067028091710290917202909366028093E1
:102FD0006502453151050CF453C07092580260925D
:102FE0005702213131050CF45AC070925A02609296
:102FF00059022CED35E030935C0220935B0297FF81
:103000005DC08E5A9F4F853A910508F065C042E237
:1030100056E050935E0240935D023092600220922F
:103020005F020E94FD04C0904602D0904702E090EB
:103030004802F090490200916B0210916C026C19E9
:103040007D098E099F09683C71058105910508F08D
:103050004AC020E00130110561F02FEF0230110568
:1030600009F4A9C020E04FEF0330110509F4A4C012
:103070002FEF40E06FEF90E080E00E948C0149C0AC
:103080004C3E5F4F2CF45092580240925702A9CF09
:10309000ACEDB5E0B0935802A0935702A2CF203F09
:1030A0003F4F2CF450925A0240925902A2CFECEDBD
:1030B000F5E0F0935A02E09359029BCF009761F03C
:1030C0008E5A9F4F853A910538F486E995E09093A2
:1030D0005E0280935D02A1CFACEDB5E0B0935E02DD
:1030E000A0935D029ACF0E94FD046C197D098E09A0
:1030F0009F09683C71058105910508F04FC00E9449
:10310000FD046093460270934702809348029093B7
:1031100049020E94EF0360919602709197024091DC
:10312000980250919902ACE3A69FC001A79F900D11
:103130001124840F951FE0919202F0919302AE9FAB
:103140009001AF9F300D1124E0919402F09195020F
:103150002E0F3F1F821B930B8531910554F498016C
:10316000225031092230310508F0FBCA03970CF4D4
:10317000F8CA709393026093920250939502409321
:1031800094028DE192E00230110511F08FE192E09E
:10319000909364028093630283E098CE0E94FD04C2
:1031A0006C197D098E099F096C327140810591056A
:1031B00008F0A5CF20E040E060E05DCF833009F06B
:1031C000D0CA82E080938902E1E0F0E0F0938602C9
:1031D000E0938502C6CA2091830230918402232B9A
:1031E00009F0BAC5823009F0B7C580915202811149
:1031F00015C0809196029091970290938F028093D0
:103200008E028091980290919902909391028093FE
:1032100090021092510281E08093520280915202FA
:10322000882309F49ECA809151028111E3C084E091
:1032300090E00E947A0A40916F0250917002509380
:103240006A0240936902E0906D02F0906E02F09283
:103250006802E0926702209171023091720230930D
:103260006602209365028091630290916402F2E00D
:103270008F319F0709F088C06AEA75E070935802A1
:1032800060935702403151050CF486C0B0925A0247
:10329000A0925902ACEDB5E0B0935C02A0935B0242
:1032A000121613060CF089C02B3031050CF48DC0BA
:1032B00070925E0260925D022091960230919702B8
:1032C0003A83298340919802509199025C834B8301
:1032D0006CE3629F8001639F100D1124040F151F82
:1032E00040918E0250918F02649F9001659F300D36
:1032F00011244091900250919102240F351F021B1E
:10330000130B053011050CF467C090926002809297
:103310005F02C0906B02D0906C02C114D10409F01E
:1033200060C020E04FEF52E08F31950729F08D51BA
:10333000924039F42FEF40E060E090E080E00E949E
:103340008C010E94EF0395E0C916D10409F009CA67
:10335000053011050CF405CAA4E0EA0EF11CB9E031
:10336000EB16F10408F0FDC9E981FA81F0938F02B0
:10337000E0938E022B813C81309391022093900246
:1033800081E080935102EDC962E08D31960709F02A
:1033900073CF6EE076E072CF413F5F4F3CF4E4EBD9
:1033A000F5E0F0935A02E093590274CF4CED55E0EA
:1033B00050935A02409359026DCF263F3F4F2CF451
:1033C00050925E0240925D0277CFECEDF5E0F09313
:1033D0005E02E0935D0270CF3092600220925F0245
:1033E00098CF85E0C816D10409F0ABCF2FEF4FEF8F
:1033F0006FEFA3CF813009F0B0C084E090E00E946D
:103400007A0A20916F023091700230936A02209301
:10341000690240916D0250916E0250936802409390
:10342000670280917102909172029093660280937C
:103430006502453151050CF463C0709258026092E8
:103440005702213131050CF46AC070925A02609221
:1034500059022CED35E030935C0220935B02181684
:1034600019060CF06BC00B970CF470C070925E02E2
:1034700060925D023092600220925F0280916B0246
:1034800090916C0220E040E060E0009729F0059701
:1034900039F42FEF4FEF6FEF90E080E00E948C0146
:1034A0000E94EF03609196027091970240919802FA
:1034B00050919902ACE3A69FC001A79F900D1124E3
:1034C000840F951FE0918E02F0918F02AE9F9001C4
:1034D000AF9F300D1124E0919002F09191022E0FD8
:1034E0003F1F821B930B02970CF43BC970938F0212
:1034F00060938E02509391024093900283E041CFFB
:103500004C3E5F4F2CF4509258024092570299CF94
:10351000ACEDB5E0B0935802A093570292CF203F94
:103520003F4F2CF450925A024092590292CFECED48
:10353000F5E0F0935A02E09359028BCF863F9F4FFC
:103540002CF450925E0240925D0294CF4CED55E017
:1035500050935E0240935D028DCF833009F099C095
:1035600085E090E00E947A0A80916F02909170024B
:1035700090936A028093690220916D0230916E02ED
:1035800030936802209367028091710290917202D9
:103590009093660280936502203131050CF455C08A
:1035A000B0925802A092570224EB35E030935A02B1
:1035B000209359024CED55E050935C0240935B021E
:1035C00097FF54C08E5A9F4F853A910508F05AC014
:1035D00070925E0260925D029092600280925F0241
:1035E0002FEF40E06FEF90E080E00E948C0160914F
:1035F0009602709197024091980250919902ACE323
:10360000A69FC001A79F900D1124840F951FE091E4
:103610008E02F0918F02AE9F9001AF9F300D11246A
:10362000E0919002F09191022E0F3F1F821B930BAD
:1036300003970CF496C870938F0260938E02509398
:1036400091024093900287E09CCE213F3F4F3CF493
:10365000A4EBB5E0B0935802A0935702A5CFECEDD0
:10366000F5E0F0935802E09357029ECF009751F097
:103670008E5A9F4F853A910528F450925E024092EF
:103680005D02AACF8CED95E090935E0280935D027F
:10369000A3CF873009F0FDC080916302909164024E
:1036A000A2E08D319A0709F0B1C02FEF40E060E051
:1036B00090E080E00E948C0188E490E00E947A0A09
:1036C00080916F029091700290936A0280936902D8
:1036D00020916D0230916E02309368022093670250
:1036E00080917102909172029093660280936502BC
:1036F0002B3031050CF497C0B0925802A0925702BB
:10370000A4EBB5E0B0935A02A0935902ECEDF5E0BA
:10371000F0935C02E0935B0297FF96C08E5A9F4F36
:10372000853A910508F09CC070925E0260925D023D
:103730009092600280925F0200916B0210916C0285
:103740000115110509F093C020E040E060E090E031
:1037500080E00E948C0180919602909197026CE328
:10376000689F9001699F300D11248091980290917B
:103770009902820F931F40918E0250918F02649F95
:103780009001659F300D112440919002509191025B
:10379000240F351F821B930B0B970CF073C06091A5
:1037A0009602709197024091980250919902ACE371
:1037B000A69FC001A79F900D1124840F951FE09133
:1037C0008E02F0918F02AE9F9001AF9F300D1124B9
:1037D000E0919002F09191022E0F3F1F821B930BFC
:1037E000853191054CF40530110511F00C94B1139D
:1037F000049714F40C94B11370938F0260938E02AB
:1038000050939102409390028FE0BBCD8F51924034
:1038100039F420E04FEF60E090E080E00E948C01FE
:1038200089E490E04BCF263F3F4F3CF424EB35E05A
:10383000309358022093570263CF4CED55E05093DC
:103840005802409357025CCF009751F08E5A9F4F19
:10385000853A910528F450925E0240925D0268CF4D
:103860002CED35E030935E0220935D0261CF053090
:10387000110509F070CF20E04FEF60E090E080E0AC
:103880000E948C0144E358E050936202409361022D
:1038900086CF8F3009F0B8C086E090E00E947A0AA7
:1038A00000916F021091700210936A0200936902F6
:1038B00020916D0230916E0230936802209367026E
:1038C00080917102909172029093660280936502DA
:1038D000203131050CF474C0B0925802A092570206
:1038E00024EB35E030935A02209359024CED55E019
:1038F00050935C0240935B0297FF73C08E5A9F4FB8
:10390000853A910508F079C070925E0260925D027E
:103910009092600280925F02E0906B02F0906C02E5
:1039200020E040E060E0E114F10439F095E0E916B0
:10393000F10439F42FEF4FEF6FEF90E080E00E9439
:103940008C0160919602709197024091980250917B
:103950009902ACE3A69FC001A79F900D1124840F8C
:10396000951FE0918E02F0918F02AE9F9001AF9F64
:10397000300D1124E0919002F09191022E0F3F1F23
:10398000821B930B803191058CF4A5E0EA16F104BB
:1039900011F00C94B113055F1F4F0731110510F0A2
:1039A0000C94B113049714F40C94B11370938F0218
:1039B00060938E0250939102409390028FE1E1CC8C
:1039C000213F3F4F3CF4A4EBB5E0B0935802A093E5
:1039D000570286CFECEDF5E0F0935802E0935702E2
:1039E0007FCF009751F08E5A9F4F853A910528F46A
:1039F00050925E0240925D028BCF8CED95E09093E9
:103A00005E0280935D0284CF8F3109F0AFC086E003
:103A100090E00E947A0A20916F02309170023093F8
:103A20006A022093690240916D0250916E02509398
:103A300068024093670280917102909172029093A4
:103A4000660280936502403151050CF45CC07092AF
:103A50005802609257022D3031050CF463C0709209
:103A60005A02609259024CED55E050935C0240932B
:103A70005B0297FF66C08E5A9F4F853A910508F00A
:103A80006EC082E296E090935E0280935D02309277
:103A9000600220925F0224E64FEF64E690E080E04F
:103AA0000E948C010E94EF03609196027091970230
:103AB0004091980250919902ACE3A69FC001A79F44
:103AC000900D1124840F951FE0918E02F0918F02CA
:103AD000AE9F9001AF9F300D1124E0919002F091C4
:103AE00091022E0F3F1F821B930B049714F40C942A
:103AF000B11370938F0260938E02509391024093A2
:103B000090028FE33ECC413F5F4F2CF4509258021D
:103B100040925702A0CFECEDF5E0F0935802E0930D
:103B2000570299CF243F3F4F2CF450925A024092B3
:103B3000590299CF2CED35E030935A022093590267
:103B400092CF009761F08E5A9F4F853A910538F4D5
:103B5000A6E9B5E0B0935E02A0935D0298CFECEDCC
:103B6000F5E0F0935E02E0935D0291CF8F3309F0B0
:103B7000E4C088E090E00E947A0AE0906F02F09042
:103B80007002F0926A02E092690280916D02909157
:103B90006E02909368028093670200917102109107
:103BA0007202109366020093650280916302909105
:103BB0006402F2E08D319F0709F08EC02FEF40E0E4
:103BC00060E090E080E00E948C0124EB35E03093CF
:103BD00058022093570240E1E416F1040CF48BC024
:103BE000B0925A02A0925902ECEDF5E0F0935C021B
:103BF000E0935B02101611060CF090C00B3011051B
:103C00000CF494C070925E0260925D029092600229
:103C100080925F022FEF40E06FEF90E080E00E9423
:103C20008C0180916B0290916C02059751F40E9477
:103C3000FD0460934D0270934E0280934F02909367
:103C4000500210924C020E94FD0400914D0210910E
:103C50004E0220914F0230915002601B710B820B7B
:103C6000930B6D3B72408105910518F081E08093C4
:103C70004C02609196027091970240919802509187
:103C80009902ACE3A69FC001A79F900D1124840F59
:103C9000951FE0918E02F0918F02AE9F9001AF9F31
:103CA000300D1124E0919002F09191022E0F3F1FF0
:103CB000821B930B089734F480914C02882311F4F3
:103CC0000C94B11370938F0260938E025093910203
:103CD000409390028FE755CB8F51924039F420E00A
:103CE0004FEF60E090E080E00E948C01B0925802BB
:103CF000A092570270CF51EFE5165FEFF5063CF446
:103D000084EB95E090935A02809359026DCFACED0D
:103D1000B5E0B0935A02A093590266CF063F1F4FF9
:103D20002CF450925E0240925D0270CF2CED35E093
:103D300030935E0220935D0269CF8F3711F00C94AF
:103D4000B11383E08093890241E050E050938402F4
:103D5000409383020C94B11320918102309182022E
:103D6000232B09F08AC4833009F087C48091740240
:103D7000811115C0809196029091970290938B02C9
:103D800080938A02809198029091990290938D027B
:103D900080938C021092730281E080937402809170
:103DA0007402882311F40C94B11380917302811171
:103DB00013C188E090E00E947A0A00916F0210918E
:103DC000700210936A0200936902C0906D02D09055
:103DD0006E02D0926802C0926702E0907102F09089
:103DE0007202F0926602E092650280916B029091FD
:103DF0006C029A838983059709F4AFC080916302AE
:103E000090916402A2E08D319A0709F097C02FEFDC
:103E100040E060E090E080E00E948C01E4EBF5E09F
:103E2000F0935802E0935702003111050CF4B3C02F
:103E300070925A0260925902ECEDF5E0F0935C0248
:103E4000E0935B021E141F040CF0B5C0FBE0EF16FC
:103E5000F1040CF4BAC070925E0260925D0290921E
:103E6000600280925F0289819A81059761F4025F06
:103E70001F4F0D31110538F480916702909168024F
:103E80000B96479750F00E94FD0460935302709385
:103E9000540280935502909356020E94FD04E091D3
:103EA0009602F091970240919802509199022CE36A
:103EB000F22EFE9E9001FF9E300D11248901040F09
:103EC000151F20918A0230918B02F29ED001F39E41
:103ED000B00D112420918C0230918D022A0F3B1FCE
:103EE000D801A21BB30BAB30B105DCF40091530237
:103EF0001091540220915502309156026B017C01C1
:103F0000C01AD10AE20AF30A9DE2C91691E0D90665
:103F1000E104F10410F40C94B113139714F40C940D
:103F2000B113F0938B02E0938A0250938D02409379
:103F30008C0287E0809373020C94B1138F519240EE
:103F400039F420E04FEF60E090E080E00E948C01C7
:103F5000B0925802A092570267CF20E04FEF60E086
:103F600090E080E00E948C0123E1C216D10484F726
:103F70003EEEC3163FEFD3063CF444EB55E05093BE
:103F800058024093570250CF8CED95E09093580221
:103F90008093570249CF013F9FEF19072CF45092AD
:103FA0005A024092590248CFACEDB5E0B0935A02A4
:103FB000A093590241CF26EFE2162FEFF2062CF420
:103FC00050925E0240925D024ACF4CED55E0509314
:103FD0005E0240935D0243CF813009F0AAC086E0C3
:103FE00090E00E947A0A20916F0230917002309323
:103FF0006A022093690240916D0250916E025093C3
:1040000068024093670280917102909172029093CE
:10401000660280936502433151050CF457C07092DB
:10402000580260925702203131050CF45EC0709244
:104030005A02609259024CED55E050935C02409355
:104040005B0297FF61C08E5A9F4F853A910508F039
:1040500069C082E296E090935E0280935D023092A6
:10406000600220925F0224E64FEF64E690E080E079
:104070000E948C010E94EF0360919602709197025A
:104080004091980250919902ACE3A69FC001A79F6E
:10409000900D1124840F951FE0918A02F0918B02FC
:1040A000AE9F9001AF9F300D1124E0918C02F091F2
:1040B0008D022E0F3F1F821B930B039714F40C9459
:1040C000B11370938B0260938A022FCF4E3E5F4FE5
:1040D0002CF45092580240925702A5CFECEDF5E037
:1040E000F0935802E09357029ECF213F3F4F2CF4AC
:1040F00050925A02409259029ECF2CED35E03093F7
:104100005A022093590297CF009761F08E5A9F4F21
:10411000853A910538F4A6E9B5E0B0935E02A09324
:104120005D029DCFECEDF5E0F0935E02E0935D0261
:1041300096CF873009F0A7C085E090E00E947A0A08
:1041400080916F029091700290936A02809369024D
:1041500020916D0230916E023093680220936702C5
:104160008091710290917202909366028093650231
:10417000203131050CF461C0B0925802A092570270
:10418000B0925A02A0925902ACEDB5E0B0935C0235
:10419000A0935B0297FF62C08E5A9F4F853A9105AC
:1041A00008F06AC0E2E2F6E0F0935E02E0935D029E
:1041B0009092600280925F022FEF40E06FEF90E0FC
:1041C00080E00E948C01609196027091970240916C
:1041D000980250919902ACE3A69FC001A79F900D51
:1041E0001124840F951FE0918A02F0918B02AE9FFB
:1041F0009001AF9F300D1124E0918C02F0918D025F
:104200002E0F3F1F821B930B8430910564F4209185
:104210006B0230916C02232B11F00C94B1130297B6
:1042200014F40C94B11370938B0260938A02509330
:104230008D0240938C028FE07DCE213F3F4F3CF4B6
:1042400024EB35E0309358022093570299CF4CED80
:1042500055E0509358024093570292CF009761F077
:104260008E5A9F4F853A910538F426E935E0309310
:104270005E0220935D029CCF4CED55E050935E02B0
:1042800040935D0295CF8F3009F0A2C089E090E0A5
:104290000E947A0A80916F029091700290936A0254
:1042A0008093690220916D0230916E023093680212
:1042B000209367028091710290917202909366023E
:1042C00080936502233131050CF45CC0B092580232
:1042D000A0925702B0925A02A09259022CED35E0FA
:1042E00030935C0220935B0297FF5DC08E5A9F4F14
:1042F000853A910508F065C042E256E050935E02AF
:1043000040935D029092600280925F0222E34FEF41
:1043100062E390E080E00E948C01609196027091CF
:1043200097024091980250919902ACE3A69FC00178
:10433000A79F900D1124840F951FE0918A02F091A0
:104340008B02AE9F9001AF9F300D1124E0918C0243
:10435000F0918D022E0F3F1F821B930B0B9744F49D
:1043600080916B0290916C02019711F00C94B11343
:1043700070938B0260938A0250938D0240938C025B
:104380008FE1D8CD2E3E3F4F3CF4A4EBB5E0B09387
:104390005802A09357029ECFECEDF5E0F09358023F
:1043A000E093570297CF009761F08E5A9F4F853A5E
:1043B000910538F486E995E090935E0280935D0262
:1043C000A1CFACEDB5E0B0935E02A0935D029ACFB1
:1043D0008F3109F0BEC08AE090E00E947A0A2091F5
:1043E0006F023091700230936A022093690240910B
:1043F0006D0250916E025093680240936702809163
:10440000710290917202909366028093650243312B
:1044100051050CF467C0E2E2F6E0F0935802E09335
:104420005702203131050CF46EC0E2E2F6E0F09361
:104430005A02E0935902ACEDB5E0B0935C02A09350
:104440005B0297FF71C08E5A9F4F853A910508F025
:1044500079C0E2E2F6E0F0935E02E0935D02309212
:10446000600220925F0280916B0290916C022FEFAC
:104470004FEF6FEF019719F020E040E060E090E02F
:1044800080E00E948C0160919602709197024091A9
:10449000980250919902ACE3A69FC001A79F900D8E
:1044A0001124840F951FE0918A02F0918B02AE9F38
:1044B0009001AF9F300D1124E0918C02F0918D029C
:1044C0002E0F3F1F821B930B059714F40C94B1130E
:1044D00070938B0260938A0250938D0240938C02FA
:1044E0008FE328CD4E3E5F4F3CF446E955E05093B4
:1044F00058024093570295CFACEDB5E0B093580207
:10450000A09357028ECF213F3F4F3CF426E935E080
:1045100030935A02209359028ECF4CED55E05093C0
:104520005A024093590287CF009761F08E5A9F4FED
:10453000853A910538F426E935E030935E02209300
:104540005D028DCF4CED55E050935E0240935D02CD
:1045500086CF8F3309F082C08BE090E00E947A0A08
:10456000809163029091640252E08F31950709F0C7
:1045700058C020E04FEF60E090E080E00E948C01A6
:1045800080E496E090935802809357022EE536E03F
:1045900030935A02209359024CED55E050935C023F
:1045A00040935B0250935E0240935D023092600242
:1045B00020925F020E94EF03609196027091970231
:1045C0004091980250919902ACE3A69FC001A79F29
:1045D000900D1124840F951FE0918A02F0918B02B7
:1045E000AE9F9001AF9F300D1124E0918C02F091AD
:1045F0008D022E0F3F1F821B930B049744F4809172
:104600006B0290916C02019711F00C94B1137093AE
:104610008B0260938A0250938D0240938C028EEF3E
:1046200089CC8D51924061F42FEF40E060E090E042
:1046300080E00E948C019092580280925702A6CF8F
:1046400020E040E06FEF90E080E00E948C01E0E429
:10465000F6E0F0935802E093570298CF8E3F11F0A6
:104660000C94B11384E08093890281E090E09093F0
:104670008202809381020C94B11320917F023091C9
:104680008002232B11F00C94B113843011F00C94A0
:10469000B1130E94AD060C94B113109276021092E1
:1046A00075020C94E01320E040E06FEF90E080E0B2
:1046B0000E948C010E940E070C9490120E94AD067D
:1046C0000C949012CF93DF938091F0049091F104B9
:1046D000892BC1F0D0E0C0E0E091F004F091F1044A
:1046E000EC0FFD1F80819181009711F00E94FF283F
:1046F0002296C032D10581F78091F0049091F104A7
:104700000E94FF288091F2049091F304892BC1F05C
:10471000D0E0C0E0E091F204F091F304EC0FFD1F53
:1047200080819181009711F00E94FF282296C0326B
:10473000D10581F78091F2049091F3040E94FF2843
:1047400080913F05909140050E94FF2880913C0593
:1047500090913D0597FD05C060E0DF91CF910C94ED
:104760009903DF91CF910895662777270C94192438
:104770001F93FC0199278827BC01E89411911032FE
:10478000E9F3193010F01E30C8F31B3251F01D321E
:1047900049F4689406C00E94EA23610F711D811DCF
:1047A000911D119110531A30B0F33EF490958095FD
:1047B000709561957F4F8F4F9F4F1F910895BB2735
:1047C0004A3031F4992322F4BDE2909581959F4FB0
:1047D0000C940024592F482F372F262F660F771F50
:1047E000881F991F660F771F881F991F620F731FFD
:1047F000841F951F660F771F881F991F0895BB2779
:10480000FB015527AA27880F991FAA1FA41710F08C
:10481000A41B83955051B9F7A05DAA3308F0A95D98
:10482000A193009779F7B111B1931192CB010C9438
:1048300098258F929F92AF92BF92CF92DF92EF9284
:10484000FF920F931F93CF93DF935C017B01611560
:10485000710519F0DB018D939C9385010F5F1F4F4C
:10486000F501D0818D2F90E00E9477256C01892B76
:10487000B9F5DD32B9F50F5F1F4FD5011196DC9107
:10488000C1E05801F1E0AF1AB10843E050E064E53F
:1048900071E0C5010E948025892B69F5680182E0DD
:1048A000C80ED11C45E050E06FE471E0C6010E94E3
:1048B0008025892B21F4680197E0C90ED11CE114F1
:1048C000F10419F0D701CD92DC9260E070E080E84D
:1048D0009FEFC111FFC060E070E080E89FE7FAC081
:1048E0005801BBCFDB3229F485010E5F1F4FF50164
:1048F000D181C0E0C6CF43E050E06CE471E0C50177
:104900000E948025892BE9F0F80110E000E020E00A
:1049100030E0A9015F01B0ED8B2E8D0E89E0881586
:10492000C8F19C2E689491F88C2F8870C2FF16C035
:10493000811102C00F5F1F4F3196D501DC91C92D47
:10494000E9CFE114F10429F00E5F1F4FF701118345
:10495000008360E070E080EC9FE7BCC0882311F02A
:1049600001501109A5E0B0E00E94EE269B01AC01C8
:10497000220F331F441F551F280D311D411D511D8E
:10498000283999E93907490799E15907A8F2C6601A
:104990009C2ED2CFAEEF8A1206C0C3FD3CC09C2E27
:1049A000689493F8C9CFDF7DD534A9F580818D3225
:1049B00039F4C061DF011296818162E070E006C0C7
:1049C000DF018B32C1F3119661E070E080535D012D
:1049D000A61AB70A8A30F8F4E0E8CE16ECE0DE0654
:1049E0005CF4B601660F771F660F771FC60ED71EE1
:1049F000CC0CDD1CC80ED11C5D01FFEFAF1ABF0A45
:104A00008C9180538A30A8F1C4FF03C0D194C19423
:104A1000D1080C0D1D1DC1FF09C0E114F10431F0D6
:104A200081E0A81AB108D701AD92BC92CA01B901C0
:104A30000E94AD25C370C33009F490584B015C014E
:104A400020E030E0A9010E94A825882309F440C095
:104A5000C3E8D1E017FF05C0119501951109CBE618
:104A6000D1E06E01B8E1CB1AD10880E2E82EF12C3A
:104A70000FC0D501B1CFFE012591359145915491DB
:104A80000E191F09C501B4010E940E264B015C01DD
:104A9000D501C4010E151F0574F72497F594E7940A
:104AA000CC16DD06A9F78A2F880F8B2F881F8F3F22
:104AB00049F020E030E0A901C501B4010E94A82519
:104AC000811106C082E290E090934D0580934C05E1
:104AD000C501B401DF91CF911F910F91FF90EF902D
:104AE000DF90CF90BF90AF909F908F9008959111DD
:104AF0000C947B26803219F089508550C8F70895B0
:104B0000FB01DC014150504088F08D9181341CF054
:104B10008B350CF4805E659161341CF06B350CF4C0
:104B2000605E861B611171F3990B0895881BFCCFA1
:104B3000DC01FC01672F71917723E1F7329704C004
:104B40007C916D9370836291AE17BF07C8F308958F
:104B50000E94EA2508F481E00895E89409C097FBD3
:104B60003EF490958095709561957F4F8F4F9F4F44
:104B70009923A9F0F92F96E9BB279395F695879588
:104B800077956795B795F111F8CFFAF4BB0F11F44B
:104B900060FF1BC06F5F7F4F8F4F9F4F16C08823F2
:104BA00011F096E911C0772321F09EE8872F762F28
:104BB00005C0662371F096E8862F70E060E02AF069
:104BC0009A95660F771F881FDAF7880F9695879555
:104BD00097F90895990F0008550FAA0BE0E8FEEF2A
:104BE00016161706E807F907C0F012161306E407B1
:104BF000F50798F0621B730B840B950B39F40A26AA
:104C000061F0232B242B252B21F408950A2609F487
:104C1000A140A6958FEF811D811D08950E94212638
:104C20000C9495260E94872638F00E948E2620F04C
:104C3000952311F00C947E260C94842611240C9458
:104C4000C9260E94A62670F3959FC1F3950F50E0E8
:104C5000551F629FF001729FBB27F00DB11D639F2E
:104C6000AA27F00DB11DAA1F649F6627B00DA11DD4
:104C7000661F829F2227B00DA11D621F739FB00D7A
:104C8000A11D621F839FA00D611D221F749F3327EA
:104C9000A00D611D231F849F600D211D822F762F83
:104CA0006A2F11249F5750409AF0F1F088234AF060
:104CB000EE0FFF1FBB1F661F771F881F91505040CC
:104CC000A9F79E3F510580F00C947E260C94C926CE
:104CD0005F3FE4F3983ED4F3869577956795B79553
:104CE000F795E7959F5FC1F7FE2B880F911D96956D
:104CF000879597F9089599278827089597F99F67C9
:104D000080E870E060E008959FEF80EC0895002453
:104D10000A941616170618060906089500240A9420
:104D200012161306140605060895092E0394000CA6
:104D300011F4882352F0BB0F40F4BF2B11F460FF35
:104D400004C06F5F7F4F8F4F9F4F089557FD90585E
:104D5000440F551F59F05F3F71F04795880F97FB3F
:104D6000991F61F09F3F79F08795089512161306F9
:104D70001406551FF2CF4695F1DF08C01616170628
:104D80001806991FF1CF869571056105089408955D
:104D9000E894BB2766277727CB0197F90895052E5E
:104DA00097FB1EF400940E94E62657FD07D00E9450
:104DB000012707FC03D04EF40C94E626509540954D
:104DC000309521953F4F4F4F5F4F089590958095B7
:104DD000709561957F4F8F4F9F4F08950E942327B5
:104DE000A59F900DB49F900DA49F800D911D11243F
:104DF0000895B7FF0C94EE260E94EE26821B930BBB
:104E00000895A1E21A2EAA1BBB1BFD010DC0AA1F0B
:104E1000BB1FEE1FFF1FA217B307E407F50720F023
:104E2000A21BB30BE40BF50B661F771F881F991F9E
:104E30001A9469F760957095809590959B01AC01E7
:104E4000BD01CF010895A29FB001B39FC001A39FF0
:104E5000700D811D1124911DB29F700D811D1124B3
:104E6000911D08955058BB27AA270E944A270C94E9
:104E700095260E94872638F00E948E2620F039F46D
:104E80009F3F19F426F40C9484260EF4E095E7FB7A
:104E90000C947E26E92F0E94A62658F3BA176207C3
:104EA00073078407950720F079F4A6F50C94C826BB
:104EB0000EF4E0950B2EBA2FA02D0B01B901900135
:104EC0000C01CA01A0011124FF27591B99F0593F79
:104ED00050F4503E68F11A16F040A22F232F342FC1
:104EE0004427585FF3CF469537952795A795F0400F
:104EF0005395C9F77EF41F16BA0B620B730B840B24
:104F0000BAF09150A1F0FF0FBB1F661F771F881FDB
:104F1000C2F70EC0BA0F621F731F841F48F4879533
:104F200077956795B795F7959E3F08F0B0CF939525
:104F3000880F08F09927EE0F9795879508950E949E
:104F4000B3270C9495260E948E2658F00E9487263F
:104F500040F029F45F3F29F00C947E2651110C9407
:104F6000C9260C9484260E94A62668F39923B1F3DF
:104F7000552391F3951B550BBB27AA27621773077F
:104F8000840738F09F5F5F4F220F331F441FAA1F13
:104F9000A9F335D00E2E3AF0E0E832D091505040CF
:104FA000E695001CCAF72BD0FE2F29D0660F771F7D
:104FB000881FBB1F261737074807AB07B0E809F063
:104FC000BB0B802DBF01FF2793585F4F3AF09E3FE8
:104FD000510578F00C947E260C94C9265F3FE4F3CB
:104FE000983ED4F3869577956795B795F7959F5F2B
:104FF000C9F7880F911D9695879597F90895E1E077
:10500000660F771F881FBB1F621773078407BA07D5
:1050100020F0621B730B840BBA0BEE1F88F7E09530
:1050200008950E9418286894B1110C94C926089517
:105030000E94AE2688F09F5798F0B92F9927B75154
:10504000B0F0E1F0660F771F881F991F1AF0BA952C
:10505000C9F714C0B13091F00E94C826B1E008959C
:105060000C94C826672F782F8827B85F39F0B93F8E
:10507000CCF3869577956795B395D9F73EF49095DF
:105080008095709561957F4F8F4F9F4F0895AA1B14
:10509000BB1B51E107C0AA1FBB1FA617B70710F023
:1050A000A61BB70B881F991F5A95A9F78095909555
:1050B000BC01CD010895EE0FFF1F881F8BBF079025
:1050C000F691E02D19940F931F93CF93DF938230C5
:1050D000910510F482E090E0E0915005F0915105C7
:1050E00030E020E0B0E0A0E0309799F421153105E0
:1050F00009F44AC0281B390B24303105D8F58A81C0
:105100009B816115710589F1FB0193838283FE0107
:1051100011C0408151810281138148175907E0F085
:105120004817590799F4109761F012960C9312974B
:1051300013961C933296CF01DF91CF911F910F915F
:1051400008950093500510935105F4CF21153105B2
:1051500051F04217530738F0A901DB019A01BD0154
:10516000DF01F801C1CFEF01F9CF90935105809392
:105170005005CDCFFE01E20FF31F81939193225092
:10518000310939832883D7CF20914E0530914F05BF
:10519000232B41F4209105023091060230934F05F4
:1051A00020934E0520910302309104022115310510
:1051B00041F42DB73EB74091070250910802241BDD
:1051C000350BE0914E05F0914F05E217F307A0F47F
:1051D0002E1B3F0B2817390778F0AC014E5F5F4F4D
:1051E0002417350748F04E0F5F1F50934F0540932B
:1051F0004E05819391939FCFF0E0E0E09CCFCF9359
:10520000DF930097E9F0FC01329713821282A0919C
:105210005005B0915105ED0130E020E01097A1F468
:1052200020813181820F931F20914E0530914F05CF
:105230002817390709F061C0F0934F05E0934E0538
:10524000DF91CF910895EA01CE17DF07E8F54A8193
:105250005B819E0141155105B1F7E901FB83EA83AA
:1052600049915991C40FD51FEC17FD0761F4808156
:1052700091810296840F951FE90199838883828129
:1052800093819B838A83F0E0E0E012968D919C915C
:1052900013970097B9F52D913C911197CD01029686
:1052A000820F931F20914E0530914F052817390723
:1052B00039F6309751F51092510510925005B09380
:1052C0004F05A0934E05BCCFD383C283408151814B
:1052D000840F951FC817D90761F44E5F5F4F88810F
:1052E0009981480F591F518340838A819B81938301
:1052F00082832115310509F0B0CFF0935105E09379
:1053000050059ECFFD01DC01C0CF13821282D7CFA2
:105310004F925F926F927F928F929F92AF92BF92C5
:10532000CF92DF92EF92FF920F931F93CF93DF9371
:105330008C01009799F4CB01DF91CF911F910F91D0
:10534000FF90EF90DF90CF90BF90AF909F908F90A5
:105350007F906F905F904F900C946328FC01E60F54
:10536000F71F9C0122503109E217F30708F4AEC081
:10537000D901CD91DC911197C617D70720F1C5301F
:10538000D10578F0CE0104978617970750F0C61B19
:10539000D70B2297C193D1936D937C93CF010E9439
:1053A000FF28C801DF91CF911F910F91FF90EF90DF
:1053B000DF90CF90BF90AF909F908F907F906F9035
:1053C0005F904F9008955B01AC1ABD0A4C018C0EA2
:1053D0009D1EA0915005B0915105512C412CF12CEE
:1053E000E12C109731F580914E0590914F0588156D
:1053F000990509F05CC04616570608F058C0809120
:10540000030290910402009741F48DB79EB740913A
:10541000070250910802841B950BE817F90708F062
:1054200055C0F0934F05E0934E05F90171836083F9
:10543000B8CF8D919C91119712966C9012971396FC
:105440007C901397A815B90559F56C0142E0C40E7C
:10545000D11CCA14DB0420F1AC014A195B09DA0142
:105460001296159780F06282738251834083D9012E
:105470006D937C93E114F10471F0D7011396FC93C2
:10548000EE9312978ECF22968C0F9D1FF901918378
:105490008083F301EFCFF0935105E093500581CF66
:1054A0004816590608F42C017D01D3019ACFCB018F
:1054B0000E9463287C01009749F0AE01B8010E9468
:1054C000692AC8010E94FF2887016BCF10E000E025
:1054D00068CFFB01DC0102C001900D9241505040A9
:1054E000D8F70895FC018191861721F08823D9F718
:1054F000992708953197CF010895FB01DC010190B0
:105500000D920020E1F70895FB01DC01415050406D
:1055100048F001900D920020C9F701C01D92415042
:105520005040E0F7089511E0C8E4D1E000E006C083
:10553000802FFE010E945B282196011DC934D107EE
:1055400080E00807A9F7F894FFCF0101010000529D
:10555000058000000000007302D3010002C0023188
:0C556000020F022302300062006700000E
:10E000000D9489F10D94B2F10D94B2F10D94B2F129
:10E010000D94B2F10D94B2F10D94B2F10D94B2F1F0
:10E020000D94B2F10D94B2F10D94B2F10D94B2F1E0
:10E030000D94B2F10D94B2F10D94B2F10D94B2F1D0
:10E040000D94B2F10D94B2F10D94B2F10D94B2F1C0
:10E050000D94B2F10D94B2F10D94B2F10D94B2F1B0
:10E060000D94B2F10D94B2F10D94B2F10D94B2F1A0
:10E070000D94B2F10D94B2F10D94B2F10D94B2F190
:10E080000D94B2F10D94B2F10D94B2F10D94B2F180
:10E090000D94B2F10D94B2F10D94B2F10D94B2F170
:10E0A0000D94B2F10D94B2F10D94B2F10D94B2F160
:10E0B0000D94B2F10D94B2F10D94B2F10D94B2F150
:10E0C0000D94B2F10D94B2F10D94B2F10D94B2F140
:10E0D0000D94B2F10D94B2F10D94B2F10D94B2F130
:10E0E0000D94B2F141546D656761323536300041AF
:10E0F000726475696E6F206578706C6F72657220DE
:10E1000073746B3530305632206279204D4C530099
:10E11000426F6F746C6F616465723E004875683F52
:10E1200000436F6D70696C6564206F6E203D200048
:10E130004350552054797065202020203D20005FF9
:10E140005F4156525F415243485F5F3D2000415658
:10E1500052204C696243205665723D20004743437C
:10E160002056657273696F6E203D20004350552024
:10E1700049442020202020203D20004C6F7720663D
:10E18000757365202020203D20004869676820665F
:10E190007573652020203D200045787420667573D6
:10E1A00065202020203D20004C6F636B2066757336
:10E1B000652020203D20004D617220203720323024
:10E1C000313300312E362E3800342E332E350056A2
:10E1D00023202020414444522020206F7020636F70
:10E1E00064652020202020696E73747275637469E1
:10E1F0006F6E2061646472202020496E74657272B3
:10E20000757074006E6F20766563746F7200726A49
:10E210006D702020006A6D70200057686174207056
:10E220006F72743A00506F7274206E6F7420737541
:10E2300070706F72746564004D7573742062652030
:10E2400061206C6574746572002000577269747483
:10E25000696E672045450052656164696E672045B7
:10E26000450045452065727220636E743D00504F35
:10E27000525400303D5A65726F2061646472003FF1
:10E280003D43505520737461747300403D454550C3
:10E29000524F4D207465737400423D426C696E6B41
:10E2A000204C454400453D44756D70204545505215
:10E2B0004F4D00463D44756D7020464C415348001B
:10E2C000483D48656C70004C3D4C69737420492F83
:10E2D0004F20506F72747300513D51756974005234
:10E2E0003D44756D702052414D00563D73686F7707
:10E2F00020696E7465727275707420566563746FF0
:10E30000727300593D506F727420626C696E6B00BD
:10E310002A0011241FBECFEFD1E2DEBFCDBF01E046
:10E320000CBF12E0A0E0B2E0EEE1FDEF03E00BBFB6
:10E3300002C007900D92A030B107D9F712E0A0E01B
:10E34000B2E001C01D92AE30B107E1F70F9460F367
:10E350000D948DFE01E20EBF0FEF0DBF11241FBE05
:10E360000D9460F30D9400F020E030E040ED57E0B4
:10E3700005C0FA013197F1F72F5F3F4F2817390792
:10E38000C0F308959C01260F311DC901A0E0B0E043
:10E390002F5F3F4FABBFFC018791882361F08093D3
:10E3A000C6008091C00086FFFCCF8091C0008064D1
:10E3B0008093C000EACF08958DE08093C6008091DD
:10E3C000C00086FFFCCF8091C00080648093C000B5
:10E3D0008AE08093C6008091C00086FFFCCF8091C8
:10E3E000C00080648093C00008950F94C2F10F9420
:10E3F000DCF10895FC019081992359F09093C600B7
:10E400008091C00086FFFCCF8091C0008064809323
:10E41000C0003196992379F70895282F982F929567
:10E420009F70892F805D8A3308F0895F8093C600D2
:10E430008091C00086FFFCCF8091C00080648093F3
:10E44000C000822F8F70982F905D9A3308F0995FEB
:10E450009093C6008091C00086FFFCCF8091C000E1
:10E4600080648093C00008959C01FB01853691056E
:10E470001CF46330710594F0C90164E670E00F94F8
:10E480002EFE605D7F4F6093C6008091C00086FFC6
:10E49000FCCF8091C00080648093C0002B30310598
:10E4A00014F43297B4F0C90164E670E00F942EFEC4
:10E4B0006AE070E00F942EFE605D7F4F6093C600AF
:10E4C0008091C00086FFFCCF8091C0008064809363
:10E4D000C000C9016AE070E00F942EFEC0968093E0
:10E4E000C6008091C00086FFFCCF8091C000806490
:10E4F0008093C00008951F93182F8EE692EE60E07F
:10E500000F94C2F11093C6008091C00086FFFCCF2B
:10E510008091C00080648093C0000F94DCF11F9153
:10E5200008952F923F924F925F926F927F928F92B7
:10E530009F92AF92BF92CF92DF92EF92FF920F9392
:10E540001F93DF93CF93CDB7DEB762970FB6F894E2
:10E55000DEBF0FBECDBF382E622ECA01DB015C01CB
:10E560006D01772420E2222E2E010894411C511CBB
