:020000040000FA
:100000000C9458010C9489010C9489010C94890179
:100010000C9489010C9489010C9489010C94890138
:100020000C9489010C9489010C9489010C94890128
:100030000C9489010C9489010C9489010C94890118
:100040000C9489010C94CF0F0C9489010C948901B4
:100050000C9489010C9489010C9489010C94850FEE
:100060000C9489010C944F0F0C94250F0C9489016A
:100070000C9489010C9489010C9489010C948901D8
:100080000C9489010C9489010C9489010C948901C8
:100090000C94EF0E0C94C50E0C9489010C948901FC
:1000A0000C9489010C9489010C9489010C948901A8
:1000B0000C9489010C9489010C9489010C94890198
:1000C0000C9489010C9489010C9489010C94890188
:1000D0000C9489010C9489010C9489010C94890178
:1000E0000C94890105A84CCDB2D44EB93836A9027A
:1000F0000C50B9918688083CA6AAAA2ABE00000026
:10010000803F0C948A030C9482020C9478030C9424
:1001100063030C94A2030C94CF020C9482030C94FE
:100120009E030C9472030C9498030C9494030C9407
:1001300040020C9451030C94E2010C941E020C94A6
:1001400067030C94B9270C946B030C940F020C9466
:100150006F030C944C030C9432020C9490030C9497
:100160007C030C9486030C944E104E414E494E492C
:100170005459494E46CDCCCC3D0AD7233C17B7D174
:100180003877CC2B329595E6241FB14F0A0000201A
:10019000410000C84200401C4620BCBE4CCA1B0E99
:1001A0005AAEC59D7400002100240027002A002DAE
:1001B000003000330001010000040107010A0100C2
:1001C000000A0B02090C0D0E0807030401000000D1
:1001D000000000000000000000000000000000001F
:1001E00000000000000000000000001211100000DC
:1001F00000000000000000000000000000000000FF
:10020000000000000001021020200808102040100B
:1002100020408002010201080402010102040810CA
:1002200020408080402010080402018004020180E8
:100230004020100804020108040201010204081011
:100240002040800102040810204080000022002588
:100250000028002B002E00310034000201000005B0
:100260000108010B01050505050705080808080236
:100270000202020A0A08080404040401010101013F
:100280000101010303030303030303040707070C2E
:100290000C0C0C0C0C0C0C020202020606060606E4
:1002A0000606060B0B0B0B0B0B0B0B004E10B927A6
:1002B00011241FBECFEFD1E2DEBFCDBF00E00CBFE7
:1002C00012E0A0E0B2E0E8E5FFE500E00BBF02C00D
:1002D00007900D92A03FB107D9F726E0A0EFB2E05A
:1002E00001C01D92AB35B207E1F711E0C7E5D1E0DF
:1002F00000E006C021970109802FFE010E947E2E9A
:10030000C635D10780E00807A9F70E9480110C9438
:100310009A2F0C94000080919503882359F0E09166
:1003200094039FEF980F90939503E81BF0E0EA5633
:10033000FC4F82810895E0912906F0912A068E17DC
:100340009F0798F530912F06332361F0639FB0012A
:100350001124672F349FA0011124452F329F900153
:100360001124232F30913506E0913006F0913106AB
:100370005091320635131AC0DC01AA0FBB1F8A0F39
:100380009B1F8E0F9F1FE0913206E80FF92FF11D82
:100390006083E0913306E80FF92FF11D408330911F
:1003A0003406830F911DFC0120830895880F991F47
:1003B000880F991F8E0F9F1FFC01E30FF11D108204
:1003C000E2CF0895AF92BF92CF92DF92EF92FF9269
:1003D0000F931F93CF93DF936C017B018B01040F6D
:1003E000151FEB015E01AE18BF08C017D10759F009
:1003F0006991D601ED91FC910190F081E02DC6014B
:100400001995892B79F7C501DF91CF911F910F9134
:10041000FF90EF90DF90CF90BF90AF900895FC01D8
:10042000538D448D252F30E0842F90E0821B930B59
:10043000541710F0CF96089501970895FC01918DFF
:10044000828D981761F0A28DAE0FBF2FB11D5D9602
:100450008C91928D9F5F9F73928F90E008958FEFA4
:100460009FEF0895FC01918D828D981731F0828D58
:10047000E80FF11D858D90E008958FEF9FEF0895AF
:10048000FC01918D228D892F90E0805C9F4F821B13
:1004900091098F739927089587E594E00E9440029F
:1004A00021E0892B09F420E0822F08958AEB93E064
:1004B0000E94400221E0892B09F420E0822F089558
:1004C000FC01A48DA80FB92FB11DA35ABF4F2C91C9
:1004D000848D90E001968F739927848FA689B789C0
:1004E0002C93A089B1898C91837080648C93938DB7
:1004F000848D981306C00288F389E02D80818F7D5A
:1005000080830895EF92FF920F931F93CF93DF9311
:10051000EC0181E0888F9B8D8C8D98131AC0E8893F
:10052000F989808185FF15C09FB7F894EE89FF890E
:100530006083E889F98980818370806480839FBFAC
:1005400081E090E0DF91CF911F910F91FF90EF90AC
:100550000895F62E0B8D10E00F5F1F4F0F731127BC
:10056000E02E8C8D8E110CC00FB607FCFACFE889F7
:10057000F989808185FFF5CFCE010E946002F1CF1D
:10058000EB8DEC0FFD2FF11DE35AFF4FF0829FB76B
:10059000F8940B8FEA89FB8980818062CFCFCF935B
:1005A000DF93EC01888D8823B9F0AA89BB89E8899B
:1005B000F9898C9185FD03C0808186FD0DC00FB641
:1005C00007FCF7CF8C9185FFF2CF808185FFEDCFBF
:1005D000CE010E946002E9CFDF91CF91089580E0C3
:1005E00090E0892B29F00E94560281110E940000A0
:1005F00080E090E0892B29F00E944C0281110E943A
:10060000000080E090E0892B49F080E090E0892BA9
:1006100029F00E94000081110E94000080E090E01B
:10062000892B49F080E090E0892B29F00E9400009E
:1006300081110C9400000895282F30E0F901E15455
:10064000FE4F9491F901EB5FFD4F44912B593D4FC3
:10065000F9012491222309F435C0992311F1915015
:100660009231F8F4E92FF0E08827E65CFC4F8F4FD9
:100670000C947E2E6B036F034C03630367035103DB
:10068000720378037C03820386038A039003940336
:10069000510398039E03A203809180008F7780937B
:1006A0008000E22FF0E0EE0FFF1FE55BFD4FA5910C
:1006B000B4918FB7F894EC91611148C040954E23E6
:1006C0004C938FBF0895809180008F7DE8CF8091FB
:1006D0008000877FE4CF84B58F7784BDE2CF84B577
:1006E0008F7DFBCF8091B0008F778093B000D9CF02
:1006F0008091B0008F7DF9CF809190008F778093AB
:100700009000CFCF809190008F7DF9CF80919000A5
:10071000877FF5CF8091A0008F778093A000C1CF15
:100720008091A0008F7DF9CF8091A000877FF5CFC9
:10073000809120018F7780932001B3CF8091200199
:100740008F7DF9CF80912001877FF5CF4E2BB8CFD9
:10075000CF93DF9390E0FC01EB5FFD4F24918B5929
:100760009D4FFC0184918823D1F090E0880F991F60
:10077000FC01EB55FE4FA591B491FC01E55BFD4FEB
:10078000C591D49161110EC09FB7F8948C91E22F5E
:10079000E0958E238C932881E223E8839FBFDF912D
:1007A000CF9108958FB7F894EC91E22BEC938FBF23
:1007B000F6CF3FB7F8948091040390910503A09180
:1007C0000603B091070326B5A89B05C02F3F19F07B
:1007D0000196A11DB11D3FBFBA2FA92F982F8827C1
:1007E000BC01CD01620F711D811D911D42E0660F9C
:1007F000771F881F991F4A95D1F70895CF92DF92EE
:10080000EF92FF920F931F93CF93DF9300D000D00E
:1008100000D0CDB7DEB78091300690913106892B9C
:1008200009F480C0C0903606D0903706E0903806B4
:10083000F09039060E94D9036C157D058E059F0541
:1008400050F40E94D9036093360670933706809364
:100850003806909339060E94D9030091360610910C
:1008600037062091380630913906601B710B820BD8
:10087000930B6C32714081059105A0F2F894809140
:100880002B0690912C069A838983E0913006F09193
:100890003106DF0111968081898790912706E091CA
:1008A0003A06F0913B0680913C06992309F449C031
:1008B0009081982B98879081809589238F838F8151
:1008C0008C8388E08B8358856F8149853B812C819F
:1008D00089819A81508347FD252F3A952083262FC1
:1008E00039F0441F00C000006083000000C0F2CF58
:1008F00038E04D9160830000019761F7F0933B066B
:10090000E0933A0649873B832C839A8389837894C2
:100910000E94D90360933606709337068093380699
:100920009093390629960FB6F894DEBF0FBECDBF5F
:10093000DF91CF911F910F91FF90EF90DF90CF90BB
:1009400008959081982B98879081809589238F8333
:100950008F818E8388E08D8358856F8149853D81A5
:100960002E8189819A81508347FD252F00C000C0C8
:10097000208300C000C000C000C000C06083000031
:10098000262F3A9541F0441F000000C000C000C06F
:1009900000C000C0E8CF38E04D9100C0608300C0C7
:1009A000019709F7F0933B06E0933A0649873D83A8
:1009B0002E83ABCF8F929F92AF92BF92CF92DF9256
:1009C000EF92FF924B015C010E94D9036B017C0105
:1009D0000E94D9036C197D098E099F09683E7340F6
:1009E00081059105A8F321E0821A9108A108B108B8
:1009F00088EEC80E83E0D81EE11CF11C811491041E
:100A0000A104B10429F7FF90EF90DF90CF90BF9041
:100A1000AF909F908F9008952FB7F8946091000346
:100A20007091010380910203909103032FBF0895F9
:100A3000CF92DF92EF92FF92CF93DF930E940C054B
:100A40006B017C0184E98093BC00C091B803D09114
:100A5000B9038091BC0084FF1FC02097D1F30E948E
:100A60000C05AB01BC014C195D096E097F09CE0173
:100A7000B0E0A0E0481759076A077B0730F31092EF
:100A8000BC0084E48093BC0081E0DF91CF91FF90B3
:100A9000EF90DF90CF90089580E0F7CFCF92DF9274
:100AA000EF92FF92CF93DF938093BB000E940C05DF
:100AB0006B017C0184E88093BC00C091B803D091A5
:100AC000B9038091BC0087FD20C02097D1F30E941C
:100AD0000C05AB01BC014C195D096E097F09CE0103
:100AE000B0E0A0E0481759076A077B0730F310927F
:100AF000BC0084E48093BC00C1E08C2FDF91CF91D7
:100B0000FF90EF90DF90CF9008958091B900887F9B
:100B10008831D9F08091B900887F8034B1F0C091DC
:100B2000B900C87F8091B900887F803259F08091E8
:100B3000B900887F883431F01092BC0084E480933F
:100B4000BC00DBCF0E941805D8CFC0E0D6CFCF9233
:100B5000DF92EF92FF92CF93DF930E940C056B011F
:100B60007C0184EA8093BC00C091B803D091B903A2
:100B70008091BC0087FD1FC02097D1F30E940C0517
:100B8000AB01BC014C195D096E097F09CE01B0E0D3
:100B9000A0E0481759076A077B0730F31092BC00A2
:100BA00084E48093BC0081E0DF91CF91FF90EF90CF
:100BB000DF90CF9008958091B900887F8830B9F098
:100BC0008091B900887F803191F08091B900887F51
:100BD000883349F48091B900887F1092BC0094E476
:100BE0009093BC00E1CF8091B900887FDDCF80E099
:100BF000DBCFCF92DF92EF92FF92CF93DF93C82F9C
:100C00000E940C056B017C0184ECC11101C084E8D9
:100C10008093BC00C091B803D091B9038091BC000F
:100C200087FD1FC02097D1F30E940C05AB01BC01CA
:100C30004C195D096E097F09CE01B0E0A0E04817AC
:100C400059076A077B0730F31092BC0084E4809355
:100C5000BC0081E0DF91CF91FF90EF90DF90CF90CB
:100C600008958091B900887F883349F48091B90054
:100C7000887F1092BC0094E49093BC00EBCF8091ED
:100C8000B900887FE7CF0F931F93CF93DF93C82FCF
:100C9000D62F10929503611101C0D1E08FEF8D0F17
:100CA00080939703109296030E94A7058093960362
:100CB00081111CC08C2F880F8F5F0E944E0580937E
:100CC0009603882321F0813089F485E00FC008E97C
:100CD00013E0C0E0809197038C1325C080E00E9450
:100CE000F90580939603813031F486E0DF91CF914E
:100CF0001F910F9108958835C9F78091BB00F801C5
:100D000081938F01CF5FC0939503C0939403DC134D
:100D1000E1CF0E94180580939603882339F3813030
:100D200029F787E0E3CF81E00E94F90580939603DD
:100D30008130D9F2803509F3D9CF20915803309111
:100D40005903032E000C440B550B285E3340410918
:100D50005109A8E1BCEF0E94852C28EE33E040E069
:100D600050E00E94582C2053384F4F4F5F4F309324
:100D700065032093640308958F929F92AF92BF9270
:100D8000CF92DF92EF92FF92CF93DF937C01EB0142
:100D9000BC01990F880B990B0E94382B4B015C0109
:100DA00060912C0370912D0380912E0390912F035D
:100DB000EF2809F420C19B01AC01C501B4010E94D8
:100DC000BC2C6B017C0120E030E84BE355EC0E9429
:100DD000312B87FD17C120E030E84BE355E4C70114
:100DE000B6010E94142E18163CF4C12C70E8D72EC0
:100DF0007BE3E72E75E4F72EC0922C03D0922D03EF
:100E0000E0922E03F0922F032091280330912903C2
:100E100040912A0350912B0380922803909229033A
:100E2000A0922A03B0922B0380912303882309F414
:100E3000F8C0C501B4010E94BB2C6B017C0120E00D
:100E400030E040E751EC0E94312B87FDE3C020E009
:100E500030E040E751E4C701B6010E94142E181695
:100E600034F4C12CD12C50E7E52E51E4F52EC0927C
:100E70002403D0922503E0922603F09227032AE070
:100E800037ED43E25CE360912C0370912D03809178
:100E90002E0390912F030E94972B6B017C012DEC68
:100EA0003CEC4CE45FE3C501B4010E94972B9B012D
:100EB000AC01C701B6010E94BC2C6B017C0120E093
:100EC00030E0A901609124037091250380912603ED
:100ED000909127030E94972B9B01AC01C701B6019B
:100EE0000E94BC2C60933F037093400380934103A6
:100EF00090934203BE010D2E000C880B990B0E94AB
:100F0000382B4B015C0160911F037091200380918D
:100F1000210390912203CD2B09F48FC0A5019401E8
:100F20000E94BC2C6B017C0120E030E84BE355ECC7
:100F30000E94312B87FD88C020E030E84BE355E468
:100F4000C701B6010E94142E18163CF4C12C30E8DB
:100F5000D32E3BE3E32E35E4F32EC0921F03D09251
:100F60002003E0922103F092220320911B03309191
:100F70001C0340911D0350911E0380921B0390920D
:100F80001C03A0921D03B0921E03809116038823B8
:100F900009F469C0C501B4010E94BB2C6B017C013E
:100FA00020E030E040E751EC0E94312B87FD54C037
:100FB00020E030E040E751E4C701B6010E94142E62
:100FC000181634F4C12CD12C90E7E92E91E4F92EB7
:100FD000C0921703D0921803E0921903F0921A03FB
:100FE000DF91CF91FF90EF90DF90CF90BF90AF90C7
:100FF0009F908F90089523E333E343E35FE30E94E0
:10100000972BDFCEC12C60E8D62E6BE3E62E65EC85
:10101000F62EF2CEC12CD12C40E7E42E41ECF42E7A
:1010200026CF81E08093230310922403109225039E
:10103000109226031092270322CF23E333E343E3E6
:101040005FE30E94972B6ECFC12C20E8D22E2BE3BA
:10105000E22E25ECF22E81CFC12CD12C80E7E82E98
:1010600081ECF82EB5CF109217031092180310924E
:10107000190310921A0381E080931603B1CFCF9227
:10108000DF92EF92FF920E940C05C0901103D09066
:101090001203E0901303F09014036C197D098E097C
:1010A0009F09643671058105910520F528EC48EC0F
:1010B00068EC90E080E00E949B018CED95E09093BD
:1010C0005B0380935A0390935D0380935C0322EF4C
:1010D00033E030935F0320935E039093610380932A
:1010E00060039093630380936203FF90EF90DF901F
:1010F000CF9008950E940C056C197D098E099F09F7
:10110000643671058105910578F00E940C056C1913
:101110007D098E099F09683C71058105910520F4C0
:1011200020E040E060E0C5CF0E940C056093110311
:10113000709312038093130390931403BECF3F92D6
:101140004F925F926F927F928F929F92AF92BF92D7
:10115000CF92DF92EF92FF920F931F93CF93DF9383
:101160008091F40281110DC00E94D9036093F002B6
:101170007093F1028093F2029093F30281E08093E6
:10118000F4020E94D9030091F0021091F102209123
:10119000F2023091F302601B710B820B930B0091F2
:1011A000FC041091FD042091FE043091FF04061709
:1011B00017072807390710F410920005C1E0809145
:1011C000250690912606DC01ED91FC910084F185C5
:1011D000E02D1995181619060CF06CC00E94D90361
:1011E0006093F0027093F1028093F2029093F30205
:1011F0008091250690912606DC01ED91FC910284F8
:10120000F385E02D199580930205909100059111C9
:1012100016C09091F80489130FC090910105209198
:10122000F904921739F02091FB0492232091FA04DB
:10123000921302C0C093000580930105C0CF99317D
:1012400040F4E92FF0E0EC50FB4F86879F5F9093CE
:10125000000590910005993179F79091F90489176B
:1012600039F09091FB0489239091FA04891320C0EE
:10127000109200056091030570910405C09004056B
:10128000D12C80900505D0910605E09007050091CE
:101290000805A0900905C0910A0530900B058091C2
:1012A000190590911B059823B9F41092000217C0FC
:1012B00010920005DF91CF911F910F91FF90EF9059
:1012C000DF90CF90BF90AF909F908F907F906F9066
:1012D0005F904F903F90089591E09093000290911D
:1012E0001C05892309F435C181E080930202912C09
:1012F000F12C10E0B12C7770072E000C880B990BA5
:101300000E94382B23E333E343E35FE30E94972BF0
:1013100020E030EC46E454E40E94BC2C0E949F2D57
:101320009B01AC012B51344041095109A8EEB3E0B7
:101330000E94772C28E9422E23E0522E612C712C3A
:10134000A30192010E94582C28513C4F4F4F5F4FF0
:1013500030936F0320936E0333E0D594C7943A958E
:10136000E1F7B40145E0660F771F4A95E1F76C2974
:101370007D297770072E000C880B990B0E94382B63
:1013800023E333E343E35FE30E94972B20E030EC59
:1013900046E454E40E94BC2C0E949F2D9B01AC01AA
:1013A0002B51344041095109A8EEB3E00E94772C3B
:1013B000A30192010E94582C28513C4F4F4F5F4F80
:1013C00030936D0320936C03B4E0DB9FB0011124D4
:1013D000C701982F8827990F990F682B792BE6E082
:1013E00095948794EA95E1F7682979297770072E13
:1013F000000C880B990B0E94382B23E333E343E363
:101400005FE30E94972B20E030EC46E454E40E9416
:10141000BC2C0E949F2D9B01AC012B5134404109F3
:101420005109A8EEB3E00E94772CA30192010E941B
:10143000582C28513C4F4F4F5F4F30936B032093F4
:101440006A03B701759567957801F694FE2CEE2432
:10145000F794E7946E297F297770072E000C880B8C
:10146000990B0E94382B23E333E343E35FE30E94AD
:10147000972B20E030EC46E454E40E94BC2C0E9400
:101480009F2D9B01AC012B51344041095109A8EE1D
:10149000B3E00E94772CA30192010E94582C28519E
:1014A0003C4F4F4F5F4F3093690320936803B8015F
:1014B000B4E075956795BA95E1F78501D4E0000F22
:1014C000111FDA95E1F7602B712B7770072E000C56
:1014D000880B990B0E94382B23E333E343E35FE34C
:1014E0000E94972B20E030EC46E454E40E94BC2C90
:1014F0000E949F2D70939303609392036C2F70E072
:10150000660F771FC32DD0E0DC2FCC27DD0F6C2BAF
:101510007D2BAA0CAB2CAA1CBB086A297B297770EF
:10152000072E000C880B990B0E94382B23E333E322
:1015300043E35FE30E94972B20E030EC46E454E461
:101540000E94BC2C0E949F2D7093590360935803F6
:10155000B1CE10920202CBCECF93DF93EC01888103
:101560009981009711F00E94B428198218821D8277
:101570001C821B821A82DF91CF910895FC01808129
:101580009181009711F00C94B4280895CF93DF93C4
:10159000FC01248135816217730788F49B01C081A7
:1015A000D1816BE370E0CE01820F931F0E94702FF8
:1015B000009729F08C1B9D0BDF91CF9108958FEF41
:1015C0009FEFFACFFC0124813581232B39F421E0F0
:1015D000FB018081882349F020E007C08081918150
:1015E0000E947B2F21E0892BB9F7822F08950F935A
:1015F0001F93CF93DF93EC0188819981009759F075
:101600002A813B812617370730F081E0DF91CF91A7
:101610001F910F9108958B016F5F7F4F0E94862E5F
:10162000009759F0998388831B830A832C813D811D
:10163000232B59F7FC011082E8CF80E0E7CFEF922F
:10164000FF920F931F93CF93DF938C017B01EB01EC
:1016500009900020E9F72197C61BD70BBE010E9415
:10166000F70A811109C0C801DF91CF911F910F9135
:10167000FF90EF900C94AC0AF801D583C483B701B6
:1016800080819181DF91CF911F910F91FF90EF9019
:101690000C94842F10928F03109279031092780388
:1016A00010921003ECE0F3E0118210821382128298
:1016B0006BE172E08FE496E00E941F0B10927703BB
:1016C0001092760310921503E3E8F3E01182108282
:1016D000138212826BE172E089E496E00E941F0B94
:1016E000109275031092740310923A03EFE7F3E03F
:1016F00011821082138212826BE172E083E496E021
:101700000E941F0B109273031092720310925703E2
:10171000EBE7F3E011821082138212826BE172E038
:101720008DE396E00E941F0B1092710310927003DC
:1017300010927A031092910310926703109266033D
:1017400010924E0310924D0310924C0310924B03D3
:101750008AE590E090934A0380934903EFE4F3E035
:1017600011821082138212821582148217821682CD
:101770008BE192E0909344038093430310923003F3
:1017800010923103109232031092330310923403FB
:1017900010923903109235031092360310923703DA
:1017A0001092380320E040E060E082E090E00C948A
:1017B0009B01EF92FF920F931F93CF93DF93EC0166
:1017C0007B01198218821B821A821D821C82FB01F6
:1017D00001900020E9F731978F01061B170BB80124
:1017E0000E94F70A811109C0CE01DF91CF911F91AC
:1017F0000F91FF90EF900C94AC0A1D830C83B701FE
:1018000088819981DF91CF911F910F91FF90EF9087
:101810000C94842FAF92BF92CF92DF92EF92FF92FF
:101820000F931F93CF93DF936C015B017A018901C2
:101830002417350720F48F2D7901042F182F6CE120
:1018400072E0C6010E94D90BD5011496CD91DC91AE
:10185000EC16FD06E0F40C171D0708F4E801D501AD
:10186000ED91FC911197EC0FFD1F108110826D918D
:101870007C916E0D7F1DC60161157105A1F00E945E
:101880001F0BF50180819181C80FD91F1883C601F4
:10189000DF91CF911F910F91FF90EF90DF90CF904C
:1018A000BF90AF9008950E94AC0AEBCF8F929F92A9
:1018B000AF92BF92EF92FF920F931F93CF93DF935C
:1018C000CDB7DEB7C05AD1090FB6F894DEBF0FBE50
:1018D000CDBF182F092F0E940C058090080390900F
:1018E0000903A0900A03B0900B03681979098A09CB
:1018F0009B09643671058105910508F424C2CE0167
:1019000001967C0180E8F70111928A95E9F76CE174
:1019100072E0CE0187569F4F0E94D90BCD56DF4F04
:1019200019821882C359D040CB56DF4F19821882D2
:10193000C559D040C956DF4F19821882C759D040C7
:101940004AE0BE016F577F4F812F902F0E94682978
:10195000BE016F577F4FCE018D569F4F0E941F0BC8
:10196000C756DF4F88819981C959D040009709F443
:101970007EC0CD56DF4F68817981C359D040611553
:10198000710509F472C0C556DF4F48815981CB59A2
:10199000D040C956DF4F28813981C759D0404217FE
:1019A000530708F462C00E94842FC956DF4F888114
:1019B0009981C759D040C356DF4F99838883CD5949
:1019C000D040C956DF4F19821882C759D040CE0186
:1019D0008D569F4F0E94BE0AC356DF4F8881998162
:1019E000CD59D040892B09F073C0C156DF4F188202
:1019F000CF59D040109296030E94A705809396037A
:101A0000811192C084E20E944E0580939603811159
:101A10008BC01093BB000E940C054B015C0184E855
:101A20008093BC000091B8031091B9038091BC0071
:101A300087FD61C001151105C9F30E940C05AB01BA
:101A4000BC01481959096A097B0930E020E04017B8
:101A500051076207730730F31092BC0084E480934F
:101A6000BC0081E0809396035FC00E94B428CD56ED
:101A7000DF4F88819981C359D040C756DF4F998382
:101A80008883C959D040CB56DF4F88819981C55989
:101A9000D040C556DF4F99838883CB59D040C95673
:101AA000DF4F88819981C759D040C356DF4F998352
:101AB0008883CD59D040CD56DF4F19821882C35943
:101AC000D040CB56DF4F19821882C559D04079CF0C
:101AD000C756DF4F68817981C959D04041E050E055
:101AE000CE0181569F4F0E948B2FC056DF4F188228
:101AF000C05AD0407FCF8091B900887F883229F4C6
:101B0000109296030E941805ADCF1091B900187F6E
:101B10008091B900887F803309F03FC00E9418058A
:101B200010939603112371F362E082E10E94430651
:101B300080919503823009F044C00E948B01082FE8
:101B40000E948B01182F61E070E080E090E00E941D
:101B5000DA04602F82E10E944306012E000C220B62
:101B6000330B4091950350E070E060E004171507D7
:101B700026073707C1F42FEF4FEF6FEF82E090E0B9
:101B80000E949B01870180919503882309F10E949F
:101B90008B01F80181938F01F6CF1092BC0084E491
:101BA0008093BC00BDCF20E040E06FEF82E090E08A
:101BB0000E949B0180919503882351F00E948B0124
:101BC000F9CF20E040E060E082E090E00E949B01DD
:101BD000B701CE018D569F4F0E94D90B70E060E097
:101BE000CE018D569F4F0E94C60A7C019C0150E099
:101BF00040E0BE016D567F4FCE018F579F4F0E9430
:101C00000A0CCF57DF4F88819981C158D040009787
:101C100009F4ABC00E9441297093500360934F03B5
:101C2000CE018F579F4F0E94BE0AFFEFEF1AFF0AA7
:101C3000B701CE018D569F4F0E94C60A8C019C01B0
:101C4000A701BE016D567F4FCE018F579F4F0E9457
:101C50000A0CCF57DF4F88819981C158D040009737
:101C600009F487C00E943D290E949F2D7093520362
:101C700060935103CE018F579F4F0E94BE0A0F5FA2
:101C80001F4FB801CE018D569F4F0E94C60A7C019E
:101C90009C01A801BE016D567F4FCE018F579F4F0B
:101CA0000E940A0CCF57DF4F88819981C158D040DC
:101CB000009709F462C00E943D290E949F2D7093F5
:101CC000540360935303CE018F579F4F0E94BE0A67
:101CD000C956DF4F28813981C759D040A7014F5FCE
:101CE0005F4FBE016D567F4FCE018F579F4F0E94B1
:101CF0000A0CCF57DF4F88819981C158D040009797
:101D000009F43FC00E943D290E949F2D7093560305
:101D100060935503CE018F579F4F0E94BE0A0E94C9
:101D20000C05609308037093090380930A03909352
:101D30000B03CE018D569F4F0E94BE0ACE018756DF
:101D40009F4F0E94BE0AC056DF4F0FB6F894DEBF09
:101D50000FBECDBFDF91CF911F910F91FF90EF90FC
:101D6000BF90AF909F908F90089560E070E0CB019E
:101D700053CF60E070E0CB0177CF60E070E0CB0143
:101D80009CCF60E070E0CB01BFCF1F920F920FB6E7
:101D90000F9211240BB60F922F933F934F935F93A3
:101DA0006F937F938F939F93AF93BF93EF93FF9323
:101DB00087E594E00E946002FF91EF91BF91AF919F
:101DC0009F918F917F916F915F914F913F912F9153
:101DD0000F900BBE0F900FBE0F901F9018951F9283
:101DE0000F920FB60F9211240BB60F922F938F9371
:101DF0009F93EF93FF93E0916704F09168048081D3
:101E0000E0916D04F0916E0482FD1DC0908180917F
:101E100070048F5F8F7320917104821741F0E091FD
:101E20007004F0E0E95AFB4F958F80937004FF91A6
:101E3000EF919F918F912F910F900BBE0F900FBE3E
:101E40000F901F9018958081F2CF1F920F920FB6BE
:101E50000F9211240BB60F922F933F934F935F93E2
:101E60006F937F938F939F93AF93BF93EF93FF9362
:101E70008AEB93E00E946002FF91EF91BF91AF91D6
:101E80009F918F917F916F915F914F913F912F9192
:101E90000F900BBE0F900FBE0F901F9018951F92C2
:101EA0000F920FB60F9211240BB60F922F938F93B0
:101EB0009F93EF93FF93E091CA03F091CB0380814E
:101EC000E091D003F091D10382FD1DC090818091FB
:101ED000D3038F5F8F732091D403821741F0E09179
:101EE000D303F0E0E654FC4F958F8093D303FF912A
:101EF000EF919F918F912F910F900BBE0F900FBE7E
:101F00000F901F9018958081F2CF1F920F920FB6FD
:101F10000F9211242F933F938F939F93AF93BF936F
:101F20008091000390910103A0910203B0910303FB
:101F30003091FF0223E0230F2D3758F50196A11DA4
:101F4000B11D2093FF028093000390930103A0939F
:101F50000203B09303038091040390910503A091C1
:101F60000603B09107030196A11DB11D80930403E0
:101F700090930503A0930603B0930703BF91AF911D
:101F80009F918F913F912F910F900FBE0F901F90B7
:101F9000189526E8230F0296A11DB11DD2CF1F92DE
:101FA0000F920FB60F9211240BB60F922F933F93FF
:101FB0004F935F936F937F938F939F93AF93BF9351
:101FC000EF93FF931092850010928400809101029C
:101FD0008823F9F061E08DE10E941C0388E592E01E
:101FE000909389008093880010920102FF91EF91F5
:101FF000BF91AF919F918F917F916F915F914F9121
:102000003F912F910F900BBE0F900FBE0F901F901E
:10201000189560E08DE10E941C0391E0909301020D
:102020008091FE028630C0F01092FE028091FC0288
:102030009091FD02845D9E4F919581959109880F45
:10204000991F805C9346909389008093880010923A
:10205000FD021092FC02CACFE82FF0E0EE0FFF1F46
:10206000E65AFC4F208131812C523140220F331F20
:1020700030938900209388002091FC023091FD026A
:1020800040815181240F351F3093FD022093FC02C3
:102090008F5F8093FE0290939003A8CF10925A0412
:1020A0001092590448EE53E060E070E040935B0406
:1020B00050935C0460935D0470935E048DE092E045
:1020C00090935804809357042DEC30E030936404CF
:1020D000209363042CEC30E0309366042093650475
:1020E00028EC30E0309368042093670429EC30E05A
:1020F00030936A04209369042AEC30E030936C0436
:1021000020936B042EEC30E030936E0420936D042A
:102110001092700410927104109272041092730461
:102120001092BD031092BC034093BE035093BF03B3
:102130006093C0037093C1039093BB038093BA0371
:1021400085EC90E09093C7038093C60384EC90E005
:102150009093C9038093C80380EC90E09093CB03E5
:102160008093CA0381EC90E09093CD038093CC03DD
:1021700082EC90E09093CF038093CE0386EC90E0C6
:102180009093D1038093D0031092D3031092D40381
:102190001092D5031092D6036BE172E08FE496E0C3
:1021A0000E94D90B6BE172E089E496E00E94D90BA2
:1021B0006BE172E083E496E00E94D90B6BE172E080
:1021C0008DE396E00E94D90B1092280610922F06FC
:1021D0001092360610923706109238061092390681
:1021E00081E080933506809332061092330692E0A8
:1021F000909334068093270689E090E090932C0614
:1022000080932B060E941828909331068093300605
:10221000009709F46CC029E0FC0111922A95E9F7B6
:1022200083E090E090932A068093290686E090E070
:1022300090932E0680932D0680912806882341F0E6
:1022400061E086E00E94A80360E086E00E941C0333
:10225000EBE6F2E0E491F0E0EE0FFF1FE55BFD4FEF
:102260008591949190933B0680933A06EBE0F2E0DF
:10227000E491E0933C0680EA96E8A1E0B0E0809328
:10228000F4049093F504A093F604B093F7049FE050
:102290009093F8041092F90484E08093FA049093E8
:1022A000FB0448E55BE160E070E04093FC04509380
:1022B000FD046093FE047093FF0410920105809367
:1022C0001B0588E080931C058FE890E090931E0525
:1022D00080931D0588E797E09093200580931F0564
:1022E00087E594E090932606809325060895109242
:1022F0002C0610922B0610922A061092290696CFD1
:10230000CF93DF9300D000D01F921F92CDB7DEB7DE
:10231000789484B5826084BD84B5816084BD85B5C0
:10232000826085BD85B5816085BD80916E008160CC
:1023300080936E0010928100809181008260809372
:102340008100809181008160809381008091800074
:102350008160809380008091B10084608093B1009F
:102360008091B00081608093B00080919100826084
:102370008093910080919100816080939100809181
:1023800090008160809390008091A1008260809392
:10239000A1008091A10081608093A1008091A000A4
:1023A00081608093A000809121018260809321014F
:1023B00080912101816080932101809120018160C1
:1023C0008093200180917A00846080937A008091CC
:1023D0007A00826080937A0080917A008160809395
:1023E0007A0080917A00806880937A001092C10010
:1023F00080912D0690912E0697FD08C061E00E9405
:10240000A80360E080912D060E941C0381E0809368
:1024100028060E94FE0360912F06633329F1209164
:102420003006309131066150C9F070E08FEF92E3D1
:102430000E946A2EF90140912B0650912C06CF0183
:10244000821B930B8417950760F44081469FC0015F
:10245000479F900D112490833196EDCF70E060E09E
:10246000E9CF83E380932F06589A599A8091B90057
:102470008E7F8093B9008091B9008D7F8093B900E1
:1024800088E48093B80084E48093BC000CED15E0F0
:102490001093B9030093B8038CE08093B80060E018
:1024A00086E30E94A80360E082E00E94A80360E047
:1024B0008DE00E94A80310935B0300935A031093CE
:1024C0005D0300935C03109361030093600310931A
:1024D00063030093620388EE93E090935F0380931D
:1024E0005E0384E398E090936503809364030E9405
:1024F0000C05609308037093090380930A0390937B
:102500000B031092000520901F05309020050091CC
:102510001D0510911E05B80190E080E00E94362B49
:102520004B015C01B10190E080E00E94362BA501D7
:1025300094010E94BB2C2B013C01AC019B0160E08B
:1025400070E080E090E40E942D2D6B017C0120E082
:1025500030E040E05FE3C301B2010E94972BA50188
:1025600094010E94BC2C9058A70196010E94972BC1
:10257000E1E2F5E0A1E6B5E021E435E00193119355
:10258000378E268ECD92DD92ED92FD92DC966D9384
:102590007D938D939C93DF972E173F0779F70091DA
:1025A000250610912606C090F404D090F504E09022
:1025B000F604F090F70460E079E08DE390E0A70185
:1025C00096010E948A2C21503109410951095695E2
:1025D000479537952795D8015096ED91FC9182E06B
:1025E0008083C114B1EEDB06E104F10421F0211572
:1025F000E0E13E07A8F0D8015096ED91FC911082E1
:1026000060E874E88EE190E0A70196010E948A2CB0
:10261000215031094109510956954795379527951C
:10262000D8011C96ED91FC911D9730831E96ED917B
:10263000FC911F97208358961C9258975496ED91C1
:10264000FC9155978EE280835296ED91FC915397C1
:102650008081806180835296ED91FC9153978081B7
:10266000886080835296ED91FC91539780818068B9
:1026700080835296ED91FC9180818F7D808361E013
:102680008DE10E94A80360E08DE10E941C03F89494
:10269000109280001092810088E790E0909389006A
:1026A0008093880080918100886080938100809170
:1026B000810082608093810080916F0082608093AE
:1026C0006F00789468EC70E080E090E00E94DA049B
:1026D00010E000E020E040E0602F90E080E00E9409
:1026E0009B010E94FE030F5F1F4F0115B1E01B0706
:1026F00089F710E000E020E0402F60E081E090E00A
:102700000E949B010E94FE030F5F1F4F0115E1E035
:102710001E0789F710E000E0202F40E060E082E033
:1027200090E00E949B010E94FE030F5F1F4F011566
:10273000F1E01F0789F710E000E0202F402F602F05
:1027400090E080E00E949B01202F402F602F81E0CD
:1027500090E00E949B01202F402F602F82E090E0AC
:102760000E949B010E94FE030F5F1F4F011521E095
:10277000120719F70FEF10E0202F402F602F90E085
:1027800080E00E949B01202F402F602F81E090E08D
:102790000E949B01202F402F602F82E090E00E943A
:1027A0009B010E94FE030150110930F720E040E038
:1027B00060E090E080E00E949B0120E040E060E06B
:1027C00081E090E00E949B0120E040E060E082E038
:1027D00090E00E949B010E94FE0320E040E060E048
:1027E00090E080E00E949B010E94FE030E940C0585
:1027F0000CED15E07EE7272E74E0372EAE014F5F1B
:102800005F4F5C834B830E949F088091020281117D
:102810000C94B52780919203909193038E3453E0EA
:1028200095070CF498C0813B63E096070CF05AC002
:1028300020E04FEF60E090E080E00E949B018091FB
:102840006E0390916F0390935B0380935A03809182
:102850006C0390916D0390935D0380935C03809172
:102860006A0390916B0390935F0380935E03809162
:10287000680390916903909361038093600384E1FE
:1028800095E0909363038093620380915803909145
:10289000590390936503809364030E944A0B8091CF
:1028A000550690915606009711F48BE596E0AB81A2
:1028B000BC81A81BB90BCD0120E040E06FEF843F45
:1028C00091400CF060E081E090E00E949B018091DB
:1028D0009003882321F00E94FE03109290030E942F
:1028E000EF0291CF863BA5E09A07ACF18931B6E0C3
:1028F0009B0764F52FEF40E060E090E080E00E94ED
:102900009B0180916E0390916F0390935B03809382
:102910005A0380916C0390916D0390935D038093B3
:102920005C0380916A0390916B0390935F038093A3
:102930005E03809168039091690390936103809393
:10294000600330926303209262039FCF8A519840C4
:102950008336910528F080919103882309F49FCF55
:1029600080918F0381112DC00E940C0560938B0311
:1029700070938C0380938D0390938E0310928A033F
:102980001092890310928803109287031092840397
:102990001092830310928603109285031092800395
:1029A00010927F03109282031092810310927C0395
:1029B00010927B0310927E0310927D0381E080933E
:1029C0008F0380918F038823E9F180919103811116
:1029D00039C00E940C05C0908B03D0908C03E0900E
:1029E0008D03F0908E036C197D098E099F09683E56
:1029F00073408105910598F08091890390918A0335
:102A0000019690938A03809389030E940C0560933A
:102A10008B0370938C0380938D0390938E0380912E
:102A2000890390918A03CC976CF0809187039091F1
:102A300088030196909388038093870310928A03FA
:102A4000109289030E949F088091910381110C9438
:102A50007E27F0907A038091780390917903892BF7
:102A600009F08BC3F11089C38091100381111FC03D
:102A7000809187039091880390930D0380930C03BA
:102A80008091890390918A0390930F0380930E03A2
:102A90006BE172E08FE496E00E941F0B81E080936F
:102AA00010036BE172E08FE496E00E941F0B8091AF
:102AB0001003882309F427C36BE172E08FE496E0EA
:102AC0000E94E20A882309F45AC020E044E664E642
:102AD00090E080E00E949B0181E090E00E94560C13
:102AE00010935B0300935A0310935D0300935C0300
:102AF00088EE93E090935F0380935E0310936103ED
:102B000000936003309263032092620384E398E0B1
:102B100090936503809364036091870370918803A9
:102B20004091890350918A03ACE3A69FC001A79FFF
:102B3000900D1124840F951FE0910C03F0910D036B
:102B4000AE9F9001AF9F300D1124E0910E03F091E4
:102B50000F032E0F3F1F821B930B06970CF4D3C25B
:102B600070930D0360930C0350930F0340930E0377
:102B70006DE172E08FE496E00E941F0BC4C26DE12C
:102B800072E08FE496E00E94E20A882309F452C0C2
:102B900024E640E064E690E080E00E949B0181E052
:102BA00090E00E94560C10935B0300935A0310931D
:102BB0005D0300935C0388EE93E090935F03809342
:102BC0005E0380ED97E09093610380936003309201
:102BD00063032092620360918703709188034091A0
:102BE000890350918A03ACE3A69FC001A79F900D73
:102BF0001124840F951FE0910C03F0910D03AE9FFB
:102C00009001AF9F300D1124E0910E03F0910F035E
:102C10002E0F3F1F821B930B06970CF474C2709308
:102C20000D0360930C0350930F0340930E0361E276
:102C300072E0A0CF61E272E08FE496E00E94E20AC7
:102C4000882309F450C081E090E00E94560C24E6ED
:102C500040E060E090E080E00E949B0110935B0305
:102C600000935A0310935D0300935C0384E195E0A5
:102C700090935F0380935E0310936103009360035E
:102C800030926303209262036091870370918803FE
:102C90004091890350918A03ACE3A69FC001A79F8E
:102CA000900D1124840F951FE0910C03F0910D03FA
:102CB000AE9F9001AF9F300D1124E0910E03F09173
:102CC0000F032E0F3F1F821B930B04970CF41BC2A4
:102CD00070930D0360930C0350930F0340930E0306
:102CE0006BE272E047CF6BE272E08FE496E00E9405
:102CF000E20A882309F44EC081E090E00E94560C5D
:102D000024E644E664E690E080E00E949B01109394
:102D10005B0300935A0310935D0300935C031093CD
:102D20005F0300935E03109361030093600330928E
:102D3000630320926203609187037091880340913E
:102D4000890350918A03ACE3A69FC001A79F900D11
:102D50001124840F951FE0910C03F0910D03AE9F99
:102D60009001AF9F300D1124E0910E03F0910F03FD
:102D70002E0F3F1F821B930B04970CF4C4C170935A
:102D80000D0360930C0350930F0340930E0365E310
:102D900072E0F0CE65E372E08FE496E00E94E20A12
:102DA000882309F4DCC00E940C05C0901103D09068
:102DB0001203E0901303F09014036C197D098E093F
:102DC0009F09643671058105910508F072C020E005
:102DD00040E06FEF90E080E00E949B0181E090E096
:102DE0000E94560C80914B0390914C038A319105BF
:102DF0000CF484C022E236E030935B0320935A0344
:102E000080914D0390914E03853191050CF485C05E
:102E100082E296E090935D0380935C0384EA96E0FF
:102E200090935F0380935E038091490390914A03DE
:102E300097FF82C08E5A9F4F853A910508F08AC04D
:102E400020E436E030936103209360033092630303
:102E500020926203609187037091880340918903F7
:102E600050918A03ACE3A69FC001A79F900D112447
:102E7000840F951FE0910C03F0910D03AE9F90011C
:102E8000AF9F300D1124E0910E03F0910F032E0F30
:102E90003F1F821B930B07970CF435C170930D03F2
:102EA00060930C0350930F0340930E036EE372E0A4
:102EB00061CE0E940C056C197D098E099F0964364C
:102EC00071058105910578F00E940C056C197D094A
:102ED0008E099F09683C71058105910520F420E069
:102EE00040E060E077CF0E940C056093110370937F
:102EF0001203809313039093140370CF873E9F4F68
:102F00003CF446E955E050935B0340935A0378CF75
:102F100010935B0300935A0373CF8C3E9F4F3CF496
:102F2000E6E9F5E0F0935D03E0935C0377CF10935F
:102F30005D0300935C0372CF009761F08E5A9F4F40
:102F4000853A910538F448E755E050936103409382
:102F500060037CCF109361030093600377CF6EE32F
:102F600072E08FE496E00E94E20A882309F4B3C07D
:102F700081E090E00E94560CC0905303D09054031F
:102F8000D0924E03C0924D03A0905103B0905203D3
:102F9000B0924C03A0924B03E0905503F09056037F
:102FA000F0924A03E092490324E640E060E090E0BA
:102FB00080E00E949B018EE096E05AE1A516B104E4
:102FC00044F467EEA6166FEFB6060CF058C08AEA16
:102FD00095E090935B0380935A0395E1C916D10461
:102FE0000CF452C08EE096E090935D0380935C03F6
:102FF00010935F0300935E03F7FE57C0FFE4EF0EEC
:10300000F11C2FE9E216F10408F060C040E456E03C
:1030100050936103409360033092630320926203F4
:1030200060918703709188034091890350918A03CE
:10303000ACE3A69FC001A79F900D1124840F951F9C
:10304000E0910C03F0910D03AE9F9001AF9F300D06
:103050001124E0910E03F0910F032E0F3F1F821BEE
:10306000930B04970CF44FC070930D0360930C0303
:1030700050930F0340930E036BE472E07BCD1093EB
:103080005B0300935A03A9CFACEECA16AFEFDA0682
:103090003CF4EAEAF5E0F0935D03E0935C03A8CF2B
:1030A00010935D0300935C03A3CFE114F10471F06E
:1030B0005FE4E50EF11C6FE9E616F10438F488E7E9
:1030C00095E09093610380936003A6CF1093610312
:1030D00000936003A1CF6BE472E08FE496E00E945E
:1030E000E20A882381F020E040E060E090E080E0A8
:1030F0000E949B0181E080937A03A1E0B0E0B0934D
:103100007903A093780380916E0390916F038358A5
:103110009540833B9105E8F480916C0390916D0399
:1031200083589540833B9105A0F480916A03909168
:103130006B0383589540833B910558F48091680355
:103140009091690383589540833B910510F40C944A
:1031500078278091660390916703019690936703A7
:1031600080936603809166039091670303970CF444
:1031700096CB81E08093910392CB809176039091DE
:103180007703892B09F072C2B1E0FB126FC2809104
:103190001503811120C0809187039091880390933B
:1031A0008403809383038091890390918A03909391
:1031B0008603809385036BE172E089E496E00E94C8
:1031C0001F0BF09215030E940C056BE172E089E47D
:1031D00096E00E941F0B80911503882309F493CF7A
:1031E0006BE172E089E496E00E94E20A882309F428
:1031F0000DC182E090E00E94560C20915303309163
:10320000540330934E0320934D034091510350914A
:10321000520350934C0340934B038091550390917C
:10322000560390934A0380934903453151050CF4AA
:103230008EC0E0E4F6E0F0935B03E0935A03E09085
:103240004F03F090500351E0E516F10409F091C0EE
:10325000213131050CF48AC0A0E4B6E0B0935D03DF
:10326000A0935C0310935F0300935E0397FF8DC0F0
:103270008E5A9F4F853A910508F095C028E136E0B7
:1032800030936103209360033092630320926203C2
:103290000E940C058090110390901203A0901303DC
:1032A000B0901403681979098A099B09683C710573
:1032B0008105910508F087C020E040E051E0E51667
:1032C000F10409F47EC062E0E616F10409F070C072
:1032D0002FEF40E060E090E080E00E949B01609171
:1032E0008703709188034091890350918A03ACE36E
:1032F000A69FC001A79F900D1124840F951FE091F8
:103300008303F0918403AE9F9001AF9F300D112491
:10331000E0918503F09186032E0F3F1F821B930BD4
:10332000813191053CF4EA94EF2809F0ECCE029744
:103330000CF4E9CE70938403609383035093860367
:103340004093850360E572E089E496E015CC4C3E3D
:103350005F4F3CF448E755E050935B0340935A03BA
:103360006ECF10935B0300935A0369CF203F3F4F0A
:103370003CF4E8E7F5E0F0935D03E0935C0372CF83
:1033800010935D0300935C036DCF009761F08E5A3C
:103390009F4F853A910538F440EA55E05093610318
:1033A0004093600371CF10936103009360036CCF6F
:1033B00020E04FEF83E0E816F10409F48BCF2FEF04
:1033C0004FEF6FEF88CF0E940C05681979098A09C1
:1033D0009B09683C71058105910568F00E940C0508
:1033E000681979098A099B0920E06C3271408105CE
:1033F000910508F46ECF0E940C0560931103709341
:103400001203809313039093140369CF60E572E075
:1034100089E496E00E94E20A882309F414C183E05B
:1034200090E00E94560C2091530330915403309346
:103430004E0320934D0340915103509152035093FA
:103440004C0340934B038091550390915603909306
:103450004A0380934903453151050CF458C0E8E113
:10346000F6E0F0935B03E0935A03213131050CF44D
:103470005DC0A8E1B6E0B0935D03A0935C03109338
:103480005F0300935E0397FF60C08E5A9F4F853A9B
:10349000910508F068C022E236E030936103209382
:1034A000600330926303209262030E940C058090B7
:1034B000110390901203A0901303B0901403E090B6
:1034C0004F03F0905003681979098A099B09683CF9
:1034D00071058105910508F04BC020E051E0E5162B
:1034E000F10471F02FEF62E0E616F10409F4A8C0D0
:1034F00020E04FEF83E0E816F10409F4A2C02FEFBB
:1035000040E06FEF90E080E00E949B0147C04C3E9E
:103510005F4F3CF440EA55E050935B0340935A03FD
:10352000A4CF10935B0300935A039FCF203F3F4FDC
:103530003CF4E0EAF5E0F0935D03E0935C039FCF99
:1035400010935D0300935C039ACF009761F08E5A4D
:103550009F4F853A910538F446E955E05093610351
:10356000409360039ECF109361030093600399CF53
:103570000E940C05681979098A099B09683C710544
:103580008105910508F04FC00E940C05609311035E
:103590007093120380931303909314036091870335
:1035A000709188034091890350918A03ACE3A69FF0
:1035B000C001A79F900D1124840F951FE0918303F4
:1035C000F0918403AE9F9001AF9F300D1124E091E4
:1035D0008503F09186032E0F3F1F821B930B8531CD
:1035E000910554F49701225031092230310508F039
:1035F0008ACD03970CF487CD709384036093830383
:1036000050938603409385038BE592E0B2E0EB167E
:10361000F10411F08DE592E090934403809343030D
:103620006BE472E091CE0E940C05681979098A0951
:103630009B096C3271408105910508F0A5CF20E00F
:1036400040E060E05FCF6BE472E089E496E00E94C6
:10365000E20A882309F457CD82E080937A03E1E0FF
:10366000F0E0F0937703E09376034DCD80917403FF
:1036700090917503892B09F0F8C6F2E0FF12F5C6A8
:1036800080913A0381111FC0809187039091880334
:103690009093800380937F038091890390918A03A4
:1036A00090938203809381036BE172E083E496E060
:1036B0000E941F0B81E080933A036BE172E083E488
:1036C00096E00E941F0B80913A03882309F41BCDDA
:1036D0006BE172E083E496E00E94E20A882309F439
:1036E000D4C184E090E00E94560CE0905303F09027
:1036F000540324E1E21AF108F0924E03E0924D03E4
:10370000809051039090520390924C0380924B030F
:10371000A0905503B0905603B0924A03A09249037B
:1037200080914F0390915003019771F0809139037C
:1037300081110AC00E940C05609335037093360313
:1037400080933703909338030E940C054090350313
:1037500050903603609037037090380364197509F0
:1037600086099709693572408105910518F081E055
:103770008093390380913903882309F444C10E945E
:103780000C054090450350904603609047037090AD
:10379000480364197509860997096436710581051E
:1037A000910508F005C1809143039091440342E0E4
:1037B0008B35940739F068EDC62EDD24DA948D55EB
:1037C000924019F058E2C52ED12C2FEF4FEF6FEF3A
:1037D00090E080E00E949B01B501BB0C880B990B27
:1037E0000E94382B25E33AEF4EE85CE30E94972BCA
:1037F0000E949F2D2B01C701F7FE04C0882799273F
:103800008E199F094A9714F4F12CE12CB401C701D9
:103810000E94BC06B201550C880B990B0E94382BF4
:103820000E94282D4B015C01B601DD0C880B990B21
:103830000E94382BA50194010E94972B20E030E8CC
:103840004BEB54E40E94BC2C0E949F2D70935B03B1
:1038500060935A0320E030E84BEB54E460913F035F
:103860007091400380914103909142030E94BC2CCF
:103870000E949F2D70935D0360935C0310935F0320
:1038800000935E038091490390914A03181619062C
:103890000CF0E9C007970CF4ECC08EE096E0909332
:1038A000610380936003A0913903A111E7C03092B6
:1038B00063032092620360918703709188034091B3
:1038C000890350918A03BCE3B69FC001B79F900D56
:1038D0001124840F951FE0917F03F0918003BE9F18
:1038E0009001BF9F300D1124E0918103F09182037C
:1038F0002E0F3F1F821B930B8F31910574F4209183
:103900004F03309150032530310509F0FCCB05976A
:103910000CF4F9CBAA2309F4F6CB709380036093DF
:103920007F0350938203409381036FE572E083E449
:1039300096E00E941F0B10923F03109240031092DA
:1039400041031092420310922C0310922D03109207
:103950002E0310922F031092280310922903109225
:103960002A0310922B031092240310922503109225
:103970002603109227031092230310921F03109224
:103980002003109221031092220310921B03109225
:103990001C0310921D0310921E0310921703109225
:1039A00018031092190310921A0310921603ABCB4E
:1039B0000E940C056419750986099709643671051A
:1039C00081059105A8F00E940C0564197509860906
:1039D00097096C3D75408105910550F42FEF4FEF2D
:1039E0006FEF90E080E00E949B01D12CC12CF4CEBF
:1039F0000E940C0560934503709346038093470330
:103A000090934803F2CF8091430390914403B2E036
:103A10008D359B0789F48CE895E090935B03809348
:103A20005A03F5E0EF16F1046CF028E136E030932C
:103A30005D0320935C0322CF8B55924061F78CE2AB
:103A400096E0EBCF3CEFE3163FEFF3063CF440EAA1
:103A500055E050935D0340935C0310CF10935D03DA
:103A600000935C030BCF8A3F9F4F1CF48AEA95E0DA
:103A700016CF109361030093600315CFE8E7F5E0DC
:103A8000F0936303E093620316CF6FE572E083E483
:103A900096E00E94E20A882309F4B6C084E090E030
:103AA0000E94560C209153033091540330934E03DF
:103AB00020934D03409151035091520350934C0376
:103AC00040934B03809155039091560390934A0382
:103AD00080934903413151050CF469C042E256E03C
:103AE00050935B0340935A03213131050CF46EC0AF
:103AF000E2E2F6E0F0935D03E0935C0310935F0372
:103B000000935E03181619060CF06FC00B970CF4A7
:103B100076C048E156E050936103409360033092D1
:103B200063032092620380914F039091500320E041
:103B300040E060E0009729F0059739F42FEF4FEF50
:103B40006FEF90E080E00E949B016091870370918D
:103B500088034091890350918A03ACE3A69FC0017A
:103B6000A79F900D1124840F951FE0917F03F09182
:103B70008003AE9F9001AF9F300D1124E09181032F
:103B8000F09182032E0F3F1F821B930B06970CF4BC
:103B9000BACA7093800360937F035093820340936B
:103BA00081036DE672E083E496E00C94BC15403F1F
:103BB0005F4F3CF4A6E9B5E0B0935B03A0935A03D2
:103BC00093CF10935B0300935A038ECF203F3F4F58
:103BD0003CF426E935E030935D0320935C038ECFFF
:103BE00010935D0300935C0389CF863F9F4F3CF4A5
:103BF00080EA95E0909361038093600390CF1093E7
:103C00006103009360038BCF6DE672E083E496E07E
:103C10000E94E20A882309F49AC085E090E00E949D
:103C2000560C809153039091540390934E038093CC
:103C30004D03209151033091520330934C03209354
:103C40004B03809155039091560390934A038093C0
:103C50004903203131050CF458C0A8E1B6E0B09317
:103C60005B03A0935A0326E935E030935D0320936C
:103C70005C0310935F0300935E0397FF55C08E5A59
:103C80009F4F853A910508F05DC048E156E050939A
:103C900061034093600330926303209262032FEF2D
:103CA00040E06FEF90E080E00E949B01609187030D
:103CB000709188034091890350918A03ACE3A69FD9
:103CC000C001A79F900D1124840F951FE0917F03E1
:103CD000F0918003AE9F9001AF9F300D1124E091D1
:103CE0008103F09182032E0F3F1F821B930B0397DA
:103CF0000CF409CA7093800360937F03509382038E
:103D0000409381036AE772E04ECF213F3F4F3CF47E
:103D1000E0EAF5E0F0935B03E0935A03A4CF10933D
:103D20005B0300935A039FCF009761F08E5A9F4F19
:103D3000853A910538F480EA95E090936103809389
:103D40006003A9CF1093610300936003A4CF6AE7D7
:103D500072E083E496E00E94E20A882309F4FEC040
:103D60008091430390914403A2E08B359A0709F0B8
:103D7000B3C02FEF40E060E090E080E00E949B0144
:103D800088E490E00E94560C809153039091540374
:103D900090934E0380934D03209151033091520331
:103DA00030934C0320934B0380915503909156031D
:103DB00090934A03809349032B3031050CF499C04A
:103DC000E2E2F6E0F0935B03E0935A0346E955E044
:103DD00050935D0340935C0310935F0300935E0375
:103DE00097FF96C08E5A9F4F853A910508F09EC066
:103DF00088E196E0909361038093600330926303BF
:103E000020926203E0904F03F0905003E114F1041C
:103E100009F091C020E040E060E090E080E00E9486
:103E20009B0180918703909188034CE3489F900108
:103E3000499F300D11248091890390918A03820F4C
:103E4000931F60917F0370918003469F9001479F6D
:103E5000300D11244091810350918203240F351FAE
:103E6000821B930B0B970CF072C0609187037091CB
:103E700088034091890350918A03ACE3A69FC00157
:103E8000A79F900D1124840F951FE0917F03F0915F
:103E90008003AE9F9001AF9F300D1124E09181030C
:103EA000F09182032E0F3F1F821B930B85319105EA
:103EB00044F4E5E0EE16F10409F025C904970CF48A
:103EC00022C97093800360937F03509382034093D1
:103ED000810367E872E067CE8D55924039F420E0A7
:103EE0004FEF60E090E080E00E949B0189E490E069
:103EF00049CF263F3F4F3CF426E935E030935B0342
:103F000020935A0363CF10935B0300935A035ECF51
:103F1000009761F08E5A9F4F853A910538F4A0EAD8
:103F2000B5E0B0936103A093600368CF1093610381
:103F30000093600363CFB5E0EB16F10409F071CF95
:103F400020E04FEF60E090E080E00E949B0188EE6F
:103F500093E0909365038093640387CF67E872E0F2
:103F600083E496E00E94E20A882309F4B8C086E060
:103F700090E00E94560CE0905303F0905403F092AE
:103F80004E03E0924D032091510330915203309340
:103F90004C0320934B0380915503909156039093CB
:103FA0004A0380934903203131050CF476C022E2A4
:103FB00036E030935B0320935A03E6E9F5E0F09393
:103FC0005D03E0935C0310935F0300935E0397FF30
:103FD00073C08E5A9F4F853A910508F07BC028E147
:103FE00036E03093610320936003309263032092A4
:103FF0006203C0904F03D090500320E040E060E0A7
:10400000C114D10439F055E0C516D10439F42FEFAD
:104010004FEF6FEF90E080E00E949B01609187037B
:10402000709188034091890350918A03ACE3A69F65
:10403000C001A79F900D1124840F951FE0917F036D
:10404000F0918003AE9F9001AF9F300D1124E0915D
:104050008103F09182032E0F3F1F821B930B80314F
:10406000910584F4A5E0CA16D10409F04CC8BBE060
:10407000EB0EF11CE7E1EE16F10408F044C80497DA
:104080000CF441C87093800360937F0350938203C4
:104090004093810363E972E086CD213F3F4F3CF4BA
:1040A000A6E9B5E0B0935B03A0935A0386CF1093C3
:1040B0005B0300935A0381CF009761F08E5A9F4FA4
:1040C000853A910538F440EA55E0509361034093F6
:1040D00060038BCF109361030093600386CF63E985
:1040E00072E083E496E00E94E20A882309F4AEC0FD
:1040F00086E090E00E94560C2091530330915403C7
:1041000030934E0320934D0340915103509152033D
:1041100050934C0340934B03809155039091560369
:1041200090934A0380934903403151050CF45DC0DC
:1041300048E156E050935B0340935A032D3031051C
:104140000CF462C0E8E1F6E0F0935D03E0935C03F9
:1041500010935F0300935E0397FF65C08E5A9F4FD5
:10416000853A910508F06DC042E256E05093610334
:1041700040936003309263032092620324E64FEF82
:1041800064E690E080E00E949B016091870370915B
:1041900088034091890350918A03ACE3A69FC00134
:1041A000A79F900D1124840F951FE0917F03F0913C
:1041B0008003AE9F9001AF9F300D1124E0918103E9
:1041C000F09182032E0F3F1F821B930B049714F470
:1041D0000C9483187093800360937F035093820341
:1041E0004093810361EA72E0DECC413F5F4F3CF4D3
:1041F000A0EAB5E0B0935B03A0935A039FCF10935E
:104200005B0300935A039ACF243F3F4F3CF420EACC
:1042100035E030935D0320935C039ACF10935D03E8
:1042200000935C0395CF009761F08E5A9F4F853ABB
:10423000910538F486E995E09093610380936003DB
:1042400099CF109361030093600394CF61EA72E009
:1042500083E496E00E94E20A882309F4F1C088E032
:1042600090E00E94560CC0905303D0905403D0921B
:104270004E03C0924D03809151039091520390934D
:104280004C0380934B03E0905503F0905603F0925B
:104290004A03E09249038091430390914403A2E0D2
:1042A0008B359A0709F092C02FEF40E060E090E074
:1042B00080E00E949B01E6E9F5E0F0935B03E09368
:1042C0005A0350E1C516D1040CF498C088E196E079
:1042D00090935D0380935C0310935F0300935E03F0
:1042E0001E141F040CF09BC0BBE0EB16F1040CF491
:1042F000A2C0E8E1F6E0F0936103E093600330923E
:104300006303209262032FEF40E06FEF90E080E0C4
:104310000E949B0180914F0390915003059751F4A7
:104320000E940C0560933103709332038093330332
:1043300090933403109230030E940C05C090310317
:10434000D0903203E0903303F09034036C197D0970
:104350008E099F096D3B72408105910518F081E03F
:1043600080933003609187037091880340918903A3
:1043700050918A03ACE3A69FC001A79F900D112422
:10438000840F951FE0917F03F0918003AE9F900111
:10439000AF9F300D1124E0918103F09182032E0F25
:1043A0003F1F821B930B049734F4809130038823C2
:1043B00011F40C9483187093800360937F035093DF
:1043C0008203409381036BE472E0EDCB8D55924004
:1043D00071F420E04FEF60E090E080E00E949B01EC
:1043E00022E236E030935B0320935A036ACF42E225
:1043F00056E050935B0340935A0363CF91EFC91685
:104400009FEFD9063CF4A0EAB5E0B0935D03A0931A
:104410005C0362CF10935D0300935C035DCFF6EF06
:10442000EF16FFEFFF063CF420EA35E0309361031E
:104430002093600364CF10936103009360035FCF08
:104440006BE472E083E496E00E94E20A882311F4B0
:104450000C94831883E080937A0341E050E05093FA
:104460007503409374030C948318809172039091A8
:104470007303892B09F02CC553E0F51229C58091EF
:10448000570381111FC080918703909188039093F7
:104490007C0380937B038091890390918A0390939E
:1044A0007E0380937D036BE172E08DE396E00E94D2
:1044B0001F0B81E0809357036BE172E08DE396E080
:1044C0000E941F0B80915703882311F40C948318CA
:1044D0006BE172E08DE396E00E94E20A882309F422
:1044E00085C188E090E00E94560CC0905303D090A4
:1044F0005403D0924E03C0924D03609051037090CC
:10450000520370924C0360924B038091550390913B
:1045100056039E838D8390934A0380934903A09111
:104520004F03B0915003B887AF83159709F445C185
:104530000E940C058090450390904603A09047038D
:10454000B0904803681979098A099B096536710595
:104550008105910508F00DC18091430390914403BA
:10456000B2E08B359B0709F0F6C02FEF40E060E02A
:1045700090E080E00E949B0144ECE42EFF24FA943A
:104580002D813E81B901330F880B990B0E94382B86
:1045900025E33AEF4EE85CE30E94972B4B015C0168
:1045A000C601D7FE04C0882799278C199D09459715
:1045B00014F4D12CC12CB301C6010E94BC06C50164
:1045C000B4010E94282D2B013C01B701FF0C880B80
:1045D000990B0E94382B6B017C01AC019B01C3013C
:1045E000B2010E94972B20E030E84BEB54E40E948C
:1045F000BC2C0E949F2D70935B0360935A03C501EE
:10460000B4010E94192E2B013C0120E030E84BEB55
:1046100054E460913F037091400380914103909175
:1046200042030E94BC2C4B015C01A3019201C70113
:10463000B6010E94972B9B01AC01C501B4010E94F9
:10464000BC2C0E949F2D70935D0360935C031093BC
:104650005F0300935E034D815E81141615060CF016
:10466000B4C0453051050CF4BCC08EE096E0909388
:1046700061038093600328E735E030936303209360
:1046800062034F8158854530510551F00E940C0559
:1046900060933B0370933C0380933D0390933E03F0
:1046A0000E940C05E0918703F091880340918903F3
:1046B00050918A032CE3D22EDE9E9001DF9E300DB6
:1046C00011247901E40EF51E20917B0330917C03C7
:1046D000D29ED001D39EB00D112420917D03309144
:1046E0007E032A0F3B1FD701A21BB30B9D011B9713
:1046F000DCF480903B0390903C03A0903D03B0908D
:104700003E036B017C01C818D908EA08FB08B5E62E
:10471000CB16D104E104F10410F40C948318233077
:10472000310514F40C948318F0937C03E0937B031D
:1047300050937E0340937D0360EB72E08DE396E03F
:104740000E941F0B20E040E060E081E090E00E94CA
:104750009B010C9483188D55924039F420E04FEF63
:1047600060E090E080E00E949B013CE3E32EF12CAE
:1047700007CF0E940C05681979098A099B096536DB
:1047800071058105910568F40E940C05609345034D
:10479000709346038093470390934803F12CE12CD8
:1047A000EFCE0E940C05681979098A099B09683EB9
:1047B00073408105910590F3E7CF2FEF4FEF6FEF37
:1047C00090E080E00E949B01E9CF8D819E818C3F2B
:1047D0009F4F3CF4EAEAF5E0F0936103E093600355
:1047E0004ACF109361030093600345CF60EB72E002
:1047F0008DE396E00E94E20A882309F4B1C086E0C6
:1048000090E00E94560C2091530330915403309352
:104810004E0320934D034091510350915203509306
:104820004C0340934B038091550390915603909312
:104830004A0380934903433151050CF460C0E8E119
:10484000F6E0F0935B03E0935A03203131050CF45A
:1048500065C0A8E1B6E0B0935D03A0935C0310933C
:104860005F0300935E0397FF68C08E5A9F4F853A9F
:10487000910508F070C022E236E030936103209386
:104880006003309263032092620324E64FEF64E6F4
:1048900090E080E00E949B01609187037091880303
:1048A0004091890350918A03ACE3A69FC001A79F62
:1048B000900D1124840F951FE0917B03F0917C03F0
:1048C000AE9F9001AF9F300D1124E0917D03F091D8
:1048D0007E032E0F3F1F821B930B039714F40C943F
:1048E000831870937C0360937B0350937E03409303
:1048F0007D036EEB72E08DE396E00C94BC154E3EAA
:104900005F4F3CF440EA55E050935B0340935A03F9
:104910009CCF10935B0300935A0397CF213F3F4FE7
:104920003CF4E0EAF5E0F0935D03E0935C0397CF9D
:1049300010935D0300935C0392CF009761F08E5A51
:104940009F4F853A910538F446E955E0509361034D
:104950004093600396CF109361030093600391CF5F
:104960006EEB72E08DE396E00E94E20A882309F480
:10497000A6C085E090E00E94560C80915303909170
:10498000540390934E0380934D0320915103309133
:10499000520330934C0320934B0380915503909125
:1049A000560390934A0380934903203131050CF458
:1049B00064C0A8E1B6E0B0935B03A0935A0320E47F
:1049C00036E030935D0320935C0310935F03009304
:1049D0005E0397FF61C08E5A9F4F853A910508F09C
:1049E00069C042E256E05093610340936003309205
:1049F0006303209262032FEF40E06FEF90E080E0CE
:104A00000E949B0160918703709188034091890304
:104A100050918A03ACE3A69FC001A79F900D11247B
:104A2000840F951FE0917B03F0917C03AE9F900172
:104A3000AF9F300D1124E0917D03F0917E032E0F86
:104A40003F1F821B930B8430910564F420914F0328
:104A500030915003232B11F00C948318029714F417
:104A60000C94831870937C0360937B0350937E03B4
:104A700040937D036CEC72E03ECF213F3F4F3CF40E
:104A8000E0EAF5E0F0935B03E0935A0398CF1093CC
:104A90005B0300935A0393CF009761F08E5A9F4FA8
:104AA000853A910538F486E995E090936103809307
:104AB00060039DCF109361030093600398CF6CEC6B
:104AC00072E08DE396E00E94E20A882309F4A1C017
:104AD00089E090E00E94560C80915303909154031A
:104AE00090934E0380934D032091510330915203D4
:104AF00030934C0320934B038091550390915603C0
:104B000090934A0380934903233131050CF45FC02D
:104B1000A2E2B6E0B0935B03A0935A0326E336E02B
:104B200030935D0320935C0310935F0300935E0357
:104B300097FF5CC08E5A9F4F853A910508F064C07C
:104B400042E256E050936103409360033092630366
:104B50002092620322E34FEF62E390E080E00E9444
:104B60009B01609187037091880340918903509164
:104B70008A03ACE3A69FC001A79F900D1124840F68
:104B8000951FE0917B03F0917C03AE9F9001AF9F56
:104B9000300D1124E0917D03F0917E032E0F3F1F15
:104BA000821B930B0B9744F480914F039091500319
:104BB000019711F00C94831870937C0360937B032E
:104BC00050937E0340937D0365ED72E094CE2E3EBC
:104BD0003F4F3CF4E6E9F5E0F0935B03E0935A03C2
:104BE0009DCF10935B0300935A0398CF009761F019
:104BF0008E5A9F4F853A910538F486E995E0909357
:104C0000610380936003A2CF10936103009360035C
:104C10009DCF65ED72E08DE396E00E94E20A882365
:104C200009F4B7C08AE090E00E94560C209153032B
:104C30003091540330934E0320934D034091510320
:104C40005091520350934C0340934B038091550372
:104C50009091560390934A03809349034331510541
:104C60000CF466C0A2E2B6E0B0935B03A0935A03D3
:104C7000203131050CF46BC022E236E030935D0345
:104C800020935C0310935F0300935E0397FF6EC055
:104C90008E5A9F4F853A910508F076C0E2E2F6E021
:104CA000F0936103E0936003309263032092620308
:104CB00080914F03909150032FEF4FEF6FEF0197CB
:104CC00019F020E040E060E090E080E00E949B016D
:104CD00060918703709188034091890350918A0302
:104CE000ACE3A69FC001A79F900D1124840F951FD0
:104CF000E0917B03F0917C03AE9F9001AF9F300D5C
:104D00001124E0917D03F0917E032E0F3F1F821B43
:104D1000930B059714F40C94831870937C036093A1
:104D20007B0350937E0340937D0363EE72E0E3CDFB
:104D30004E3E5F4F3CF4E6E9F5E0F0935B03E09311
:104D40005A0396CF10935B0300935A0391CF213FF0
:104D50003F4F3CF4A6E9B5E0B0935D03A0935C033C
:104D600091CF10935D0300935C038CCF009761F0AB
:104D70008E5A9F4F853A910538F426E935E03093F5
:104D800061032093600390CF10936103009360034D
:104D90008BCF63EE72E08DE396E00E94E20A8823F7
:104DA00009F481C08BE090E00E94560C809143038F
:104DB0009091440332E08D35930709F055C020E00F
:104DC0004FEF60E090E080E00E949B0140E456E0FD
:104DD00050935B0340935A03EEE5F6E0F0935D03D6
:104DE000E0935C0310935F0300935E0310936103F1
:104DF0000093600330926303209262036091870303
:104E0000709188034091890350918A03ACE3A69F77
:104E1000C001A79F900D1124840F951FE0917B0383
:104E2000F0917C03AE9F9001AF9F300D1124E09173
:104E30007D03F0917E032E0F3F1F821B930B04977F
:104E400044F480914F0390915003019711F00C941A
:104E5000831870937C0360937B0350937E0340938D
:104E60007D036BE472E047CD8B55924071F42FEFD8
:104E700040E060E090E080E00E949B0188E795E0E0
:104E800090935B0380935A03A7CF20E040E06FEF3D
:104E900090E080E00E949B01A0E4B6E0B0935B0349
:104EA000A0935A0399CF6BE472E08DE396E00E94E1
:104EB000E20A882311F40C94831884E080937A0327
:104EC00021E030E030937303209372030C94831835
:104ED0008091700390917103892B11F00C948318C9
:104EE00034E0F3120C9483180E943F080C9483184A
:104EF00010926703109266030C94B21820E040E011
:104F00006FEF90E080E00E949B0180916E03909192
:104F10006F0390935B0380935A0380916C0390918D
:104F20006D0390935D0380935C0380916A0390917D
:104F30006B0390935F0380935E038091680390916D
:104F40006903909361038093600348E755E05093B1
:104F500063034093620380915803909159039093A7
:104F60006503809364030C944F140E943F080C94D3
:104F70004F14CF93DF938091E1059091E205892B47
:104F8000C1F0D0E0C0E0E091E105F091E205EC0F66
:104F9000FD1F80819181009711F00E94B428229614
:104FA000C032D10581F78091E1059091E2050E9420
:104FB000B4288091E3059091E405892BC1F0D0E0FD
:104FC000C0E0E091E305F091E405EC0FFD1F808166
:104FD0009181009711F00E94B4282296C032D10529
:104FE00081F78091E3059091E4050E94B4288091B7
:104FF0003006909131060E94B42880912D06909140
:105000002E0697FD03C060E00E94A8038DE396E0A2
:105010000E94BE0A83E496E00E94BE0A89E496E0FC
:105020000E94BE0A8FE496E0DF91CF910C94BE0AF5
:105030000F931F93CF93DF938230910510F482E09A
:1050400090E0E0915706F091580630E020E0B0E0A3
:10505000A0E0309799F42115310509F44AC0281BC6
:10506000390B24303105D8F58A819B816115710592
:1050700089F1FB0193838283FE0111C0408151813C
:105080000281138148175907E0F04817590799F42E
:10509000109761F012960C93129713961C93329608
:1050A000CF01DF91CF911F910F9108950093570683
:1050B00010935806F4CF2115310551F042175307CC
:1050C00038F0A901DB019A01BD01DF01F801C1CF70
:1050D000EF01F9CF9093580680935706CDCFFE018C
:1050E000E20FF31F81939193225031093983288372
:1050F000D7CF2091550630915606232B41F42091AD
:1051000005023091060230935606209355062091F1
:105110000302309104022115310541F42DB73EB749
:105120004091070250910802241B350BE09155066F
:10513000F0915606E217F307A0F42E1B3F0B281739
:10514000390778F0AC014E5F5F4F2417350748F000
:105150004E0F5F1F509356064093550681939193CF
:105160009FCFF0E0E0E09CCFCF93DF930097E9F092
:10517000FC01329713821282A0915706B091580613
:10518000ED0130E020E01097A1F420813181820F01
:10519000931F20915506309156062817390709F0BC
:1051A00061C0F0935606E0935506DF91CF910895C4
:1051B000EA01CE17DF07E8F54A815B819E014115C0
:1051C0005105B1F7E901FB83EA8349915991C40F75
:1051D000D51FEC17FD0761F4808191810296840F41
:1051E000951FE90199838883828193819B838A83B8
:1051F000F0E0E0E012968D919C9113970097B9F53D
:105200002D913C911197CD010296820F931F209111
:105210005506309156062817390739F6309751F55B
:105220001092580610925706B0935606A093550652
:10523000BCCFD383C28340815181840F951FC8178F
:10524000D90761F44E5F5F4F88819981480F591FDC
:10525000518340838A819B81938382832115310509
:1052600009F0B0CFF0935806E09357069ECFFD01AA
:10527000DC01C0CF13821282D7CF662777270C9428
:10528000A2291F93FC0199278827BC01E89411915A
:105290001032E9F3193010F01E30C8F31B3251F010
:1052A0001D3249F4689406C00E947329610F711D74
:1052B000811D911D119110531A30B0F33EF4909559
:1052C0008095709561957F4F8F4F9F4F1F910895E7
:1052D000BB274A3031F4992322F4BDE290958195A1
:1052E0009F4F0C948929592F482F372F262F660F4F
:1052F000771F881F991F660F771F881F991F620FDE
:10530000731F841F951F660F771F881F991F0895AD
:10531000BB27FB015527AA27880F991FAA1FA4178F
:1053200010F0A41B83955051B9F7A05DAA3308F083
:10533000A95DA193009779F7B111B1931192CB01B7
:105340000C94212B8F929F92AF92BF92CF92DF92BB
:10535000EF92FF920F931F93CF93DF935C017B013A
:105360006115710519F0DB018D939C9385010F5F29
:105370001F4FF501D0818D2F90E00E94002B6C0112
:10538000892BB9F5DD32B9F50F5F1F4FD5011196A5
:10539000DC91C1E05801F1E0AF1AB10843E050E000
:1053A00062E771E0C5010E94092B892B69F568014C
:1053B00082E0C80ED11C45E050E06DE671E0C60108
:1053C0000E94092B892B21F4680197E0C90ED11C9A
:1053D000E114F10419F0D701CD92DC9260E070E0A5
:1053E00080E89FEFC111FFC060E070E080E89FE7B8
:1053F000FAC05801BBCFDB3229F485010E5F1F4F85
:10540000F501D181C0E0C6CF43E050E06AE671E02B
:10541000C5010E94092B892BE9F0F80110E000E09A
:1054200020E030E0A9015F01B0ED8B2E8D0E89E008
:105430008815C8F19C2E689491F88C2F8870C2FF53
:1054400016C0811102C00F5F1F4F3196D501DC914C
:10545000C92DE9CFE114F10429F00E5F1F4FF701C8
:105460001183008360E070E080EC9FE7BCC088237C
:1054700011F001501109A5E0B0E00E94772C9B01CA
:10548000AC01220F331F441F551F280D311D411D34
:10549000511D283999E93907490799E15907A8F2B7
:1054A000C6609C2ED2CFAEEF8A1206C0C3FD3CC0B0
:1054B0009C2E689493F8C9CFDF7DD534A9F58081FF
:1054C0008D3239F4C061DF011296818162E070E0B3
:1054D00006C0DF018B32C1F3119661E070E08053AA
:1054E0005D01A61AB70A8A30F8F4E0E8CE16ECE0BF
:1054F000DE065CF4B601660F771F660F771FC60ED7
:10550000D71ECC0CDD1CC80ED11C5D01FFEFAF1AFD
:10551000BF0A8C9180538A30A8F1C4FF03C0D19494
:10552000C194D1080C0D1D1DC1FF09C0E114F10487
:1055300031F081E0A81AB108D701AD92BC92CA013E
:10554000B9010E94362BC370C33009F490584B0147
:105550005C0120E030E0A9010E94312B882309F48E
:1055600040C0C1EAD1E017FF05C0119501951109AE
:10557000C9E8D1E06E01B8E1CB1AD10880E2E82E8B
:10558000F12C0FC0D501B1CFFE0125913591459188
:1055900054910E191F09C501B4010E94972B4B01AC
:1055A0005C01D501C4010E151F0574F72497F5940D
:1055B000E794CC16DD06A9F78A2F880F8B2F881F5A
:1055C0008F3F49F020E030E0A901C501B4010E94FD
:1055D000312B811106C082E290E090935A068093AD
:1055E0005906C501B401DF91CF911F910F91FF9032
:1055F000EF90DF90CF90BF90AF909F908F900895E5
:1056000091110C94042C803219F089508550C8F700
:105610000895FB01DC014150504088F08D918134A8
:105620001CF08B350CF4805E659161341CF06B3599
:105630000CF4605E861B611171F3990B0895881B51
:10564000FCCFDC01FC01672F71917723E1F73297E2
:1056500004C07C916D9370836291AE17BF07C8F34D
:1056600008950E94732B08F481E00895E89409C01E
:1056700097FB3EF490958095709561957F4F8F4F85
:105680009F4F9923A9F0F92F96E9BB279395F6959B
:10569000879577956795B795F111F8CFFAF4BB0F19
:1056A00011F460FF1BC06F5F7F4F8F4F9F4F16C07D
:1056B000882311F096E911C0772321F09EE8872F07
:1056C000762F05C0662371F096E8862F70E060E0C3
:1056D0002AF09A95660F771F881FDAF7880F96953C
:1056E000879597F90895990F0008550FAA0BE0E8E0
:1056F000FEEF16161706E807F907C0F01216130694
:10570000E407F50798F0621B730B840B950B39F4D3
:105710000A2661F0232B242B252B21F408950A2639
:1057200009F4A140A6958FEF811D811D08950E9467
:10573000AA2B0C941E2C0E94102C38F00E94172CBF
:1057400020F0952311F00C94072C0C940D2C1124AF
:105750000C94522C0E942F2C70F3959FC1F3950F3F
:1057600050E0551F629FF001729FBB27F00DB11DE5
:10577000639FAA27F00DB11DAA1F649F6627B00D75
:10578000A11D661F829F2227B00DA11D621F739F5E
:10579000B00DA11D621F839FA00D611D221F749F6C
:1057A0003327A00D611D231F849F600D211D822FB3
:1057B000762F6A2F11249F5750409AF0F1F08823DA
:1057C0004AF0EE0FFF1FBB1F661F771F881F915007
:1057D0005040A9F79E3F510580F00C94072C0C9483
:1057E000522C5F3FE4F3983ED4F386957795679506
:1057F000B795F795E7959F5FC1F7FE2B880F911D31
:105800009695879597F9089599278827089597F988
:105810009F6780E870E060E008959FEF80EC089556
:1058200000240A941616170618060906089500247F
:105830000A9412161306140605060895092E0394F9
:10584000000C11F4882352F0BB0F40F4BF2B11F46D
:1058500060FF04C06F5F7F4F8F4F9F4F089557FDCC
:105860009058440F551F59F05F3F71F04795880FCE
:1058700097FB991F61F09F3F79F087950895121665
:1058800013061406551FF2CF4695F1DF08C0161611
:1058900017061806991FF1CF8695710561050894C2
:1058A0000895E894BB2766277727CB0197F90895D9
:1058B000052E97FB1EF400940E946F2C57FD07D015
:1058C0000E948A2C07FC03D04EF40C946F2C509548
:1058D0004095309521953F4F4F4F5F4F08959095DC
:1058E0008095709561957F4F8F4F9F4F08950E94CF
:1058F000AC2CA59F900DB49F900DA49F800D911D81
:1059000011240895B7FF0C94772C0E94772C821BEA
:10591000930B0895A1E21A2EAA1BBB1BFD010DC01B
:10592000AA1FBB1FEE1FFF1FA217B307E407F5074F
:1059300020F0A21BB30BE40BF50B661F771F881F2B
:10594000991F1A9469F760957095809590959B01C1
:10595000AC01BD01CF010895A29FB001B39FC0016A
:10596000A39F700D811D1124911DB29F700D811D8B
:105970001124911D08955058BB27AA270E94D32CAB
:105980000C941E2C0E94102C38F00E94172C20F032
:1059900039F49F3F19F426F40C940D2C0EF4E09585
:1059A000E7FB0C94072CE92F0E942F2C58F3BA1711
:1059B000620773078407950720F079F4A6F50C9425
:1059C000512C0EF4E0950B2EBA2FA02D0B01B9012E
:1059D00090010C01CA01A0011124FF27591B99F065
:1059E000593F50F4503E68F11A16F040A22F232F71
:1059F000342F4427585FF3CF469537952795A795C1
:105A0000F0405395C9F77EF41F16BA0B620B730B67
:105A1000840BBAF09150A1F0FF0FBB1F661F771FD8
:105A2000881FC2F70EC0BA0F621F731F841F48F48D
:105A3000879577956795B795F7959E3F08F0B0CF16
:105A40009395880F08F09927EE0F979587950895FD
:105A50000E94D72DE3950C94002E0E94412D0C94AA
:105A60001E2C0E94172C58F00E94102C40F029F494
:105A70005F3F29F00C94072C51110C94522C0C947C
:105A80000D2C0E942F2C68F39923B1F3552391F329
:105A9000951B550BBB27AA2762177307840738F09D
:105AA0009F5F5F4F220F331F441FAA1FA9F335D0FA
:105AB0000E2E3AF0E0E832D091505040E695001CAE
:105AC000CAF72BD0FE2F29D0660F771F881FBB1F68
:105AD000261737074807AB07B0E809F0BB0B802D46
