:020000040000FA
:100000000C9458010C9489010C9489010C94890179
:100010000C9489010C9489010C9489010C94890138
:100020000C9489010C9489010C9489010C94890128
:100030000C9489010C9489010C9489010C94890118
:100040000C9489010C944B100C9489010C94890137
:100050000C9489010C9489010C9489010C94011071
:100060000C9489010C94CB0F0C94A10F0C94890172
:100070000C9489010C9489010C9489010C948901D8
:100080000C9489010C9489010C9489010C948901C8
:100090000C946B0F0C94410F0C9489010C94890102
:1000A0000C9489010C9489010C9489010C948901A8
:1000B0000C9489010C9489010C9489010C94890198
:1000C0000C9489010C9489010C9489010C94890188
:1000D0000C9489010C9489010C9489010C94890178
:1000E0000C94890105A84CCDB2D44EB93836A9027A
:1000F0000C50B9918688083CA6AAAA2ABE00000026
:10010000803F0C9451030C949E030C9486030C9432
:10011000A2030C9492280C946B030C940F020C9481
:1001200082020C946F030C9494030C94CF020C94F1
:10013000CA100C9472030C941E020C9432020C949C
:1001400078030C94E2010C9440020C9463030C9429
:1001500082030C9467030C9490030C944C030C944E
:100160007C030C948A030C9498034E414E494E49EB
:100170005459494E46CDCCCC3D0AD7233C17B7D174
:100180003877CC2B329595E6241FB14F0A0000201A
:10019000410000C84200401C4620BCBE4CCA1B0E99
:1001A0005AAEC59D7400002100240027002A002DAE
:1001B000003000330001010000040107010A0100C2
:1001C000000A0B02090C0D0E0807030401000000D1
:1001D000000000000000000000000000000000001F
:1001E00000000000000000000000001211100000DC
:1001F00000000000000000000000000000000000FF
:10020000000000000001021020200808102040100B
:1002100020408002010201080402010102040810CA
:1002200020408080402010080402018004020180E8
:100230004020100804020108040201010204081011
:100240002040800102040810204080000022002588
:100250000028002B002E00310034000201000005B0
:100260000108010B01050505050705080808080236
:100270000202020A0A08080404040401010101013F
:100280000101010303030303030303040707070C2E
:100290000C0C0C0C0C0C0C020202020606060606E4
:1002A0000606060B0B0B0B0B0B0B0B00CA10922850
:1002B00011241FBECFEFD1E2DEBFCDBF00E00CBFE7
:1002C00012E0A0E0B2E0EAEFF0E600E00BBF02C00F
:1002D00007900D92A03FB107D9F726E0A0EFB2E05A
:1002E00001C01D92AB35B207E1F711E0C7E5D1E0DF
:1002F00000E006C021970109802FFE010E942A2EEE
:10030000C635D10780E00807A9F70E94FC110C94BC
:100310006B300C94000080919503882359F0E09194
:1003200094039FEF980F90939503E81BF0E0EA5633
:10033000FC4F82810895E0912906F0912A068E17DC
:100340009F0798F530912F06332361F0639FB0012A
:100350001124672F349FA0011124452F329F900153
:100360001124232F30913506E0913006F0913106AB
:100370005091320635131AC0DC01AA0FBB1F8A0F39
:100380009B1F8E0F9F1FE0913206E80FF92FF11D82
:100390006083E0913306E80FF92FF11D408330911F
:1003A0003406830F911DFC0120830895880F991F47
:1003B000880F991F8E0F9F1FFC01E30FF11D108204
:1003C000E2CF0895AF92BF92CF92DF92EF92FF9269
:1003D0000F931F93CF93DF936C017B018B01040F6D
:1003E000151FEB015E01AE18BF08C017D10759F009
:1003F0006991D601ED91FC910190F081E02DC6014B
:100400001995892B79F7C501DF91CF911F910F9134
:10041000FF90EF90DF90CF90BF90AF900895FC01D8
:10042000538D448D252F30E0842F90E0821B930B59
:10043000541710F0CF96089501970895FC01918DFF
:10044000828D981761F0A28DAE0FBF2FB11D5D9602
:100450008C91928D9F5F9F73928F90E008958FEFA4
:100460009FEF0895FC01918D828D981731F0828D58
:10047000E80FF11D858D90E008958FEF9FEF0895AF
:10048000FC01918D228D892F90E0805C9F4F821B13
:1004900091098F739927089587E594E00E9440029F
:1004A00021E0892B09F420E0822F08958AEB93E064
:1004B0000E94400221E0892B09F420E0822F089558
:1004C000FC01A48DA80FB92FB11DA35ABF4F2C91C9
:1004D000848D90E001968F739927848FA689B789C0
:1004E0002C93A089B1898C91837080648C93938DB7
:1004F000848D981306C00288F389E02D80818F7D5A
:1005000080830895EF92FF920F931F93CF93DF9311
:10051000EC0181E0888F9B8D8C8D98131AC0E8893F
:10052000F989808185FF15C09FB7F894EE89FF890E
:100530006083E889F98980818370806480839FBFAC
:1005400081E090E0DF91CF911F910F91FF90EF90AC
:100550000895F62E0B8D10E00F5F1F4F0F731127BC
:10056000E02E8C8D8E110CC00FB607FCFACFE889F7
:10057000F989808185FFF5CFCE010E946002F1CF1D
:10058000EB8DEC0FFD2FF11DE35AFF4FF0829FB76B
:10059000F8940B8FEA89FB8980818062CFCFCF935B
:1005A000DF93EC01888D8823B9F0AA89BB89E8899B
:1005B000F9898C9185FD03C0808186FD0DC00FB641
:1005C00007FCF7CF8C9185FFF2CF808185FFEDCFBF
:1005D000CE010E946002E9CFDF91CF91089580E0C3
:1005E00090E0892B29F00E94560281110E940000A0
:1005F00080E090E0892B29F00E944C0281110E943A
:10060000000080E090E0892B49F080E090E0892BA9
:1006100029F00E94000081110E94000080E090E01B
:10062000892B49F080E090E0892B29F00E9400009E
:1006300081110C9400000895282F30E0F901E15455
:10064000FE4F9491F901EB5FFD4F44912B593D4FC3
:10065000F9012491222309F435C0992311F1915015
:100660009231F8F4E92FF0E08827E65CFC4F8F4FD9
:100670000C942A2E6B036F034C036303670351032F
:10068000720378037C03820386038A039003940336
:10069000510398039E03A203809180008F7780937B
:1006A0008000E22FF0E0EE0FFF1FE55BFD4FA5910C
:1006B000B4918FB7F894EC91611148C040954E23E6
:1006C0004C938FBF0895809180008F7DE8CF8091FB
:1006D0008000877FE4CF84B58F7784BDE2CF84B577
:1006E0008F7DFBCF8091B0008F778093B000D9CF02
:1006F0008091B0008F7DF9CF809190008F778093AB
:100700009000CFCF809190008F7DF9CF80919000A5
:10071000877FF5CF8091A0008F778093A000C1CF15
:100720008091A0008F7DF9CF8091A000877FF5CFC9
:10073000809120018F7780932001B3CF8091200199
:100740008F7DF9CF80912001877FF5CF4E2BB8CFD9
:10075000CF93DF9390E0FC01EB5FFD4F24918B5929
:100760009D4FFC0184918823D1F090E0880F991F60
:10077000FC01EB55FE4FA591B491FC01E55BFD4FEB
:10078000C591D49161110EC09FB7F8948C91E22F5E
:10079000E0958E238C932881E223E8839FBFDF912D
:1007A000CF9108958FB7F894EC91E22BEC938FBF23
:1007B000F6CF3FB7F89480911E0390911F03A0914C
:1007C0002003B091210326B5A89B05C02F3F19F047
:1007D0000196A11DB11D3FBFBA2FA92F982F8827C1
:1007E000BC01CD01620F711D811D911D42E0660F9C
:1007F000771F881F991F4A95D1F70895CF92DF92EE
:10080000EF92FF920F931F93CF93DF9300D000D00E
:1008100000D0CDB7DEB78091300690913106892B9C
:1008200009F480C0C0903606D0903706E0903806B4
:10083000F09039060E94D9036C157D058E059F0541
:1008400050F40E94D9036093360670933706809364
:100850003806909339060E94D9030091360610910C
:1008600037062091380630913906601B710B820BD8
:10087000930B6C32714081059105A0F2F894809140
:100880002B0690912C069A838983E0913006F09193
:100890003106DF0111968081898790912706E091CA
:1008A0003A06F0913B0680913C06992309F449C031
:1008B0009081982B98879081809589238F838F8151
:1008C0008C8388E08B8358856F8149853B812C819F
:1008D00089819A81508347FD252F3A952083262FC1
:1008E00039F0441F00C000006083000000C0F2CF58
:1008F00038E04D9160830000019761F7F0933B066B
:10090000E0933A0649873B832C839A8389837894C2
:100910000E94D90360933606709337068093380699
:100920009093390629960FB6F894DEBF0FBECDBF5F
:10093000DF91CF911F910F91FF90EF90DF90CF90BB
:1009400008959081982B98879081809589238F8333
:100950008F818E8388E08D8358856F8149853D81A5
:100960002E8189819A81508347FD252F00C000C0C8
:10097000208300C000C000C000C000C06083000031
:10098000262F3A9541F0441F000000C000C000C06F
:1009900000C000C0E8CF38E04D9100C0608300C0C7
:1009A000019709F7F0933B06E0933A0649873D83A8
:1009B0002E83ABCF8F929F92AF92BF92CF92DF9256
:1009C000EF92FF924B015C010E94D9036B017C0105
:1009D0000E94D9036C197D098E099F09683E7340F6
:1009E00081059105A8F321E0821A9108A108B108B8
:1009F00088EEC80E83E0D81EE11CF11C811491041E
:100A0000A104B10429F7FF90EF90DF90CF90BF9041
:100A1000AF909F908F9008952FB7F89460911A032C
:100A200070911B0380911C0390911D032FBF0895AB
:100A3000CF92DF92EF92FF92CF93DF930E940C054B
:100A40006B017C0184E98093BC00C091B803D09114
:100A5000B9038091BC0084FF1FC02097D1F30E948E
:100A60000C05AB01BC014C195D096E097F09CE0173
:100A7000B0E0A0E0481759076A077B0730F31092EF
:100A8000BC0084E48093BC0081E0DF91CF91FF90B3
:100A9000EF90DF90CF90089580E0F7CFCF92DF9274
:100AA000EF92FF92CF93DF938093BB000E940C05DF
:100AB0006B017C0184E88093BC00C091B803D091A5
:100AC000B9038091BC0087FD20C02097D1F30E941C
:100AD0000C05AB01BC014C195D096E097F09CE0103
:100AE000B0E0A0E0481759076A077B0730F310927F
:100AF000BC0084E48093BC00C1E08C2FDF91CF91D7
:100B0000FF90EF90DF90CF9008958091B900887F9B
:100B10008831D9F08091B900887F8034B1F0C091DC
:100B2000B900C87F8091B900887F803259F08091E8
:100B3000B900887F883431F01092BC0084E480933F
:100B4000BC00DBCF0E941805D8CFC0E0D6CFCF9233
:100B5000DF92EF92FF92CF93DF930E940C056B011F
:100B60007C0184EA8093BC00C091B803D091B903A2
:100B70008091BC0087FD1FC02097D1F30E940C0517
:100B8000AB01BC014C195D096E097F09CE01B0E0D3
:100B9000A0E0481759076A077B0730F31092BC00A2
:100BA00084E48093BC0081E0DF91CF91FF90EF90CF
:100BB000DF90CF9008958091B900887F8830B9F098
:100BC0008091B900887F803191F08091B900887F51
:100BD000883349F48091B900887F1092BC0094E476
:100BE0009093BC00E1CF8091B900887FDDCF80E099
:100BF000DBCFCF92DF92EF92FF92CF93DF93C82F9C
:100C00000E940C056B017C0184ECC11101C084E8D9
:100C10008093BC00C091B803D091B9038091BC000F
:100C200087FD1FC02097D1F30E940C05AB01BC01CA
:100C30004C195D096E097F09CE01B0E0A0E04817AC
:100C400059076A077B0730F31092BC0084E4809355
:100C5000BC0081E0DF91CF91FF90EF90DF90CF90CB
:100C600008958091B900887F883349F48091B90054
:100C7000887F1092BC0094E49093BC00EBCF8091ED
:100C8000B900887FE7CF0F931F93CF93DF93C82FCF
:100C9000D62F10929503611101C0D1E08FEF8D0F17
:100CA00080939703109296030E94A7058093960362
:100CB00081111CC08C2F880F8F5F0E944E0580937E
:100CC0009603882321F0813089F485E00FC008E97C
:100CD00013E0C0E0809197038C1325C080E00E9450
:100CE000F90580939603813031F486E0DF91CF914E
:100CF0001F910F9108958835C9F78091BB00F801C5
:100D000081938F01CF5FC0939503C0939403DC134D
:100D1000E1CF0E94180580939603882339F3813030
:100D200029F787E0E3CF81E00E94F90580939603DD
:100D30008130D9F2803509F3D9CF20915803309111
:100D40005903032E000C440B550B285E3340410918
:100D50005109A8E1BCEF0E94392C28EE33E040E0B5
:100D600050E00E940C2C2053384F4F4F5F4F309370
:100D7000650320936403089510923F03109240038B
:100D800010924103109242031092350310923603E1
:100D9000109237031092380310921203109213032B
:100DA000109214031092150310920E0310920F0369
:100DB000109210031092110310920A0310920B0369
:100DC00010920C0310920D03109209031092050368
:100DD0001092060310920703109208031092010369
:100DE0001092020310920303109204031092FD026A
:100DF0001092FE021092FF02109200031092FC0269
:100E000008958F929F92AF92BF92CF92DF92EF920E
:100E1000FF92CF93DF937C01EB01BC01990F880B0C
:100E2000990B0E94EC2A4B015C01609112037091B6
:100E300013038091140390911503EF2809F459C10D
:100E40009B01AC01C501B4010E94702C6B017C01B7
:100E500020E030E04AEF54EC0E94E52A87FD50C1C3
:100E600020E030E04AEF54E4C701B6010E94C82DEB
:100E7000181634F4C12CD12C7AEFE72E74E4F72E37
:100E8000C0921203D0921303E0921403F092150360
:100E900020910E0330910F034091100350911103E4
:100EA00080920E0390920F03A0921003B092110350
:100EB00080910903882309F431C1C501B4010E945E
:100EC0006F2C6B017C0120E030E040E751EC0E9488
:100ED000E52A87FD1CC120E030E040E751E4C7016E
:100EE000B6010E94C82D181634F4C12CD12C50E73D
:100EF000E52E51E4F52EC0920A03D0920B03E09246
:100F00000C03F0920D032AE037ED43EA5CE36091B5
:100F100012037091130380911403909115030E94A2
:100F20004B2B6B017C012DEC3CEC4CE45FE3C501E9
:100F3000B4010E944B2B9B01AC01C701B6010E947A
:100F4000702C6B017C0120E030E0A90160910A0364
:100F500070910B0380910C0390910D030E944B2B19
:100F60009B01AC01C701B6010E94702C60933F0346
:100F7000709340038093410390934203BE010D2E72
:100F8000000C880B990B0E94EC2A4B015C016091CC
:100F90000503709106038091070390910803CD2B00
:100FA00009F4C8C0A50194010E94702C6B017C015A
:100FB00020E030E04AEF54EC0E94E52A87FDC1C0F2
:100FC00020E030E04AEF54E4C701B6010E94C82D8A
:100FD000181634F4C12CD12C3AEFE32E34E4F32E5E
:100FE000C0920503D0920603E0920703F092080333
:100FF00020910103309102034091030350910403B7
:101000008092010390920203A0920303B092040322
:101010008091FC02882309F4A2C0C501B4010E949A
:101020006F2C6B017C0120E030E040E751EC0E9426
:10103000E52A87FD8DC020E030E040E751E4C7019C
:10104000B6010E94C82D181634F4C12CD12C90E79B
:10105000E92E91E4F92EC092FD02D092FE02E092B8
:10106000FF02F09200032AE037ED43EA5CE360916F
:1010700005037091060380910703909108030E9475
:101080004B2B6B017C012DEC3CEC4CE45FE3C50188
:10109000B4010E944B2B9B01AC01C701B6010E9419
:1010A000702C6B017C0120E030E0A9016091FD0211
:1010B0007091FE028091FF02909100030E944B2BE1
:1010C0009B01AC01C701B6010E94702C60933503EF
:1010D000709336038093370390933803DF91CF9159
:1010E000FF90EF90DF90CF90BF90AF909F908F9048
:1010F000089523E333E343E35FE30E944B2BA6CE43
:10110000C12CD12C6AEFE62E64ECF62EB9CEC12CA0
:10111000D12C40E7E42E41ECF42EEDCE81E080931B
:10112000090310920A0310920B0310920C03109201
:101130000D03E9CE23E333E343E35FE30E944B2B4C
:1011400035CFC12CD12C2AEFE22E24ECF22E48CF41
:10115000C12CD12C80E7E82E81ECF82E7CCF1092A8
:10116000FD021092FE021092FF021092000381E035
:101170008093FC0278CFCF92DF92EF92FF920E9491
:101180000C05C0902B03D0902C03E0902D03F09021
:101190002E036C197D098E099F096436710581053E
:1011A000910520F528EC48EC68EC90E080E00E9486
:1011B0009B018CED95E090935B0380935A03909391
:1011C0005D0380935C0322EF33E030935F03209351
:1011D0005E03909361038093600390936303809315
:1011E0006203FF90EF90DF90CF9008950E940C056E
:1011F0006C197D098E099F09643671058105910579
:1012000078F00E940C056C197D098E099F09683CD5
:1012100071058105910520F420E040E060E0C5CF34
:101220000E940C0560932B0370932C0380932D0375
:1012300090932E03BECF3F924F925F926F927F9218
:101240008F929F92AF92BF92CF92DF92EF92FF92D6
:101250000F931F93CF93DF938091F40281110DC000
:101260000E94D9036093F0027093F1028093F2021E
:101270009093F30281E08093F4020E94D9030091DD
:10128000F0021091F1022091F2023091F302601B02
:10129000710B820B930B0091FC041091FD042091C3
:1012A000FE043091FF04061717072807390710F4CA
:1012B00010920005C1E08091250690912606DC0180
:1012C000ED91FC910084F185E02D19951816190611
:1012D0000CF06CC00E94D9036093F0027093F1028D
:1012E0008093F2029093F302809125069091260656
:1012F000DC01ED91FC910284F385E02D199580933A
:10130000020590910005911116C09091F80489137F
:101310000FC0909101052091F904921739F02091A6
:10132000FB0492232091FA04921302C0C09300059B
:1013300080930105C0CF993140F4E92FF0E0EC50E3
:10134000FB4F86879F5F9093000590910005993130
:1013500079F79091F904891739F09091FB0489236A
:101360009091FA04891320C0109200056091030542
:1013700070910405C0900405D12C80900505D09192
:101380000605E090070500910805A0900905C091A9
:101390000A0530900B058091190590911B05982343
:1013A000B9F41092000217C010920005DF91CF919E
:1013B0001F910F91FF90EF90DF90CF90BF90AF9073
:1013C0009F908F907F906F905F904F903F90089587
:1013D00091E09093000290911C05892309F435C196
:1013E00081E080930202912CF12C10E0B12C7770F7
:1013F000072E000C880B990B0E94EC2A23E333E3A1
:1014000043E35FE30E944B2B20E030EC46E454E4DE
:101410000E94702C0E94532D9B01AC012B51344033
:1014200041095109A8EEB3E00E942B2C28E9422E75
:1014300023E0522E612C712CA30192010E940C2CEE
:1014400028513C4F4F4F5F4F30936F0320936E03F3
:1014500033E0D594C7943A95E1F7B40145E0660FBF
:10146000771F4A95E1F76C297D297770072E000CCC
:10147000880B990B0E94EC2A23E333E343E35FE3F9
:101480000E944B2B20E030EC46E454E40E94702C88
:101490000E94532D9B01AC012B513440410951094D
:1014A000A8EEB3E00E942B2CA30192010E940C2C09
:1014B00028513C4F4F4F5F4F30936D0320936C0387
:1014C000B4E0DB9FB0011124C701982F8827990F42
:1014D000990F682B792BE6E095948794EA95E1F7CC
:1014E000682979297770072E000C880B990B0E94C8
:1014F000EC2A23E333E343E35FE30E944B2B20E03A
:1015000030EC46E454E40E94702C0E94532D9B0161
:10151000AC012B51344041095109A8EEB3E00E94BF
:101520002B2CA30192010E940C2C28513C4F4F4FB1
:101530005F4F30936B0320936A03B70175956795EE
:101540007801F694FE2CEE24F794E7946E297F2917
:101550007770072E000C880B990B0E94EC2A23E36E
:1015600033E343E35FE30E944B2B20E030EC46E49F
:1015700054E40E94702C0E94532D9B01AC012B510E
:10158000344041095109A8EEB3E00E942B2CA3017D
:1015900092010E940C2C28513C4F4F4F5F4F3093CB
:1015A000690320936803B801B4E075956795BA950F
:1015B000E1F78501D4E0000F111FDA95E1F7602B08
:1015C000712B7770072E000C880B990B0E94EC2A68
:1015D00023E333E343E35FE30E944B2B20E030EC53
:1015E00046E454E40E94702C0E94532D70939303A0
:1015F000609392036C2F70E0660F771FC32DD0E0CD
:10160000DC2FCC27DD0F6C2B7D2BAA0CAB2CAA1C5E
:10161000BB086A297B297770072E000C880B990B71
:101620000E94EC2A23E333E343E35FE30E944B2B66
:1016300020E030EC46E454E40E94702C0E94532DCC
:101640007093590360935803B1CE10920202CBCE2F
:10165000CF93DF93EC0188819981009711F00E946C
:10166000CE2E198218821D821C821B821A82DF9163
:10167000CF910895FC0180819181009711F00C9425
:10168000CE2E0895CF93DF93FC012481358162171C
:10169000730788F49B01C081D1816BE370E0CE01B8
:1016A000820F931F0E944130009729F08C1B9D0BE5
:1016B000DF91CF9108958FEF9FEFFACFFC01248146
:1016C0003581232B39F421E0FB018081882349F007
:1016D00020E007C0808191810E944C3021E0892B5D
:1016E000B9F7822F08950F931F93CF93DF93EC01E7
:1016F00088819981009759F02A813B812617370705
:1017000030F081E0DF91CF911F910F9108958B010F
:101710006F5F7F4F0E94572F009759F099838883FE
:101720001B830A832C813D81232B59F7FC011082F6
:10173000E8CF80E0E7CFEF92FF920F931F93CF9314
:10174000DF93EC017B01198218821B821A821D82B1
:101750001C82FB0101900020E9F731978F01061BE5
:10176000170BB8010E94730B811109C0CE01DF91E4
:10177000CF911F910F91FF90EF900C94280B1D8338
:101780000C83B70188819981DF91CF911F910F91CF
:10179000FF90EF900C945530EF92FF920F931F93B0
:1017A000CF93DF938C017B01EB0109900020E9F7D7
:1017B0002197C61BD70BBE010E94730B811109C074
:1017C000C801DF91CF911F910F91FF90EF900C9482
:1017D000280BF801D583C483B70180819181DF9103
:1017E000CF911F910F91FF90EF900C945530AF92D5
:1017F000BF92CF92DF92EF92FF920F931F93CF93FE
:10180000DF936C015B017A0189012417350720F40D
:101810008F2D7901042F182F6CE172E0C6010E9410
:101820009B0BD5011496CD91DC91EC16FD06E0F4EE
:101830000C171D0708F4E801D501ED91FC911197F3
:10184000EC0FFD1F108110826D917C916E0D7F1D3C
:10185000C60161157105A1F00E94CC0BF5018081D4
:101860009181C80FD91F1883C601DF91CF911F91B5
:101870000F91FF90EF90DF90CF90BF90AF900895C1
:101880000E94280BEBCF10928F03109279031092D5
:10189000780310922A03E6E2F3E0118210821382A9
:1018A00012826BE172E08FE496E00E94CC0B109202
:1018B00077031092760310922F03E3E8F3E011828E
:1018C0001082138212826BE172E089E496E00E943A
:1018D000CC0B109275031092740310923E03EFE745
:1018E000F3E011821082138212826BE172E083E4D2
:1018F00096E00E94CC0B1092730310927203109228
:101900005703EBE7F3E011821082138212826BE13E
:1019100072E08DE396E00E94CC0B1092710310925E
:10192000700310927A031092910310926703109241
:10193000660310924E0310924D0310924C031092C6
:101940004B038AE590E090934A0380934903EFE4C8
:10195000F3E01182108213821282158214821782A0
:1019600016828BE192E0909344038093430310929C
:10197000300310923103109232031092330310920D
:10198000340310923D031092390310923A031092DF
:101990003B0310923C0320E040E060E082E090E0F6
:1019A0000C949B018F929F92AF92BF92EF92FF9205
:1019B0000F931F93CF93DF93CDB7DEB7C05AD109F2
:1019C0000FB6F894DEBF0FBECDBF182F092F0E94AF
:1019D0000C058090220390902303A0902403B090E4
:1019E0002503681979098A099B09643671058105FF
:1019F000910508F424C2CE0101967C0180E8F7012C
:101A000011928A95E9F76CE172E0CE0187569F4FFB
:101A10000E949B0BCD56DF4F19821882C359D040CC
:101A2000CB56DF4F19821882C559D040C956DF4FB7
:101A300019821882C759D0404AE0BE016F577F4FC4
:101A4000812F902F0E941C29BE016F577F4FCE011E
:101A50008D569F4F0E94CC0BC756DF4F88819981CE
:101A6000C959D040009709F47EC0CD56DF4F688138
:101A70007981C359D0406115710509F472C0C5560A
:101A8000DF4F48815981CB59D040C956DF4F28815B
:101A90003981C759D0404217530708F462C00E94E9
:101AA0005530C956DF4F88819981C759D040C356F8
:101AB000DF4F99838883CD59D040C956DF4F1982B3
:101AC0001882C759D040CE018D569F4F0E943A0BC5
:101AD000C356DF4F88819981CD59D040892B09F0B9
:101AE00073C0C156DF4F1882CF59D0401092960371
:101AF0000E94A70580939603811192C084E20E9400
:101B00004E058093960381118BC01093BB000E94F9
:101B10000C054B015C0184E88093BC000091B80384
:101B20001091B9038091BC0087FD61C001151105BA
:101B3000C9F30E940C05AB01BC01481959096A0997
:101B40007B0930E020E0401751076207730730F34C
:101B50001092BC0084E48093BC0081E080939603E3
:101B60005FC00E94CE2ECD56DF4F88819981C35928
:101B7000D040C756DF4F99838883C959D040CB5690
:101B8000DF4F88819981C559D040C556DF4F998371
:101B90008883CB59D040C956DF4F88819981C75976
:101BA000D040C356DF4F99838883CD59D040CD565E
:101BB000DF4F19821882C359D040CB56DF4F1982AC
:101BC0001882C559D04079CFC756DF4F68817981D7
:101BD000C959D04041E050E0CE0181569F4F0E944C
:101BE0005C30C056DF4F1882C05AD0407FCF809102
:101BF000B900887F883229F4109296030E94180554
:101C0000ADCF1091B900187F8091B900887F8033E3
:101C100009F03FC00E94180510939603112371F339
:101C200062E082E10E94430680919503823009F0D0
:101C300044C00E948B01082F0E948B01182F61E085
:101C400070E080E090E00E94DA04602F82E10E9460
:101C50004306012E000C220B330B4091950350E0FC
:101C600070E060E00417150726073707C1F42FEF6F
:101C70004FEF6FEF82E090E00E949B01870180911F
:101C80009503882309F10E948B01F80181938F014C
:101C9000F6CF1092BC0084E48093BC00BDCF20E05E
:101CA00040E06FEF82E090E00E949B0180919503FD
:101CB000882351F00E948B01F9CF20E040E060E0E2
:101CC00082E090E00E949B01B701CE018D569F4FAC
:101CD0000E949B0B70E060E0CE018D569F4F0E94EA
:101CE000420B7C019C0150E040E0BE016D567F4FED
:101CF000CE018F579F4F0E94F70BCF57DF4F888140
:101D00009981C158D040009709F4ABC00E94F528D2
:101D10007093500360934F03CE018F579F4F0E94E3
:101D20003A0BFFEFEF1AFF0AB701CE018D569F4F16
:101D30000E94420B8C019C01A701BE016D567F4F92
:101D4000CE018F579F4F0E94F70BCF57DF4F8881EF
:101D50009981C158D040009709F487C00E94F128AA
:101D60000E94532D7093520360935103CE018F57FD
:101D70009F4F0E943A0B0F5F1F4FB801CE018D5647
:101D80009F4F0E94420B7C019C01A801BE016D5631
:101D90007F4FCE018F579F4F0E94F70BCF57DF4FDA
:101DA00088819981C158D040009709F462C00E948F
:101DB000F1280E94532D7093540360935303CE0176
:101DC0008F579F4F0E943A0BC956DF4F28813981A8
:101DD000C759D040A7014F5F5F4FBE016D567F4F7F
:101DE000CE018F579F4F0E94F70BCF57DF4F88814F
:101DF0009981C158D040009709F43FC00E94F12852
:101E00000E94532D7093560360935503CE018F5754
:101E10009F4F0E943A0B0E940C056093220370931F
:101E200023038093240390932503CE018D569F4F67
:101E30000E943A0BCE0187569F4F0E943A0BC05624
:101E4000DF4F0FB6F894DEBF0FBECDBFDF91CF914D
:101E50001F910F91FF90EF90BF90AF909F908F9048
:101E6000089560E070E0CB0153CF60E070E0CB01FB
:101E700077CF60E070E0CB019CCF60E070E0CB01F9
:101E8000BFCF1F920F920FB60F9211240BB60F9275
:101E90002F933F934F935F936F937F938F939F9372
:101EA000AF93BF93EF93FF9387E594E00E946002A6
:101EB000FF91EF91BF91AF919F918F917F916F9122
:101EC0005F914F913F912F910F900BBE0F900FBEDE
:101ED0000F901F9018951F920F920FB60F9211241A
:101EE0000BB60F922F938F939F93EF93FF93E091F5
:101EF0006704F09168048081E0916D04F0916E04B4
:101F000082FD1DC09081809170048F5F8F7320913E
:101F10007104821741F0E0917004F0E0E95AFB4F40
:101F2000958F80937004FF91EF919F918F912F91E6
:101F30000F900BBE0F900FBE0F901F9018958081D1
:101F4000F2CF1F920F920FB60F9211240BB60F9281
:101F50002F933F934F935F936F937F938F939F93B1
:101F6000AF93BF93EF93FF938AEB93E00E946002DD
:101F7000FF91EF91BF91AF919F918F917F916F9161
:101F80005F914F913F912F910F900BBE0F900FBE1D
:101F90000F901F9018951F920F920FB60F92112459
:101FA0000BB60F922F938F939F93EF93FF93E09134
:101FB000CA03F091CB038081E091D003F091D1036B
:101FC00082FD1DC090818091D3038F5F8F7320911C
:101FD000D403821741F0E091D303F0E0E654FC4FC4
:101FE000958F8093D303FF91EF919F918F912F91C4
:101FF0000F900BBE0F900FBE0F901F901895808111
:10200000F2CF1F920F920FB60F9211242F933F938E
:102010008F939F93AF93BF9380911A0390911B036B
:10202000A0911C03B0911D033091190323E0230FED
:102030002D3758F50196A11DB11D209319038093EA
:102040001A0390931B03A0931C03B0931D0380916C
:102050001E0390911F03A0912003B09121030196CC
:10206000A11DB11D80931E0390931F03A093200315
:10207000B0932103BF91AF919F918F913F912F9189
:102080000F900FBE0F901F90189526E8230F029611
:10209000A11DB11DD2CF1F920F920FB60F92112426
:1020A0000BB60F922F933F934F935F936F937F9352
:1020B0008F939F93AF93BF93EF93FF9310928500FD
:1020C00010928400809101028823F9F061E08DE193
:1020D0000E941C0388E592E0909389008093880019
:1020E00010920102FF91EF91BF91AF919F918F915B
:1020F0007F916F915F914F913F912F910F900BBE08
:102100000F900FBE0F901F90189560E08DE10E9418
:102110001C0391E090930102809118038630C0F077
:10212000109218038091160390911703845D9E4FBF
:10213000919581959109880F991F805C93469093A2
:102140008900809388001092170310921603CACF5B
:10215000E82FF0E0EE0FFF1FE65AFC4F208131819F
:102160002C523140220F331F309389002093880076
:10217000209116033091170340815181240F351FA0
:1021800030931703209316038F5F80931803909367
:102190009003A8CF10925A041092590448EE53E0CD
:1021A00060E070E040935B0450935C0460935D04D6
:1021B00070935E048DE092E09093580480935704EE
:1021C0002DEC30E030936404209363042CEC30E079
:1021D000309366042093650428EC30E03093680463
:1021E0002093670429EC30E030936A04209369045B
:1021F0002AEC30E030936C0420936B042EEC30E03A
:1022000030936E0420936D04109270041092710448
:1022100010927204109273041092BD031092BC03CA
:102220004093BE035093BF036093C0037093C103F8
:102230009093BB038093BA0385EC90E09093C7031F
:102240008093C60384EC90E09093C9038093C80305
:1022500080EC90E09093CB038093CA0381EC90E0F4
:102260009093CD038093CC0382EC90E09093CF03C6
:102270008093CE0386EC90E09093D1038093D003BB
:102280001092D3031092D4031092D5031092D60368
:102290006BE172E08FE496E00E949B0B6BE172E0D1
:1022A00089E496E00E949B0B6BE172E083E496E088
:1022B0000E949B0B6BE172E08DE396E00E949B0B0A
:1022C0001092280610922F061092360610923706AA
:1022D000109238061092390681E08093350680937B
:1022E00032061092330692E09093340680932706CC
:1022F00089E090E090932C0680932B060E94322E6A
:102300009093310680933006009709F46CC029E061
:10231000FC0111922A95E9F783E090E090932A0658
:102320008093290686E090E090932E0680932D06F8
:1023300080912806882341F061E086E00E94A8038E
:1023400060E086E00E941C03EBE6F2E0E491F0E03E
:10235000EE0FFF1FE55BFD4F8591949190933B0637
:1023600080933A06EBE0F2E0E491E0933C0680EAE9
:1023700096E8A1E0B0E08093F4049093F504A09374
:10238000F604B093F7049FE09093F8041092F904D8
:1023900084E08093FA049093FB0448E55BE160E0FD
:1023A00070E04093FC045093FD046093FE0470932E
:1023B000FF041092010580931B0588E080931C05A3
:1023C0008FE890E090931E0580931D0588E797E0C5
:1023D0009093200580931F0587E594E0909326064F
:1023E00080932506089510922C0610922B061092C9
:1023F0002A061092290696CFCF93DF9300D01F9222
:10240000CDB7DEB7789484B5826084BD84B5816031
:1024100084BD85B5826085BD85B5816085BD8091AF
:102420006E00816080936E00109281008091810027
:10243000826080938100809181008160809381001F
:10244000809180008160809380008091B1008460E1
:102450008093B1008091B00081608093B000809142
:1024600091008260809391008091910081608093BF
:102470009100809190008160809390008091A100F4
:1024800082608093A1008091A10081608093A1006F
:102490008091A00081608093A000809121018260E2
:1024A000809321018091210181608093210180919D
:1024B000200181608093200180917A008460809364
:1024C0007A0080917A00826080937A0080917A000D
:1024D000816080937A0080917A00806880937A008E
:1024E0001092C10080912D0690912E0697FD08C094
:1024F00061E00E94A80360E080912D060E941C0309
:1025000081E0809328060E94FE0360912F066333CA
:1025100029F120913006309131066150C9F070E008
:102520008FEF92E30E94162EF90140912B065091F5
:102530002C06CF01821B930B8417950760F4408112
:10254000469FC001479F900D112490833196EDCF97
:1025500070E060E0E9CF83E380932F06589A599AA0
:102560008091B9008E7F8093B9008091B9008D7FF2
:102570008093B90088E48093B80084E48093BC0021
:102580002CED35E03093B9032093B8038CE08093B1
:10259000B80060E086E30E94A80360E082E00E9449
:1025A000A80360E08DE00E94A8034CED55E0509335
:1025B0005B0340935A0350935D0340935C03509335
:1025C000610340936003509363034093620388EE7A
:1025D00093E090935F0380935E0384E398E090938D
:1025E0006503809364030E940C056093220370933B
:1025F00023038093240390932503109200050091F8
:102600001F051091200580911D0590911E059A834C
:102610008983BC0190E080E00E94EA2A4B015C01C2
:10262000B80190E080E00E94EA2AA50194010E948E
:102630006F2C2B013C01AC019B0160E070E080E05D
:1026400090E40E94E12C6B017C0120E030E040E04E
:102650005FE3C301B2010E944B2BA50194010E94CC
:10266000702C9058A70196010E944B2BE1E2F5E0F7
:10267000A1E6B5E029813A8121933193178F068F26
:10268000CD92DD92ED92FD92DC966D937D938D93CC
:102690009C93DF9735E0E134F30761F7409125061D
:1026A000509126065A834983C090F404D090F504D3
:1026B000E090F604F090F70460E079E08DE390E0BC
:1026C000A70196010E943E2C215031094109510970
:1026D0005695479537952795A981BA815096ED91E2
:1026E000FC9182E08083C114B1EEDB06E104F104C9
:1026F00021F02115E0E13E07B0F0A981BA815096A2
:10270000ED91FC91108260E874E88EE190E0A70101
:1027100096010E943E2C21503109410951095695DC
:10272000479537952795A981BA811C96ED91FC9123
:102730001D9730831E96ED91FC911F97208358962C
:102740001C9258975496ED91FC9155978EE2808398
:102750005296ED91FC9153978081806180835296CF
:10276000ED91FC9153978081886080835296ED9122
:10277000FC9153978081806880835296ED91FC9103
:1027800080818F7D808361E08DE10E94A80360E0FD
:102790008DE10E941C03F894109280001092810039
:1027A00088E790E090938900809388008091810071
:1027B0008860809381008091810082608093810095
:1027C00080916F00826080936F00789468EC70E075
:1027D00080E090E00E94DA041A82198220E040E052
:1027E000698181E090E00E949B010E94FE03E981E3
:1027F000FA813196FA83E983E115F14079F71A827B
:10280000198220E0498160E081E090E00E949B0114
:102810000E94FE0349815A814F5F5F4F5A8349836B
:102820004115514071F71A821982298140E060E018
:1028300081E090E00E949B010E94FE0389819A81C1
:1028400001969A8389838115914079F71A821982BA
:102850002981422F622F90E080E00E949B01298114
:10286000422F622F81E090E00E949B012981422F3C
:10287000622F82E090E00E949B010E94FE03E981AA
:10288000FA813196FA83E983E115F14009F74FEFB8
:1028900050E05A8349832981422F622F90E080E0E3
:1028A0000E949B012981422F622F81E090E00E94CB
:1028B0009B012981422F622F82E090E00E949B01C0
:1028C0000E94FE0389819A8101979A8389830196E8
:1028D00011F720E040E060E090E080E00E949B0182
:1028E00020E040E060E081E090E00E949B0120E079
:1028F00040E060E082E090E00E949B010E94FE03C5
:1029000020E040E060E090E080E00E949B010E94B7
:10291000FE030E940C053EE7232E34E0332E4AEAE4
:10292000842E45E0942E50EAA52E55E0B52E0E9447
:102930001B098091020281110C948E2880919203D0
:10294000909193038E34B3E09B070CF480C0813BDD
:10295000E3E09E070CF042C020E04FEF60E090E023
:1029600080E00E949B0180916E0390916F03909391
:102970005B0380935A0380916C0390916D03909355
:102980005D0380935C0380916A0390916B03909345
:102990005F0380935E038091680390916903909335
:1029A00061038093600384E195E0909363038093D7
:1029B000620380915803909159039093650380932B
:1029C00064030E94430C80919003882321F00E94AD
:1029D000FE03109290030E94EF02A9CF863BF5E020
:1029E0009F07ACF1893126E0920764F52FEF40E0B4
:1029F00060E090E080E00E949B0180916E039091E6
:102A00006F0390935B0380935A0380916C039091C2
:102A10006D0390935D0380935C0380916A039091B2
:102A20006B0390935F0380935E03809168039091A2
:102A30006903909361038093600330926303209253
:102A40006203B7CF8A5198408336910528F0809170
:102A50009103882309F4B7CF80918F0381112DC092
:102A60000E940C0560938B0370938C0380938D03FD
:102A700090938E0310928A03109289031092880318
:102A8000109287031092840310928303109286039E
:102A9000109285031092800310927F03109282039C
:102AA0001092810310927C0310927B0310927E039C
:102AB00010927D0381E080938F0380918F038823A0
:102AC000E9F180919103811139C00E940C050091B8
:102AD0008B0310918C0320918D0330918E03601B2A
:102AE000710B820B930B683E73408105910598F042
:102AF0008091890390918A03019690938A03809331
:102B000089030E940C0560938B0370938C03809360
:102B10008D0390938E038091890390918A03CC97C3
:102B20006CF08091870390918803019690938803BD
:102B30008093870310928A03109289030E941B09D5
:102B40008091910381110C94572810917A03809100
:102B5000780390917903892B09F09EC311119CC3CE
:102B600080912A0381111FC080918703909188036F
:102B700090932703809326038091890390918A0381
:102B800090932903809328036BE172E08FE496E031
:102B90000E94CC0B81E080932A036BE172E08FE40A
:102BA00096E00E94CC0B80912A03882309F43AC353
:102BB0006BE172E08FE496E00E945E0B882309F4DB
:102BC0005CC020E044E664E690E080E00E949B0167
:102BD00081E090E00E94D20C4CED55E050935B03F5
:102BE00040935A0350935D0340935C0388EE93E057
:102BF00090935F0380935E0350936103409360035F
:102C0000309263032092620384E398E0909365031B
:102C100080936403609187037091880340918903D6
:102C200050918A03ACE3A69FC001A79F900D112489
:102C3000840F951FE0912603F0912703AE9F90012A
:102C4000AF9F300D1124E0912803F09129032E0F3E
:102C50003F1F821B930B06970CF4E4C2709327036B
:102C60006093260350932903409328036DE172E09B
:102C70008FE496E00E94CC0BD5C26DE172E08FE448
:102C800096E00E945E0B882309F454C024E640E0DD
:102C900064E690E080E00E949B0181E090E00E9469
:102CA000D20C8CED95E090935B0380935A03909344
:102CB0005D0380935C0388EE93E090935F038093C1
:102CC0005E0380ED97E09093610380936003309200
:102CD000630320926203609187037091880340919F
:102CE000890350918A03ACE3A69FC001A79F900D72
:102CF0001124840F951FE0912603F0912703AE9FC6
:102D00009001AF9F300D1124E0912803F091290329
:102D10002E0F3F1F821B930B06970CF483C27093F8
:102D2000270360932603509329034093280361E20D
:102D300072E09ECF61E272E08FE496E00E945E0B4B
:102D4000882309F452C081E090E00E94D20C24E66E
:102D500040E060E090E080E00E949B01ACEDB5E0D7
:102D6000B0935B03A0935A03B0935D03A0935C03FD
:102D700084E195E090935F0380935E03B0936103D9
:102D8000A0936003309263032092620360918703F3
:102D9000709188034091890350918A03ACE3A69F08
:102DA000C001A79F900D1124840F951FE091260369
:102DB000F0912703AE9F9001AF9F300D1124E09159
:102DC0002803F09129032E0F3F1F821B930B0497BA
:102DD0000CF428C2709327036093260350932903B1
:102DE000409328036BE272E043CF6BE272E08FE422
:102DF00096E00E945E0B882309F450C081E090E0C9
:102E00000E94D20C24E644E664E690E080E00E9452
:102E10009B01ECEDF5E0F0935B03E0935A03F09334
:102E20005D03E0935C03F0935F03E0935E03F09334
:102E30006103E09360033092630320926203609128
:102E40008703709188034091890350918A03ACE312
:102E5000A69FC001A79F900D1124840F951FE0919C
:102E60002603F0912703AE9F9001AF9F300D1124F0
:102E7000E0912803F09129032E0F3F1F821B930B33
:102E800004970CF4CFC170932703609326035093EB
:102E900029034093280365E372E0EACE65E372E01C
:102EA0008FE496E00E945E0B882309F4E2C00E9442
:102EB0000C05C0902B03D0902C03E0902D03F090D4
:102EC0002E036C197D098E099F09643671058105F1
:102ED000910508F072C020E040E06FEF90E080E0E4
:102EE0000E949B0181E090E00E94D20C80914B03F4
:102EF00090914C038A3191050CF484C022E236E0B3
:102F000030935B0320935A0380914D0390914E03BD
:102F1000853191050CF487C0A2E2B6E0B0935D0361
:102F2000A0935C0384EA96E090935F0380935E0332
:102F30008091490390914A0397FF86C08E5A9F4F14
:102F4000853A910508F08EC040E456E05093610345
:102F50004093600330926303209262036091870381
:102F6000709188034091890350918A03ACE3A69F36
:102F7000C001A79F900D1124840F951FE091260397
:102F8000F0912703AE9F9001AF9F300D1124E09187
:102F90002803F09129032E0F3F1F821B930B0797E5
:102FA0000CF440C1709327036093260350932903C8
:102FB000409328036EE372E05BCE0E940C056C190F
:102FC0007D098E099F09643671058105910578F0A8
:102FD0000E940C056C197D098E099F09683C7105DA
:102FE0008105910520F420E040E060E077CF0E9469
:102FF0000C0560932B0370932C0380932D03909307
:103000002E0370CF873E9F4F3CF446E955E0509326
:103010005B0340935A0378CF8CED95E090935B036C
:1030200080935A0371CF8C3E9F4F3CF4E6E9F5E064
:10303000F0935D03E0935C0375CF2CED35E03093A6
:103040005D0320935C036ECF009761F08E5A9F4F13
:10305000853A910538F488E795E090936103809371
:10306000600378CFACEDB5E0B0936103A09360034B
:1030700071CF6EE372E08FE496E00E945E0B8823CE
:1030800009F4B8C081E090E00E94D20CE0905303B4
:10309000F0905403F0924E03E0924D03C090510320
:1030A000D0905203D0924C03C0924B030091550331
:1030B0001091560310934A030093490324E640E01D
:1030C00060E090E080E00E949B01BAE1CB16D10461
:1030D0000CF458C0EEE0F6E0F0935B03E0935A0383
:1030E00035E1E316F1040CF45EC04EE056E0509377
:1030F0005D0340935C03ACEDB5E0B0935F03A09338
:103100005E0317FF61C0015B1F4F0F39110508F007
:103110006AC0E0E4F6E0F0936103E093600330926C
:10312000630320926203609187037091880340914A
:10313000890350918A03ACE3A69FC001A79F900D1D
:103140001124840F951FE0912603F0912703AE9F71
:103150009001AF9F300D1124E0912803F0912903D5
:103160002E0F3F1F821B930B04970CF45BC07093D0
:1031700027036093260350932903409328036BE4AD
:1031800072E076CDF7EECF16FFEFDF062CF49092CB
:103190005B0380925A03A4CF2CED35E030935B03A0
:1031A00020935A039DCF5CEEE5165FEFF5062CF4F5
:1031B00090925D0380925C039ECF8CED95E090939E
:1031C0005D0380935C0397CF0115110561F0015BEE
:1031D0001F4F0F39110538F428E735E030936103AC
:1031E000209360039CCF4CED55E0509361034093D6
:1031F000600395CF6BE472E08FE496E00E945E0B73
:10320000882381F020E040E060E090E080E00E94D0
:103210009B0181E080937A0381E090E090937903B1
:103220008093780380916E0390916F03835895404B
:10323000833B9105E8F480916C0390916D03835872
:103240009540833B9105A0F480916A0390916B03B4
:1032500083589540833B910558F480916803909181
:10326000690383589540833B910510F40C945128D1
:103270008091660390916703019690936703809312
:103280006603809166039091670303970CF49BCBD0
:1032900081E08093910397CB80917603909177039F
:1032A000892B09F072C2113009F06FC280912F038F
:1032B00081111EC0809187039091880390938403AD
:1032C000809383038091890390918A03909386036E
:1032D000809385036BE172E089E496E00E94CC0B59
:1032E00010932F036BE172E089E496E00E94CC0B0F
:1032F00080912F03882309F495CF6BE172E089E474
:1033000096E00E945E0B882309F40DC182E090E0F4
:103310000E94D20C209153033091540330934E03FA
:1033200020934D03409151035091520350934C030D
:1033300040934B03809155039091560390934A0319
:1033400080934903453151050CF48DC0AEE0B6E0E1
:10335000B0935B03A0935A0300914F031091500365
:103360000130110509F091C0213131050CF48AC0FA
:1033700020E436E030935D0320935C032CED35E0D0
:1033800030935F0320935E0397FF8DC08E5A9F4F4B
:10339000853A910508F093C048E156E050936103E7
:1033A0004093600330926303209262030E940C05F5
:1033B000C0902B03D0902C03E0902D03F0902E03AF
:1033C0006C197D098E099F09683C7105810591057D
:1033D00008F086C020E040E00130110509F47EC00D
:1033E0000230110509F072C02FEF40E060E090E07C
:1033F00080E00E949B016091870370918803409157
:10340000890350918A03ACE3A69FC001A79F900D4A
:103410001124840F951FE0918303F0918403AE9FE4
:103420009001AF9F300D1124E0918503F091860348
:103430002E0F3F1F821B930B813191053CF401300D
:10344000110509F0EFCE02970CF4ECCE70938403D3
:1034500060938303509386034093850360E572E095
:1034600089E496E007CC4C3E5F4F2CF490925B03CE
:1034700080925A0371CFECEDF5E0F0935B03E0939B
:103480005A036ACF203F3F4F3CF4A8E7B5E0B09322
:103490005D03A0935C0372CFECEDF5E0F0935D0368
:1034A000E0935C036BCF009751F08E5A9F4F853AA3
:1034B000910528F4B0926103A092600373CF8CED64
:1034C00095E090936103809360036CCF20E04FEF11
:1034D0000330110509F48ACF2FEF4FEF6FEF87CF3D
:1034E0000E940C056C197D098E099F09683C7105C5
:1034F0008105910568F00E940C056C197D098E0903
:103500009F0920E06C3271408105910508F46DCF70
:103510000E940C0560932B0370932C0380932D0362
:1035200090932E0368CF60E572E089E496E00E94F4
:103530005E0B882309F416C183E090E00E94D20C50
:1035400020915303309154032A50310930934E0394
:1035500020934D03409151035091520350934C03DB
:1035600040934B03809155039091560390934A03E7
:1035700080934903453151050CF457C0E8E1F6E06A
:10358000F0935B03E0935A03213131050CF45CC0E6
:10359000A8E1B6E0B0935D03A0935C032CED35E0A9
:1035A00030935F0320935E0397FF5DC08E5A9F4F59
:1035B000853A910508F065C042E256E050936103F8
:1035C0004093600330926303209262030E940C05D3
:1035D000C0902B03D0902C03E0902D03F0902E038D
:1035E00000914F03109150036C197D098E099F09BA
:1035F000683C71058105910508F04AC020E0013062
:10360000110561F02FEF0230110509F4A8C020E088
:103610004FEF0330110509F4A3C02FEF40E06FEF27
:1036200090E080E00E949B0149C04C3E5F4F2CF42B
:10363000B0925B03A0925A03A7CF4CED55E0509394
:103640005B0340935A03A0CF203F3F4F2CF4B0922E
:103650005D03A0925C03A2CFECEDF5E0F0935D0377
:10366000E0935C039BCF009761F08E5A9F4F853AA1
:10367000910538F486E995E09093610380936003A7
:10368000A1CFACEDB5E0B0936103A09360039ACFF6
:103690000E940C056C197D098E099F09683C710513
:1036A0008105910508F04EC00E940C0560932B0324
:1036B00070932C0380932D0390932E0360918703C6
:1036C000709188034091890350918A03ACE3A69FCF
:1036D000C001A79F900D1124840F951FE0918303D3
:1036E000F0918403AE9F9001AF9F300D1124E091C3
:1036F0008503F09186032E0F3F1F821B930B8531AC
:10370000910554F49801225031092230310508F016
:1037100089CD03970CF486CD709384036093830363
:1037200050938603409385038BE592E002301105A8
:1037300011F08DE592E090934403809343036BE492
:1037400072E08ECE0E940C056C197D098E099F09CE
:103750006C3271408105910508F0A6CF20E040E071
:1037600060E05ECF6BE472E089E496E00E945E0B5D
:10377000882309F457CD82E080937A03E1E0F0E0FA
:10378000F0937703E09376034DCD8091740390918D
:103790007503892B09F06EC7123009F06BC7809151
:1037A0003E0381111FC080918703909188039093FD
:1037B000800380937F038091890390918A03909383
:1037C0008203809381036BE172E083E496E00E94C0
:1037D000CC0B81E080933E036BE172E083E496E0E2
:1037E0000E94CC0B80913E03882309F41BCD6BE132
:1037F00072E083E496E00E945E0B882309F4ABC17B
:1038000084E090E00E94D20C009153031091540385
:103810000A50110910934E0300934D032091510358
:10382000309152033A83298330934C0320934B0306
:10383000E0905503F0905603F0924A03E09249035A
:1038400080914F0390915003019771F080913D0357
:1038500081110AC00E940C056093390370933A03EA
:1038600080933B0390933C030E940C0540903903E6
:1038700050903A0360903B0370903C0364197509C3
:1038800086099709693572408105910518F081E034
:1038900080933D0380913D03882309F41AC10E945F
:1038A0000C0540904503509046036090470370908C
:1038B00048036419750986099709693572408105BD
:1038C000910508F0BDC0809143039091440352E0FC
:1038D0008B35950739F02AEBC22EDD24DA948D550D
:1038E000924019F096E4C92ED12C2FEF4FEF6FEFD5
:1038F00090E080E00E949B0169817A81C8010E946A
:103900000107B7010F2C000C880B990B0E94EC2AC1
:1039100025E33AEF4EE85CE30E944B2B0E94532DC7
:10392000072E000C880B990B0E94EC2A0E94DC2CBD
:103930002B013C01B601DD0C880B990B0E94EC2A8F
:10394000A30192010E944B2B20E030E84BEB54E4A2
:103950000E94702C0E94532D70935B0360935A0356
:1039600017FF03C0119501951109053111050CF4DC
:1039700092C020E030E84BEB54E460913F0370913B
:10398000400380914103909142030E94702C0E9459
:10399000532D70935D0360935C03ECEDF5E0F093C1
:1039A0006103E09360038CED95E090935F03809357
:1039B0005E03A0913D03A111C7C030926303209222
:1039C000620380914F0390915003059709F02ACC30
:1039D00060918703709188034091890350918A0315
:1039E000BCE3B69FC001B79F900D1124840F951FB3
:1039F00020917F0330918003B29FF001B39FF00DBF
:103A0000112420918103309182032E0F3F1F821BCE
:103A1000930B04970CF406CCAA2309F403CC7093FF
:103A2000800360937F0350938203409381036FE58B
:103A300072E083E496E00E94CC0B0E94BC06F2CBBD
:103A40000E940C0564197509860997096935724049
:103A500081059105A8F00E940C0564197509860975
:103A60009709603A7F408105910550F42FEF4FEFA1
:103A70006FEF90E080E00E949B01D12CC12C3CCFE5
:103A80000E940C056093450370934603809347039F
:103A900090934803F2CF2CED35E030935D032093F3
:103AA0005C031E141F045CF437E0E316F10484F198
:103AB0004EE056E0509361034093600374CF5AEF99
:103AC000E5165FEFF50624F590926103809260039E
:103AD0006ACF8091430390914403A2E08D359A0709
:103AE000F1F48CE895E090935B0380935A030B30DC
:103AF0001105DCF0EEE0F6E0F0935D03E0935C038B
:103B00001E141F048CF24AEFE4164FEFF406E4F2A1
:103B10008CED95E0909361038093600344CF8B55C7
:103B20009240F9F68CE296E0DECF063F1F4F2CF470
:103B300090925D0380925C03E3CF2CED35E03093EF
:103B40005D0320935C03DCCFE8E7F5E0F0936303CB
:103B5000E093620336CF6FE572E083E496E00E9463
:103B60005E0B882309F4BFC084E090E00E94D20C71
:103B700080915303909154030A9790934E0380933E
:103B80004D03409151035091520350934C03409385
:103B90004B03209155033091560330934A032093F1
:103BA0004903453151050CF471C048E156E050938A
:103BB0005B0340935A03813191050CF476C0E8E130
:103BC000F6E0F0935D03E0935C038CED95E0909359
:103BD0005F0380935E03121613060CF075C0293044
:103BE00031050CF479C0A8E1B6E0B0936103A0936D
:103BF0006003309263032092620380914F0390919F
:103C0000500320E040E060E0009729F0059739F488
:103C10002FEF4FEF6FEF90E080E00E949B016091EB
:103C20008703709188034091890350918A03ACE324
:103C3000A69FC001A79F900D1124840F951FE091AE
:103C40007F03F0918003AE9F9001AF9F300D112450
:103C5000E0918103F09182032E0F3F1F821B930B93
:103C600006970CF4DFCA7093800360937F03509330
:103C70008203409381036DE672E083E496E00E9444
:103C8000CC0B1092500310924F03D7CE4C3E5F4F97
:103C90002CF4B0925B03A0925A038DCFACEDB5E04B
:103CA000B0935B03A0935A0386CF803F9F4F2CF4C1
:103CB000B0925D03A0925C0388CF4CED55E0509329
:103CC0005D0340935C0381CF283F3F4F2CF4B092BB
:103CD0006103A09260038DCFECEDF5E0F0936103FA
:103CE000E093600386CF6DE672E083E496E00E9485
:103CF0005E0B882309F49DC085E090E00E94D20C01
:103D0000809153039091540390934E0380934D03FD
:103D1000209151033091520330934C0320934B0375
:103D2000809155039091560390934A0380934903E1
:103D3000233131050CF45BC02EE036E030935B0399
:103D400020935A0390925D0380925C03ECEDF5E0C2
:103D5000F0935F03E0935E0397FF58C08C5A9F4F28
:103D6000893A910508F05EC028E136E0309361039E
:103D70002093600330926303209262032FEF40E0B0
:103D80006FEF90E080E00E949B016091870370914B
:103D900088034091890350918A03ACE3A69FC00138
:103DA000A79F900D1124840F951FE0917F03F09140
:103DB0008003AE9F9001AF9F300D1124E0918103ED
:103DC000F09182032E0F3F1F821B930B02970CF47E
:103DD00029CA7093800360937F03509382034093BA
:103DE00081036AE772E083E496E00C943A162E3E73
:103DF0003F4F2CF490925B0380925A03A3CFACED1B
:103E0000B5E0B0935B03A0935A039CCF009751F0A9
:103E10008C5A9F4F893A910528F4B0926103A09281
:103E20006003A8CF4CED55E05093610340936003CD
:103E3000A1CF6AE772E083E496E00E945E0B8823DC
:103E400009F420C1809143039091440352E08B35E3
:103E5000950709F0BBC02FEF40E060E090E080E004
:103E60000E949B0188E490E00E94D20C8091530351
:103E70009091540390934E0380934D03E09051032F
:103E8000F0905203E0924B03F0924C0300915503E3
:103E90001091560310934A0300934903B7010E94FF
:103EA0000107C70197FF03C0919581959109459737
:103EB0000CF4A5C020E030E84BEB54E460913503EE
:103EC0007091360380913703909138030E94702CD3
:103ED0000E94532D70935B0360935A030E940C055C
:103EE000C0904503D0904603E0904703F09048030C
:103EF0006C197D098E099F096C3B72408105910503
:103F000008F084C0E8E7F5E0F0935D03E0935C031C
:103F10008CED95E090935F0380935E0317FF9EC046
:103F20000C5A1F4F093A110508F0A5C0AEE0B6E0E3
:103F3000B0936103A0936003309263032092620305
:103F4000E0914F03F09150036091870370918803D3
:103F50004091890350918A031CE3169FC001179F6B
:103F6000900D1124840F951FA0917F03B0918003C1
:103F70001A9F90011B9F300D1124A0918103B091D5
:103F800082032A0F3B1F821B930BE530F10521F0C2
:103F90008B3091050CF446C928EE33E0309365036D
:103FA000209364038531910534F4359709F03AC9BB
:103FB00003970CF437C97093800360937F03509389
:103FC00082034093810367E872E00DCF8D559240E4
:103FD00051F420E04FEF60E090E080E00E949B0110
:103FE00089E490E041CF89E490E00E94D20C20E087
:103FF0004FEF6FEF90E080E00E949B0137CF8CED98
:1040000095E090935B0380935A0368CF0E940C0560
:104010006C197D098E099F096C3B724081059105E1
:1040200058F40E940C0560934503709346038093F7
:104030004703909348036CCF0E940C056C197D09CF
:104040008E099F09683B7B408105910550F74CED37
:1040500055E050935D0340935C035ACF0115110561
:1040600051F00C5A1F4F093A110528F49092610340
:104070008092600361CFECEDF5E0F0936103E09393
:1040800060035ACF67E872E083E496E00E945E0B1B
:10409000882309F419C186E090E00E94D20CC090F8
:1040A0005303D0905403D0924E03C0924D03F0912D
:1040B0005103F983209152032B83F0934B032093F8
:1040C0004C03809155039091560390934A0380933B
:1040D00049030E940C0540904503509046036090B0
:1040E0004703709048036419750986099709643F6E
:1040F00071408105910508F094C02FEF4FEF6FEFED
:1041000090E080E00E949B0184E7E82EFF24FA946F
:1041100069817B81C6010E94010709811B8117FF0C
:1041200003C0119501951109053111050CF4A4C0C6
:1041300020E030E84BEB54E4609135037091360396
:1041400080913703909138030E94702C0E94532D68
:1041500070935B0360935A0394E2E91A9AEFF90AA9
:10416000F0925D03E0925C03ACEDB5E0B0935F03C9
:10417000A0935E03053111050CF485C0ECEDF5E06C
:10418000F0936103E0936003309263032092620333
:1041900060918703709188034091890350918A034D
:1041A000ACE3A69FC001A79F900D1124840F951F1B
:1041B000E0917F03F0918003AE9F9001AF9F300D9F
:1041C0001124E0918103F09182032E0F3F1F821B87
:1041D000930B803191058CF420914F033091500363
:1041E0002530310509F01EC802970CF41BC831EFC9
:1041F000C3163FEFD3060CF015C87093800360938D
:104200007F03509382034093810363E972E083E468
:1042100096E00E94CC0B1092500310924F030C9426
:1042200012190E940C056419750986099709643FE3
:1042300071408105910568F40E940C056093450367
:10424000709346038093470390934803F12CE12C2D
:104250005FCF0E940C056419750986099709603AB9
:104260007F408105910540F72FEF4FEF6FEF90E012
:1042700080E00E949B01EACF8CED95E090935B0378
:1042800080935A0369CF8091490390914A0397FF25
:104290000DC08C5A9F4F893A910508F06FCF2EE0E0
:1042A00036E030936103209360036ECF009709F4EA
:1042B00065CF8C5A9F4F893A910508F05FCF909255
:1042C00061038092600360CF63E972E083E496E06B
:1042D0000E945E0B882309F4B2C086E090E00E9441
:1042E000D20C20915303309154032550310930935F
:1042F0004E0320934D03409151035091520350932C
:104300004C0340934B038091550390915603909337
:104310004A0380934903453151050CF45FC048E1DD
:1043200056E050935B0340935A03213131050CF45E
:1043300064C0E8E1F6E0F0935D03E0935C034CEDCC
:1043400055E050935F0340935E0397FF65C08E5A1C
:104350009F4F853A910508F06BC08EE096E09093F0
:10436000610380936003309263032092620324E62A
:104370004FEF64E690E080E00E949B01609187032C
:10438000709188034091890350918A03ACE3A69F02
:10439000C001A79F900D1124840F951FE0917F030A
:1043A000F0918003AE9F9001AF9F300D1124E091FA
:1043B0008103F09182032E0F3F1F821B930B0997FD
:1043C00014F40C9412197093800360937F0350933C
:1043D0008203409381036BE472E005CD4C3E5F4F56
:1043E0002CF4B0925B03A0925A039FCFACEDB5E0E2
:1043F000B0935B03A0935A0398CF203F3F4F2CF418
:10440000B0925D03A0925C039ACF2CED35E030931F
:104410005D0320935C0393CF009751F08E5A9F4F1A
:10442000853A910528F490926103809260039BCFB6
:10443000ACEDB5E0B0936103A093600394CF61EA63
:1044400072E083E496E00E945E0B882309F4FDC0CD
:1044500088E090E00E94D20C009153031091540325
:104460000A50110910934E0300934D03809151039C
:104470009091520390934C0380934B03E09055032B
:10448000F0905603F0924A03E0924903809143036F
:1044900090914403B2E08B359B0709F09EC02FEF4B
:1044A00040E060E090E080E00E949B01E6E9F5E0FA
:1044B000F0935B03E0935A030B3011050CF4A5C095
:1044C00088E196E090935D0380935C03ECEDF5E06A
:1044D000F0935F03E0935E031E141F040CF0A4C06E
:1044E000F6E0EF16F1040CF4A9C028E136E03093B1
:1044F00061032093600330926303209262032FEFE5
:1045000040E06FEF90E080E00E949B0180914F03BC
:1045100090915003059751F40E940C05609331036C
:1045200070933203809333039093340310923003DB
:104530000E940C0500913103109132032091330346
:1045400030913403601B710B820B930B6D3B7240F7
:104550008105910518F081E0809330036091870315
:10456000709188034091890350918A03ACE3A69F20
:10457000C001A79F900D1124840F951FE0917F0328
:10458000F0918003AE9F9001AF9F300D1124E09118
:104590008103F09182032E0F3F1F821B930B863005
:1045A000910554F420913003222311F40C94121934
:1045B000029714F40C9412197093800360937F0394
:1045C00050938203409381036BE472E083E496E0AE
:1045D0000E94CC0B0E94BC061ECE8D55924071F4F9
:1045E00020E04FEF60E090E080E00E949B0122E23B
:1045F00036E030935B0320935A035ECF42E256E0ED
:1046000050935B0340935A0357CF063F1F4F2CF440
:10461000B0925D03A0925C0359CFACEDB5E0B093CE
:104620005D03A0935C0352CF3BEFE3163FEFF3062D
:104630002CF4B0926103A09260035DCF4CED55E085
:10464000509361034093600356CF6BE472E083E4C0
:1046500096E00E945E0B882311F40C94121983E0FB
:1046600080937A0381E090E09093750380937403C4
:104670000C9412198091720390917303892B09F0A5
:1046800000C5133009F0FDC48091570381111FC08C
:10469000809187039091880390937C0380937B03A0
:1046A0008091890390918A0390937E0380937D0388
:1046B0006BE172E08DE396E00E94CC0B81E0809389
:1046C00057036BE172E08DE396E00E94CC0B809182
:1046D0005703882311F40C9412196BE172E08DE3F7
:1046E00096E00E945E0B882309F447C188E090E0C1
:1046F0000E94D20CC0905303D0905403C0924D033B
:10470000D0924E03A0915103B0915203BA83A98372
:10471000B0934C03A0934B03E0905503F0905603E5
:10472000F0924A03E0924903E0914F03F091500365
:10473000FC83EB83359709F400C10E940C0540907F
:1047400045035090460360904703709048036419F6
:10475000750986099709653F71408105910508F043
:10476000C8C0809143039091440322E08B359207A7
:1047700009F0B2C02FEF40E060E090E080E00E94DE
:104780009B0104EC1FEF69817A81C6010E94010739
:10479000B7010F2C000C880B990B0E94EC2A25E323
:1047A0003AEF4EE85CE30E944B2B0E94DC2C2B017D
:1047B0003C01B801110F880B990B0E94EC2AA30150
:1047C00092010E944B2B20E030E84BEB54E40E9416
:1047D000702C0E94532D70935B0360935A03C601A3
:1047E000D7FE03C091958195910940970CF4ADC017
:1047F00020E030E84BEB54E460913F0370914003BC
:1048000080914103909142030E94702C0E94532D8D
:1048100070935D0360935C03ACEDB5E0B0935F0310
:10482000A0935E031E141F040CF096C0B6E0EB16B6
:10483000F1040CF49BC0EEE0F6E0F0936103E0932A
:10484000600348E755E0509363034093620360912F
:104850008703709188034091890350918A03ACE3E8
:10486000A69FC001A79F900D1124840F951FE09172
:104870007B03F0917C03AE9F9001AF9F300D11241C
:10488000E0917D03F0917E032E0F3F1F821B930B5F
:104890008531910554F4AB81BC81159711F00C94CE
:1048A0001219039714F40C94121970937C036093FB
:1048B0007B0350937E0340937D0360EB72E08DE3B6
:1048C00096E00E94CC0B20E040E060E081E090E0C8
:1048D0000E949B010C9412198D55924039F420E0EE
:1048E0004FEF60E090E080E00E949B010CE310E05D
:1048F0004ACF0E940C056419750986099709653F1E
:1049000071408105910568F40E940C056093450390
:1049100070934603809347039093480310E000E0B0
:1049200032CF0E940C056419750986099709683B06
:104930007B408105910590F3E7CF2FEF4FEF6FEFAD
:1049400090E080E00E949B01E9CF8CED95E0909390
:104950005D0380935C0360CFFBEFEF16FFEFFF0674
:104960002CF490926103809260036BCF2CED35E0C4
:10497000309361032093600364CF60EB72E08DE3BA
:1049800096E00E945E0B882309F4B5C086E090E0B3
:104990000E94D20C209153033091540330934E0364
:1049A00020934D03409151035091520350934C0377
:1049B00040934B03809155039091560390934A0383
:1049C00080934903433151050CF462C0E8E1F6E0FD
:1049D000F0935B03E0935A03203131050CF467C078
:1049E000A8E1B6E0B0935D03A0935C032CED35E045
:1049F00030935F0320935E0397FF68C08E5A9F4FEA
:104A0000853A910508F070C042E256E05093610388
:104A100040936003309263032092620324E64FEFD9
:104A200064E690E080E00E949B01609187037091B2
:104A300088034091890350918A03ACE3A69FC0018B
:104A4000A79F900D1124840F951FE0917B03F09197
:104A50007C03AE9F9001AF9F300D1124E0917D0348
:104A6000F0917E032E0F3F1F821B930B069714F4C9
:104A70000C94121970937C0360937B0350937E0314
:104A800040937D036EEB72E08DE396E00C943A1652
:104A90004E3E5F4F2CF4B0925B03A0925A039CCF22
:104AA0004CED55E050935B0340935A0395CF213F63
:104AB0003F4F2CF4B0925D03A0925C0397CFECEDD6
:104AC000F5E0F0935D03E0935C0390CF009761F015
:104AD0008E5A9F4F853A910538F486E995E0909378
:104AE00061038093600396CFACEDB5E0B0936103B2
:104AF000A09360038FCF6EEB72E08DE396E00E948F
:104B00005E0B882309F4A8C085E090E00E94D20CD7
:104B1000809153039091540390934E0380934D03DF
:104B2000209151033091520330934C0320934B0357
:104B3000809155039091560390934A0380934903C3
:104B4000233131050CF466C0E8E1F6E0F0935B0335
:104B5000E0935A0340E456E050935D0340935C03B6
:104B6000ACEDB5E0B0935F03A0935E0397FF61C027
:104B70008C5A9F4F893A910508F067C0EEE0F6E045
:104B8000F0936103E0936003309263032092620329
:104B90002FEF40E06FEF90E080E00E949B0160917A
:104BA0008703709188034091890350918A03ACE395
:104BB000A69FC001A79F900D1124840F951FE0911F
:104BC0007B03F0917C03AE9F9001AF9F300D1124C9
:104BD000E0917D03F0917E032E0F3F1F821B930B0C
:104BE0008430910564F420914F0330915003232BBE
:104BF00011F00C941219029714F40C94121970937A
:104C00007C0360937B0350937E0340937D036CECA5
:104C100072E03ACF2E3E3F4F2CF4B0925B03A0924D
:104C20005A0398CF2CED35E030935B0320935A0361
:104C300091CF009751F08C5A9F4F893A910528F4F3
:104C400090926103809260039FCF2CED35E030930A
:104C500061032093600398CF6CEC72E08DE396E0E3
:104C60000E945E0B882309F4A5C089E090E00E94B1
:104C7000D20C809153039091540390934E038093F0
:104C80004D03209151033091520330934C032093F4
:104C90004B03809155039091560390934A03809360
:104CA0004903233131050CF461C042E256E05093D0
:104CB0005B0340935A0326E336E030935D03209371
:104CC0005C034CED55E050935F0340935E0397FF08
:104CD0005EC08C5A9F4F893A910508F064C08EE0FF
:104CE00096E0909361038093600330926303209277
:104CF000620322E34FEF62E390E080E00E949B01B9
:104D000060918703709188034091890350918A03D1
:104D1000ACE3A69FC001A79F900D1124840F951F9F
:104D2000E0917B03F0917C03AE9F9001AF9F300D2B
:104D30001124E0917D03F0917E032E0F3F1F821B13
:104D4000930B0B9744F480914F039091500301977C
:104D500011F00C94121970937C0360937B035093B1
:104D60007E0340937D0365ED72E08ECE2E3E3F4F75
:104D70003CF4A6E9B5E0B0935B03A0935A039BCF44
:104D8000ECEDF5E0F0935B03E0935A0394CF0097CA
:104D900051F08C5A9F4F893A910528F49092610303
:104DA00080926003A2CFACEDB5E0B0936103A09315
:104DB00060039BCF65ED72E08DE396E00E945E0B91
:104DC000882309F4BDC08AE090E00E94D20C2091B3
:104DD00053033091540330934E0320934D0340917D
:104DE00051035091520350934C0340934B038091D5
:104DF00055039091560390934A038093490343319E
:104E000051050CF468C0E2E2F6E0F0935B03E09336
:104E10005A03233131050CF46FC0E2E2F6E0F0935F
:104E20005D03E0935C03ACEDB5E0B0935F03A0934A
:104E30005E0397FF72C08C5A9F4F893A910508F024
:104E400078C0EEE0F6E0F0936103E0936003309207
:104E500063032092620380914F03909150032FEFE0
:104E60004FEF6FEF019719F020E040E060E090E035
:104E700080E00E949B0160918703709188034091BC
:104E8000890350918A03ACE3A69FC001A79F900DB0
:104E90001124840F951FE0917B03F0917C03AE9F5A
:104EA0009001AF9F300D1124E0917D03F0917E03BE
:104EB0002E0F3F1F821B930B059714F40C941219AD
:104EC00070937C0360937B0350937E0340937D0338
:104ED00063EE72E0D9CD4E3E5F4F3CF446E955E0BB
:104EE00050935B0340935A0394CFACEDB5E0B0937D
:104EF0005B03A0935A038DCF2E3E3F4F3CF426E92F
:104F000035E030935D0320935C038DCF4CED55E08D
:104F100050935D0340935C0386CF009751F08C5A09
:104F20009F4F893A910528F4909261038092600323
:104F30008ECF2CED35E0309361032093600387CF53
:104F400063EE72E08DE396E00E945E0B882309F425
:104F500083C08BE090E00E94D20C8091430390913B
:104F6000440332E08D35930709F057C020E04FEF3E
:104F700060E090E080E00E949B0140E456E05093A6
:104F80005B0340935A03EEE5F6E0F0935D03E09394
:104F90005C032CED35E030935F0320935E03309388
:104FA0006103209360033092630320926203609157
:104FB0008703709188034091890350918A03ACE381
:104FC000A69FC001A79F900D1124840F951FE0910B
:104FD0007B03F0917C03AE9F9001AF9F300D1124B5
:104FE000E0917D03F0917E032E0F3F1F821B930BF8
:104FF000049744F480914F0390915003019711F06E
:105000000C94121970937C0360937B0350937E037E
:1050100040937D036BE472E037CD8B55924071F481
:105020002FEF40E060E090E080E00E949B0188E785
:1050300095E090935B0380935A03A5CF20E040E076
:105040006FEF90E080E00E949B01A0E4B6E0B09397
:105050005B03A0935A0397CF6BE472E08DE396E075
:105060000E945E0B882311F40C94121984E0809343
:105070007A0341E050E050937303409372030C9421
:1050800012198091700390917103892B11F00C9487
:105090001219143011F00C9412190E94BB080C94D0
:1050A000121910926703109266030C94411920E0C4
:1050B00040E06FEF90E080E00E949B0180916E03E2
:1050C00090916F0390935B0380935A0380916C03DC
:1050D00090916D0390935D0380935C0380916A03CC
:1050E00090916B0390935F0380935E0380916803BC
:1050F00090916903909361038093600388E795E042
:1051000090936303809362038091580390915903B5
:1051100090936503809364030C94E3140E94BB088E
:105120000C94E314CF93DF938091E1059091E20515
:10513000892BC1F0D0E0C0E0E091E105F091E205FB
:10514000EC0FFD1F80819181009711F00E94CE2EFF
:105150002296C032D10581F78091E1059091E20558
:105160000E94CE2E8091E3059091E405892BC1F039
:10517000D0E0C0E0E091E305F091E405EC0FFD1F05
:1051800080819181009711F00E94CE2E2296C0322C
:10519000D10581F78091E3059091E4050E94CE2E20
:1051A00080913006909131060E94CE2E80912D067E
:1051B00090912E0697FD03C060E00E94A8038DE346
:1051C00096E00E943A0B83E496E00E943A0B89E451
:1051D00096E00E943A0B8FE496E0DF91CF910C9419
:1051E0003A0B662777270C9456291F93FC019927C1
:1051F0008827BC01E89411911032E9F3193010F0BE
:105200001E30C8F31B3251F01D3249F4689406C0B9
:105210000E942729610F711D811D911D119110534D
:105220001A30B0F33EF490958095709561957F4F5C
:105230008F4F9F4F1F910895BB274A3031F4992318
:1052400022F4BDE2909581959F4F0C943D29592FF2
:10525000482F372F262F660F771F881F991F660F3D
:10526000771F881F991F620F731F841F951F660F7A
:10527000771F881F991F0895BB27FB015527AA2771
:10528000880F991FAA1FA41710F0A41B83955051D3
:10529000B9F7A05DAA3308F0A95DA193009779F74B
:1052A000B111B1931192CB010C94D52A8F929F9298
:1052B000AF92BF92CF92DF92EF92FF920F931F9324
:1052C000CF93DF935C017B016115710519F0DB0160
:1052D0008D939C9385010F5F1F4FF501D0818D2F1A
:1052E00090E00E94B42A6C01892BB9F5DD32B9F542
:1052F0000F5F1F4FD5011196DC91C1E05801F1E01D
:10530000AF1AB10843E050E062E771E0C5010E94C6
:10531000BD2A892B69F5680182E0C80ED11C45E0E1
:1053200050E06DE671E0C6010E94BD2A892B21F490
:10533000680197E0C90ED11CE114F10419F0D701FE
:10534000CD92DC9260E070E080E89FEFC111FFC079
:1053500060E070E080E89FE7FAC05801BBCFDB3225
:1053600029F485010E5F1F4FF501D181C0E0C6CF42
:1053700043E050E06AE671E0C5010E94BD2A892B36
:10538000E9F0F80110E000E020E030E0A9015F0161
:10539000B0ED8B2E8D0E89E08815C8F19C2E689497
:1053A00091F88C2F8870C2FF16C0811102C00F5F68
:1053B0001F4F3196D501DC91C92DE9CFE114F104DD
:1053C00029F00E5F1F4FF7011183008360E070E04A
:1053D00080EC9FE7BCC0882311F001501109A5E0C3
:1053E000B0E00E942B2C9B01AC01220F331F441F05
:1053F000551F280D311D411D511D283999E93907C7
:10540000490799E15907A8F2C6609C2ED2CFAEEFAA
:105410008A1206C0C3FD3CC09C2E689493F8C9CF85
:10542000DF7DD534A9F580818D3239F4C061DF018B
:105430001296818162E070E006C0DF018B32C1F319
:10544000119661E070E080535D01A61AB70A8A30B8
:10545000F8F4E0E8CE16ECE0DE065CF4B601660F88
:10546000771F660F771FC60ED71ECC0CDD1CC80E2B
:10547000D11C5D01FFEFAF1ABF0A8C9180538A30B7
:10548000A8F1C4FF03C0D194C194D1080C0D1D1D17
:10549000C1FF09C0E114F10431F081E0A81AB1089C
:1054A000D701AD92BC92CA01B9010E94EA2AC37029
:1054B000C33009F490584B015C0120E030E0A901B1
:1054C0000E94E52A882309F440C0C1EAD1E017FF11
:1054D00005C0119501951109C9E8D1E06E01B8E147
:1054E000CB1AD10880E2E82EF12C0FC0D501B1CF44
:1054F000FE0125913591459154910E191F09C50161
:10550000B4010E944B2B4B015C01D501C4010E1567
:105510001F0574F72497F594E794CC16DD06A9F7D8
:105520008A2F880F8B2F881F8F3F49F020E030E0B3
:10553000A901C501B4010E94E52A811106C082E2D9
:1055400090E09093560680935506C501B401DF9113
:10555000CF911F910F91FF90EF90DF90CF90BF9070
:10556000AF909F908F90089591110C94B82B80323A
:1055700019F089508550C8F70895FB01DC014150AE
:10558000504088F08D9181341CF08B350CF4805E96
:10559000659161341CF06B350CF4605E861B611103
:1055A00071F3990B0895881BFCCFDC01FC01672F78
:1055B00071917723E1F7329704C07C916D937083EA
:1055C0006291AE17BF07C8F308950E94272B08F415
:1055D00081E00895E89409C097FB3EF4909580958A
:1055E000709561957F4F8F4F9F4F9923A9F0F92FA9
:1055F00096E9BB279395F695879577956795B79527
:10560000F111F8CFFAF4BB0F11F460FF1BC06F5F0C
:105610007F4F8F4F9F4F16C0882311F096E911C01E
:10562000772321F09EE8872F762F05C0662371F03F
:1056300096E8862F70E060E02AF09A95660F771F53
:10564000881FDAF7880F9695879597F90895990F2F
:105650000008550FAA0BE0E8FEEF16161706E8073C
:10566000F907C0F012161306E407F50798F0621B5D
:10567000730B840B950B39F40A2661F0232B242B32
:10568000252B21F408950A2609F4A140A6958FEF51
:10569000811D811D08950E945E2B0C94D22B0E94C7
:1056A000C42B38F00E94CB2B20F0952311F00C94E2
:1056B000BB2B0C94C12B11240C94062C0E94E32BC1
:1056C00070F3959FC1F3950F50E0551F629FF00155
:1056D000729FBB27F00DB11D639FAA27F00DB11D6E
:1056E000AA1F649F6627B00DA11D661F829F2227F7
:1056F000B00DA11D621F739FB00DA11D621F839F7E
:10570000A00D611D221F749F3327A00D611D231F53
:10571000849F600D211D822F762F6A2F11249F57A1
:1057200050409AF0F1F088234AF0EE0FFF1FBB1FA4
:10573000661F771F881F91505040A9F79E3F510563
:1057400080F00C94BB2B0C94062C5F3FE4F3983E46
:10575000D4F3869577956795B795F795E7959F5F0D
:10576000C1F7FE2B880F911D9695879597F908959F
:1057700099278827089597F99F6780E870E060E08F
:1057800008959FEF80EC089500240A9416161706DA
:1057900018060906089500240A9412161306140622
:1057A00005060895092E0394000C11F4882352F085
:1057B000BB0F40F4BF2B11F460FF04C06F5F7F4F3D
:1057C0008F4F9F4F089557FD9058440F551F59F024
:1057D0005F3F71F04795880F97FB991F61F09F3FDE
:1057E00079F087950895121613061406551FF2CF07
:1057F0004695F1DF08C0161617061806991FF1CF57
:1058000086957105610508940895E894BB2766277D
:105810007727CB0197F90895052E97FB1EF4009486
:105820000E94232C57FD07D00E943E2C07FC03D07A
:105830004EF40C94232C50954095309521953F4F74
:105840004F4F5F4F089590958095709561957F4F6C
:105850008F4F9F4F08950E94602CA59F900DB49F7D
:10586000900DA49F800D911D11240895B7FF0C94F5
:105870002B2C0E942B2C821B930B0895A1E21A2E35
:10588000AA1BBB1BFD010DC0AA1FBB1FEE1FFF1FE4
:10589000A217B307E407F50720F0A21BB30BE40B34
:1058A000F50B661F771F881F991F1A9469F760957B
:1058B0007095809590959B01AC01BD01CF01089535
:1058C000A29FB001B39FC001A39F700D811D112441
:1058D000911DB29F700D811D1124911D0895505886
:1058E000BB27AA270E94872C0C94D22B0E94C42B82
:1058F00038F00E94CB2B20F039F49F3F19F426F4A6
:105900000C94C12B0EF4E095E7FB0C94BB2BE92F14
:105910000E94E32B58F3BA176207730784079507B1
:1059200020F079F4A6F50C94052C0EF4E0950B2EDE
:10593000BA2FA02D0B01B90190010C01CA01A001E1
:105940001124FF27591B99F0593F50F4503E68F13C
:105950001A16F040A22F232F342F4427585FF3CF7D
:10596000469537952795A795F0405395C9F77EF44E
:105970001F16BA0B620B730B840BBAF09150A1F097
:10598000FF0FBB1F661F771F881FC2F70EC0BA0F1D
:10599000621F731F841F48F4879577956795B795A5
:1059A000F7959E3F08F0B0CF9395880F08F09927A0
:1059B000EE0F9795879508950E948B2DE3950C9493
:1059C000B42D0E94F52C0C94D22B0E94CB2B58F0B6
:1059D0000E94C42B40F029F45F3F29F00C94BB2BAC
:1059E00051110C94062C0C94C12B0E94E32B68F3EC
:1059F0009923B1F3552391F3951B550BBB27AA2788
:105A000062177307840738F09F5F5F4F220F331FC1
:105A1000441FAA1FA9F335D00E2E3AF0E0E832D089
:105A200091505040E695001CCAF72BD0FE2F29D08C
:105A3000660F771F881FBB1F261737074807AB075E
:105A4000B0E809F0BB0B802DBF01FF2793585F4FD3
:105A50003AF09E3F510578F00C94BB2B0C94062C29
:105A60005F3FE4F3983ED4F3869577956795B795B5
:105A7000F7959F5FC9F7880F911D9695879597F9C0
:105A80000895E1E0660F771F881FBB1F6217730739
:105A90008407BA0720F0621B730B840BBA0BEE1F4E
:105AA00088F7E09508950E945A2D6894B1110C94DE
:105AB000062C08950E94EB2B88F09F5798F0B92F81
:105AC0009927B751B0F0E1F0660F771F881F991F33
:105AD0001AF0BA95C9F714C0B13091F00E94052CA4
